:020000040000FA
:1000000050EF29F0C96E120034EF1BF04DEC24F0D4
:10001000EAEC15F0FDD7120070EF20F0D9CFE5FF24
:10002000E1CFD9FF00C0E5FF01C0E5FF02C0E5FF59
:1000300003C0E5FF04C0E5FF05C0E5FF06C0E5FF1E
:1000400007C0E5FF08C0E5FF09C0E5FF0AC0E5FFFE
:100050000BC0E5FF0CC0E5FF0DC0E5FF0EC0E5FFDE
:100060000FC0E5FF10C0E5FF11C0E5FF12C0E5FFBE
:1000700013C0E5FF14C0E5FF15C0E5FF16C0E5FF9E
:1000800017C0E5FF18C0E5FF19C0E5FF1AC0E5FF7E
:100090001BC0E5FF1CC0E5FF1DC0E5FF1EC0E5FF5E
:1000A000020EDBCF00F0030EDBCF01F0040EDBCF3E
:1000B00002F0050EDBCF03F0060EDBCF04F0070ED7
:1000C000DBCF05F0080EDBCF06F0090EDBCF07F023
:1000D0000A0EDBCF08F0096A0A6A02C00DF00D5063
:1000E000800A0DE1025003010D6F01500C6F0050AA
:1000F0000B6F030E016E0B0E006E800E026E03C0BE
:10010000E9FF04C0F3FF0550E4EC29F00B6E0B503F
:10011000D8B4C4EF03F00B50250A02E0ABEF03F0B4
:100120000C6A0D6A0E6A0F6A106A0A0E116E126A64
:10013000136A146A200E156E1668176A2B0E186E55
:10014000032A02E3044A052A03C0E9FF04C0F3FFBF
:100150000550E4EC29F0196E250A13E11950E56EFB
:100160000250E56E0150E56E0050E56E56EC14F05D
:10017000040EE126094A0A2A032A02E3044A052A50
:10018000BED71950300A06E1300E156E032A02E37D
:10019000044A052A03C0E9FF04C0F3FF0550E4EC5C
:1001A00029F02D0A06E1010E146E032A02E3044A27
:1001B000052A03C0E9FF04C0F3FF0550E4EC29F071
:1001C000200A08E1010E176E200E186E032A02E3C2
:1001D000044A052A03C0E9FF04C0F3FF0550E4EC1C
:1001E00029F02B0A06E1010E176E032A02E3044AE6
:1001F000052A03C0E9FF04C0F3FF0550E4EC29F031
:10020000196E310E195C2BE33A0E195C28E203C01B
:1002100019F004C01AF005C01BF019C0E9FF1AC09C
:10022000F3FF1B50E4EC29F01C6E300E1C5C11E354
:100230003A0E1C5C0EE213500A0DF3CF1DF01C5059
:100240001D26D00E1D24136E192A02E31A4A1B2AFA
:10025000E4D719C003F01AC004F01BC005F003C0B6
:10026000E9FF04C0F3FF0550E4EC29F02E0A2DE16C
:10027000032A02E3044A052A166A03C019F004C0DF
:100280001AF005C01BF019C0E9FF1AC0F3FF1B509C
:10029000E4EC29F01C6E300E1C5C11E33A0E1C5C81
:1002A0000EE216500A0DF3CF1DF01C501D26D00E85
:1002B0001D24166E192A02E31A4A1B2AE4D719C014
:1002C00003F01AC004F01BC005F003C0E9FF04C02E
:1002D000F3FF0550E4EC29F0196E6C0A07E1010EFA
:1002E0000C6E032A02E3044A052A09D01950680A51
:1002F00006E1010E0E6E032A02E3044A052A03C03A
:10030000E9FF04C0F3FF0550E4EC29F0750A06E1AB
:10031000010E106E032A02E3044A052A03C0E9FF16
:1003200004C0F3FF0550E4EC29F0196E730A05E1EF
:10033000010E0D6E200E156E3FD01950780A03E1A4
:10034000100E116E39D01950580A05E1100E116EB9
:10035000010E126E31D01950630A02E1116A2CD0DD
:1003600019506F0A03E1080E116E26D01950660A63
:1003700003E1010E0F6E20D01950640A1DE01950E0
:10038000690A1AE0105005E0FF0E03260422052238
:1003900013D01950E56E0250E56E0150E56E005025
:1003A000E56E56EC14F0040EE126094A0A2A032AE7
:1003B00002E3044A052AA3D60D5021E00650030F9C
:1003C0000D6E000E0720196E000E08201A6E0DC06B
:1003D00006F019C007F01AC008F0FD0E0D26FF0E3A
:1003E00019221A220DC0E9FF19C0F3FF1A50C9ECF7
:1003F00027F00D6EF3CF19F0F4CF1AF0FDD00F50A7
:100400000DE0000E1A6E080E196E100E0D6E040E21
:100410000626000E072208221668EED016680C5039
:1004200023E00650040F0C6E000E07200F6E000E26
:1004300008201B6E0CC006F00FC007F01BC008F0B0
:10044000FC0E0C26FF0E0F221B220CC0E9FF0FC072
:10045000F3FF1B50BCEC26F00C6EF3CF0FF0F4CF83
:100460001BF0E9CF1CF067D00E502FE00650020FB2
:100470000E6E000E07201D6E000E08201E6E0EC0B0
:1004800006F01DC007F01EC008F0FE0E0E26FF0E7F
:100490001D221E220EC0E9FF1DC0F3FF1E50E8EC16
:1004A00028F00E6E0EC00CF00F6A1B6A1C6A115009
:1004B0000A0A03E11050D8B43ED00C500E6E0EC0A4
:1004C0000CF00F6A1B6A1C6A36D00650020F0E6EC3
:1004D000000E07201D6E000E08201E6E0EC006F0D6
:1004E0001DC007F01EC008F0FE0E0E26FF0E1D22D6
:1004F0001E220EC0E9FF1DC0F3FF1E50E8EC28F0DD
:100500000E6EF3CF1DF00EC00CF01DC00FF0E86AA8
:100510001DBEFF0E1B6E1C6E11500A0A02E1105028
:100520000AE00C500E6E0F501D6E0EC00CF01DC078
:100530000FF01B6A1C6A0F0E196E240E0D6E800ED2
:100540001A6E1150D8B440D0105013E01150E56E1F
:100550000F0EE56E240EE56E1C50E56E1B50E56E29
:100560000F50E56E0C50E56EF0EC0BF0070EE12637
:1005700012D01150E56E0F0EE56E240EE56E1C5084
:10058000E56E1B50E56E0F50E56E0C50E56E71EC9C
:100590001AF0070EE12617502FE00DC0E9FF19C031
:1005A000F3FF1A50E4EC29F02D0A26E0FF0E0D2689
:1005B00019221A2218C0E5FF0DC0E9FF19C0F3FF88
:1005C0001A50C2EC2AF018D00CC0E5FF0DC0E9FFAC
:1005D00019C0F3FF1A50C2EC2AF00D50010F0C6E37
:1005E000000E19200E6E000E1A20E56A0CC0E9FFFD
:1005F0000EC0F3FFC2EC2AF00DC00CF019C00EF0D3
:100600001AC00FF013C010F0105010E00CC0E9FF3A
:100610000EC0F3FF0F50E4EC29F0176E175006E000
:100620000C2A02E30E4A0F2A1006EED710C013F070
:1006300014501EE109C00CF00AC00EF010C00FF0FB
:100640000F5010E01550E56E0250E56E0150E56E5A
:100650000050E56E56EC14F0040EE1260C4A0E2A0A
:100660000F06EED70CC009F00EC00AF00FC013F051
:1006700016C00CF00DC00DF019C00EF01AC00FF02E
:1006800009C010F00AC015F00DC0E9FF0EC0F3FF5D
:100690000F50E4EC29F0166E1650D8B43ED00CC0C2
:1006A00016F0176A161E171E1650171005E00CC01C
:1006B00016F00C06165031E00DC0E9FF0EC0F3FF36
:1006C0000F50E4EC29F0116E125010E01150E56E5D
:1006D0008FEC28F0166EE652165004E0DF0E11146F
:1006E000166E02D011C016F016C011F01150E56E52
:1006F0000250E56E0150E56E0050E56E56EC14F0C8
:10070000040EE1260D2A02E30E4A0F2A104A152A8A
:100710001350D8B4B9D71306B7D710C009F015C015
:100720000AF014502BE010C00CF015C00DF013C0EF
:100730000EF00E501FE0200EE56E0250E56E0150E7
:10074000E56E0050E56E56EC14F0040EE1260C4AFE
:100750000D2A0E06EED70B50E56E0250E56E0150E5
:10076000E56E0050E56E56EC14F0040EE126094AE1
:100770000A2A04D00CC009F00DC00AF0032A02E3D3
:10078000044A052A7FEF00F00AC0F3FF0950E4CFC6
:100790001EF0E4CF1DF0E4CF1CF0E4CF1BF0E4CF5B
:1007A0001AF0E4CF19F0E4CF18F0E4CF17F0E4CF5B
:1007B00016F0E4CF15F0E4CF14F0E4CF13F0E4CF5B
:1007C00012F0E4CF11F0E4CF10F0E4CF0FF0E4CF5B
:1007D0000EF0E4CF0DF0E4CF0CF0E4CF0BF0E4CF5B
:1007E0000AF0E4CF09F0E4CF08F0E4CF07F0E4CF5B
:1007F00006F0E4CF05F0E4CF04F0E4CF03F0E4CF5B
:1008000002F0E4CF01F0E4CF00F0E4CFD9FF120012
:100810003C4E4F20464C4F41543E000000C0E5FF87
:1008200001C0E5FF02C0E5FF03C0E5FF04C0E5FF2E
:10083000D2EC24F0006E4C0A08E1D2EC24F0300A2D
:1008400002E08B8213D18B9211D10050520A03E146
:10085000B9EC23F00BD10050430A09E16CEC07F02E
:10086000016E015002E08B8201D18B92FFD00050CB
:100870004F0A19E1D2EC24F0006E016A0050300AF0
:1008800001E1012A0150D880E866D890026A023658
:10089000025004013F6F015003E139EC27F0E6D02C
:1008A00054EC18F0E3D00050500A0AE1D2EC24F0E6
:1008B000300A03E01AEC27F0D9D0FEEC27F0D6D0AE
:1008C0000050720A01E055D0D2EC24F0016ED00E37
:1008D0000124006E070E005CD8B0C8D0FA6AFB6A2B
:1008E0000034FA36E834FA36FC0BFA0FE56E080EDF
:1008F000FA22000EFB22E450F96E8BEF04F091EF28
:1009000004F097EF04F09DEF04F0A0EF04F0B4EFD3
:1009100004F036EF05F0010EE56E7CEC1EF0E652B9
:10092000A5D0050EE56E2AEC22F0E6529FD04C0EC3
:10093000E56EAEEC27F0E65299D013EC2AF096D093
:10094000000EE56A2FEC1EF0016EE6520150D8A4AD
:100950008DD0000EE56E1D0EE56E1A0EE56E32ECC2
:1009600021F0030EE12682D007EC2BF001EC2BF0F6
:100970007DD000504D0A01E04CD0420E0001E06FE6
:100980001F0EE16FE26BE36BE46BE56BE66BE76B0D
:10099000E86BE96BEA6BEB6BEC6BED6BEE6BEF6BA3
:1009A000F06BF16BF26BF36BF46BF56BF66BF76B53
:1009B000F86BF96BFA6BFB6BFC6BFD6BFE6BFF6B03
:1009C000016A0150026E022A022A036A02BE03680B
:1009D000E00E0226000E03220150E56E64EC29F0C1
:1009E000046EE65202C0E9FF03C0EAFF04C0EFFF55
:1009F000012A1D0E015CE5E3200EE56E800EE56E1A
:100A0000000EE56EE00EE56E67EC15F0040EE126D3
:100A10002DD00050410A2AE1420E0401246F200E1D
:100A2000256F266B276B286B296B2A6B2B6B2C6B26
:100A30002D6B2E6B2F6B306B316B326B336B346BDA
:100A4000800EE56E040EE56E260EE56E55EC09F09F
:100A5000030EE126110EE56E800EE56E040EE56EC6
:100A6000240EE56E67EC15F0040EE126E4CF04F0E9
:100A7000E4CF03F0E4CF02F0E4CF01F0E4CF00F0E4
:100A8000120000C0E5FF01C0E5FF02C0E5FF03C0A2
:100A9000E5FF04017751D8B40CD19DA81DD09EA8C4
:100AA0001BD003011E5103011B1905E13FEC2AF085
:100AB00003011B6BFED0000E03011E25006E016AB0
:100AC0000F0E012200C0E9FF01C0EAFFEFCF17F3CC
:100AD0001E2B17C3ADFFEDD09DAAEBD09EAAE9D087
:100AE000ABA205D003011C813FEC2AF0E2D0ABA4FD
:100AF00005D003011C833FEC2AF0DBD0ABA048D02B
:100B0000AECF17F378C400F0016A008E17C302F06D
:100B1000036A0250001803E10350011801E004D0F9
:100B200003011C89AB96C5D00301175104E017518E
:100B30000401781929E103011C99AB9603011751AF
:100B400003E003011C9702D003011C8717C320F3A5
:100B500019C321F303011951006E00040301226F30
:100B6000600E03012125006E016A000E012200C003
:100B7000E9FF01C0EAFF17C3EFFF212B2151800AD3
:100B800002E10301216B95D003011C99AB8691D042
:100B9000AECF17F303011CA921D078C400F0016A7D
:100BA000008E17C302F0036A0250001803E10350DD
:100BB000011801E011D09D9AAB98949003011B514C
:100BC00004E1AD6A3FEC2AF007D000CFADFF010E83
:100BD00003011E6F9D886DD0AB866BD0030117514A
:100BE0000301202703012151030122191BE1030105
:100BF00020510CE121C319F303011CB712D09D9AB7
:100C0000AB989490AD6A3FEC2AF00BD003011C85A1
:100C10001CB707D09D9AAB989490010EAD6E3FEC37
:100C20002AF047D00301215103011A1908E10301F9
:100C30001A510301191903E03FEC2AF03AD019C305
:100C400000F0016A004A012AE56A800EE56E015053
:100C5000E56E0050E56E31EC19F0006E040EE126F1
:100C600000500301186F030121190FE117C300F0B1
:100C70001F0E00140301226F006E020E0024226F6B
:100C80000301195103012227229F21C300F0030110
:100C9000212B016A600E0026000E012200C0E9FF30
:100CA00001C0EAFF17C3EFFF2151800A02E10301EF
:100CB000216BE4CF03F0E4CF02F0E4CF01F0E4CF06
:100CC00000F01200D9CFE5FFE1CFD9FF00C0E5FF6A
:100CD00001C0E5FF02C0E5FF03C0E5FF04C0E5FF7A
:100CE00005C0E5FF06C0E5FF07C0E5FF020EDBCF4C
:100CF00000F0030EDBCF01F0040EDBCF02F0050E97
:100D0000DBCF03F0060EDBCF04F0070EDBCF05F0E0
:100D1000080EDBCF06F0090EDBCF07F000500F0105
:100D2000346F0150356F0250366F0350376F0450E7
:100D30000401F66F0550F76F0650F86F0750F96F12
:100D40000F0134510401F803F4CF01F0F3CF00F0A8
:100D500000500401FC6F0150FD6F0F01345104017C
:100D6000F603F4CF01F0F3CF00F000500401FA6F66
:100D70000150FB6F0F0137510401F603F3CF00F070
:100D80000401FD5100260050FD6F0F013651040192
:100D9000F703F3CF01F00150002600500401FD6F6E
:100DA0000F0136510401F603F4CF01F0F3CF00F048
:100DB0000401FC510026FD5101220050FC6F01503E
:100DC000FD6F0F0135510401F703F4CF03F0F3CFAA
:100DD00002F0025000260350012200500401FC6F73
:100DE0000150FD6F0F0135510401F803F3CF00F0FE
:100DF00000500301036F0F0135510401F603F4CFD6
:100E000001F0F3CF00F000500301016F0150026FB9
:100E10000F0134510401F903F3CF00F00050030136
:100E2000076F0F0134510401F703F4CF01F0F3CF42
:100E300000F000500301056F0150066F0301006BC5
:100E40000301046B030100510401FA25006E030144
:100E500001510401FB21016E030102510401FC2137
:100E6000026E030103510401FD21036E0050FA6F6D
:100E70000150FB6F0250FC6F0350FD6F03010451E2
:100E80000401FA25006E030105510401FB21016EE6
:100E9000030106510401FC21026E03010751040104
:100EA000FD21036E03C0E9FF02C0F4FF01C0F3FFA0
:100EB0000050E4CF07F0E4CF06F0E4CF05F0E4CF34
:100EC00004F0E4CF03F0E4CF02F0E4CF01F0E4CF8C
:100ED00000F0E4CFD9FF120000C0E5FF01C0E5FF3C
:100EE00002C0E5FF03C0E5FF04C0E5FFA8EC24F065
:100EF000006EF3CF01F0F4CF02F0E9CF03F004016C
:100F00006D51005E6E51015A6F51025A7051035A71
:100F1000039E3F0E035C08E1FF0E025C05E1FF0E3D
:100F2000015C02E1FF0E005C02E20401716B54EC13
:100F300018F0020EE56EE56A800EE56E040EE56EB1
:100F40003A0EE56E02EC0EF0050EE126800EE56E1F
:100F5000040EE56E3A0EE56EEBEC1FF0030EE12693
:100F6000320E0401B66F640EB76F960EB86FC80EDE
:100F7000B96FE56A040EE56E800EE56E040EE56E4F
:100F8000B60EE56EE2EC14F0006E050EE1260050A0
:100F900034E1800EE56E030EE56E130EE56E800EF5
:100FA000E56E030EE56E120EE56E800EE56E030E25
:100FB000E56E110EE56E69EC17F0090EE12613C31C
:100FC00000F012C302F011C304F0E56A0050E56EB0
:100FD000E56A0250E56EE56A0450E56E000EE56EC6
:100FE0001D0EE56E220EE56E32EC21F0090EE126B3
:100FF000C3EC18F0040171515BD0C3EC18F0010E82
:101000000401716FA8EC24F0F3CF01F0F4CF02F0EB
:10101000E9CF03F0080F04016D6FC20E01206E6F5F
:101020000A0E02206F6F000E0320706F04EC2AF08E
:10103000006E005003E1040171513AD012EC26F029
:1010400003010F6F010E0F5D03E20401715130D0F7
:10105000200EE56E800EE56E040EE56E440EE56E24
:101060004EEC23F0040EE12603010F51006E002A1E
:10107000002A016A00BE0168420E0026040E012209
:1010800000C0E9FF01C0EAFF0A0EEF6E0F51036EC8
:10109000030E03260350E56E800EE56E040EE56E2A
:1010A000420EE56E67EC15F0040EE1260401715165
:1010B000E4CF04F0E4CF03F0E4CF02F0E4CF01F09A
:1010C000E4CF00F01200D9CFE5FFE1CFD9FF00C097
:1010D000E5FF01C0E5FF02C0E5FF03C0E5FF04C076
:1010E000E5FF05C0E5FF06C0E5FF07C0E5FF08C056
:1010F000E5FF09C0E5FF0AC0E5FF020EDBCF00F007
:10110000030EDBCF01F0040EDBCF02F0050EDBCFC8
:1011100003F000501BE10350096E0250086E0150AD
:10112000076E29C30AF0E56A0A50E56E0950E56EBC
:101130000850E56E0750E56E800EE56E040EE56E14
:101140007B0EE56E6CEC16F0080EE126070E005CD7
:10115000D8B092D0020E005C22E2A00E0024046EF1
:10116000056A550E0522066A000E062204C0F6FF27
:1011700005C0F7FF06C0F8FF0900F5CF04F0030132
:101180002951E56E0350E56E0250E56E0150E56EA3
:101190000450E56E9CEC1CF0050EE12620D0A00E5C
:1011A0000024046E056A550E0522066A000E06220A
:1011B00004C0F6FF05C0F7FF06C0F8FF0900F5CF31
:1011C00004F0010EE56E0350E56E0250E56E01502D
:1011D000E56E0450E56E9CEC1CF0050EE126A60EB3
:1011E0000024016E026A550E0222036A000E0322D9
:1011F00001C0F6FF02C0F7FF03C0F8FF0900F5CFFA
:1012000001F003012751E56E0150E56E76EC25F003
:10121000E652E652020EE56E9CEC26F0016EE652B6
:10122000026A036A9A0E0026550E0222000E03225D
:1012300000C0F6FF02C0F7FF03C0F8FF0900F5CFBA
:1012400000F0010E026E00500DE006E6E86CD8904A
:101250000236010FFDE306D0D89002BED8800232DC
:10126000010FFBE3015002120250E56E020EE56E23
:1012700076EC25F0E652E652E4CF0AF0E4CF09F02E
:10128000E4CF08F0E4CF07F0E4CF06F0E4CF05F0B8
:10129000E4CF04F0E4CF03F0E4CF02F0E4CF01F0B8
:1012A000E4CF00F0E4CFD9FF1200D9CFE5FFE1CFC2
:1012B000D9FF00C0E5FF01C0E5FF02C0E5FF03C0A4
:1012C000E5FF04C0E5FF05C0E5FF06C0E5FF020E2F
:1012D000DBCF00F0030EDBCF01F0040EDBCF02F01A
:1012E000A00EF66E550EF76E000EF86E0900F5CFE3
:1012F00003F0050EE56E0250E56E0150E56E0050FC
:10130000E56E0350E56E48EC1CF0050EE126A10EDB
:10131000F66E550EF76E000EF86E0900F5CF03F06D
:101320000050050F046E000E0120056E000E022015
:10133000066E050EE56E0650E56E0550E56E04502E
:10134000E56E0350E56E48EC1CF0050EE126A20E9A
:10135000F66E550EF76E000EF86E0900F5CF03F02D
:1013600000500A0F046E000E0120056E000E0220D0
:10137000066E010EE56E0650E56E0550E56E0450F2
:10138000E56E0350E56E48EC1CF0050EE126A30E59
:10139000F66E550EF76E000EF86E0900F5CF03F0ED
:1013A00000500B0F046E000E0120056E000E02208F
:1013B000066E010EE56E0650E56E0550E56E0450B2
:1013C000E56E0350E56E48EC1CF0050EE126A40E18
:1013D000F66E550EF76E000EF86E0900F5CF03F0AD
:1013E00000500C0F046E000E0120056E000E02204E
:1013F000066E010EE56E0650E56E0550E56E045072
:10140000E56E0350E56E48EC1CF0050EE126A50ED6
:10141000F66E550EF76E000EF86E0900F5CF03F06C
:101420000D0E0026000E01220222010EE56E025072
:10143000E56E0150E56E0050E56E0350E56E48EC38
:101440001CF0050EE126E4CF06F0E4CF05F0E4CF72
:1014500004F0E4CF03F0E4CF02F0E4CF01F0E4CFF6
:1014600000F0E4CFD9FF1200D9CFE5FFE1CFD9FFDB
:1014700000C0E5FF01C0E5FF02C0E5FF03C0E5FFD6
:1014800004C0E5FF05C0E5FF06C0E5FF07C0E5FFB6
:1014900008C0E5FF09C0E5FF0AC0E5FF0BC0E5FF96
:1014A0000CC0E5FF0DC0E5FF0EC0E5FF0FC0E5FF76
:1014B000020EDBCF00F0030EDBCF01F0040EDBCF1A
:1014C00002F0050EDBCF03F0060EDBCF04F0045074
:1014D00007E054EC18F0010EE56E8AEC29F0E652B4
:1014E000DBEC22F0046EF3CF05F0F4CF06F0E9CF89
:1014F00007F000505F0F086E000E0120096E000E0D
:1015000002200A6E000E03200B6E170EE56E9CEC97
:1015100026F00C6EE6520CB85DD0FBEC2AF00C6E97
:101520000CA838D0100EE56E070EE56E76EC25F0AF
:10153000E652E652000EE56A8AEC29F0E652010E08
:10154000E56E8AEC29F0E652DBEC22F00C6EF3CF6C
:101550000DF0F4CF0EF0E9CF0FF004500C5E055003
:101560000D5A06500E5A07500F5A03500F5C08E1EF
:1015700002500E5C05E101500D5C02E100500C5C74
:1015800009E3000EE56A8AEC29F0E65201EC2BF043
:10159000E86A26D0DBEC22F00C6EF3CF0DF0F4CF2E
:1015A0000EF0E9CF0FF004500C5E05500D5A0650B6
:1015B0000E5A07500F5A0F500B5C08E10E500A5C90
:1015C00005E10D50095C02E10C50085CD8B09DD7D4
:1015D000E86A06D0000EE56A8AEC29F0E652010EB0
:1015E000E4CF0FF0E4CF0EF0E4CF0DF0E4CF0CF039
:1015F000E4CF0BF0E4CF0AF0E4CF09F0E4CF08F039
:10160000E4CF07F0E4CF06F0E4CF05F0E4CF04F038
:10161000E4CF03F0E4CF02F0E4CF01F0E4CF00F038
:10162000E4CFD9FF1200D9CFE5FFE1CFD9FF00C049
:10163000E5FF01C0E5FF02C0E5FF03C0E5FF04C010
:10164000E5FF05C0E5FF06C0E5FF07C0E5FF08C0F0
:10165000E5FF09C0E5FF0AC0E5FF0BC0E5FF0CC0D0
:10166000E5FF0DC0E5FF0EC0E5FF0FC0E5FF10C0B0
:10167000E5FF11C0E5FF12C0E5FF13C0E5FF020E54
:10168000DBCF00F0030EDBCF01F0040EDBCF02F066
:10169000050EDBCF03F0060EDBCF04F0070EDBCF29
:1016A00005F0080EDBCF06F0090EDBCF07F0DBEC10
:1016B00022F0086EF3CF09F0F4CF0AF0E9CF0BF077
:1016C00004505F0F0C6E000E05200D6E000E0620FC
:1016D0000E6E000E07200F6EFBEC2AF0106E10A0AD
:1016E00046D0FBEC2AF0106E10A821D048EC28F070
:1016F000DBEC22F0106EF3CF11F0F4CF12F0E9CF53
:1017000013F00850105E0950115A0A50125A0B502B
:10171000135A1350075C08E11250065C05E11150A2
:10172000055C02E11050045C02E2E86A2ED0DBECBA
:1017300022F0106EF3CF11F0F4CF12F0E9CF13F0D6
:101740000850105E0950115A0A50125A0B50135A81
:1017500013500F5C08E112500E5C05E111500D5C56
:1017600002E110500C5CD8B0B7D7E86A0ED0E56A39
:101770000350E56E0250E56E0150E56E0050E56ED7
:1017800063EC1FF0050EE126010EE4CF13F0E4CF69
:1017900012F0E4CF11F0E4CF10F0E4CF0FF0E4CF7B
:1017A0000EF0E4CF0DF0E4CF0CF0E4CF0BF0E4CF7B
:1017B0000AF0E4CF09F0E4CF08F0E4CF07F0E4CF7B
:1017C00006F0E4CF05F0E4CF04F0E4CF03F0E4CF7B
:1017D00002F0E4CF01F0E4CF00F0E4CFD9FF120033
:1017E000D9CFE5FFE1CFD9FF00C0E5FF01C0E5FF9C
:1017F00002C0E5FF03C0E5FF04C0E5FF05C0E5FF4B
:1018000006C0E5FF07C0E5FF08C0E5FF09C0E5FF2A
:101810000AC0E5FF0BC0E5FF0CC0E5FF0DC0E5FF0A
:101820000EC0E5FF0FC0E5FF020EDBCF00F0030E98
:10183000DBCF01F0040EDBCF02F0050EDBCF03F0AF
:10184000060EDBCF04F0070EDBCF05F0080EDBCF72
:1018500006F0200E076E086A06C009F00A6A0B6AD5
:101860000C6AE56AE56AE56A0950E56E0350E56EC3
:101870000250E56E0150E56E0050E56ECCEC0CF0C8
:101880000D6E080EE126300E0D263A0E0D5C05E3B6
:101890000D500E6E270E0E240D6EFF0E0726082229
:1018A000D60E07240E6E040E08200F6E0EC0E9FF40
:1018B0000FC0EAFF0DC0EFFF0C50E56E0B50E56E58
:1018C0000A50E56E0950E56E0350E56E0250E56E74
:1018D0000150E56E0050E56EACEC12F0006EF3CFF7
:1018E00001F0F4CF02F0E9CF03F0080EE12600503A
:1018F000011002100310D8A4AFD707C000F008C031
:1019000001F004C002F005C003F000C004F001C003
:1019100005F0004A012AD60E0426040E052204C052
:10192000E9FF05C0EAFFEFCF04F002C0E9FF03C002
:10193000EAFF04C0EFFF024A032A000E015C02E145
:10194000200E005CE2E302C0E9FF03C0EAFF000EE4
:10195000EF6AE4CF0FF0E4CF0EF0E4CF0DF0E4CF68
:101960000CF0E4CF0BF0E4CF0AF0E4CF09F0E4CFC1
:1019700008F0E4CF07F0E4CF06F0E4CF05F0E4CFC1
:1019800004F0E4CF03F0E4CF02F0E4CF01F0E4CFC1
:1019900000F0E4CFD9FF1200D9CFE5FFE1CFD9FFA6
:1019A00000C0E5FF01C0E5FF02C0E5FF03C0E5FFA1
:1019B00004C0E5FF05C0E5FF06C0E5FF07C0E5FF81
:1019C00008C0E5FF09C0E5FF0AC0E5FF020EDBCF56
:1019D00000F0030EDBCF01F0040EDBCF02F0050EAA
:1019E000DBCF03F0060EDBCF04F0070EDBCF05F0F4
:1019F000080EDBCF06F0090EDBCF07F0086A0450B3
:101A000005100610071005E1E968F468F368E86856
:101A100047D0096A0750800BE8440A6E0A501BE160
:101A2000045004260536063607360750035C08E1E5
:101A30000650025C05E10550015C02E10450005CC7
:101A400006E2D890073206320532043204D0092A61
:101A500009C008F0DFD70750035C08E10650025CBC
:101A600005E10550015C02E10450005C08E304500C
:101A7000005E0550015A0650025A0750035AD8908A
:101A8000073206320532043208C009F00806095050
:101A9000E2E103C0E9FF02C0F4FF01C0F3FF005020
:101AA000E4CF0AF0E4CF09F0E4CF08F0E4CF07F088
:101AB000E4CF06F0E4CF05F0E4CF04F0E4CF03F088
:101AC000E4CF02F0E4CF01F0E4CF00F0E4CFD9FF9F
:101AD000120000C0E5FF0301266B200E0301276FF3
:101AE0000301286B050E0301296F04018E6F8F6BB4
:101AF000906B916B04017B6B000EE56A8AEC29F018
:101B0000E652010EE56E92EC27F0E6529398939A16
:101B1000000EE56A8AEC29F0E652010EE56E92ECC1
:101B200027F0E652C9EC1EF0E56AE56AE56A050EA3
:101B3000E56EF1EC10F0040EE1260C0EE56E000EE1
:101B4000E56A76EC25F0E652E652E56A020EE56EAD
:101B500076EC25F0E652E6520F0EE56E050EE56EC8
:101B6000FCEC24F0E652E6520E0EE56E060EE56E33
:101B700076EC25F0E652E652020EE56E2FEC1EF0F2
:101B8000006EE652005003E0010E0301266F000EC6
:101B9000E56A2FEC1EF0E652E56A1D0EE56E76EC66
:101BA00025F0E652E652E56A1C0EE56E76EC25F06D
:101BB000E652E6520301286B700EE56E070EE56EE5
:101BC00076EC25F0E652E6524C0EE56EAEEC27F0D0
:101BD000E65207EC2BF001EC2BF01AEC27F0000E8C
:101BE000E56A9CEC26F0006EE65200900050E56E2F
:101BF000000EE56A76EC25F0E652E652E86AE4CF9C
:101C000000F01200D9CFE5FFE1CFD9FF00C0E5FF1A
:101C100001C0E5FF02C0E5FF03C0E5FF04C0E5FF2A
:101C200005C0E5FF020EDBCF00F0030EDBCF01F0B5
:101C3000040EDBCF02F0050EDBCF03F0060EDBCF88
:101C400004F00338F00B056E0450052605C0E5FFCF
:101C500000C0E9FF01C0F3FF0250C2EC2AF00050BF
:101C6000010F036E000E0120046E000E0220056EAF
:101C70000A0EE56E03C0E9FF04C0F3FF0550C2EC95
:101C80002AF00050020F036E000E0120046E000EB9
:101C90000220056E990EE56E03C0E9FF04C0F3FF54
:101CA0000550C2EC2AF00050030F036E000E012015
:101CB000046E000E0220056E980EE56E03C0E9FF6B
:101CC00004C0F3FF0550C2EC2AF0040E0026000EFB
:101CD00001220222970EE56E00C0E9FF01C0F3FF6A
:101CE0000250C2EC2AF0E4CF05F0E4CF04F0E4CFD8
:101CF00003F0E4CF02F0E4CF01F0E4CF00F0E4CF52
:101D0000D9FF12004320696E697452460A0043529B
:101D100020432025642025640A0043206572720A4E
:101D2000000043522065727220256420256420251E
:101D3000640A000000C0E5FF01C0E5FF02C0E5FF46
:101D400003C0E5FF04C0E5FF03011A51030119199F
:101D500001E16AD01AC300F00050016E0128006E44
:101D6000009E600E0024016E026A000E022201C075
:101D7000E9FF02C0EAFFEFCF24F31F0E030124178F
:101D80001AC323F32451030123272351016E020EAA
:101D90000124236F239FD2EC24F0016E015003E154
:101DA000016A012A01D0016AD2EC24F00301246FF8
:101DB00024C302F0800E021624C303F01F0E031684
:101DC00003C004F003C024F3045003E119C31AF361
:101DD0003ED001501EE0025025E0D2EC24F0006E0F
:101DE00003012451016E0104246F0050420A1AE0DD
:101DF00000504E0A03E12EEC20F014D00050460AA9
:101E000003E1B7EC2AF00ED00050490A0BE1FF00C5
:101E100009D01AC325F3025003E00EEC04F002D0FF
:101E200025EC2BF023C31AF3040174510401751936
:101E300006E003011B5103E1C7EC0FF008D094B09A
:101E400006D003011B5103E1ACB23FEC2AF0E4CF12
:101E500004F0E4CF03F0E4CF02F0E4CF01F0E4CFEC
:101E600000F01200D9CFE5FFE1CFD9FF00C0E5FFB8
:101E700001C0E5FF02C0E5FF03C0E5FF04C0E5FFC8
:101E800005C0E5FF06C0E5FF07C0E5FF020EDBCF9A
:101E900000F0030EDBCF01F0040EDBCF02F0050EE5
:101EA000DBCF03F0A8EC24F0046EF3CF05F0F4CF01
:101EB00006F0E9CF07F00350E56E0250E56E0150E1
:101EC000E56E0050E56EE56A0F0EE56E420EE56EBA
:101ED000400EE56E62EC06F0006EF3CF01F0F4CF39
:101EE00002F0E9CF03F0080EE126E56AE56A030E89
:101EF000E56EE80EE56E0350E56E0250E56E0150AA
:101F0000E56E0050E56EACEC12F0006EF3CF01F020
:101F1000F4CF02F0E9CF03F0080EE12604500026CA
:101F2000055001220650022207500322A8EC24F09B
:101F3000046EF3CF05F0F4CF06F0E9CF07F00050C0
:101F4000045E0150055A0250065A0350075A079E74
:101F50003F0E075C08E1FF0E065C05E1FF0E055C25
:101F600002E1FF0E045CE2E2E4CF07F0E4CF06F00A
:101F7000E4CF05F0E4CF04F0E4CF03F0E4CF02F0C7
:101F8000E4CF01F0E4CF00F0E4CFD9FF120000C0AD
:101F9000E5FF01C0E5FF02C0E5FF03C0E5FF04C0A7
:101FA000E5FFACA27ED0DCEC26F0006E005005E12F
:101FB0000401756B0401746B74D075C401F000509A
:101FC0000126DCEC26F0026E0050036E0304006E66
:101FD0000250230A1FE1010E005CD8A060D0DCECA7
:101FE00026F0026E690A03E11CEC24F058D002507E
:101FF000720A03E13FEC2AF052D00250730A01E06A
:102000004ED09480AB869D8A9D98AE50AE50AB98D2
:10201000AB8845D00250430A05E00250420A01E075
:102020003ED006D000C003F0046A038E0350006E59
:1020300000C01DF300500F01006F010E03011E6F61
:1020400004017551011814E0DCEC26F0026E030166
:102050001D27000E03011E25006E036A0F0E0322CA
:1020600000C0E9FF03C0EAFF02C0EFFF1E2BE8D764
:10207000000E03011E25006E026A0F0E02220301EC
:102080001D1D036E032A00C0E9FF02C0EAFF03C062
:10209000EFFF03011E2B1EC31BF30301156B01C0D1
:1020A00075F4E4CF04F0E4CF03F0E4CF02F0E4CF22
:1020B00001F0E4CF00F01200D9CFE5FFE1CFD9FF66
:1020C00000C0E5FF01C0E5FF02C0E5FF03C0E5FF7A
:1020D00004C0E5FF05C0E5FF06C0E5FF07C0E5FF5A
:1020E00008C0E5FF09C0E5FF0AC0E5FF0BC0E5FF3A
:1020F0000CC0E5FF020EDBCF00F0030EDBCF01F0DA
:10210000040EDBCF02F0050EDBCF03F0060EDBCFB3
:1021100004F0DBEC22F0056EF3CF06F0F4CF07F00D
:10212000E9CF08F0FBEC2AF0096E09A02ED0FBECF9
:102130002AF0096E09A80AD0100EE56E070EE56EAA
:1021400076EC25F0E652E652E86A2ED0DBEC22F07F
:10215000096EF3CF0AF0F4CF0BF0E9CF0CF0055085
:10216000095E06500A5A07500B5A08500C5A000EC6
:102170000C5C08E1000E0B5C05E1000E0A5C02E15C
:10218000600E095CCFE3E86A0FD00450E56E03509F
:10219000E56E0250E56E0150E56E0050E56E63ECB1
:1021A0001FF0050EE126010EE4CF0CF0E4CF0BF09A
:1021B000E4CF0AF0E4CF09F0E4CF08F0E4CF07F071
:1021C000E4CF06F0E4CF05F0E4CF04F0E4CF03F071
:1021D000E4CF02F0E4CF01F0E4CF00F0E4CFD9FF88
:1021E0001200D9CFE5FFE1CFD9FF00C0E5FF01C064
:1021F000E5FF02C0E5FF03C0E5FF04C0E5FF05C041
:10220000E5FF06C0E5FF07C0E5FF020EDBCF00F0EB
:10221000030EDBCF01F0040EDBCF02F0050EDBCFA7
:1022200003F0A8EC24F0046EF3CF05F0F4CF06F031
:10223000E9CF07F00350E56E0250E56E0150E56E00
:102240000050E56EE56A0F0EE56E420EE56E400E3B
:10225000E56E62EC06F0006EF3CF01F0F4CF02F011
:10226000E9CF03F0080EE126E56AE56A030EE56EA4
:10227000E80EE56E0350E56E0250E56E0150E56E26
:102280000050E56EACEC12F0006EF3CF01F0F4CF2D
:1022900002F0E9CF03F0080EE126045000260550B5
:1022A00001220650022207500322A8EC24F0046EFB
:1022B000F3CF05F0F4CF06F0E9CF07F00050045E4D
:1022C0000150055A0250065A0350075A079E3F0E06
:1022D000075C08E1FF0E065C05E1FF0E055C02E10C
:1022E000FF0E045CE2E2E4CF07F0E4CF06F0E4CFB7
:1022F00005F0E4CF04F0E4CF03F0E4CF02F0E4CF44
:1023000001F0E4CF00F0E4CFD9FF1200D9CFE5FF10
:10231000E1CFD9FF00C0E5FF01C0E5FF02C0E5FF46
:1023200003C0E5FF04C0E5FF05C0E5FF06C0E5FF0B
:1023300007C0E5FF020EDBCF00F0030EDBCF01F09C
:10234000040EDBCF02F0050EDBCF03F0A8EC24F087
:10235000046EF3CF05F0F4CF06F0E9CF07F0035099
:10236000E56E0250E56E0150E56E0050E56EE56ADF
:10237000E56A030EE56EE80EE56E62EC06F0006EAF
:10238000F3CF01F0F4CF02F0E9CF03F0080EE1261D
:10239000E56AE56A030EE56EE80EE56E0350E56E4C
:1023A0000250E56E0150E56E0050E56EACEC12F0A7
:1023B000006EF3CF01F0F4CF02F0E9CF03F0080E86
:1023C000E126045000260550012206500222075043
:1023D0000322A8EC24F0046EF3CF05F0F4CF06F04E
:1023E000E9CF07F00050045E0150055A0250065A2A
:1023F0000350075A079E3F0E075C08E1FF0E065C7C
:1024000005E1FF0E055C02E1FF0E045CE2E2E4CFB1
:1024100007F0E4CF06F0E4CF05F0E4CF04F0E4CF1A
:1024200003F0E4CF02F0E4CF01F0E4CF00F0E4CF1A
:10243000D9FF120000C0E5FF01C0E5FF02C0E5FFC3
:1024400003C0E5FFA8EC24F0006EF3CF01F0F4CF59
:1024500002F0E9CF03F004016651005E6751015AB2
:102460006851025A6951035A039E3F0E035C08E10A
:10247000FF0E025C05E1FF0E015C02E1FF0E005C55
:1024800002E204016A6B800EE56E030EE56E100E2B
:10249000E56EF2EC20F0006E030EE126005003E141
:1024A00004016A5150D012EC26F0006E010E005C5F
:1024B00003E204016A5147D0030110510401446F43
:1024C000200EE56E800EE56E040EE56E450EE56E9F
:1024D0004EEC23F0040EE126030E0024016E026A86
:1024E00001BE0268420E0126040E022201C0E9FF6D
:1024F00002C0EAFF0A0EEF6E040E00260050E56EE1
:10250000800EE56E040EE56E420EE56E67EC15F08A
:10251000040EE126010E04016A6FA8EC24F0F3CF4B
:1025200001F0F4CF02F0E9CF03F0080F0401666F69
:10253000C20E0120676F0A0E0220686F000E032092
:10254000696F04016A51E4CF03F0E4CF02F0E4CFF5
:1025500001F0E4CF00F01200D9CFE5FFE1CFD9FFC1
:1025600000C0E5FF01C0E5FF02C0E5FF03C0E5FFD5
:1025700004C0E5FF05C0E5FF06C0E5FF07C0E5FFB5
:1025800008C0E5FF09C0E5FF0AC0E5FF0BC0E5FF95
:102590000CC0E5FF0DC0E5FF020EDBCF00F0030E1F
:1025A000DBCF01F0040EDBCF02F0050EDBCF03F032
:1025B000060EDBCF04F0070EDBCF05F0080EDBCFF5
:1025C00006F0090EDBCF07F0086A096A0A6A0B6A8F
:1025D000200E0C6E0350800BE8440D6E0050002658
:1025E0000136023603360850082609360A360B36FD
:1025F0000D50D8A4088007500B5C08E106500A5C17
:1026000005E10550095C02E10450085C09E304504F
:10261000085E0550095A06500A5A07500B5A0080A6
:102620000C040D6E0DC00CF00D50D4E103C0E9FF99
:1026300002C0F4FF01C0F3FF0050E4CF0DF0E4CF7F
:102640000CF0E4CF0BF0E4CF0AF0E4CF09F0E4CFD4
:1026500008F0E4CF07F0E4CF06F0E4CF05F0E4CFD4
:1026600004F0E4CF03F0E4CF02F0E4CF01F0E4CFD4
:1026700000F0E4CFD9FF120000C0E5FF01C0E5FF84
:1026800003C0E5FF04C0E5FF05C0E5FF06C0E5FFA8
:1026900007C0E5FF08C0E5FF09C0E5FF0AC0E5FF88
:1026A0000BC0E5FFFEC400F0FFC401F00401FE3FD3
:1026B00001D0FF2B0050E56E31EC2AF0E652076E98
:1026C000046A056A066AFEC400F0FFC401F0040152
:1026D000FE3F01D0FF2B0050E56E31EC2AF0E652B0
:1026E0000B6A0A6E086A0850041205120A50061294
:1026F0000B500712FEC400F0FFC401F00401FE3FBE
:1027000001D0FF2B0050E56E31EC2AF0E652036E4B
:10271000006A03C001F0E86A03BEFF0E086E096E8E
:1027200000500412015005120850061209500712F9
:10273000FEC400F0FFC401F00401FE3F01D0FF2BF6
:102740000050E56E31EC2AF0E652016A04120150A5
:1027500005120612071207C0E9FF06C0F4FF05C004
:10276000F3FF0450E4CF0BF0E4CF0AF0E4CF09F01C
:10277000E4CF08F0E4CF07F0E4CF06F0E4CF05F0B3
:10278000E4CF04F0E4CF03F0E4CF01F0E4CF00F0B5
:102790001200D9CFE5FFE1CFD9FF00C0E5FF01C0AE
:1027A000E5FF02C0E5FF03C0E5FF04C0E5FF05C08B
:1027B000E5FF06C0E5FF07C0E5FF020EDBCF00F036
:1027C000030EDBCF01F0040EDBCF02F0050EDBCFF2
:1027D00003F003C004F0056A0350D8B454D000C01D
:1027E000E9FF01C0F3FF0250E4EC29F0066E430A52
:1027F00008E1010E056E03C006F0076A068E06505A
:10280000036E0406002A02E3014A022A9D9AAB984D
:1028100094909D989EA8FED7AC80AD6A00009EA8BB
:10282000FED7AC9003C0ADFF00009EA8FED70550B8
:1028300004E0420EAD6E032604D0620EAD6E620E51
:102840000326045015E000009EA8FED700C0E9FF53
:1028500001C0F3FF0250E4EC29F0056E05C0ADFFA6
:10286000055003260406002A02E3014A022AE9D79A
:1028700000009EA8FED7031CAD6EAD2A00009EA8E6
:10288000FED73FEC2AF0E4CF07F0E4CF06F0E4CF28
:1028900005F0E4CF04F0E4CF03F0E4CF02F0E4CF9E
:1028A00001F0E4CF00F0E4CFD9FF1200D9CFE5FF6B
:1028B000E1CFD9FF00C0E5FF01C0E5FF02C0E5FFA1
:1028C00003C0E5FF04C0E5FF05C0E5FF06C0E5FF66
:1028D00007C0E5FF020EDBCF00F0030EDBCF01F0F7
:1028E000040EDBCF02F0050EDBCF03F002C006F0D2
:1028F0000650046E800A33E100C0E9FF01C0F3FF17
:102900000250C9EC27F0056EF3CF06F0F4CF07F0C4
:1029100003C0E5FF05C0E9FF06C0F3FF0750C2ECA6
:102920002AF000C0E9FF01C0F3FF0250C9EC27F014
:10293000056EF3CF06F0F4CF07F0052A02E3064A4E
:10294000072A05C0E5FF06C0F4FF07C0F6FF00C078
:10295000E9FF01C0F3FF025022EC2AF020D004C0AE
:1029600000F000AA1CD0007A0050046E04E103506D
:102970001EEC2BF014D00450010A04E1035002ECC9
:1029800000F00DD004500F0A04E10350EBEC23F0EB
:1029900006D004500E0A03E1035037EC2BF0E4CFCD
:1029A00007F0E4CF06F0E4CF05F0E4CF04F0E4CF85
:1029B00003F0E4CF02F0E4CF01F0E4CF00F0E4CF85
:1029C000D9FF1200D9CFE5FFE1CFD9FF00C0E5FF65
:1029D00001C0E5FF02C0E5FF03C0E5FF04C0E5FF5D
:1029E00005C0E5FF06C0E5FF07C0E5FF020EDBCF2F
:1029F00000F0030EDBCF01F0040EDBCF02F0050E7A
:102A0000DBCF03F0060EDBCF04F00450E56E03507D
:102A1000E56E0250E56E0150E56E0050E56E63EC28
:102A20001FF0050EE126DBEC22F0006EF3CF01F083
:102A3000F4CF02F0E9CF03F0FBEC2AF0300B1FE1FA
:102A4000DBEC22F0046EF3CF05F0F4CF06F0E9CF13
:102A500007F00050045E0150055A0250065A035018
:102A6000075A000E075C08E1000E065C05E1000E47
:102A7000055C02E1600E045CDFE3E86A15D0000E3D
:102A8000E56A8AEC29F0E652700EE56E070EE56EF7
:102A900076EC25F0006EE652E65200A804D001EC78
:102AA0002BF0E86A01D0010EE4CF07F0E4CF06F086
:102AB000E4CF05F0E4CF04F0E4CF03F0E4CF02F07C
:102AC000E4CF01F0E4CF00F0E4CFD9FF1200D9CF7A
:102AD000E5FFE1CFD9FF00C0E5FF01C0E5FF02C07F
:102AE000E5FF03C0E5FF04C0E5FF05C0E5FF06C044
:102AF000E5FF07C0E5FF020EDBCF00F0030EDBCFE2
:102B000001F0040EDBCF02F0050EDBCF03F075C43D
:102B100076F4040174510401765F7651046E040466
:102B2000766F03C004F0056A030E0426D8B0052AA8
:102B300076C406F0076A0750800FF36E0550800FC9
:102B4000F35C02E10450065C02E2E86830D0020E59
:102B5000035C02E2E86A2BD00350046E0404036EA7
:102B6000E56EEEEC21F0E652046A0350045C14E2D8
:102B700004500024056EE86A0120066EE86A02200F
:102B800005C0E9FF06C0F3FFE4EC29F0042AE56E76
:102B9000EEEC21F0E652E9D775C476F404017451E5
:102BA0000401765F7651006E0004766FE86AE4CF28
:102BB00007F0E4CF06F0E4CF05F0E4CF04F0E4CF73
:102BC00003F0E4CF02F0E4CF01F0E4CF00F0E4CF73
:102BD000D9FF120000C0E5FF01C0E5FF02C0E5FF1C
:102BE00003C0E5FF9AEC0EF004013F5108E01AEC37
:102BF00012F0006E005002E08B8201D08B92A8ECA4
:102C000024F0006EF3CF01F0F4CF02F0E9CF03F02F
:102C100004018151005E8251015A8351025A84514C
:102C2000035A039E3F0E035C08E1FF0E025C05E1C0
:102C3000FF0E015C02E1FF0E005CD8B044D0A8ECAE
:102C400024F0F3CF01F0F4CF02F0E9CF03F0880FC6
:102C50000401816F130E0120826F000E0220836F2A
:102C6000000E0320846F40C400F041C401F0040151
:102C7000403F01D0412B0050640A02E1015001E0C5
:102C800022D00401406B416B04EC2AF039C402F0FD
:102C9000E56AE56EE56A0250E56E000EE56E1D0E12
:102CA000E56E0E0EE56E32EC21F0070EE1263CECEF
:102CB00029F0006E005002E10401396B0401395122
:102CC000D8B4B9EC23F0E4CF03F0E4CF02F0E4CFC2
:102CD00001F0E4CF00F01200D9CFE5FFE1CFD9FF3A
:102CE00000C0E5FF01C0E5FF02C0E5FF03C0E5FF4E
:102CF00004C0E5FF05C0E5FF06C0E5FF07C0E5FF2E
:102D000008C0E5FF09C0E5FF0AC0E5FF0BC0E5FF0D
:102D10000CC0E5FF020EDBCF00F0030EDBCF01F0AD
:102D2000040EDBCF02F0050EDBCF03F0060EDBCF87
:102D300004F0070EDBCF05F0080EDBCF06F0090E1E
:102D4000DBCF07F002500A6E0150096E0050086E8A
:102D500006C00BF007C00CF0FF0E062607220B5032
:102D60000C101AE003C0E9FF04C0F3FF0550E4ECC7
:102D700029F00B6E032A02E3044A052A0BC0E5FF83
:102D800008C0E9FF09C0F3FF0A50C2EC2AF0082A84
:102D9000DFE3094A0A2ADCD702C0F4FF01C0F3FFCF
:102DA0000050E4CF0CF0E4CF0BF0E4CF0AF0E4CF16
:102DB00009F0E4CF08F0E4CF07F0E4CF06F0E4CF69
:102DC00005F0E4CF04F0E4CF03F0E4CF02F0E4CF69
:102DD00001F0E4CF00F0E4CFD9FF1200D9CFE5FF36
:102DE000E1CFD9FF00C0E5FF01C0E5FF02C0E5FF6C
:102DF00003C0E5FF04C0E5FF05C0E5FF06C0E5FF31
:102E000007C0E5FF020EDBCF00F0030EDBCF01F0C1
:102E1000040EDBCF02F0050EDBCF03F0060EDBCF96
:102E200004F003012751035C03E203C005F002D064
:102E300027C305F005C003F00301285102E0056A2D
:102E400006D003500301275D076E07C005F013ECA1
:102E50002BF00450E56E85EC2AF0046EE65203C0B8
:102E600006F00306065012E000C0E9FF01C0F3FFC0
:102E70000250E4EC29F0066E002A02E3014A022A1D
:102E80000650E56E85EC2AF0E652E9D705C000F061
:102E900000C001F00006015006E0000EE56A85EC76
:102EA0002AF0E652F5D70DEC2BF00450E4CF07F0F2
:102EB000E4CF06F0E4CF05F0E4CF04F0E4CF03F074
:102EC000E4CF02F0E4CF01F0E4CF00F0E4CFD9FF8B
:102ED0001200D9CFE5FFE1CFD9FF00C0E5FF01C067
:102EE000E5FF02C0E5FF03C0E5FF04C0E5FF05C044
:102EF000E5FF06C0E5FF07C0E5FF08C0E5FF09C024
:102F0000E5FF0AC0E5FF020EDBCF00F0030EDBCFCA
:102F100001F0040EDBCF02F0050EDBCF03F0060E4E
:102F2000DBCF04F0070EDBCF05F0080EDBCF06F099
:102F3000090EDBCF07F00A0EDBCF08F0700EE56E4E
:102F4000070EE56E76EC25F0096EE652E652200E8D
:102F500009140A6E0AC0E5FF00C0E9FF01C0F3FFD3
:102F60000250C2EC2AF0100E0914006E00C0E5FFFA
:102F700003C0E9FF04C0F3FF0550C2EC2AF0400E85
:102F8000091609C0E5FF06C0E9FF07C0F3FF0850B6
:102F9000C2EC2AF0E4CF0AF0E4CF09F0E4CF08F065
:102FA000E4CF07F0E4CF06F0E4CF05F0E4CF04F07F
:102FB000E4CF03F0E4CF02F0E4CF01F0E4CF00F07F
:102FC000E4CFD9FF1200D9CFE5FFE1CFD9FF00C090
:102FD000E5FF01C0E5FF02C0E5FF03C0E5FF04C057
:102FE000E5FF05C0E5FF06C0E5FF020EDBCF00F000
:102FF000030EDBCF01F0040EDBCF02F0050EDBCFBA
:1030000003F003500301275DD8A027C303F0030199
:10301000285102E0046A06D003500301275D066EC2
:1030200006C004F013EC2BF0610EE56E85EC2AF07F
:10303000056EE65203C006F00306065014E0FF0ECC
:10304000E56885EC2AF0066EE65206C0E5FF00C092
:10305000E9FF01C0F3FF0250C2EC2AF0002AEAE3C4
:10306000014A022AE7D704C000F000C001F00006C0
:10307000015006E0FF0EE56885EC2AF0E652F5D730
:103080000DEC2BF00550E4CF06F0E4CF05F0E4CFD3
:1030900004F0E4CF03F0E4CF02F0E4CF01F0E4CF9A
:1030A00000F0E4CFD9FF120000C0E5FF01C0E5FF4A
:1030B00002C0E5FF000EE56A8AEC29F0E6520F0136
:1030C0003351E56E3251E56E3151E56E3051E56EAA
:1030D00086EC11F0040EE1261D0EE56E9CEC26F048
:1030E000006EE65200A20FD00F013351E56E32514F
:1030F000E56E3151E56E3051E56E86EC11F0040E4F
:10310000E12601EC2BF0000EE56E9CEC26F0006E43
:10311000E65200900050E56E000EE56E76EC25F06C
:10312000E652E652020EE56E9CEC26F0006EE65288
:103130009A0EF66E550EF76E000EF86E0900F5CF7A
:1031400001F0010E026E01500DE006E6E86CD89029
:103150000236010FFDE306D0D89002BED8800232BD
:10316000010FFBE3005002120250E56E020EE56E05
:1031700076EC25F0E652E652E4CF02F0E4CF01F01F
:10318000E4CF00F0120000C0E5FF01C0E5FF02C07F
:10319000E5FF03C0E5FF04C0E5FF05C0E5FF06C08D
:1031A000E5FF07C0E5FFDBEC22F0006EF3CF01F096
:1031B000F4CF02F0E9CF03F0170EE56E9CEC26F099
:1031C000046EE65204B836D0FBEC2AF0046E04A874
:1031D00011D0100EE56E070EE56E76EC25F0E65286
:1031E000E652000EE56A8AEC29F0E65201EC2BF07B
:1031F000E86A26D0DBEC22F0046EF3CF05F0F4CFC2
:1032000006F0E9CF07F00050045E0150055A025065
:10321000065A0350075A000E075C08E1000E065CD0
:1032200005E1000E055C02E1600E045CD8A0C4D785
:10323000E86A06D0000EE56A8AEC29F0E652010E33
:10324000E4CF07F0E4CF06F0E4CF05F0E4CF04F0DC
:10325000E4CF03F0E4CF02F0E4CF01F0E4CF00F0DC
:103260001200D9CFE5FFE1CFD9FF00C0E5FF01C0D3
:10327000E5FF02C0E5FF03C0E5FF04C0E5FF05C0B0
:10328000E5FF06C0E5FF020EDBCF00F0030EDBCF4B
:1032900001F0040EDBCF02F0050EDBCF03F0D88087
:1032A00001AED890046A0436045007E0011C066E93
:1032B000001C056E054A062A04D000C005F001C0B6
:1032C00006F0D88003AED89007E3031C016E021C01
:1032D000006E004A012A04D002C000F003C001F0D1
:1032E0000150E56E0050E56E0650E56E0550E56E46
:1032F00092EC1BF0006EF3CF01F0040EE1260450B7
:103300000AE0011C036E001C026E024A032A03C07D
:10331000F3FF025003D001C0F3FF0050E4CF06F0EA
:10332000E4CF05F0E4CF04F0E4CF03F0E4CF02F003
:10333000E4CF01F0E4CF00F0E4CFD9FF1200D9CF01
:10334000E5FFE1CFD9FF00C0E5FF01C0E5FF02C006
:10335000E5FF03C0E5FF04C0E5FF05C0E5FF020E81
:10336000DBCF00F0030EDBCF01F0040EDBCF02F069
:10337000050EDBCF03F0FEC404F0FFC405F004012A
:10338000FE3F01D0FF2B0350E56E0450E56E37EC95
:1033900026F0E652E652FEC404F0FFC405F0040134
:1033A000FE3F01D0FF2B0250056EE56E0450E56E26
:1033B00037EC26F0E652E652FEC404F0FFC405F0F6
:1033C0000401FE3F01D0FF2B0150E56E0450E56E75
:1033D00037EC26F0E652E652FEC404F0FFC405F0D6
:1033E0000401FE3F01D0FF2B0050E56E0450E56E56
:1033F00037EC26F0E652E652E4CF05F0E4CF04F0D5
:10340000E4CF03F0E4CF02F0E4CF01F0E4CF00F02A
:10341000E4CFD9FF1200D9CFE5FFE1CFD9FF00C03B
:10342000E5FF01C0E5FF02C0E5FF03C0E5FF04C002
:10343000E5FF05C0E5FF06C0E5FF020EDBCF00F0AB
:10344000030EDBCF01F0040EDBCF02F003011451B9
:1034500019E13CEC13F0036EF3CF04F0F4CF05F068
:10346000E9CF06F003C0E5FF04C0F4FF05C0F6FF96
:1034700006C0F7FF00C0E9FF01C0F3FF0250D3EC24
:1034800029F01ED003011451010A1AE100C0E9FF1E
:1034900001C0F3FF0250BCEC26F0006EF3CF01F048
:1034A000F4CF02F0E9CF03F00350E56E0250E56E71
:1034B0000150E56E0050E56E9FEC19F0040EE12618
:1034C000E4CF06F0E4CF05F0E4CF04F0E4CF03F05E
:1034D000E4CF02F0E4CF01F0E4CF00F0E4CFD9FF75
:1034E0001200D9CFE5FFE1CFD9FF00C0E5FF01C051
:1034F000E5FF02C0E5FF03C0E5FF04C0E5FF05C02E
:10350000E5FF06C0E5FF020EDBCF00F0030EDBCFC8
:1035100001F0040EDBCF02F0050EDBCF03F0060E48
:10352000DBCF04F0070EDBCF05F0080EDBCF06F093
:10353000D88003AED89015E306500A0A12E104C001
:10354000E9FF05C0EAFF2D0EEF6E044A052A031EAF
:10355000021E011E006C05E1012A03E1022AD8B413
:10356000032A0650E56E0550E56E0450E56E0350E3
:10357000E56E0250E56E0150E56E0050E56EF0EC30
:103580000BF0070EE126E4CF06F0E4CF05F0E4CF20
:1035900004F0E4CF03F0E4CF02F0E4CF01F0E4CF95
:1035A00000F0E4CFD9FF1200D9CFE5FFE1CFD9FF7A
:1035B00000C0E5FF01C0E5FF02C0E5FF03C0E5FF75
:1035C000020EDBCF00F0030EDBCF01F0070E005C34
:1035D000D8B03FD0010EE56E9CEC26F0026EE652AC
:1035E000015017E00050016E010E036E01500DE016
:1035F00006E6E86CD8900336010FFDE306D0D890BC
:1036000003BED8800332010FFBE302500310026EA9
:1036100018D0010E016E00500DE006E6E86CD8905F
:103620000136010FFDE306D0D89001BED8800132EB
:10363000010FFBE3011C006E0250016E00500114EB
:10364000026E0250E56E010EE56E76EC25F0E65254
:10365000E652E4CF03F0E4CF02F0E4CF01F0E4CF90
:1036600000F0E4CFD9FF1200D8CFE5FFE0CFE5FFAF
:10367000E56EF3CFE5FFF4CFE5FFE9CFE5FFEACF55
:10368000E5FFFACFE5FFFBCFE5FFF6CFE5FFF6CF8D
:10369000E5FFF7CFE5FFF8CFE5FFF5CFE5FFE1CF99
:1036A000E5FFE2CFE5FF040172510401876F0401D9
:1036B00073510401886FD650856FD750866FF2A47E
:1036C00011D00401723F01D0732BF29404017251A6
:1036D0000401876F040173510401886FD650856F10
:1036E000D750866FE4CFE2FFE4CFE1FFE4CFF5FFF0
:1036F000E4CFF8FFE4CFF7FFE4CFF6FFE4CFF6FF27
:10370000E4CFFBFFE4CFFAFFE4CFEAFFE4CFE9FF29
:10371000E4CFF4FFE4CFF3FFE450E4CFE0FFE4CFE5
:10372000D8FF1000D9CFE5FFE1CFD9FF00C0E5FFFA
:1037300001C0E5FF02C0E5FF03C0E5FF04C0E5FFEF
:1037400005C0E5FF06C0E5FF020EDBCF00F0030E6B
:10375000DBCF01F0040EDBCF02F0050EDBCF03F070
:10376000046A056A0350800BE844066E065011E1B6
:103770000250022603360350015C02E10250005C55
:1037800004E2D8900332023204D0052A05C004F0C6
:10379000E9D70350015C02E10250005C04E30250EF
:1037A000005E0350015AD8900332023204C005F083
:1037B00004060550EEE101C0F3FF0050E4CF06F02F
:1037C000E4CF05F0E4CF04F0E4CF03F0E4CF02F05F
:1037D000E4CF01F0E4CF00F0E4CFD9FF1200D9CF5D
:1037E000E5FFE1CFD9FF00C0E5FF01C0E5FF02C062
:1037F000E5FF03C0E5FF04C0E5FF020EDBCF00F0EC
:10380000030EDBCF01F0040EDBCF02F0050EDBCFA1
:1038100003F0060EDBCF04F0200E045C02E3200E62
:10382000046E13EC2BF0070E0016A80E00120050C9
:10383000E56E85EC2AF0E65201C000F002C001F00E
:1038400003C002F004C003F00406035012E000C0FD
:10385000E9FF01C0F3FF0250E4EC29F0036E002AF7
:1038600002E3014A022A0350E56E85EC2AF0E65293
:10387000E9D70DEC2BF0E4CF04F0E4CF03F0E4CF74
:1038800002F0E4CF01F0E4CF00F0E4CFD9FF120062
:10389000D9CFE5FFE1CFD9FF00C0E5FF01C0E5FFCB
:1038A00002C0E5FF03C0E5FF04C0E5FF05C0E5FF7A
:1038B000020EDBCF00F0030EDBCF01F0040EDBCFF6
:1038C00002F0050EDBCF03F0060EDBCF04F013ECA5
:1038D0002BF01F0E00160050E56E85EC2AF0006EEE
:1038E000E65204C005F00406055014E0FF0EE5683A
:1038F00085EC2AF0056EE65205C0E5FF01C0E9FF40
:1039000002C0F3FF0350C2EC2AF0012AEAE3024AA4
:10391000032AE7D70DEC2BF00050E4CF05F0E4CFFD
:1039200004F0E4CF03F0E4CF02F0E4CF01F0E4CF01
:1039300000F0E4CFD9FF1200D9CFE5FFE1CFD9FFE6
:1039400000C0E5FF01C0E5FF02C0E5FF03C0E5FFE1
:1039500004C0E5FF05C0E5FF020EDBCF00F0030E5B
:10396000DBCF01F0040EDBCF02F0050EDBCF03F05E
:10397000060EDBCF04F013EC2BF01F0E0016008AAE
:103980000050E56E85EC2AF0006EE65204C005F0AA
:103990000406055012E001C0E9FF02C0F3FF035026
:1039A000E4EC29F0056E012A02E3024A032A0550DD
:1039B000E56E85EC2AF0E652E9D70DEC2BF00050CD
:1039C000E4CF05F0E4CF04F0E4CF03F0E4CF02F05D
:1039D000E4CF01F0E4CF00F0E4CFD9FF120000C043
:1039E000E5FF01C0E5FF02C0E5FF03C0E5FF1AC324
:1039F00000F0016A25C302F0036A0250005E035022
:103A0000015AE56A800EE56E0150E56E0050E56EE4
:103A100031EC19F0006E040EE126000625C301F01A
:103A2000430EEBEC23F0200EEBEC23F0005020E0F3
:103A3000600E0124026E036A000E032202C0E9FF39
:103A400003C0EAFFEFCF02F0E56A0250E56E000E18
:103A5000E56E540EE56E960EE56E32EC21F0050E25
:103A6000E126012A0150800A01E1016A0006DED741
:103A7000E4CF03F0E4CF02F0E4CF01F0E4CF00F0B4
:103A80001200D9CFE5FFE1CFD9FF00C0E5FF01C0AB
:103A9000E5FF02C0E5FF03C0E5FF04C0E5FF020E3D
:103AA000DBCF00F0030EDBCF01F0040EDBCF02F022
:103AB000050EDBCF03F0060EDBCF04F0045003E06D
:103AC000B00E046E02D0A00E046E0450E56E0350DA
:103AD000E56E0250E56E0150E56E0050E56EEEECCD
:103AE00016F0050EE126010EE56E8AEC29F0E6528D
:103AF000E56AE56AE56A0A0EE56E86EC11F0040EE9
:103B0000E126000EE56A8AEC29F0E652E4CF04F0E3
:103B1000E4CF03F0E4CF02F0E4CF01F0E4CF00F013
:103B2000E4CFD9FF1200D9CFE5FFE1CFD9FF00C024
:103B3000E5FF01C0E5FF02C0E5FF03C0E5FF04C0EB
:103B4000E5FF020EDBCF00F0030EDBCF01F0040E29
:103B5000DBCF02F00301145111E185EC23F0036E79
:103B6000F3CF04F003C0E5FF04C0F4FF00C0E9FF99
:103B700001C0F3FF02509FEC2AF016D0030114514C
:103B8000010A12E100C0E9FF01C0F3FF0250E8ECB6
:103B900028F0006EF3CF01F00150E56E0050E56EA5
:103BA000B1EC21F0E652E652E4CF04F0E4CF03F0AA
:103BB000E4CF02F0E4CF01F0E4CF00F0E4CFD9FF8E
:103BC0001200DC0EF66E550EF76E000EF86E090050
:103BD000F550056E0900F550066E04E1056702D048
:103BE0002EEF1EF00900F550006E0900F550016E31
:103BF0000900F550026E09000900F550E96E090050
:103C0000F550EA6E090009000900F550036E09003D
:103C1000F550046E09000900F6CF07F0F7CF08F061
:103C2000F8CF09F000C0F6FF01C0F7FF02C0F8FFAF
:103C3000035002E1045007E00900F550EE6E030660
:103C4000F8E20406F9D707C0F6FF08C0F7FF09C07D
:103C5000F8FF050601E20606EDEF1DF01200D9CFD0
:103C6000E5FFE1CFD9FF00C0E5FF01C0E5FF02C0DD
:103C7000E5FF020EDBCF00F0016A060EE56E9CEC5C
:103C800026F0026EE652D70E0216FA0E0F01306FC2
:103C9000316B326B336B0050020A09E1028AC20EAB
:103CA0000F01306F010E316F326B336B0AD0005051
:103CB000010A07E10286BE0E0F01306F316B326BD5
:103CC000336B0250E56E060EE56E76EC25F0E6529B
:103CD000E652060EE56E9CEC26F0E652021802E172
:103CE000010E016E0150E4CF02F0E4CF01F0E4CF09
:103CF00000F0E4CFD9FF1200D9CFE5FFE1CFD9FF23
:103D000000C0E5FF01C0E5FF02C0E5FF03C0E5FF1D
:103D1000020EDBCF00F0E56E9CEC26F0016EE65261
:103D2000026A036A9A0E0026550E0222000E032232
:103D300000C0F6FF02C0F7FF03C0F8FF0900F5CF8F
:103D400000F0010E026E00500DE006E6E86CD8901F
:103D50000236010FFDE306D0D89002BED8800232B1
:103D6000010FFBE3021C006E015000160050E56ECF
:103D7000020EE56E76EC25F0E652E652E4CF03F053
:103D8000E4CF02F0E4CF01F0E4CF00F0E4CFD9FFBC
:103D9000120000C0E5FF01C0E5FF02C0E5FF03C05F
:103DA000E5FF04C0E5FF6D8E6D8C6C986C8A6C50DD
:103DB000F00B01096C6E93929384810E006E0F0ECE
:103DC000016E0F0E036E380E0026035001220F0EF7
:103DD000036E800E005E0350015A810E026E0F0EBC
:103DE000036E0F0E046E380E0226045003220F0ECF
:103DF000046E800E025E0450035A02C0E9FF03C045
:103E0000EAFFEFCF02F0029400C0E9FF01C0EAFF31
:103E100002C0EFFF9396E4CF04F0E4CF03F0E4CFC9
:103E200002F0E4CF01F0E4CF00F0120000C0E5FFA3
:103E300001C0E5FF02C0E5FF03C0E5FF04C0E5FFE8
:103E4000C78EC78CC698C68AC650F00B0109C66ECD
:103E500094969488820E006E0F0E016E0F0E036E04
:103E6000380E0026035001220F0E036E800E005EF6
:103E70000350015A820E026E0F0E036E0F0E046E77
:103E8000380E0226045003220F0E046E800E025ECE
:103E90000450035A02C0E9FF03C0EAFFEFCF02F06B
:103EA000029800C0E9FF01C0EAFF02C0EFFF949A48
:103EB000E4CF04F0E4CF03F0E4CF02F0E4CF01F06C
:103EC000E4CF00F01200D9CFE5FFE1CFD9FF00C069
:103ED000E5FF01C0E5FF02C0E5FF03C0E5FF04C048
:103EE000E5FF020EDBCF00F0030EDBCF01F0040E86
:103EF000DBCF02F0050EDBCF03F0060EDBCF04F0C4
:103F0000045003E0B00E046E02D0A00E046E045004
:103F1000E56E0350E56E0250E56E0150E56E00500F
:103F2000E56EEEEC16F0050EE126010EE56E8AEC6C
:103F300029F0E652E4CF04F0E4CF03F0E4CF02F03E
:103F4000E4CF01F0E4CF00F0E4CFD9FF120000C0CD
:103F5000E5FF1AEC27F0000EE56A9CEC26F0006EF7
:103F6000E65200800050E56E000EE56A76EC25F022
:103F7000E652E652700EE56E070EE56E76EC25F021
:103F8000E652E652010EE56E8AEC29F0E652040193
:103F90007B5110E003012951E56E800EE56E040EA1
:103FA000E56E7B0EE56E0A0EE56E9CEC1CF0050ED0
:103FB000E12605D0000EE56A7CEC1EF0E6521D0EEF
:103FC000E56E9CEC26F0006EE65200B201EC2BF0A0
:103FD000E4CF00F01200D9CFE5FFE1CFD9FF00C058
:103FE000E5FF01C0E5FF02C0E5FF020EDBCF00F0F8
:103FF000030EDBCF01F0040EDBCF02F003012951E9
:10400000E56E0250E56E0150E56E0050E56E0A0E59
:10401000E56E9CEC1CF0050EE12603012951E56ECE
:104020000250E56E0150E56E0050E56E100EE56E33
:104030009CEC1CF0050EE12603012751E56E110EE4
:10404000E56E76EC25F0E652E652E4CF02F0E4CFDE
:1040500001F0E4CF00F0E4CFD9FF120000C0E5FF8B
:1040600001C0E5FF02C0E5FFD2EC24F0006ED2EC07
:1040700024F0016E0050026ED00E0224006E0A0E73
:10408000005C05E30050026EF90E0224006E015040
:10409000026ED00E0224016E0A0E015C05E301508F
:1040A000026EF90E0224016E080E005C12E2100E80
:1040B000015CD8B00ED00038F00B0124006EA1ECEA
:1040C00022F0016E015005E10050E56E30EC28F061
:1040D000E652E4CF02F0E4CF01F0E4CF00F01200AA
:1040E000D8CFE5FFE0CFE5FFE56EF3CFE5FFF4CFF6
:1040F000E5FFE9CFE5FFEACFE5FFFACFE5FFFBCF2C
:10410000E5FFF6CFE5FFF6CFE5FFF7CFE5FFF8CF08
:10411000E5FFF5CFE5FFE1CFE5FFE2CFE5FF41ECBD
:1041200005F0E4CFE2FFE4CFE1FFE4CFF5FFE4CF19
:10413000F8FFE4CFF7FFE4CFF6FFE4CFF6FFE4CFDC
:10414000FBFFE4CFFAFFE4CFEAFFE4CFE9FFE4CFDF
:10415000F4FFE4CFF3FFE450E4CFE0FFE4CFD8FF77
:104160001000D9CFE5FFE1CFD9FF00C0E5FF01C0C6
:10417000E5FF02C0E5FF03C0E5FF04C0E5FF020E56
:10418000DBCF00F0030EDBCF01F0040EDBCF02F03B
:10419000000EE56A9CEC26F0036EE6528F0E0316C5
:1041A0000138F00B046E0038E844E00B04120240C2
:1041B000E840C00B0412045003120350E56E000ED9
:1041C000E56A76EC25F0E652E652E4CF04F0E4CF5F
:1041D00003F0E4CF02F0E4CF01F0E4CF00F0E4CF4D
:1041E000D9FF1200D9CFE5FFE1CFD9FF00C0E5FF2D
:1041F00001C0E5FF02C0E5FF03C0E5FF020EDBCF13
:1042000000F0030EDBCF01F0040EDBCF02F0170E3F
:10421000E56E9CEC26F0036EE65203B017D000501A
:104220000110021011E0FBEC2AF0036E03407F0B3B
:10423000036E070E031603C0E5FF00C0E9FF01C0CF
:10424000F3FF0250C2EC2AF0010E01D0E86AE4CF7D
:1042500003F0E4CF02F0E4CF01F0E4CF00F0E4CFCC
:10426000D9FF1200D9CFE5FFE1CFD9FF00C0E5FFAC
:1042700001C0E5FF02C0E5FF020ED924006E000E6A
:10428000DA20016E800E026E030E0026000E01225F
:1042900002220250E56E0150E56E0050E56E040EFC
:1042A000DBCFE5FF030EDBCFE5FF020EDBCFE5FF43
:1042B00004013751E56E3651E56E3551E56E0EEC71
:1042C00000F0006EF3CF01F0090EE12601C0F3FF0C
:1042D0000050E4CF02F0E4CF01F0E4CF00F0E4CFEF
:1042E000D9FF1200D9CFE5FFE1CFD9FF00C0E5FF2C
:1042F00001C0E5FF02C0E5FF03C0E5FF020EDBCF12
:1043000000F0030EDBCF01F0040EDBCF02F003015F
:1043100014510DE1A6EC28F0036E03C0E5FF00C0C8
:10432000E9FF01C0F3FF0250C2EC2AF00FD00301F5
:104330001451010A0BE100C0E9FF01C0F3FF025074
:10434000E4EC29F0E56EECEC25F0E652E4CF03F066
:10435000E4CF02F0E4CF01F0E4CF00F0E4CFD9FFE6
:104360001200D9CFE5FFE1CFD9FF00C0E5FF01C0C2
:10437000E5FF02C0E5FF03C0E5FF020EDBCF00F062
:10438000030EDBCF01F0FEC402F0FFC403F0040112
:10439000FE3F01D0FF2B0150E56E0250E56E37EC79
:1043A00026F0E652E652FEC402F0FFC403F0040118
:1043B000FE3F01D0FF2B0050E56E0250E56E37EC5A
:1043C00026F0E652E652E4CF03F0E4CF02F0E4CF69
:1043D00001F0E4CF00F0E4CFD9FF1200D9CFE5FF20
:1043E000E1CFD9FF00C0E5FF01C0E5FF02C0E5FF56
:1043F00003C0E5FF04C0E5FF020EDBCF00F074C48C
:1044000001F0026A014A022A75C403F0046A0150ED
:10441000031803E10250041801E001D00ED0000E91
:1044200004017425016E026A010E022201C0E9FF37
:1044300002C0EAFF00C0EFFF742BE4CF04F0E4CF2A
:1044400003F0E4CF02F0E4CF01F0E4CF00F0E4CFDA
:10445000D9FF1200D9CFE5FFE1CFD9FF00C0E5FFBA
:1044600001C0E5FF020EDBCF00F00050016EFE0E32
:10447000012601C000F0015018E0E56A040EE56E67
:10448000E56A0050E56E31EC19F0006E040EE1268D
:104490000050E56E030EE56E76EC25F0E652E6522E
:1044A000020E00240301296F0AD0E56A030EE56EAF
:1044B00076EC25F0E652E652020E0301296FE4CFB6
:1044C00001F0E4CF00F0E4CFD9FF1200D9CFE5FF2F
:1044D000E1CFD9FF00C0E5FF01C0E5FF02C0E5FF65
:1044E00003C0E5FF020EDBCF00F0016A25C302F036
:1044F000036A0250002603500122E56A800EE56E31
:104500000150E56E0050E56E31EC19F0006EF3CF0E
:1045100001F0040EE126600E0026000E012200C00C
:10452000E9FF01C0EAFFEFCF00F00050E4CF03F055
:10453000E4CF02F0E4CF01F0E4CF00F0E4CFD9FF04
:10454000120000C0E5FF01C0E5FF02C0E5FF010E5B
:10455000006ED2EC24F0016E01C002F0015023E0A5
:104560000050E56E31EC2AF0016EE652015010E188
:104570000A0E005C0BE20A0E006EE56E31EC2AF0CA
:10458000016EE652015004E1E8680ED0E8680CD0F4
:104590000150021802E0E86807D0002A1B0E005CF8
:1045A000D8E3E86801D0E86AE4CF02F0E4CF01F094
:1045B000E4CF00F0120000C0E5FF01C0E5FF02C03B
:1045C000E5FF03C0E5FFA8EC24F0006EF3CF01F097
:1045D000F4CF02F0E9CF03F0E56AE56A030EE56E79
:1045E000E80EE56E0350E56E0250E56E0150E56E93
:1045F0000050E56EACEC12F0006EF3CF01F0F4CF9A
:1046000002F0E9CF03F0080EE12603C0E9FF02C083
:10461000F4FF01C0F3FF0050E4CF03F0E4CF02F059
:10462000E4CF01F0E4CF00F01200D9CFE5FFE1CFF5
:10463000D9FF00C0E5FF01C0E5FF02C0E5FF03C0F0
:10464000E5FF020EDBCF00F0060EE56E9CEC26F0D7
:10465000016EE652F80E0116040E005C03E3070E2D
:10466000006E07D00050026E0244FE0B036E03285A
:10467000006E015000120050E56E060EE56E76ECFD
:1046800025F0E652E652E4CF03F0E4CF02F0E4CFA7
:1046900001F0E4CF00F0E4CFD9FF1200D9CFE5FF5D
:1046A000E1CFD9FF00C0E5FF01C0E5FF02C0E5FF93
:1046B00003C0E5FF020EDBCF00F0030EDBCF01F0FD
:1046C000040EDBCF02F0050EDBCF03F00350E56EE6
:1046D0000250E56E0150E56E0050E56EE3EC17F018
:1046E000040EE126700EE56E070EE56E76EC25F001
:1046F000E652E652E4CF03F0E4CF02F0E4CF01F05B
:10470000E4CF00F0E4CFD9FF120000C0E5FF01C004
:10471000E5FF02C0E5FF03C0E5FFFEC400F0FFC4F3
:1047200001F00401FE3F01D0FF2B0050E56E31EC9B
:104730002AF0E652036E026AFEC400F0FFC401F0E4
:104740000401FE3F01D0FF2B0050E56E31EC2AF052
:10475000E652016A02120150031203C0F3FF025035
:10476000E4CF03F0E4CF02F0E4CF01F0E4CF00F0B7
:10477000120000C0E5FF000EE56E1D0EE56E040E92
:10478000E56E32EC21F0030EE1260401396B69EC91
:104790000DF0E56AE56AE56A640EE56E32EC0FF04D
:1047A000040EE1263CEC29F0006E005011E0010EF1
:1047B0000401396FC2EC29F0C5EC25F0010EE56E5D
:1047C0007CEC26F0E65204013F51D8A439EC27F0E6
:1047D000E4CF00F0120000C0E5FF01C0E5FF02C019
:1047E000E5FF006E930E04017925016E026A040E46
:1047F000022201C0E9FF02C0EAFF00C0EFFF220E63
:10480000795D01E2792B00500A0A0FE10401795128
:10481000E56E800EE56E040EE56E930EE56E67ECB8
:1048200015F0040EE1260401796BE4CF02F0E4CF29
:1048300001F0E4CF00F012000401746B0401756B09
:104840000401766994808B909480B06A3F0EAF6EBD
:10485000B886AC8AAC84AC8CAC90AB8CAB8E0301CC
:104860001C6B0301166B0301196B03011A6B030127
:104870001B6B000EE56A31EC2AF00401786FE652FA
:104880009F989F9A010E0401776F0401356B366B78
:104890002F0E376F3FEC2AF0120001C0E5FF02C077
:1048A000E5FF03C0E5FF19EC2BF094928B92E56ACB
:1048B000E56AE56A640EE56E32EC0FF0040EE1265F
:1048C000B9EC23F0A8EC24F0F3CF01F0F4CF02F020
:1048D000E9CF03F0880F0401816F130E0120826F6E
:1048E000000E0220836F000E0320846FE4CF03F0DC
:1048F000E4CF02F0E4CF01F01200D9CFE5FFE1CF21
:10490000D9FF00C0E5FF01C0E5FF020EDBCF00F0DC
:10491000000EE56A9CEC26F0016EE652F30E0116DD
:10492000005007E00050010A02E1018602D0018632
:1049300001840150E56E000EE56A76EC25F0E65242
:10494000E652E4CF01F0E4CF00F0E4CFD9FF12004B
:104950000401725104018C6F0401735104018D6FC5
:10496000D6508A6FD7508B6F8C510401721905E1B4
:1049700004018D51040173190CE00401725104010A
:104980008C6F0401735104018D6FD6508A6FD7501C
:104990008B6F8DC4E9FF8CC4F4FF8BC4F3FF04015B
:1049A0008A51120000C0E5FF01C0E5FF03011A5162
:1049B0000301231905E003011A510301191902E14A
:1049C000E86A15D01AC300F003011A2B016A600EC1
:1049D0000026000E012200C0E9FF01C0EAFFEFCF70
:1049E00000F01A51800A02E103011A6B0050E4CF73
:1049F00001F0E4CF00F01200D9CFE5FFE1CFD9FFFD
:104A000000C0E5FF01C0E5FF02C0E5FF020EDBCFFD
:104A100000F0030EDBCF01F00F0E00160038F00B94
:104A2000026E0F0E0116015002120250E56E040EC6
:104A3000E56E76EC25F0E652E652E4CF02F0E4CFE4
:104A400001F0E4CF00F0E4CFD9FF120000C0E5FF91
:104A500001C0E5FF02C0E5FF006A000EE56A9CECBC
:104A600026F0016EE6520C0E0116010EE56E9CEC6E
:104A700026F0026EE65201B602D0025007E001A411
:104A800003D0020E006E02D0010E006E0050E4CF83
:104A900002F0E4CF01F0E4CF00F0120000C0E5FF27
:104AA0001D0EE56E9CEC26F0006EE652060E00121E
:104AB0000050E56E1D0EE56E76EC25F0E652E652EE
:104AC0001C0EE56E9CEC26F0006EE652030E001202
:104AD0000050E56E1C0EE56E76EC25F0E652E652CF
:104AE000010E0301286FE4CF00F01200D9CFE5FFDB
:104AF000E1CFD9FF00C0E5FF01C0E5FF020EDBCF2B
:104B000000F0030EDBCF01F013EC2BF01F0E0016AC
:104B1000008A0050E56E85EC2AF0006EE6520150E6
:104B2000E56E85EC2AF0E6520DEC2BF00050E4CF58
:104B300001F0E4CF00F0E4CFD9FF120000C0E5FFA0
:104B400022EC2BF00401896B806B8983006A89B3A6
:104B5000002A0050010BE844F46E8051FD0BF41064
:104B6000806FD58ED59CD59AD588D596D594D5828B
:104B7000D580F28AF184D08EF28EF28CBA80FF0E4C
:104B8000BB68BA84E4CF00F0120000C0E5FF1D0E40
:104B9000E56E9CEC26F0006EE65200840050E56E57
:104BA0001D0EE56E76EC25F0E652E6521C0EE56E23
:104BB0009CEC26F0006EE6523F0E00120050E56EAF
:104BC0001C0EE56E76EC25F0E652E652010E03016E
:104BD000286FE4CF00F01200D9CFE5FFE1CFD9FF75
:104BE00000C0E5FF01C0E5FF02C0E5FF020EDBCF1C
:104BF00000F0FEC401F0FFC402F00401FE3F01D04A
:104C0000FF2B0050E56E0150E56E37EC26F0E652C2
:104C1000E652E4CF02F0E4CF01F0E4CF00F0E4CFBD
:104C2000D9FF120000C0E5FF13EC2BF0600EE56E1B
:104C300085EC2AF0E652FF0EE56885EC2AF0006E5E
:104C4000E6520DEC2BF0210E005C0DE307EC2BF08F
:104C5000E56AE56AE56A020EE56EF1EC10F0040E15
:104C6000E126E86A01D00050E4CF00F01200D9CF6D
:104C7000E5FFE1CFD9FF00C0E5FF020EDBCF00F07A
:104C8000030EDBCFA8FF00C0A9FFA69EA69CA684AA
:104C9000F29EF29C550EA76EAA0EA76EA682A6A241
:104CA00002D00000FCD7A694F28EF28CE4CF00F084
:104CB000E4CFD9FF120000C2C2C2C2C2000000424B
:104CC0001E000000000000000000000000000000C6
:104CD00000000000000000000000000000000000D4
:104CE00000000000000000000002000000000000C2
:104CF000000000FF00000000D9CFE5FFE1CFD9FFA1
:104D000000C0E5FF020EDBCF00F0005009E03F0ECF
:104D1000E56E010EE56E76EC25F0E652E65207D020
:104D2000E56A010EE56E76EC25F0E652E652E4CF38
:104D300000F0E4CFD9FF1200D9CFE5FFE1CFD9FFD2
:104D400000C0E5FF020EDBCF00F013EC2BF01F0ECE
:104D500000160050E56E85EC2AF0E652FF0EE5687D
:104D600085EC2AF0006EE6520DEC2BF00050E4CFFB
:104D700000F0E4CFD9FF1200E8AE0AD0F3CFEAFF8B
:104D8000EE50EECFF3FFEECFF4FFEECFE9FF1200CF
:104D9000E8BC3EEF2BF0E9CFF6FFF3CFF7FFF86E5C
:104DA0000900F5500900F5CFF3FF0900F5CFF4FF36
:104DB0000900F5CFE9FF120000C0E5FF01C0E5FFE3
:104DC000040174510401751902E1E86A0FD0000E64
:104DD00004017525006E016A010E012200C0E9FF81
:104DE00001C0EAFFEFCF00F0752B0050E4CF01F0D7
:104DF000E4CF00F0120000C0E5FF01C0E5FF060EA1
:104E0000E56E9CEC26F0006EE652280E001600506F
:104E1000200A03E1020E016E07D00050080A03E1E8
:104E2000010E016E01D0016A0150E4CF01F0E4CF20
:104E300000F0120000C0E5FF000EE56A9CEC26F0D1
:104E4000006EE65200B212D000820050E56E000EF5
:104E5000E56A76EC25F0E652E652E56AE56AE56A2F
:104E6000050EE56EF1EC10F0040EE126E4CF00F043
:104E7000120054EC18F0E56A010EE56E800EE56E46
:104E8000040EE56E000EE56E02EC0EF0050EE12656
:104E9000800EE56E040EE56E000EE56E010EE56E09
:104EA00063EC08F0040EE126A7EC1FF01200F2CF2D
:104EB000EAFFF29EA69EA69CA684E9CFA9FFF3CFA7
:104EC000AAFFE4CFA8FFD6EC2AF0F4CFA8FFD6ECD7
:104ED0002AF0F6CFA8FFD6EC2AF0F7CFA8FFD6EC41
:104EE0002AF0A694EABEF28E1200F2CFF6FFF29EEE
:104EF000A69EA69CE9CFA9FFF3CFAAFFA680A85043
:104F0000A94AAA2AA680A8CFF3FFA94AAA2AA6805E
:104F1000A8CFF4FFA94AAA2AA680A8CFEAFFF6BE26
:104F2000F28E1200D9CFE5FFE1CFD9FF00C0E5FF37
:104F3000020EDBCF00F0005002E08A8A01D08A9A8C
:104F4000E56AE56AE56A050EE56E86EC11F0040E89
:104F5000E126E4CF00F0E4CFD9FF1200D9CFE5FF7E
:104F6000E1CFD9FF00C0E5FF020EDBCF00F07D0EE0
:104F7000005C02E37D0E006E0050E56E050EE56EEE
:104F800076EC25F0E652E652E4CF00F0E4CFD9FF0C
:104F90001200E8AE08D0F3CFEAFFEE50EECFF3FFF9
:104FA000EECFF4FF1200E8BC46EF2BF0E9CFF6FF9E
:104FB000F3CFF7FFF86E0900F5500900F5CFF3FFC6
:104FC0000900F5CFF4FF1200F2CFEAFFF29EA69E91
:104FD000A69CA684E9CFA9FFF3CFAAFFE4CFA8FF40
:104FE000D6EC2AF0F4CFA8FFD6EC2AF0F6CFA8FF33
:104FF000D6EC2AF0A694EABEF28E120000C0E5FFBD
:10500000000EE56A8AEC29F0E652000EE56A9CEC97
:1050100026F0006EE65200920050E56E000EE56A42
:1050200076EC25F0E652E652E4CF00F01200D9CF3C
:10503000E5FFE1CFD9FF00C0E5FF020EDBCF00F0B6
:1050400013EC2BF00050E56E85EC2AF0006EE65272
:105050000DEC2BF00050E4CF00F0E4CFD9FF1200AC
:10506000D9CFE5FFE1CFD9FF00C0E5FF020EDBCFCE
:1050700000F000C078F40050E56E000EE56A37ECF1
:1050800026F0E652E652E4CF00F0E4CFD9FF12005A
:10509000100EE56E070EE56E76EC25F0E652E65250
:1050A000E30EE56E17EC28F0E652000EE56A8AEC96
:1050B00029F0E652010EE56E8AEC29F0E652120064
:1050C000F2CFF6FFF29EA69EA69CE9CFA9FFF3CFF2
:1050D000AAFFA680A850A94AAA2AA680A8CFF3FFB3
:1050E000A94AAA2AA680A8CFF4FFF6BEF28E120023
:1050F00000C0E5FF01C0E5FF600E03011A25006E48
:10510000016A000E012200C0E9FF01C0EAFFEFCFF3
:1051100000F00050E4CF01F0E4CF00F01200D9CF4E
:10512000E5FFE1CFD9FF00C0E5FF020EDBCF00F0C5
:10513000610E005C05E37B0E005C02E2010E01D013
:10514000E86AE4CF00F0E4CFD9FF120000C0E5FF29
:1051500001C0E5FFFEC400F0FFC401F00401FE3F02
:1051600001D0FF2B0050E56E31EC2AF0E652E4CF7F
:1051700001F0E4CF00F01200D9CFE5FFE1CFD9FF75
:1051800000C0E5FF020EDBCF00F000C077F4005056
:1051900004E13FEC2AF09D9A9D98E4CF00F0E4CF23
:1051A000D9FF1200D9CFE5FFE1CFD9FF00C0E5FF5D
:1051B000020EDBCF00F0200E005C02E3200E006E3A
:1051C00000500301276FE4CF00F0E4CFD9FF1200B5
:1051D000E8AE06D0F3CFEAFFEE50EECFF3FF1200B9
:1051E000E8BC3CEF2BF0E9CFF6FFF3CFF7FFF86E0A
:1051F0000900F5500900F5CFF3FF1200F2CFEAFFE6
:10520000F29EA69EA69CA684E9CFA9FFF3CFAAFF93
:10521000E4CFA8FFD6EC2AF0F4CFA8FFD6EC2AF012
:10522000A694EABEF28E120000C0E5FF000EE56A09
:105230009CEC26F0006EE65200960050E56E000EE3
:10524000E56A76EC25F0E652E652E4CF00F0120073
:1052500000C0E5FF1D0EE56E9CEC26F0006EE652E8
:1052600000800050E56E1D0EE56E76EC25F0E652EE
:10527000E652E4CF00F0120000C0E5FF030EE56E39
:105280009CEC26F0006EE652010E005C05E3040E75
:10529000005C02E2010E01D0E86AE4CF00F01200E7
:1052A00012EEFFF022EEFFF0F86AA68EA69CE968E7
:1052B0000E0EEA6E0068000EED6A0050FDE1E1ECB2
:1052C0001DF006EC00F0FFD7D9CFE5FFE1CFD9FF05
:1052D00000C0E5FF020EDBCF00F00050E56E9CEC55
:1052E00026F0E652E4CF00F0E4CFD9FF120000C070
:1052F000E5FF170EE56E9CEC26F0006EE6520050BE
:10530000010BD880E866D890006A00360050E4CFE0
:1053100000F01200D9CFE5FFE1CFD9FF00C0E5FFD3
:10532000020EDBCF00F0005002E08A8801D08A989C
:10533000E4CF00F0E4CFD9FF1200F2CFF6FFF29EE7
:10534000A69EA69CE9CFA9FFF3CFAAFFA680A850EE
:10535000A94AAA2AA680A8CFF3FFF6BEF28E1200B1
:10536000F2CFEAFFF29EA69EA69CA684E9CFA9FFF3
:10537000F3CFAAFFE4CFA8FFD6EC2AF0A694EABEAA
:10538000F28E1200E56A1D0EE56E76EC25F0E6520F
:10539000E652E56A1C0EE56E76EC25F0E652E65222
:1053A0000301286B1200E8AE0BD0F3CFEAFFE4CF85
:1053B000EEFFF4CFEEFFF6CFEEFFF7CFEEFF1200D9
:1053C000E8BC40EF2BF01200E8AE04D0F3CFEAFFC8
:1053D000EE501200E8BC3AEF2BF0E9CFF6FFF3CF26
:1053E000F7FFF86E0900F550120000C0E5FF060E49
:1053F000E56E9CEC26F0006EE652060E00160040AC
:105400007F0BE4CF00F0120000C0E5FF000EE56A5C
:10541000E56AE56AF2EC20F0006E030EE12600502A
:10542000E4CF00F0120013EC2BF0500EE56E85EC8B
:105430002AF0E652730EE56E85EC2AF0E6520DEC8A
:105440002BF01200E8AE09D0F3CFEAFFE4CFEEFF75
:10545000F4CFEEFFF6CFEEFF1200E8BC48EF2BF0E2
:105460001200D9CFE5FFE1CFD9FF020EDBCFA9FFB4
:10547000A69CA69EA680A850E4CFD9FF1200ACA29D
:10548000FED79480AE500000AE50AB98AB88AB8690
:105490009D8A9D9812002564200000C0E5FF090E3A
:1054A000E56E9CEC26F0006EE652010E00160050F0
:1054B000E4CF00F0120000C0E5FF090EE56E9CECA1
:1054C00026F0006EE652010E00160050E4CF00F008
:1054D000120000C0E5FF170EE56E9CEC26F0006E92
:1054E000E652020E00160050E4CF00F01200F2CF98
:1054F000F6FFF29EA69EA69CE9CFA9FFF3CFAAFFD6
:10550000A680A850F6BEF28E1200D9CFE5FFE1CFFB
:10551000D9FF020EDBCF6FFF6DA0FED76F50E4CF37
:10552000D9FF1200D9CFE5FFE1CFD9FF020EDBCFC3
:10553000C9FFC7A0FED7C950E4CFD9FF1200E8AE1B
:1055400007D0F3CFEAFFE4CFEEFFF4CFEEFF120077
:10555000E8BC44EF2BF01200700ED36E9B8CFF0E54
:105560009268936894689668626AF19E120000C01F
:10557000E5FFA1EC22F0006E005001E1FF00E4CF56
:1055800000F01200E8AE05D0F3CFEAFFE4CFEEFF63
:105590001200E8BC42EF2BF01200000102030405E8
:1055A0000A0B0C0D0E0F111213141516550EA76EC3
:1055B000AA0EA76EA682A6B2FED7A94AAA2A010EF3
:1055C0000301146F1C0E0401FE6FFF6B1200030138
:1055D000146B1C0E0401FE6FFF6B12000100B64C31
:1055E00000003904000042000000050EE56E9CEC4E
:1055F00026F0E6521200FF0EE56817EC28F0E6529E
:105600001200E10EE56E17EC28F0E6521200E20EF1
:10561000E56E17EC28F0E6521200010EE56E92ECF2
:1056200027F0E6521200000EE56A92EC27F0E652EF
:1056300012009EEC25F01CEC24F01200ACA2FED768
:10564000AD6E1200ACEC2AF01200D2EC24F0120085
:1056500003011A5112000301245112000401775171
:105660001200030126511200030127511200E8CF56
:105670007FFF120077EF2AF09DEF29F075EF27F0FA
:1056800057EF27F0B0EF29F0FEEF28F060EF28F099
:04569000E4EF27F02C
:020000040030CA
:010006008574
:00000001FF
