:020000040000FA
:100000005FEF2BF0C96E120091EF1CF0AFEC25F002
:100010003AEC16F0FDD7120066EF22F0D9CFE5FFDB
:10002000E1CFD9FF00C0E5FF01C0E5FF02C0E5FF59
:1000300003C0E5FF04C0E5FF05C0E5FF06C0E5FF1E
:1000400007C0E5FF08C0E5FF09C0E5FF0AC0E5FFFE
:100050000BC0E5FF0CC0E5FF0DC0E5FF0EC0E5FFDE
:100060000FC0E5FF10C0E5FF11C0E5FF12C0E5FFBE
:1000700013C0E5FF14C0E5FF15C0E5FF16C0E5FF9E
:1000800017C0E5FF18C0E5FF19C0E5FF1AC0E5FF7E
:100090001BC0E5FF1CC0E5FF1DC0E5FF1EC0E5FF5E
:1000A000020EDBCF00F0030EDBCF01F0040EDBCF3E
:1000B00002F0050EDBCF03F0060EDBCF04F0070ED7
:1000C000DBCF05F0080EDBCF06F0090EDBCF07F023
:1000D0000A0EDBCF08F0096A0A6A02C00DF00D5063
:1000E000800A0DE1025003012E6F01502D6F005068
:1000F0002C6F030E016E2C0E006E800E026E03C07C
:10010000E9FF04C0F3FF0550F3EC2BF00B6E0B502E
:10011000D8B4C4EF03F00B50250A02E0ABEF03F0B4
:100120000C6A0D6A0E6A0F6A106A0A0E116E126A64
:10013000136A146A200E156E1668176A2B0E186E55
:10014000032A02E3044A052A03C0E9FF04C0F3FFBF
:100150000550F3EC2BF0196E250A13E11950E56EEA
:100160000250E56E0150E56E0050E56EAEEC15F004
:10017000040EE126094A0A2A032A02E3044A052A50
:10018000BED71950300A06E1300E156E032A02E37D
:10019000044A052A03C0E9FF04C0F3FF0550F3EC4D
:1001A0002BF02D0A06E1010E146E032A02E3044A25
:1001B000052A03C0E9FF04C0F3FF0550F3EC2BF060
:1001C000200A08E1010E176E200E186E032A02E3C2
:1001D000044A052A03C0E9FF04C0F3FF0550F3EC0D
:1001E0002BF02B0A06E1010E176E032A02E3044AE4
:1001F000052A03C0E9FF04C0F3FF0550F3EC2BF020
:10020000196E310E195C2BE33A0E195C28E203C01B
:1002100019F004C01AF005C01BF019C0E9FF1AC09C
:10022000F3FF1B50F3EC2BF01C6E300E1C5C11E343
:100230003A0E1C5C0EE213500A0DF3CF1DF01C5059
:100240001D26D00E1D24136E192A02E31A4A1B2AFA
:10025000E4D719C003F01AC004F01BC005F003C0B6
:10026000E9FF04C0F3FF0550F3EC2BF02E0A2DE15B
:10027000032A02E3044A052A166A03C019F004C0DF
:100280001AF005C01BF019C0E9FF1AC0F3FF1B509C
:10029000F3EC2BF01C6E300E1C5C11E33A0E1C5C70
:1002A0000EE216500A0DF3CF1DF01C501D26D00E85
:1002B0001D24166E192A02E31A4A1B2AE4D719C014
:1002C00003F01AC004F01BC005F003C0E9FF04C02E
:1002D000F3FF0550F3EC2BF0196E6C0A07E1010EE9
:1002E0000C6E032A02E3044A052A09D01950680A51
:1002F00006E1010E0E6E032A02E3044A052A03C03A
:10030000E9FF04C0F3FF0550F3EC2BF0750A06E19A
:10031000010E106E032A02E3044A052A03C0E9FF16
:1003200004C0F3FF0550F3EC2BF0196E730A05E1DE
:10033000010E0D6E200E156E3FD01950780A03E1A4
:10034000100E116E39D01950580A05E1100E116EB9
:10035000010E126E31D01950630A02E1116A2CD0DD
:1003600019506F0A03E1080E116E26D01950660A63
:1003700003E1010E0F6E20D01950640A1DE01950E0
:10038000690A1AE0105005E0FF0E03260422052238
:1003900013D01950E56E0250E56E0150E56E005025
:1003A000E56EAEEC15F0040EE126094A0A2A032A8E
:1003B00002E3044A052AA3D60D5021E00650030F9C
:1003C0000D6E000E0720196E000E08201A6E0DC06B
:1003D00006F019C007F01AC008F0FD0E0D26FF0E3A
:1003E00019221A220DC0E9FF19C0F3FF1A50D8ECE8
:1003F00029F00D6EF3CF19F0F4CF1AF0FDD00F50A5
:100400000DE0000E1A6E080E196E100E0D6E040E21
:100410000626000E072208221668EED016680C5039
:1004200023E00650040F0C6E000E07200F6E000E26
:1004300008201B6E0CC006F00FC007F01BC008F0B0
:10044000FC0E0C26FF0E0F221B220CC0E9FF0FC072
:10045000F3FF1B50CBEC28F00C6EF3CF0FF0F4CF72
:100460001BF0E9CF1CF067D00E502FE00650020FB2
:100470000E6E000E07201D6E000E08201E6E0EC0B0
:1004800006F01DC007F01EC008F0FE0E0E26FF0E7F
:100490001D221E220EC0E9FF1DC0F3FF1E50F7EC07
:1004A0002AF00E6E0EC00CF00F6A1B6A1C6A115007
:1004B0000A0A03E11050D8B43ED00C500E6E0EC0A4
:1004C0000CF00F6A1B6A1C6A36D00650020F0E6EC3
:1004D000000E07201D6E000E08201E6E0EC006F0D6
:1004E0001DC007F01EC008F0FE0E0E26FF0E1D22D6
:1004F0001E220EC0E9FF1DC0F3FF1E50F7EC2AF0CC
:100500000E6EF3CF1DF00EC00CF01DC00FF0E86AA8
:100510001DBEFF0E1B6E1C6E11500A0A02E1105028
:100520000AE00C500E6E0F501D6E0EC00CF01DC078
:100530000FF01B6A1C6A0F0E196E240E0D6E800ED2
:100540001A6E1150D8B440D0105013E01150E56E1F
:100550000F0EE56E240EE56E1C50E56E1B50E56E29
:100560000F50E56E0C50E56E41EC0DF0070EE126E4
:1005700012D01150E56E0F0EE56E240EE56E1C5084
:10058000E56E1B50E56E0F50E56E0C50E56ECEEC3F
:100590001BF0070EE12617502FE00DC0E9FF19C030
:1005A000F3FF1A50F3EC2BF02D0A26E0FF0E0D2678
:1005B00019221A2218C0E5FF0DC0E9FF19C0F3FF88
:1005C0001A50D1EC2CF018D00CC0E5FF0DC0E9FF9B
:1005D00019C0F3FF1A50D1EC2CF00D50010F0C6E26
:1005E000000E19200E6E000E1A20E56A0CC0E9FFFD
:1005F0000EC0F3FFD1EC2CF00DC00CF019C00EF0C2
:100600001AC00FF013C010F0105010E00CC0E9FF3A
:100610000EC0F3FF0F50F3EC2BF0176E175006E0EF
:100620000C2A02E30E4A0F2A1006EED710C013F070
:1006300014501EE109C00CF00AC00EF010C00FF0FB
:100640000F5010E01550E56E0250E56E0150E56E5A
:100650000050E56EAEEC15F0040EE1260C4A0E2AB1
:100660000F06EED70CC009F00EC00AF00FC013F051
:1006700016C00CF00DC00DF019C00EF01AC00FF02E
:1006800009C010F00AC015F00DC0E9FF0EC0F3FF5D
:100690000F50F3EC2BF0166E1650D8B43ED00CC0B1
:1006A00016F0176A161E171E1650171005E00CC01C
:1006B00016F00C06165031E00DC0E9FF0EC0F3FF36
:1006C0000F50F3EC2BF0116E125010E01150E56E4C
:1006D0009EEC2AF0166EE652165004E0DF0E11145E
:1006E000166E02D011C016F016C011F01150E56E52
:1006F0000250E56E0150E56E0050E56EAEEC15F06F
:10070000040EE1260D2A02E30E4A0F2A104A152A8A
:100710001350D8B4B9D71306B7D710C009F015C015
:100720000AF014502BE010C00CF015C00DF013C0EF
:100730000EF00E501FE0200EE56E0250E56E0150E7
:10074000E56E0050E56EAEEC15F0040EE1260C4AA5
:100750000D2A0E06EED70B50E56E0250E56E0150E5
:10076000E56E0050E56EAEEC15F0040EE126094A88
:100770000A2A04D00CC009F00DC00AF0032A02E3D3
:10078000044A052A7FEF00F00AC0F3FF0950E4CFC6
:100790001EF0E4CF1DF0E4CF1CF0E4CF1BF0E4CF5B
:1007A0001AF0E4CF19F0E4CF18F0E4CF17F0E4CF5B
:1007B00016F0E4CF15F0E4CF14F0E4CF13F0E4CF5B
:1007C00012F0E4CF11F0E4CF10F0E4CF0FF0E4CF5B
:1007D0000EF0E4CF0DF0E4CF0CF0E4CF0BF0E4CF5B
:1007E0000AF0E4CF09F0E4CF08F0E4CF07F0E4CF5B
:1007F00006F0E4CF05F0E4CF04F0E4CF03F0E4CF5B
:1008000002F0E4CF01F0E4CF00F0E4CFD9FF120012
:100810003C4E4F20464C4F41543E000000C0E5FF87
:1008200001C0E5FF02C0E5FF03C0E5FF04C0E5FF2E
:100830006EEC26F0006EF3CF01F0F4CF02F0E9CFBA
:1008400003F00401CE51005ECF51015AD051025A3B
:10085000D151035A039E3F0E035C08E1FF0E025C78
:1008600005E1FF0E015C02E1FF0E005C02E2040103
:10087000D26B060E0401CC5D32E2FA6AFB6ACC351B
:10088000FA36E834FA36FC0B980FE56E080EFA22B9
:10089000000EFB22E450F96E58EF04F05CEF04F018
:1008A00060EF04F064EF04F068EF04F06CEF04F024
:1008B000010E0401CD6F13D0020E0401CD6F0FD0D5
:1008C000030E0401CD6F0BD0040E0401CD6F07D0D1
:1008D000050E0401CD6F03D0060E0401CD6F040197
:1008E000CC2BCC5104019F5D02E20401CC6B6EEC79
:1008F00026F00301046FF3CF05F3F4CF06F3E9CF3D
:1009000007F30EEC21F06EEC26F0006EF3CF01F051
:10091000F4CF02F0E9CF03F003010451005E05516A
:10092000015A0651025A0751035A00500401346F0C
:100930000150356F0250366F7F0E0314376F04017C
:10094000CD51E56EE56A800EE56E040EE56E940EFF
:10095000E56E5EEC0FF0050EE126800EE56E040EEE
:10096000E56E940EE56EE1EC21F0030EE126040144
:10097000A0510401396F640E3A6F960E3B6FC80E9A
:100980003C6F010EE56E040EE56E800EE56E040E02
:10099000E56E390EE56EC1EC16F0006E050EE1262F
:1009A000005034E1800EE56E030EE56E340EE56E08
:1009B000800EE56E030EE56E330EE56E800EE56E7D
:1009C000030EE56E320EE56EC6EC18F0090EE12658
:1009D00034C300F033C302F032C304F0E56A0050C0
:1009E000E56EE56A0250E56EE56A0450E56E000EBC
:1009F000E56E1F0EE56EDA0EE56E28EC23F0090EAB
:100A0000E12620EC1AF00401D25155D020EC1AF066
:100A10006EEC26F0006EF3CF01F0F4CF02F0E9CFD8
:100A200003F003010451005E0551015A0651025AB8
:100A30000751035A00500F01306F0150316F0250BF
:100A4000326F7F0E0314336F46EC28F06EEC26F005
:100A5000006EF3CF01F0F4CF02F0E9CF03F0030111
:100A60000451005E0551015A0651025A0751035ABA
:100A700000500F01346F0150356F0250366F7F0EFA
:100A80000314376F010E0401D26F6EEC26F0F3CF22
:100A900001F0F4CF02F0E9CF03F0080F0401CE6FAC
:100AA000C20E0120CF6F0A0E0220D06F000E03206D
:100AB000D16F0401D251E4CF04F0E4CF03F0E4CFCE
:100AC00002F0E4CF01F0E4CF00F0120000C0E5FF37
:100AD00001C0E5FF02C0E5FF03C0E5FF04C0E5FF7C
:100AE00098EC26F0006E4C0A08E198EC26F0300AEB
:100AF00002E08B821ED18B921CD10050520A03E17E
:100B0000F0EC1EF016D10050430A09E10EEC04F09F
:100B1000016E015002E08B820CD18B920AD1005001
:100B20004F0A19E198EC26F0006E016A0050300A75
:100B300001E1012A0150D880E866D890026A0236A5
:100B4000025004019E6F015003E148EC29F0F1D0FE
:100B5000B1EC19F0EED00050500A0AE198EC26F002
:100B6000300A03E029EC29F0E4D00DEC2AF0E1D0C2
:100B70000050720A01E055D098EC26F0016ED00EBC
:100B80000124006E070E005CD8B0D3D0FA6AFB6A6D
:100B90000034FA36E834FA36FC0BAA0FE56E0B0E79
:100BA000FA22000EFB22E450F96EE3EF05F0E9EFC4
:100BB00005F0EFEF05F0F5EF05F0F8EF05F00CEFBD
:100BC00006F099EF06F0010EE56E27EC20F0E652F4
:100BD000B0D0050EE56E20EC24F0E652AAD04C0E03
:100BE000E56EBDEC29F0E652A4D022EC2CF0A1D0A9
:100BF000000EE56ADAEC1FF0016EE6520150D8A44F
:100C000098D0000EE56E1F0EE56ED20EE56E28EC54
:100C100023F0030EE1268DD016EC2DF010EC2DF014
:100C200088D00050700A08E198EC26F0300A02E102
:100C30008A807FD08A907DD000504D0A01E04CD050
:100C4000420E0001E06F1F0EE16FE26BE36BE46B9D
:100C5000E56BE66BE76BE86BE96BEA6BEB6BEC6BF8
:100C6000ED6BEE6BEF6BF06BF16BF26BF36BF46BA8
:100C7000F56BF66BF76BF86BF96BFA6BFB6BFC6B58
:100C8000FD6BFE6BFF6B016A0150026E022A022AA5
:100C9000036A02BE0368E00E0226000E0322015022
:100CA000E56E73EC2BF0046EE65202C0E9FF03C060
:100CB000EAFF04C0EFFF012A1D0E015CE5E3200EF0
:100CC000E56E800EE56E000EE56EE00EE56E46EC1C
:100CD00017F0040EE1262DD00050410A2AE1420E01
:100CE0000401236F200E246F256B266B276B286B66
:100CF000296B2A6B2B6B2C6B2D6B2E6B2F6B306B38
:100D0000316B326B336B800EE56E040EE56E250E93
:100D1000E56EA6EC0AF0030EE126110EE56E800EDC
:100D2000E56E040EE56E230EE56E46EC17F0040E3C
:100D3000E126E4CF04F0E4CF03F0E4CF02F0E4CF07
:100D400001F0E4CF00F0120000C0E5FF01C0E5FFB4
:100D500002C0E5FF03C0E5FF0401D851D8B40CD1AF
:100D60009DA81DD09EA81BD003013F5103013C1933
:100D700005E14EEC2CF003013C6BFED0000E0301AC
:100D80003F25006E016A040E012200C0E9FF01C088
:100D9000EAFFEFCF38F33F2B38C3ADFFEDD09DAA6C
:100DA000EBD09EAAE9D0ABA205D003013D814EEC69
:100DB0002CF0E2D0ABA405D003013D834EEC2CF027
:100DC000DBD0ABA048D0AECF38F3D9C400F0016A75
:100DD000008E38C302F0036A0250001803E103508A
:100DE000011801E004D003013D89AB96C5D0030191
:100DF000385104E038510401D91929E103013D9922
:100E0000AB960301385103E003013D9702D0030183
:100E10003D8738C341F33AC342F303013A51006EB0
:100E200000040301436F600E03014225006E016A56
:100E3000000E012200C0E9FF01C0EAFF38C3EFFF46
:100E4000422B4251800A02E10301426B95D003011B
:100E50003D99AB8691D0AECF38F303013DA921D0A7
:100E6000D9C400F0016A008E38C302F0036A025050
:100E7000001803E10350011801E011D09D9AAB98CE
:100E8000949003013C5104E1AD6A4EEC2CF007D084
:100E900000C4ADFF010E03013F6F9D886DD0AB868E
:100EA0006BD0030138510301412703014251030173
:100EB00043191BE1030141510CE142C33AF3030121
:100EC0003DB712D09D9AAB989490AD6A4EEC2CF041
:100ED0000BD003013D853DB707D09D9AAB98949008
:100EE000010EAD6E4EEC2CF047D0030142510301D0
:100EF0003B1908E103013B5103013A1903E04EECB1
:100F00002CF03AD03AC300F0016A004A012AE56A9F
:100F1000800EE56E0150E56E0050E56E8EEC1AF025
:100F2000006E040EE12600500301396F03014219DF
:100F30000FE138C300F01F0E00140301436F006E71
:100F4000020E0024436F03013A5103014327439FDC
:100F500042C300F00301422B016A600E0026000E1E
:100F6000012200C0E9FF01C0EAFF38C3EFFF425190
:100F7000800A02E10301426BE4CF03F0E4CF02F008
:100F8000E4CF01F0E4CF00F01200D9CFE5FFE1CFCC
:100F9000D9FF00C0E5FF01C0E5FF02C0E5FF03C0C7
:100FA000E5FF04C0E5FF05C0E5FF06C0E5FF07C09B
:100FB000E5FF020EDBCF00F0030EDBCF01F0040EE5
:100FC000DBCF02F0050EDBCF03F0060EDBCF04F023
:100FD000070EDBCF05F0080EDBCF06F0090EDBCFE6
:100FE00007F000500301186F0150196F02501A6F7B
:100FF00003501B6F045003011C6F05501D6F0650FA
:101000001E6F07501F6F0301185103011E03F4CF19
:1010100001F0F3CF00F000500301226F0150236F65
:101020000301185103011C03F4CF01F0F3CF00F0CA
:1010300000500301206F0150216F03011B51030178
:101040001C03F3CF00F00301235100260050236F4F
:1010500003011A5103011D03F3CF01F001500026D3
:1010600000500301236F03011A5103011C03F4CF45
:1010700001F0F3CF00F00301225100262351012299
:101080000050226F0150236F0301195103011D030A
:10109000F4CF03F0F3CF02F00250002603500122F8
:1010A00000500301226F0150236F03011951030106
:1010B0001E03F3CF00F000500301276F0301195105
:1010C00003011C03F4CF01F0F3CF00F00050030143
:1010D000256F0150266F0301185103011F03F3CF41
:1010E00000F0005003012B6F0301185103011D0391
:1010F000F4CF01F0F3CF00F000500301296F01504D
:101100002A6F0301246B0301286B0301245103019F
:101110002025006E0301255103012121016E0301E9
:10112000265103012221026E0301275103012321CD
:10113000036E0050206F0150216F0250226F035048
:10114000236F0301285103012025006E030129515B
:1011500003012121016E03012A5103012221026EA4
:1011600003012B5103012321036E03C0E9FF02C0D9
:10117000F4FF01C0F3FF0050E4CF07F0E4CF06F026
:10118000E4CF05F0E4CF04F0E4CF03F0E4CF02F0C5
:10119000E4CF01F0E4CF00F0E4CFD9FF1200D9CFC3
:1011A000E5FFE1CFD9FF00C0E5FF01C0E5FF02C0C8
:1011B000E5FF03C0E5FF04C0E5FF05C0E5FF06C08D
:1011C000E5FF07C0E5FF08C0E5FF09C0E5FF0AC06D
:1011D000E5FF020EDBCF00F0030EDBCF01F0040EC3
:1011E000DBCF02F0050EDBCF03F000501BE1035014
:1011F000096E0250086E0150076E4AC30AF0E56A94
:101200000A50E56E0950E56E0850E56E0750E56E30
:10121000800EE56E040EE56E790EE56EC9EC17F0F2
:10122000080EE126070E005CD8B092D0020E005CDA
:1012300022E2BE0E0024046E056A590E0522066ADB
:10124000000E062204C0F6FF05C0F7FF06C0F8FF37
:101250000900F5CF04F003014A51E56E0350E56E35
:101260000250E56E0150E56E0450E56EF9EC1DF09C
:10127000050EE12620D0BE0E0024046E056A590E2C
:101280000522066A000E062204C0F6FF05C0F7FF1D
:1012900006C0F8FF0900F5CF04F0010EE56E03501B
:1012A000E56E0250E56E0150E56E0450E56EF9EC16
:1012B0001DF0050EE126C40E0024016E026A590ECF
:1012C0000222036A000E032201C0F6FF02C0F7FFEC
:1012D00003C0F8FF0900F5CF01F003014851E56EA6
:1012E0000150E56E3CEC27F0E652E652020EE56E48
:1012F000ABEC28F0016EE652026A036AB80E0026D3
:10130000590E0222000E032200C0F6FF02C0F7FFB2
:1013100003C0F8FF0900F5CF00F0010E026E005087
:101320000DE006E6E86CD8900236010FFDE306D02A
:10133000D89002BED8800232010FFBE301500212A6
:101340000250E56E020EE56E3CEC27F0E652E652E6
:10135000E4CF0AF0E4CF09F0E4CF08F0E4CF07F0DF
:10136000E4CF06F0E4CF05F0E4CF04F0E4CF03F0DF
:10137000E4CF02F0E4CF01F0E4CF00F0E4CFD9FFF6
:101380001200E70E0401816F826F836F846F856F97
:10139000C20E04018A6F8B6F8C6F8D6F8E6F080E7B
:1013A000E56E000EE56A3CEC27F0E652E6523F0E91
:1013B000E56E010EE56E3CEC27F0E652E652030EB8
:1013C000E56E020EE56E3CEC27F0E652E652030EA7
:1013D000E56EE56E3CEC27F0E652E652030EE56E54
:1013E000040EE56E3CEC27F0E652E652020EE56E86
:1013F000050EE56E3CEC27F0E652E6520E0EE56E69
:10140000060EE56E3CEC27F0E652E6520E0EE56E57
:10141000070EE56E3CEC27F0E652E652E56A080E50
:10142000E56E3CEC27F0E652E652E56A090EE56E01
:101430003CEC27F0E652E652050EE56E800EE56EB6
:10144000040EE56E810EE56E0A0EE56EF9EC1DF0F8
:10145000050EE126E56E800EE56E040EE56E8A0E41
:10146000E56E0B0EE56EF9EC1DF0050EE126C30EE0
:10147000E56E0C0EE56E3CEC27F0E652E652C40E2B
:10148000E56E0D0EE56E3CEC27F0E652E652C50E19
:10149000E56E0E0EE56E3CEC27F0E652E652C60E07
:1014A000E56E0F0EE56E3CEC27F0E652E652050EB7
:1014B000E56E800EE56E040EE56E810EE56E100E93
:1014C000E56EF9EC1DF0050EE126E56A110EE56EFC
:1014D0003CEC27F0E652E652E56A120EE56E3CEC73
:1014E00027F0E652E652E56A130EE56E3CEC27F073
:1014F000E652E652E56A140EE56E3CEC27F0E65241
:10150000E652E56A150EE56E3CEC27F0E652E6522F
:10151000E56A160EE56E3CEC27F0E652E652110E37
:10152000E56E170EE56E3CEC27F0E652E652E56AF2
:101530001C0EE56E3CEC27F0E652E652E56A1D0E05
:10154000E56E3CEC27F0E652E6521200D9CFE5FFFB
:10155000E1CFD9FF00C0E5FF01C0E5FF02C0E5FF14
:1015600003C0E5FF04C0E5FF05C0E5FF06C0E5FFD9
:10157000020EDBCF00F0030EDBCF01F0040EDBCF59
:1015800002F0BE0EF66E590EF76E000EF86E0900F0
:10159000F5CF03F0050EE56E0250E56E0150E56EE5
:1015A0000050E56E0350E56EA5EC1DF0050EE1263A
:1015B000BF0EF66E590EF76E000EF86E0900F5CFED
:1015C00003F00050050F046E000E0120056E000EA2
:1015D0000220066E050EE56E0650E56E0550E56EBE
:1015E0000450E56E0350E56EA5EC1DF0050EE126F6
:1015F000C00EF66E590EF76E000EF86E0900F5CFAC
:1016000003F000500A0F046E000E0120056E000E5C
:101610000220066E010EE56E0650E56E0550E56E81
:101620000450E56E0350E56EA5EC1DF0050EE126B5
:10163000C10EF66E590EF76E000EF86E0900F5CF6A
:1016400003F000500B0F046E000E0120056E000E1B
:101650000220066E010EE56E0650E56E0550E56E41
:101660000450E56E0350E56EA5EC1DF0050EE12675
:10167000C20EF66E590EF76E000EF86E0900F5CF29
:1016800003F000500C0F046E000E0120056E000EDA
:101690000220066E010EE56E0650E56E0550E56E01
:1016A0000450E56E0350E56EA5EC1DF0050EE12635
:1016B000C30EF66E590EF76E000EF86E0900F5CFE8
:1016C00003F00D0E0026000E01220222010EE56E2F
:1016D0000250E56E0150E56E0050E56E0350E56E78
:1016E000A5EC1DF0050EE126E4CF06F0E4CF05F0F1
:1016F000E4CF04F0E4CF03F0E4CF02F0E4CF01F054
:10170000E4CF00F0E4CFD9FF1200D9CFE5FFE1CF5D
:10171000D9FF00C0E5FF01C0E5FF02C0E5FF03C03F
:10172000E5FF04C0E5FF05C0E5FF06C0E5FF07C013
:10173000E5FF08C0E5FF09C0E5FF0AC0E5FF0BC0F3
:10174000E5FF0CC0E5FF0DC0E5FF0EC0E5FF0FC0D3
:10175000E5FF020EDBCF00F0030EDBCF01F0040E3D
:10176000DBCF02F0050EDBCF03F0060EDBCF04F07B
:10177000045007E0B1EC19F0010EE56E99EC2BF086
:10178000E652D1EC24F0046EF3CF05F0F4CF06F06E
:10179000E9CF07F000505F0F086E000E0120096EC0
:1017A000000E02200A6E000E03200B6E170EE56E6F
:1017B000ABEC28F00C6EE6520CB85DD00AEC2DF0C4
:1017C0000C6E0CA838D0100EE56E070EE56E3CECE2
:1017D00027F0E652E652000EE56A99EC2BF0E6524D
:1017E000010EE56E99EC2BF0E652D1EC24F00C6E74
:1017F000F3CF0DF0F4CF0EF0E9CF0FF004500C5EF4
:1018000005500D5A06500E5A07500F5A03500F5CE0
:1018100008E102500E5C05E101500D5C02E1005050
:101820000C5C09E3000EE56A99EC2BF0E65210EC33
:101830002DF0E86A26D0D1EC24F00C6EF3CF0DF039
:10184000F4CF0EF0E9CF0FF004500C5E05500D5AA6
:1018500006500E5A07500F5A0F500B5C08E10E50FD
:101860000A5C05E10D50095C02E10C50085CD8B03F
:101870009DD7E86A06D0000EE56A99EC2BF0E65297
:10188000010EE4CF0FF0E4CF0EF0E4CF0DF0E4CF83
:101890000CF0E4CF0BF0E4CF0AF0E4CF09F0E4CF92
:1018A00008F0E4CF07F0E4CF06F0E4CF05F0E4CF92
:1018B00004F0E4CF03F0E4CF02F0E4CF01F0E4CF92
:1018C00000F0E4CFD9FF1200D9CFE5FFE1CFD9FF77
:1018D00000C0E5FF01C0E5FF02C0E5FF03C0E5FF72
:1018E00004C0E5FF05C0E5FF06C0E5FF07C0E5FF52
:1018F00008C0E5FF09C0E5FF0AC0E5FF0BC0E5FF32
:101900000CC0E5FF0DC0E5FF0EC0E5FF0FC0E5FF11
:1019100010C0E5FF11C0E5FF12C0E5FF13C0E5FFF1
:10192000020EDBCF00F0030EDBCF01F0040EDBCFA5
:1019300002F0050EDBCF03F0060EDBCF04F0070E3E
:10194000DBCF05F0080EDBCF06F0090EDBCF07F08A
:10195000D1EC24F0086EF3CF09F0F4CF0AF0E9CF10
:101960000BF004505F0F0C6E000E05200D6E000E84
:1019700006200E6E000E07200F6E0AEC2DF0106E82
:1019800010A046D00AEC2DF0106E10A821D057EC14
:101990002AF0D1EC24F0106EF3CF11F0F4CF12F056
:1019A000E9CF13F00850105E0950115A0A50125A2C
:1019B0000B50135A1350075C08E11250065C05E106
:1019C0001150055C02E11050045C02E2E86A2ED07E
:1019D000D1EC24F0106EF3CF11F0F4CF12F0E9CF78
:1019E00013F00850105E0950115A0A50125A0B5049
:1019F000135A13500F5C08E112500E5C05E11150B0
:101A00000D5C02E110500C5CD8B0B7D7E86A0ED07C
:101A1000E56A0350E56E0250E56E0150E56E005038
:101A2000E56E59EC21F0050EE126010EE4CF13F02E
:101A3000E4CF12F0E4CF11F0E4CF10F0E4CF0FF0D8
:101A4000E4CF0EF0E4CF0DF0E4CF0CF0E4CF0BF0D8
:101A5000E4CF0AF0E4CF09F0E4CF08F0E4CF07F0D8
:101A6000E4CF06F0E4CF05F0E4CF04F0E4CF03F0D8
:101A7000E4CF02F0E4CF01F0E4CF00F0E4CFD9FFEF
:101A80001200D9CFE5FFE1CFD9FF00C0E5FF01C0CB
:101A9000E5FF02C0E5FF03C0E5FF04C0E5FF05C0A8
:101AA000E5FF06C0E5FF07C0E5FF08C0E5FF09C088
:101AB000E5FF0AC0E5FF0BC0E5FF0CC0E5FF0DC068
:101AC000E5FF0EC0E5FF0FC0E5FF020EDBCF00F023
:101AD000030EDBCF01F0040EDBCF02F0050EDBCFEF
:101AE00003F0060EDBCF04F0070EDBCF05F0080E87
:101AF000DBCF06F0200E076E086A06C009F00A6AFE
:101B00000B6A0C6AE56AE56AE56A0950E56E0350FE
:101B1000E56E0250E56E0150E56E0050E56EC1ECD9
:101B20000EF00D6E080EE126300E0D263A0E0D5CFD
:101B300005E30D500E6E270E0E240D6EFF0E0726C8
:101B40000822590E07240E6E040E08200F6E0EC0D8
:101B5000E9FF0FC0EAFF0DC0EFFF0C50E56E0B5020
:101B6000E56E0A50E56E0950E56E0350E56E0250D1
:101B7000E56E0150E56E0050E56E76EC13F0006EF8
:101B8000F3CF01F0F4CF02F0E9CF03F0080EE12625
:101B90000050011002100310D8A4AFD707C000F006
:101BA00008C001F004C002F005C003F000C004F05A
:101BB00001C005F0004A012A590E0426040E052230
:101BC00004C0E9FF05C0EAFFEFCF04F002C0E9FF5F
:101BD00003C0EAFF04C0EFFF024A032A000E015CC3
:101BE00002E1200E005CE2E302C0E9FF03C0EAFF6D
:101BF000000EEF6AE4CF0FF0E4CF0EF0E4CF0DF06B
:101C0000E4CF0CF0E4CF0BF0E4CF0AF0E4CF09F01E
:101C1000E4CF08F0E4CF07F0E4CF06F0E4CF05F01E
:101C2000E4CF04F0E4CF03F0E4CF02F0E4CF01F01E
:101C3000E4CF00F0E4CFD9FF120000C0E5FF0301BC
:101C4000476B200E0301486F0301496B050E03012A
:101C50004A6F0301106F116B126B136B0401796BE8
:101C6000000EE56A99EC2BF0E652010EE56EA1EC50
:101C700029F0E6529398939A000EE56A99EC2BF0BE
:101C8000E652010EE56EA1EC29F0E65274EC20F06C
:101C9000E56AE56AE56A140EE56E4DEC12F0040E95
:101CA000E126C1EC09F0E56AE56AE56A050EE56E34
:101CB0004DEC12F0040EE1260C0EE56E000EE56A06
:101CC0003CEC27F0E652E652E56A020EE56E3CEC8B
:101CD00027F0E652E6520F0EE56E050EE56EC2ECF9
:101CE00026F0E652E6520E0EE56E060EE56E3CEC70
:101CF00027F0E652E652020EE56EDAEC1FF0006EB7
:101D0000E652005003E0010E0301476F000EE56A42
:101D1000DAEC1FF0E652E56A1D0EE56E3CEC27F0AA
:101D2000E652E652E56A1C0EE56E3CEC27F0E65200
:101D3000E6520301496B700EE56E070EE56E3CEC52
:101D400027F0E652E6524C0EE56EBDEC29F0E65265
:101D500016EC2DF010EC2DF029EC29F0000EE56AC0
:101D6000ABEC28F0006EE65200900050E56E000EDD
:101D7000E56A3CEC27F0E652E652E86AE4CF00F070
:101D80001200D9CFE5FFE1CFD9FF00C0E5FF01C0C8
:101D9000E5FF02C0E5FF03C0E5FF04C0E5FF05C0A5
:101DA000E5FF06C0E5FF07C0E5FF08C0E5FF09C085
:101DB000E5FF0AC0E5FF020EDBCF00F0030EDBCF2C
:101DC00001F0040EDBCF02F0050EDBCF03F0060EB0
:101DD000DBCF04F0070EDBCF05F0080EDBCF06F0FB
:101DE000090EDBCF07F0086A045005100610071033
:101DF00005E1E968F468F368E86847D0096A0750C4
:101E0000800BE8440A6E0A501BE104500426053694
:101E1000063607360750035C08E10650025C05E110
:101E20000550015C02E10450005C06E2D8900732E4
:101E300006320532043204D0092A09C008F0DFD77F
:101E40000750035C08E10650025C05E10550015CA7
:101E500002E10450005C08E30450005E0550015AA2
:101E60000650025A0750035AD890073206320532FC
:101E7000043208C009F008060950E2E103C0E9FF96
:101E800002C0F4FF01C0F3FF0050E4CF0AF0E4CF3A
:101E900009F0E4CF08F0E4CF07F0E4CF06F0E4CF98
:101EA00005F0E4CF04F0E4CF03F0E4CF02F0E4CF98
:101EB00001F0E4CF00F0E4CFD9FF1200D9CFE5FF65
:101EC000E1CFD9FF00C0E5FF01C0E5FF02C0E5FF9B
:101ED00003C0E5FF04C0E5FF05C0E5FF020EDBCF50
:101EE00000F0030EDBCF01F0040EDBCF02F0050E95
:101EF000DBCF03F0060EDBCF04F00338F00B056EEA
:101F00000450052605C0E5FF00C0E9FF01C0F3FF4E
:101F10000250D1EC2CF00050010F036E000E012096
:101F2000046E000E0220056E0A0EE56E03C0E9FF86
:101F300004C0F3FF0550D1EC2CF00050020F036EEB
:101F4000000E0120046E000E0220056E990EE56E53
:101F500003C0E9FF04C0F3FF0550D1EC2CF00050A2
:101F6000030F036E000E0120046E000E0220056EAA
:101F7000980EE56E03C0E9FF04C0F3FF0550D1ECF5
:101F80002CF0040E0026000E01220222970EE56EB0
:101F900000C0E9FF01C0F3FF0250D1EC2CF0E4CF08
:101FA00005F0E4CF04F0E4CF03F0E4CF02F0E4CF97
:101FB00001F0E4CF00F0E4CFD9FF12004320696EB6
:101FC000697452460A004352204320256420256448
:101FD0000A0043206572720A000043522065727243
:101FE0002025642025642025640A000000C0E5FF48
:101FF00001C0E5FF02C0E5FF03C0E5FF04C0E5FF47
:1020000003013B5103013A1901E16AD03BC300F0DF
:102010000050016E0128006E009E600E0024016ECB
:10202000026A000E022201C0E9FF02C0EAFFEFCF00
:1020300045F31F0E030145173BC344F3455103010C
:1020400044274451016E020E0124446F449F98ECD2
:1020500026F0016E015003E1016A012A01D0016AF4
:1020600098EC26F00301456F45C302F0800E02167E
:1020700045C303F01F0E031603C004F003C045F36D
:10208000045003E13AC33BF33ED001501EE002503E
:1020900025E098EC26F0006E03014551016E010425
:1020A000456F0050420A1AE000504E0A03E124EC4A
:1020B00022F014D00050460A03E1C6EC2CF00ED0FA
:1020C0000050490A0BE1FF0009D03BC346F3025020
:1020D00003E066EC05F002D069EC28F044C33BF362
:1020E0000401D5510401D61906E003013C5103E176
:1020F00023EC11F008D094B006D003013C5103E169
:10210000ACB24EEC2CF0E4CF04F0E4CF03F0E4CF1B
:1021100002F0E4CF01F0E4CF00F01200D9CFE5FFE8
:10212000E1CFD9FF00C0E5FF01C0E5FF02C0E5FF38
:1021300003C0E5FF04C0E5FF05C0E5FF06C0E5FFFD
:1021400007C0E5FF020EDBCF00F0030EDBCF01F08E
:10215000040EDBCF02F0050EDBCF03F06EEC26F0B1
:10216000046EF3CF05F0F4CF06F0E9CF07F003508B
:10217000E56E0250E56E0150E56E0050E56EE56AD1
:102180000F0EE56E420EE56E400EE56EC5EC07F0F3
:10219000006EF3CF01F0F4CF02F0E9CF03F0080EA8
:1021A000E126E56AE56A030EE56EE80EE56E03508A
:1021B000E56E0250E56E0150E56E0050E56E76EC7E
:1021C00013F0006EF3CF01F0F4CF02F0E9CF03F08B
:1021D000080EE12604500026055001220650022276
:1021E000075003226EEC26F0046EF3CF05F0F4CF17
:1021F00006F0E9CF07F00050045E0150055A025086
:10220000065A0350075A079E3F0E075C08E1FF0E6F
:10221000065C05E1FF0E055C02E1FF0E045CE2E2F4
:10222000E4CF07F0E4CF06F0E4CF05F0E4CF04F00C
:10223000E4CF03F0E4CF02F0E4CF01F0E4CF00F00C
:10224000E4CFD9FF120000C0E5FF01C0E5FF02C0E6
:10225000E5FF03C0E5FF04C0E5FFACA27ED0EBECD8
:1022600028F0006E005005E10401D66B0401D56B27
:1022700074D0D6C401F000500126EBEC28F0026EB9
:102280000050036E0304006E0250230A1FE1010E8A
:10229000005CD8A060D0EBEC28F0026E690A03E184
:1022A00012EC26F058D00250720A03E14EEC2CF0EA
:1022B00052D00250730A01E04ED09480AB869D8AC2
:1022C0009D98AE50AE50AB98AB8845D00250430AB3
:1022D00005E00250420A01E03ED006D000C003F003
:1022E000046A038E0350006E00C03EF300500401E8
:1022F000006F010E03013F6F0401D651011814E075
:10230000EBEC28F0026E03013E27000E03013F258F
:10231000006E036A040E032200C0E9FF03C0EAFF57
:1023200002C0EFFF3F2BE8D7000E03013F25006EF0
:10233000026A040E022203013E1D036E032A00C03E
:10234000E9FF02C0EAFF03C0EFFF03013F2B3FC3D9
:102350003CF30301366B01C0D6F4E4CF04F0E4CFC4
:1023600003F0E4CF02F0E4CF01F0E4CF00F012007C
:10237000D9CFE5FFE1CFD9FF00C0E5FF01C0E5FF00
:1023800002C0E5FF03C0E5FF04C0E5FF05C0E5FFAF
:1023900006C0E5FF07C0E5FF08C0E5FF09C0E5FF8F
:1023A0000AC0E5FF0BC0E5FF0CC0E5FF020EDBCF66
:1023B00000F0030EDBCF01F0040EDBCF02F0050EC0
:1023C000DBCF03F0060EDBCF04F0D1EC24F0056E7A
:1023D000F3CF06F0F4CF07F0E9CF08F00AEC2DF0C8
:1023E000096E09A02ED00AEC2DF0096E09A80AD0BA
:1023F000100EE56E070EE56E3CEC27F0E652E65255
:10240000E86A2ED0D1EC24F0096EF3CF0AF0F4CFB5
:102410000BF0E9CF0CF00550095E06500A5A075040
:102420000B5A08500C5A000E0C5C08E1000E0B5CB5
:1024300005E1000E0A5C02E1600E095CCFE3E86A88
:102440000FD00450E56E0350E56E0250E56E01506A
:10245000E56E0050E56E59EC21F0050EE126010E07
:10246000E4CF0CF0E4CF0BF0E4CF0AF0E4CF09F0B6
:10247000E4CF08F0E4CF07F0E4CF06F0E4CF05F0B6
:10248000E4CF04F0E4CF03F0E4CF02F0E4CF01F0B6
:10249000E4CF00F0E4CFD9FF1200D9CFE5FFE1CFC0
:1024A000D9FF00C0E5FF01C0E5FF02C0E5FF03C0A2
:1024B000E5FF04C0E5FF05C0E5FF06C0E5FF07C076
:1024C000E5FF020EDBCF00F0030EDBCF01F0040EC0
:1024D000DBCF02F0050EDBCF03F06EEC26F0046ECE
:1024E000F3CF05F0F4CF06F0E9CF07F00350E56E27
:1024F0000250E56E0150E56E0050E56EE56A0F0E84
:10250000E56E420EE56E400EE56EC5EC07F0006E1E
:10251000F3CF01F0F4CF02F0E9CF03F0080EE1268B
:10252000E56AE56A030EE56EE80EE56E0350E56EBA
:102530000250E56E0150E56E0050E56E76EC13F04A
:10254000006EF3CF01F0F4CF02F0E9CF03F0080EF4
:10255000E1260450002605500122065002220750B1
:1025600003226EEC26F0046EF3CF05F0F4CF06F0F4
:10257000E9CF07F00050045E0150055A0250065A98
:102580000350075A079E3F0E075C08E1FF0E065CEA
:1025900005E1FF0E055C02E1FF0E045CE2E2E4CF20
:1025A00007F0E4CF06F0E4CF05F0E4CF04F0E4CF89
:1025B00003F0E4CF02F0E4CF01F0E4CF00F0E4CF89
:1025C000D9FF1200D9CFE5FFE1CFD9FF00C0E5FF69
:1025D00001C0E5FF02C0E5FF03C0E5FF04C0E5FF61
:1025E00005C0E5FF06C0E5FF07C0E5FF020EDBCF33
:1025F00000F0030EDBCF01F0040EDBCF02F0050E7E
:10260000DBCF03F06EEC26F0046EF3CF05F0F4CFD1
:1026100006F0E9CF07F00350E56E0250E56E015079
:10262000E56E0050E56EE56AE56A030EE56EE80EBC
:10263000E56EC5EC07F0006EF3CF01F0F4CF02F0C9
:10264000E9CF03F0080EE126E56AE56A030EE56EC0
:10265000E80EE56E0350E56E0250E56E0150E56E42
:102660000050E56E76EC13F0006EF3CF01F0F4CF7E
:1026700002F0E9CF03F0080EE126045000260550D1
:10268000012206500222075003226EEC26F0046E4F
:10269000F3CF05F0F4CF06F0E9CF07F00050045E69
:1026A0000150055A0250065A0350075A079E3F0E22
:1026B000075C08E1FF0E065C05E1FF0E055C02E128
:1026C000FF0E045CE2E2E4CF07F0E4CF06F0E4CFD3
:1026D00005F0E4CF04F0E4CF03F0E4CF02F0E4CF60
:1026E00001F0E4CF00F0E4CFD9FF1200D9CFE5FF2D
:1026F000E1CFD9FF00C0E5FF01C0E5FF02C0E5FF63
:1027000003C0E5FF04C0E5FF05C0E5FF06C0E5FF27
:1027100007C0E5FF08C0E5FF09C0E5FF0AC0E5FF07
:102720000BC0E5FF0CC0E5FF0DC0E5FF020EDBCFDF
:1027300000F0030EDBCF01F0040EDBCF02F0050E3C
:10274000DBCF03F0060EDBCF04F0070EDBCF05F086
:10275000080EDBCF06F0090EDBCF07F0086A096A26
:102760000A6A0B6A200E0C6E0350800BE8440D6E53
:102770000050002601360236033608500826093676
:102780000A360B360D50D8A4088007500B5C08E1C0
:1027900006500A5C05E10550095C02E10450085C42
:1027A00009E30450085E0550095A06500A5A0750BA
:1027B0000B5A00800C040D6E0DC00CF00D50D4E1CE
:1027C00003C0E9FF02C0F4FF01C0F3FF0050E4CFF3
:1027D0000DF0E4CF0CF0E4CF0BF0E4CF0AF0E4CF3F
:1027E00009F0E4CF08F0E4CF07F0E4CF06F0E4CF3F
:1027F00005F0E4CF04F0E4CF03F0E4CF02F0E4CF3F
:1028000001F0E4CF00F0E4CFD9FF120000C0E5FFF3
:1028100001C0E5FF02C0E5FF03C0E5FF6EEC26F056
:10282000006EF3CF01F0F4CF02F0E9CF03F0040122
:10283000C751005EC851015AC951025ACA51035AC0
:10284000039E3F0E035C08E1FF0E025C05E1FF0EF4
:10285000015C02E1FF0E005C02E20401CB6B800E22
:10286000E56E030EE56E310EE56EE8EC22F0006ECB
:10287000030EE126005003E10401CB514CD0FDECE6
:1028800027F0006E010E005C03E20401CB5143D03F
:10289000200EE56E800EE56E040EE56EA50EE56E6B
:1028A00044EC25F0040EE126020E0024016E026ABB
:1028B00001BE0268A30E0126040E022201C0E9FF38
:1028C00002C0EAFF0A0EEF6E030E00260050E56E0E
:1028D000800EE56E040EE56EA30EE56E46EC17F075
:1028E000040EE126010E0401CB6F6EEC26F0F3CF4F
:1028F00001F0F4CF02F0E9CF03F0080F0401C76F35
:10290000C20E0120C86F0A0E0220C96F000E0320FC
:10291000CA6F0401CB51E4CF03F0E4CF02F0E4CF5F
:1029200001F0E4CF00F0120000C0E5FF01C0E5FFB8
:1029300003C0E5FF04C0E5FF05C0E5FF06C0E5FFF5
:1029400007C0E5FF08C0E5FF09C0E5FF0AC0E5FFD5
:102950000BC0E5FF7EC400F07FC401F004017E3FA0
:1029600001D07F2B0050E56E40EC2CF0E652076E54
:10297000046A056A066A7EC400F07FC401F004019F
:102980007E3F01D07F2B0050E56E40EC2CF0E652EC
:102990000B6A0A6E086A0850041205120A500612E1
:1029A0000B5007127EC400F07FC401F004017E3F8B
:1029B00001D07F2B0050E56E40EC2CF0E652036E08
:1029C000006A03C001F0E86A03BEFF0E086E096EDC
:1029D0000050041201500512085006120950071247
:1029E0007EC400F07FC401F004017E3F01D07F2B44
:1029F0000050E56E40EC2CF0E652016A04120150E2
:102A000005120612071207C0E9FF06C0F4FF05C051
:102A1000F3FF0450E4CF0BF0E4CF0AF0E4CF09F069
:102A2000E4CF08F0E4CF07F0E4CF06F0E4CF05F000
:102A3000E4CF04F0E4CF03F0E4CF01F0E4CF00F002
:102A40001200D9CFE5FFE1CFD9FF00C0E5FF01C0FB
:102A5000E5FF02C0E5FF03C0E5FF04C0E5FF05C0D8
:102A6000E5FF06C0E5FF07C0E5FF020EDBCF00F083
:102A7000030EDBCF01F0040EDBCF02F0050EDBCF3F
:102A800003F003C004F0056A0350D8B454D000C06A
:102A9000E9FF01C0F3FF0250F3EC2BF0066E430A8E
:102AA00008E1010E056E03C006F0076A068E0650A7
:102AB000036E0406002A02E3014A022A9D9AAB989B
:102AC00094909D989EA8FED7AC80AD6A00009EA809
:102AD000FED7AC9003C0ADFF00009EA8FED7055006
:102AE00004E0420EAD6E032604D0620EAD6E620E9F
:102AF0000326045015E000009EA8FED700C0E9FFA1
:102B000001C0F3FF0250F3EC2BF0056E05C0ADFFE2
:102B1000055003260406002A02E3014A022AE9D7E7
:102B200000009EA8FED7031CAD6EAD2A00009EA833
:102B3000FED74EEC2CF0E4CF07F0E4CF06F0E4CF64
:102B400005F0E4CF04F0E4CF03F0E4CF02F0E4CFEB
:102B500001F0E4CF00F0E4CFD9FF1200D9CFE5FFB8
:102B6000E1CFD9FF00C0E5FF01C0E5FF02C0E5FFEE
:102B700003C0E5FF04C0E5FF05C0E5FF06C0E5FFB3
:102B800007C0E5FF020EDBCF00F0030EDBCF01F044
:102B9000040EDBCF02F0050EDBCF03F002C006F01F
:102BA0000650046E800A33E100C0E9FF01C0F3FF64
:102BB0000250D8EC29F0056EF3CF06F0F4CF07F001
:102BC00003C0E5FF05C0E9FF06C0F3FF0750D1ECE5
:102BD0002CF000C0E9FF01C0F3FF0250D8EC29F04F
:102BE000056EF3CF06F0F4CF07F0052A02E3064A9C
:102BF000072A05C0E5FF06C0F4FF07C0F6FF00C0C6
:102C0000E9FF01C0F3FF025031EC2CF020D004C0EA
:102C100000F000AA1CD0007A0050046E04E10350BA
:102C20002DEC2DF014D00450010A04E1035002EC05
:102C300000F00DD004500F0A04E10350E1EC25F040
:102C400006D004500E0A03E1035046EC2DF0E4CF09
:102C500007F0E4CF06F0E4CF05F0E4CF04F0E4CFD2
:102C600003F0E4CF02F0E4CF01F0E4CF00F0E4CFD2
:102C7000D9FF120000C0E5FF01C0E5FF02C0E5FF7B
:102C800003C0E5FFF6EC0FF006EC14F0006E005008
:102C900002E08B8201D08B926EEC26F0006EF3CFB7
:102CA00001F0F4CF02F0E9CF03F003010051005E20
:102CB0000151015A0251025A0351035A039E3F0E19
:102CC000035C08E1FF0E025C05E1FF0E015C02E11E
:102CD000FF0E005CD8B04CD06EEC26F0F3CF01F0C4
:102CE000F4CF02F0E9CF03F0700F0301006F170E6D
:102CF0000120016F000E0220026F000E0320036FFF
:102D00000401935105E004019F51D8A40EEC04F096
:102D1000A1C400F0A2C401F00401A13F01D0A22B84
:102D20000050320A02E1015001E022D00401A16BFF
:102D3000A26B13EC2CF093C402F0E56AE56EE56A31
:102D40000250E56E000EE56E1F0EE56EC60EE56ED6
:102D500028EC23F0070EE1264BEC2BF0006E005020
:102D600002E10401936B04019351D8B4F0EC1EF01E
:102D7000E4CF03F0E4CF02F0E4CF01F0E4CF00F0C1
:102D80001200D9CFE5FFE1CFD9FF00C0E5FF01C0B8
:102D9000E5FF02C0E5FF03C0E5FF04C0E5FF05C095
:102DA000E5FF06C0E5FF07C0E5FF020EDBCF00F040
:102DB000030EDBCF01F0040EDBCF02F0050EDBCFFC
:102DC00003F0060EDBCF04F00450E56E0350E56E11
:102DD0000250E56E0150E56E0050E56E59EC21F0B1
:102DE000050EE126D1EC24F0006EF3CF01F0F4CF14
:102DF00002F0E9CF03F00AEC2DF0300B1FE1D1EC2B
:102E000024F0046EF3CF05F0F4CF06F0E9CF07F01D
:102E10000050045E0150055A0250065A0350075AEA
:102E2000000E075C08E1000E065C05E1000E055C83
:102E300002E1600E045CDFE3E86A15D0000EE56A8B
:102E400099EC2BF0E652700EE56E070EE56E3CEC49
:102E500027F0006EE652E65200A804D010EC2DF0E8
:102E6000E86A01D0010EE4CF07F0E4CF06F0E4CF2A
:102E700005F0E4CF04F0E4CF03F0E4CF02F0E4CFB8
:102E800001F0E4CF00F0E4CFD9FF1200D9CFE5FF85
:102E9000E1CFD9FF00C0E5FF01C0E5FF02C0E5FFBB
:102EA00003C0E5FF04C0E5FF05C0E5FF06C0E5FF80
:102EB00007C0E5FF020EDBCF00F0030EDBCF01F011
:102EC000040EDBCF02F0050EDBCF03F0D6C4D7F43F
:102ED0000401D5510401D75FD751046E0404D76FA4
:102EE00003C004F0056A030E0426D8B0052AD7C42F
:102EF00006F0076A0750800FF36E0550800FF35CF1
:102F000002E10450065C02E2E86830D0020E035C85
:102F100002E2E86A2BD00350046E0404036EE56EEF
:102F2000E4EC23F0E652046A0350045C14E204501B
:102F30000024056EE86A0120066EE86A022005C0DA
:102F4000E9FF06C0F3FFF3EC2BF0042AE56EE4EC96
:102F500023F0E652E9D7D6C4D7F40401D5510401D1
:102F6000D75FD751006E0004D76FE86AE4CF07F04F
:102F7000E4CF06F0E4CF05F0E4CF04F0E4CF03F0B3
:102F8000E4CF02F0E4CF01F0E4CF00F0E4CFD9FFCA
:102F90001200D9CFE5FFE1CFD9FF00C0E5FF01C0A6
:102FA000E5FF02C0E5FF03C0E5FF04C0E5FF05C083
:102FB000E5FF06C0E5FF07C0E5FF08C0E5FF09C063
:102FC000E5FF0AC0E5FF0BC0E5FF0CC0E5FF020E00
:102FD000DBCF00F0030EDBCF01F0040EDBCF02F0FD
:102FE000050EDBCF03F0060EDBCF04F0070EDBCFC0
:102FF00005F0080EDBCF06F0090EDBCF07F002501C
:103000000A6E0150096E0050086E06C00BF007C032
:103010000CF0FF0E062607220B500C101AE003C01E
:10302000E9FF04C0F3FF0550F3EC2BF00B6E032A0D
:1030300002E3044A052A0BC0E5FF08C0E9FF09C006
:10304000F3FF0A50D1EC2CF0082ADFE3094A0A2AE0
:10305000DCD702C0F4FF01C0F3FF0050E4CF0CF056
:10306000E4CF0BF0E4CF0AF0E4CF09F0E4CF08F0AE
:10307000E4CF07F0E4CF06F0E4CF05F0E4CF04F0AE
:10308000E4CF03F0E4CF02F0E4CF01F0E4CF00F0AE
:10309000E4CFD9FF1200D9CFE5FFE1CFD9FF00C0BF
:1030A000E5FF01C0E5FF02C0E5FF03C0E5FF04C086
:1030B000E5FF05C0E5FF06C0E5FF07C0E5FF020E1E
:1030C000DBCF00F0030EDBCF01F0040EDBCF02F00C
:1030D000050EDBCF03F0060EDBCF04F003014851F1
:1030E000035C03E203C005F002D048C305F005C04D
:1030F00003F00301495102E0056A06D003500301C1
:10310000485D076E07C005F022EC2DF00450E56E17
:1031100094EC2CF0046EE65203C006F00306065051
:1031200012E000C0E9FF01C0F3FF0250F3EC2BF006
:10313000066E002A02E3014A022A0650E56E94EC6C
:103140002CF0E652E9D705C000F000C001F00006FF
:10315000015006E0000EE56A94EC2CF0E652F5D73B
:103160001CEC2DF00450E4CF07F0E4CF06F0E4CFE0
:1031700005F0E4CF04F0E4CF03F0E4CF02F0E4CFB5
:1031800001F0E4CF00F0E4CFD9FF1200D9CFE5FF82
:10319000E1CFD9FF00C0E5FF01C0E5FF02C0E5FFB8
:1031A00003C0E5FF04C0E5FF05C0E5FF06C0E5FF7D
:1031B00007C0E5FF08C0E5FF09C0E5FF0AC0E5FF5D
:1031C000020EDBCF00F0030EDBCF01F0040EDBCFED
:1031D00002F0050EDBCF03F0060EDBCF04F0070E86
:1031E000DBCF05F0080EDBCF06F0090EDBCF07F0D2
:1031F0000A0EDBCF08F0700EE56E070EE56E3CECB4
:1032000027F0096EE652E652200E09140A6E0AC033
:10321000E5FF00C0E9FF01C0F3FF0250D1EC2CF044
:10322000100E0914006E00C0E5FF03C0E9FF04C0E2
:10323000F3FF0550D1EC2CF0400E091609C0E5FF54
:1032400006C0E9FF07C0F3FF0850D1EC2CF0E4CF33
:103250000AF0E4CF09F0E4CF08F0E4CF07F0E4CFC0
:1032600006F0E4CF05F0E4CF04F0E4CF03F0E4CFC0
:1032700002F0E4CF01F0E4CF00F0E4CFD9FF120078
:10328000D9CFE5FFE1CFD9FF00C0E5FF01C0E5FFE1
:1032900002C0E5FF03C0E5FF04C0E5FF05C0E5FF90
:1032A00006C0E5FF020EDBCF00F0030EDBCF01F01E
:1032B000040EDBCF02F0050EDBCF03F00350030159
:1032C000485DD8A048C303F00301495102E0046AF5
:1032D00006D003500301485D066E06C004F022ECE0
:1032E0002DF0610EE56E94EC2CF0056EE65203C0F5
:1032F00006F00306065014E0FF0EE56894EC2CF08F
:10330000066EE65206C0E5FF00C0E9FF01C0F3FF0C
:103310000250D1EC2CF0002AEAE3014A022AE7D756
:1033200004C000F000C001F00006015006E0FF0EEE
:10333000E56894EC2CF0E652F5D71CEC2DF0055026
:10334000E4CF06F0E4CF05F0E4CF04F0E4CF03F0DF
:10335000E4CF02F0E4CF01F0E4CF00F0E4CFD9FFF6
:10336000120000C0E5FF01C0E5FF02C0E5FF000E4E
:10337000E56A99EC2BF0E65203011751E56E165100
:10338000E56E1551E56E1451E56EE2EC12F0040E97
:10339000E1261D0EE56EABEC28F0006EE65200A2B1
:1033A0000FD003011751E56E1651E56E1551E56E0C
:1033B0001451E56EE2EC12F0040EE12610EC2DF053
:1033C000000EE56EABEC28F0006EE6520090005067
:1033D000E56E000EE56E3CEC27F0E652E652020E7A
:1033E000E56EABEC28F0006EE652B80EF66E590EA4
:1033F000F76E000EF86E0900F5CF01F0010E026EB7
:1034000001500DE006E6E86CD8900236010FFDE3AE
:1034100006D0D89002BED8800232010FFBE30050E4
:1034200002120250E56E020EE56E3CEC27F0E65209
:10343000E652E4CF02F0E4CF01F0E4CF00F0120056
:1034400000C0E5FF01C0E5FF02C0E5FF03C0E5FFE6
:1034500004C0E5FF05C0E5FF06C0E5FF07C0E5FFC6
:10346000D1EC24F0006EF3CF01F0F4CF02F0E9CFFD
:1034700003F0170EE56EABEC28F0046EE65204B8CC
:1034800036D00AEC2DF0046E04A811D0100EE56EB3
:10349000070EE56E3CEC27F0E652E652000EE56AB8
:1034A00099EC2BF0E65210EC2DF0E86A26D0D1EC26
:1034B00024F0046EF3CF05F0F4CF06F0E9CF07F067
:1034C0000050045E0150055A0250065A0350075A34
:1034D000000E075C08E1000E065C05E1000E055CCD
:1034E00002E1600E045CD8A0C4D7E86A06D0000EE2
:1034F000E56A99EC2BF0E652010EE4CF07F0E4CF39
:1035000006F0E4CF05F0E4CF04F0E4CF03F0E4CF1D
:1035100002F0E4CF01F0E4CF00F01200D9CFE5FFD4
:10352000E1CFD9FF00C0E5FF01C0E5FF02C0E5FF24
:1035300003C0E5FF04C0E5FF05C0E5FF06C0E5FFE9
:10354000020EDBCF00F0030EDBCF01F0040EDBCF69
:1035500002F0050EDBCF03F0D88001AED890046AEC
:103560000436045007E0011C066E001C056E054A77
:10357000062A04D000C005F001C006F0D88003AED2
:10358000D89007E3031C016E021C006E004A012A5A
:1035900004D002C000F003C001F00150E56E0050FD
:1035A000E56E0650E56E0550E56EEFEC1CF0006E22
:1035B000F3CF01F0040EE12604500AE0011C036E73
:1035C000001C026E024A032A03C0F3FF025003D01C
:1035D00001C0F3FF0050E4CF06F0E4CF05F0E4CFE4
:1035E00004F0E4CF03F0E4CF02F0E4CF01F0E4CF45
:1035F00000F0E4CFD9FF1200D9CFE5FFE1CFD9FF2A
:1036000000C0E5FF01C0E5FF02C0E5FF03C0E5FF24
:1036100004C0E5FF05C0E5FF020EDBCF00F0030E9E
:10362000DBCF01F0040EDBCF02F0050EDBCF03F0A1
:103630007EC404F07FC405F004017E3F01D07F2BDF
:103640000350E56E0450E56E22EC28F0E652E65297
:103650007EC404F07FC405F004017E3F01D07F2BBF
:103660000250056EE56E0450E56E22EC28F0E6523D
:10367000E6527EC404F07FC405F004017E3F01D011
:103680007F2B0150E56E0450E56E22EC28F0E652E7
:10369000E6527EC404F07FC405F004017E3F01D0F1
:1036A0007F2B0050E56E0450E56E22EC28F0E652C8
:1036B000E652E4CF05F0E4CF04F0E4CF03F0E4CF2A
:1036C00002F0E4CF01F0E4CF00F0E4CFD9FF120024
:1036D000D9CFE5FFE1CFD9FF00C0E5FF01C0E5FF8D
:1036E00002C0E5FF03C0E5FF04C0E5FF05C0E5FF3C
:1036F00006C0E5FF020EDBCF00F0030EDBCF01F0CA
:10370000040EDBCF02F00301355119E194EC14F003
:10371000036EF3CF04F0F4CF05F0E9CF06F003C059
:10372000E5FF04C0F4FF05C0F6FF06C0F7FF00C0C8
:10373000E9FF01C0F3FF0250E2EC2BF01ED00301C1
:103740003551010A1AE100C0E9FF01C0F3FF025040
:10375000CBEC28F0006EF3CF01F0F4CF02F0E9CF0C
:1037600003F00350E56E0250E56E0150E56E005027
:10377000E56EFCEC1AF0040EE126E4CF06F0E4CF8F
:1037800005F0E4CF04F0E4CF03F0E4CF02F0E4CF9F
:1037900001F0E4CF00F0E4CFD9FF1200D9CFE5FF6C
:1037A000E1CFD9FF00C0E5FF01C0E5FF02C0E5FFA2
:1037B00003C0E5FF04C0E5FF05C0E5FF06C0E5FF67
:1037C000020EDBCF00F0030EDBCF01F0040EDBCFE7
:1037D00002F0050EDBCF03F0060EDBCF04F0070E80
:1037E000DBCF05F0080EDBCF06F0D88003AED89013
:1037F00015E306500A0A12E104C0E9FF05C0EAFF1A
:103800002D0EEF6E044A052A031E021E011E006CD7
:1038100005E1012A03E1022AD8B4032A0650E56E25
:103820000550E56E0450E56E0350E56E0250E56EFE
:103830000150E56E0050E56E41EC0DF0070EE126FB
:10384000E4CF06F0E4CF05F0E4CF04F0E4CF03F0DA
:10385000E4CF02F0E4CF01F0E4CF00F0E4CFD9FFF1
:103860001200D9CFE5FFE1CFD9FF00C0E5FF01C0CD
:10387000E5FF02C0E5FF03C0E5FF020EDBCF00F06D
:10388000030EDBCF01F0070E005CD8B03FD0010E75
:10389000E56EABEC28F0026EE652015017E00050E6
:1038A000016E010E036E01500DE006E6E86CD89043
:1038B0000336010FFDE306D0D89003BED880033253
:1038C000010FFBE302500310026E18D0010E016ECF
:1038D00000500DE006E6E86CD8900136010FFDE3DC
:1038E00006D0D89001BED8800132010FFBE3011C45
:1038F000006E0250016E00500114026E0250E56E1F
:10390000010EE56E3CEC27F0E652E652E4CF03F000
:10391000E4CF02F0E4CF01F0E4CF00F0E4CFD9FF30
:103920001200D8CFE5FFE0CFE5FFE56EF3CFE5FF6E
:10393000F4CFE5FFE9CFE5FFEACFE5FFFACFE5FFFA
:10394000FBCFE5FFF6CFE5FFF6CFE5FFF7CFE5FFCD
:10395000F8CFE5FFF5CFE5FFE1CFE5FFE2CFE5FFEB
:103960000401D35103010A6F0401D45103010B6F09
:10397000D650086FD750096FF2A411D00401D33F7D
:1039800001D0D42BF2940401D35103010A6F040136
:10399000D45103010B6FD650086FD750096FE4CF95
:1039A000E2FFE4CFE1FFE4CFF5FFE4CFF8FFE4CF9F
:1039B000F7FFE4CFF6FFE4CFF6FFE4CFFBFFE4CF61
:1039C000FAFFE4CFEAFFE4CFE9FFE4CFF4FFE4CF6E
:1039D000F3FFE450E4CFE0FFE4CFD8FF1000D9CFED
:1039E000E5FFE1CFD9FF00C0E5FF01C0E5FF02C060
:1039F000E5FF03C0E5FF04C0E5FF05C0E5FF06C025
:103A0000E5FF020EDBCF00F0030EDBCF01F0040E6A
:103A1000DBCF02F0050EDBCF03F0046A056A03502A
:103A2000800BE844066E065011E102500226033670
:103A30000350015C02E10250005C04E2D8900332C2
:103A4000023204D0052A05C004F0E9D70350015C16
:103A500002E10250005C04E30250005E0350015A90
:103A6000D8900332023204C005F004060550EEE19E
:103A700001C0F3FF0050E4CF06F0E4CF05F0E4CF3F
:103A800004F0E4CF03F0E4CF02F0E4CF01F0E4CFA0
:103A900000F0E4CFD9FF1200D9CFE5FFE1CFD9FF85
:103AA00000C0E5FF01C0E5FF02C0E5FF03C0E5FF80
:103AB00004C0E5FF020EDBCF00F0030EDBCF01F008
:103AC000040EDBCF02F0050EDBCF03F0060EDBCFDA
:103AD00004F0200E045C02E3200E046E22EC2DF0B4
:103AE000070E0016A80E00120050E56E94EC2CF0A4
:103AF000E65201C000F002C001F003C002F004C0B1
:103B000003F00406035012E000C0E9FF01C0F3FF18
:103B10000250F3EC2BF0036E002A02E3014A022A62
:103B20000350E56E94EC2CF0E652E9D71CEC2DF036
:103B3000E4CF04F0E4CF03F0E4CF02F0E4CF01F0EF
:103B4000E4CF00F0E4CFD9FF1200D9CFE5FFE1CFF9
:103B5000D9FF00C0E5FF01C0E5FF02C0E5FF03C0DB
:103B6000E5FF04C0E5FF05C0E5FF020EDBCF00F076
:103B7000030EDBCF01F0040EDBCF02F0050EDBCF2E
:103B800003F0060EDBCF04F022EC2DF01F0E001622
:103B90000050E56E94EC2CF0006EE65204C005F087
:103BA0000406055014E0FF0EE56894EC2CF0056E59
:103BB000E65205C0E5FF01C0E9FF02C0F3FF035074
:103BC000D1EC2CF0012AEAE3024A032AE7D71CECE5
:103BD0002DF00050E4CF05F0E4CF04F0E4CF03F083
:103BE000E4CF02F0E4CF01F0E4CF00F0E4CFD9FF5E
:103BF0001200D9CFE5FFE1CFD9FF00C0E5FF01C03A
:103C0000E5FF02C0E5FF03C0E5FF04C0E5FF05C016
:103C1000E5FF020EDBCF00F0030EDBCF01F0040E58
:103C2000DBCF02F0050EDBCF03F0060EDBCF04F096
:103C300022EC2DF01F0E0016008A0050E56E94EC69
:103C40002CF0006EE65204C005F00406055012E0A8
:103C500001C0E9FF02C0F3FF0350F3EC2BF0056E47
:103C6000012A02E3024A032A0550E56E94EC2CF087
:103C7000E652E9D71CEC2DF00050E4CF05F0E4CF7C
:103C800004F0E4CF03F0E4CF02F0E4CF01F0E4CF9E
:103C900000F0E4CFD9FF120000C0E5FF01C0E5FF4E
:103CA00002C0E5FF03C0E5FF3BC300F0016A46C365
:103CB00002F0036A0250005E0350015AE56A800E6A
:103CC000E56E0150E56E0050E56E8EEC1AF0006E68
:103CD000040EE126000646C301F0430EE1EC25F098
:103CE000200EE1EC25F0005020E0600E0124026E71
:103CF000036A000E032202C0E9FF03C0EAFFEFCF10
:103D000002F0E56A0250E56E000EE56E580EE56EB3
:103D1000B40EE56E28EC23F0050EE126012A0150D1
:103D2000800A01E1016A0006DED7E4CF03F0E4CFA8
:103D300002F0E4CF01F0E4CF00F01200D9CFE5FFAC
:103D4000E1CFD9FF00C0E5FF01C0E5FF02C0E5FFFC
:103D500003C0E5FF04C0E5FF020EDBCF00F0030E59
:103D6000DBCF01F0040EDBCF02F0050EDBCF03F05A
:103D7000060EDBCF04F0045003E0B00E046E02D058
:103D8000A00E046E0450E56E0350E56E0250E56E21
:103D90000150E56E0050E56E4BEC18F0050EE12683
:103DA000010EE56E99EC2BF0E652E56AE56AE56AEC
:103DB0000A0EE56EE2EC12F0040EE126000EE56A52
:103DC00099EC2BF0E652E4CF04F0E4CF03F0E4CF1B
:103DD00002F0E4CF01F0E4CF00F0E4CFD9FF12000D
:103DE00000C0E5FF000EE56E1F0EE56EBC0EE56E31
:103DF00028EC23F0030EE1260401936B1DEC0EF07A
:103E0000E56AE56AE56A640EE56E8EEC10F0040E74
:103E1000E1264BEC2BF0006E00502DE0010E04016A
:103E2000936FD1EC2BF08BEC27F037EC2BF014ECEC
:103E300027F0000EE56A8BEC28F0E65204019E5153
:103E4000D8A448EC29F0E56AE56A800EE56E040E18
:103E5000E56E990EE56E5EEC0FF0050EE126800E24
:103E6000E56E040EE56E990EE56E010EE56ECFEC83
:103E700008F0040EE126E4CF00F01200D9CFE5FFF0
:103E8000E1CFD9FF00C0E5FF01C0E5FF02C0E5FFBB
:103E900003C0E5FF04C0E5FF020EDBCF00F0030E18
:103EA000DBCF01F0040EDBCF02F00301355111E14D
:103EB0007BEC25F0036EF3CF04F003C0E5FF04C0F4
:103EC000F4FF00C0E9FF01C0F3FF0250AEEC2CF09C
:103ED00016D003013551010A12E100C0E9FF01C00B
:103EE000F3FF0250F7EC2AF0006EF3CF01F001501F
:103EF000E56E0050E56EA7EC23F0E652E652E4CF03
:103F000004F0E4CF03F0E4CF02F0E4CF01F0E4CF1B
:103F100000F0E4CFD9FF1200FA0EF66E590EF76EDC
:103F2000000EF86E0900F550056E0900F550066E9A
:103F300004E1056702D0D9EF1FF00900F550006ECB
:103F40000900F550016E0900F550026E09000900E4
:103F5000F550E96E0900F550EA6E09000900090004
:103F6000F550036E0900F550046E09000900F6CF04
:103F700007F0F7CF08F0F8CF09F000C0F6FF01C056
:103F8000F7FF02C0F8FF035002E1045007E0090008
:103F9000F550EE6E0306F8E20406F9D707C0F6FF07
:103FA00008C0F7FF09C0F8FF050601E2060698EF12
:103FB0001FF01200D9CFE5FFE1CFD9FF00C0E5FF28
:103FC00001C0E5FF02C0E5FF020EDBCF00F0016A91
:103FD000060EE56EABEC28F0026EE652D70E021626
:103FE000FA0E0301146F156B166B176B0050020A63
:103FF00009E1028AC20E0301146F010E156F166BE0
:10400000176B0AD00050010A07E10286BE0E0301B9
:10401000146F156B166B176B0250E56E060EE56E8E
:104020003CEC27F0E652E652060EE56EABEC28F0CB
:10403000E652021802E1010E016E0150E4CF02F0D7
:10404000E4CF01F0E4CF00F0E4CFD9FF1200D9CFE4
:10405000E5FFE1CFD9FF00C0E5FF01C0E5FF02C0E9
:10406000E5FF03C0E5FF020EDBCF00F0E56EABEC31
:1040700028F0016EE652026A036AB80E0026590E55
:104080000222000E032200C0F6FF02C0F7FF03C0A9
:10409000F8FF0900F5CF00F0010E026E00500DE0B0
:1040A00006E6E86CD8900236010FFDE306D0D89002
:1040B00002BED8800232010FFBE3021C006E0150E9
:1040C00000160050E56E020EE56E3CEC27F0E6525D
:1040D000E652E4CF03F0E4CF02F0E4CF01F0E4CF06
:1040E00000F0E4CFD9FF120000C0E5FF01C0E5FFFA
:1040F00002C0E5FF03C0E5FF04C0E5FF6D8E6D8CD7
:104100006C986C8A6C50F00B01096C6E93929384DE
:10411000810E006E0F0E016E0F0E036E380E00261C
:10412000035001220F0E036E800E005E0350015AF1
:10413000810E026E0F0E036E0F0E046E380E0226F5
:10414000045003220F0E046E800E025E0450035AC8
:1041500002C0E9FF03C0EAFFEFCF02F0029400C003
:10416000E9FF01C0EAFF02C0EFFF9396E4CF04F03D
:10417000E4CF03F0E4CF02F0E4CF01F0E4CF00F0AD
:10418000120000C0E5FF01C0E5FF02C0E5FF03C06B
:10419000E5FF04C0E5FFC78EC78CC698C68AC65027
:1041A000F00B0109C66E94969488820E006E0F0E75
:1041B000016E0F0E036E380E0026035001220F0E03
:1041C000036E800E005E0350015A820E026E0F0EC7
:1041D000036E0F0E046E380E0226045003220F0EDB
:1041E000046E800E025E0450035A02C0E9FF03C051
:1041F000EAFFEFCF02F0029800C0E9FF01C0EAFF3A
:1042000002C0EFFF949AE4CF04F0E4CF03F0E4CFD0
:1042100002F0E4CF01F0E4CF00F0120000C0E5FFAF
:1042200001C0E5FF02C0E5FF000EE56E99EC2BF042
:10423000E652000EE56EABEC28F0006EE652009000
:104240000050E56E000EE56E3CEC27F0E652E652BB
:10425000020EE56EABEC28F0006EE652B80EF66E7C
:10426000590EF76E000EF86E0900F5CF01F0010E41
:10427000026E01500DE006E6E86CD8900236010FA0
:10428000FDE306D0D89002BED8800232010FFBE3D6
:10429000005002120250E56E020EE56E3CEC27F073
:1042A000E652E652E4CF02F0E4CF01F0E4CF00F0B2
:1042B0001200D9CFE5FFE1CFD9FF00C0E5FF01C073
:1042C000E5FF02C0E5FF03C0E5FF04C0E5FF020E05
:1042D000DBCF00F0030EDBCF01F0040EDBCF02F0EA
:1042E000050EDBCF03F0060EDBCF04F0045003E035
:1042F000B00E046E02D0A00E046E0450E56E0350A2
:10430000E56E0250E56E0150E56E0050E56E4BEC37
:1043100018F0050EE126010EE56E99EC2BF0E65241
:10432000E4CF04F0E4CF03F0E4CF02F0E4CF01F0F7
:10433000E4CF00F0E4CFD9FF120000C0E5FF29EC84
:1043400029F0000EE56AABEC28F0006EE652008022
:104350000050E56E000EE56A3CEC27F0E652E652AE
:10436000700EE56E070EE56E3CEC27F0E652E65265
:10437000010EE56E99EC2BF0E6520401795110E044
:1043800003014A51E56E800EE56E040EE56E790E6E
:10439000E56E0A0EE56EF9EC1DF0050EE12605D07E
:1043A000000EE56A27EC20F0E6521D0EE56EABEC40
:1043B00028F0006EE65200B210EC2DF0E4CF00F0D1
:1043C0001200D9CFE5FFE1CFD9FF00C0E5FF01C062
:1043D000E5FF02C0E5FF020EDBCF00F0030EDBCFEE
:1043E00001F0040EDBCF02F003014A51E56E0250EA
:1043F000E56E0150E56E0050E56E0A0EE56EF9ECD3
:104400001DF0050EE12603014A51E56E0250E56EEE
:104410000150E56E0050E56E100EE56EF9EC1DF0F2
:10442000050EE12603014851E56E110EE56E3CECE8
:1044300027F0E652E652E4CF02F0E4CF01F0E4CFF9
:1044400000F0E4CFD9FF120000C0E5FF01C0E5FF96
:1044500002C0E5FF98EC26F0006E98EC26F0016EA5
:104460000050026ED00E0224006E0A0E005C05E3BE
:104470000050026EF90E0224006E0150026ED00E42
:104480000224016E0A0E015C05E30150026EF90E72
:104490000224016E080E005C12E2100E015CD8B01E
:1044A0000ED00038F00B0124006E97EC24F0016E62
:1044B000015005E10050E56E3FEC2AF0E652E4CFF2
:1044C00002F0E4CF01F0E4CF00F01200D8CFE5FF16
:1044D000E0CFE5FFE56EF3CFE5FFF4CFE5FFE9CFF1
:1044E000E5FFEACFE5FFFACFE5FFFBCFE5FFF6CF2B
:1044F000E5FFF6CFE5FFF7CFE5FFF8CFE5FFF5CF16
:10450000E5FFE1CFE5FFE2CFE5FFA4EC06F0E4CF65
:10451000E2FFE4CFE1FFE4CFF5FFE4CFF8FFE4CF23
:10452000F7FFE4CFF6FFE4CFF6FFE4CFFBFFE4CFE5
:10453000FAFFE4CFEAFFE4CFE9FFE4CFF4FFE4CFF2
:10454000F3FFE450E4CFE0FFE4CFD8FF1000D9CF71
:10455000E5FFE1CFD9FF00C0E5FF01C0E5FF02C0E4
:10456000E5FF03C0E5FF04C0E5FF020EDBCF00F06E
:10457000030EDBCF01F0040EDBCF02F0000EE56A84
:10458000ABEC28F0036EE6528F0E03160138F00BE9
:10459000046E0038E844E00B04120240E840C00B0F
:1045A0000412045003120350E56E000EE56A3CEC61
:1045B00027F0E652E652E4CF04F0E4CF03F0E4CF74
:1045C00002F0E4CF01F0E4CF00F0E4CFD9FF120015
:1045D000D9CFE5FFE1CFD9FF00C0E5FF01C0E5FF7E
:1045E00002C0E5FF03C0E5FF020EDBCF00F0030EC3
:1045F000DBCF01F0040EDBCF02F0170EE56EABEC63
:1046000028F0036EE65203B017D0005001100210DC
:1046100011E00AEC2DF0036E03407F0B036E070ED2
:10462000031603C0E5FF00C0E9FF01C0F3FF02501D
:10463000D1EC2CF0010E01D0E86AE4CF03F0E4CF16
:1046400002F0E4CF01F0E4CF00F0E4CFD9FF120094
:10465000D9CFE5FFE1CFD9FF00C0E5FF01C0E5FFFD
:1046600002C0E5FF020ED924006E000EDA20016EB2
:10467000800E026E030E0026000E0122022202505E
:10468000E56E0150E56E0050E56E040EDBCFE5FFF0
:10469000030EDBCFE5FF020EDBCFE5FF04018851FF
:1046A000E56E8751E56E8651E56E0EEC00F0006E0A
:1046B000F3CF01F0090EE12601C0F3FF0050E4CF73
:1046C00002F0E4CF01F0E4CF00F0E4CFD9FF120014
:1046D000D9CFE5FFE1CFD9FF00C0E5FF01C0E5FF7D
:1046E00002C0E5FF03C0E5FF020EDBCF00F0030EC2
:1046F000DBCF01F0040EDBCF02F0030135510DE1F9
:10470000B5EC2AF0036E03C0E5FF00C0E9FF01C06D
:10471000F3FF0250D1EC2CF00FD003013551010A08
:104720000BE100C0E9FF01C0F3FF0250F3EC2BF0F6
:10473000E56EB2EC27F0E652E4CF03F0E4CF02F0EE
:10474000E4CF01F0E4CF00F0E4CFD9FF1200D9CFDD
:10475000E5FFE1CFD9FF00C0E5FF01C0E5FF02C0E2
:10476000E5FF03C0E5FF020EDBCF00F0030EDBCF59
:1047700001F07EC402F07FC403F004017E3F01D04B
:104780007F2B0150E56E0250E56E22EC28F0E652D8
:10479000E6527EC402F07FC403F004017E3F01D0E4
:1047A0007F2B0050E56E0250E56E22EC28F0E652B9
:1047B000E652E4CF03F0E4CF02F0E4CF01F0E4CF1F
:1047C00000F0E4CFD9FF1200D9CFE5FFE1CFD9FF48
:1047D00000C0E5FF01C0E5FF02C0E5FF03C0E5FF43
:1047E00004C0E5FF020EDBCF00F0D5C401F0026A81
:1047F000014A022AD6C403F0046A0150031803E1F7
:104800000250041801E001D00ED0000E0401D5259D
:10481000016E026A010E022201C0E9FF02C0EAFF36
:1048200000C0EFFFD52BE4CF04F0E4CF03F0E4CFDA
:1048300002F0E4CF01F0E4CF00F0E4CFD9FF1200A2
:10484000D9CFE5FFE1CFD9FF00C0E5FF01C0E5FF0B
:10485000020EDBCF00F00050016EFE0E012601C0FB
:1048600000F0015018E0E56A040EE56EE56A0050BC
:10487000E56E8EEC1AF0006E040EE1260050E56E37
:10488000030EE56E3CEC27F0E652E652020E0024E1
:1048900003014A6F0AD0E56A030EE56E3CEC27F08F
:1048A000E652E652020E03014A6FE4CF01F0E4CF74
:1048B00000F0E4CFD9FF1200D9CFE5FFE1CFD9FF57
:1048C00000C0E5FF01C0E5FF02C0E5FF03C0E5FF52
:1048D000020EDBCF00F0016A46C302F0036A025009
:1048E000002603500122E56A800EE56E0150E56E58
:1048F0000050E56E8EEC1AF0006EF3CF01F0040E5E
:10490000E126600E0026000E012200C0E9FF01C072
:10491000EAFFEFCF00F00050E4CF03F0E4CF02F065
:10492000E4CF01F0E4CF00F0E4CFD9FF120000C0E3
:10493000E5FF01C0E5FF02C0E5FF010E006E98EC47
:1049400026F0016E01C002F0015023E00050E56E38
:1049500040EC2CF0016EE652015010E10A0E005CB2
:104960000BE20A0E006EE56E40EC2CF0016EE65292
:10497000015004E1E8680ED0E8680CD0015002183C
:1049800002E0E86807D0002A1B0E005CD8E3E86864
:1049900001D0E86AE4CF02F0E4CF01F0E4CF00F008
:1049A000120000C0E5FF01C0E5FF02C0E5FF03C043
:1049B000E5FF6EEC26F0006EF3CF01F0F4CF02F0CD
:1049C000E9CF03F0E56AE56A030EE56EE80EE56EF1
:1049D0000350E56E0250E56E0150E56E0050E56E45
:1049E00076EC13F0006EF3CF01F0F4CF02F0E9CFD4
:1049F00003F0080EE12603C0E9FF02C0F4FF01C086
:104A0000F3FF0050E4CF03F0E4CF02F0E4CF01F075
:104A1000E4CF00F01200D9CFE5FFE1CFD9FF00C00D
:104A2000E5FF01C0E5FF02C0E5FF03C0E5FF020EA0
:104A3000DBCF00F0060EE56EABEC28F0016EE6521F
:104A4000F80E0116040E005C03E3070E006E07D09B
:104A50000050026E0244FE0B036E0328006E0150EC
:104A600000120050E56E060EE56E3CEC27F0E652B3
:104A7000E652E4CF03F0E4CF02F0E4CF01F0E4CF5C
:104A800000F0E4CFD9FF1200D9CFE5FFE1CFD9FF85
:104A900000C0E5FF01C0E5FF02C0E5FF03C0E5FF80
:104AA000020EDBCF00F0030EDBCF01F0040EDBCFF4
:104AB00002F0050EDBCF03F00350E56E0250E56E09
:104AC0000150E56E0050E56E40EC19F0040EE12651
:104AD000700EE56E070EE56E3CEC27F0E652E652EE
:104AE000E4CF03F0E4CF02F0E4CF01F0E4CF00F034
:104AF000E4CFD9FF120000C0E5FF01C0E5FF02C00E
:104B0000E5FF03C0E5FF7EC400F07FC401F00401AF
:104B10007E3F01D07F2B0050E56E40EC2CF0E6523A
:104B2000036E026A7EC400F07FC401F004017E3F80
:104B300001D07F2B0050E56E40EC2CF0E652016A6C
:104B400002120150031203C0F3FF0250E4CF03F03E
:104B5000E4CF02F0E4CF01F0E4CF00F0120001C096
:104B6000E5FF02C0E5FF03C0E5FF28EC2DF09492BD
:104B70008B9293908A90E56AE56AE56A640EE56E29
:104B80008EEC10F0040EE126F0EC1EF06EEC26F038
:104B9000F3CF01F0F4CF02F0E9CF03F0880F030167
:104BA000006F130E0120016F000E0220026F000E35
:104BB0000320036FE4CF03F0E4CF02F0E4CF01F071
:104BC000120000C0E5FF01C0E5FF02C0E5FF006E76
:104BD000000E0401DA25016E026A0F0E022201C0E6
:104BE000E9FF02C0EAFF00C0EFFF220EDA5D01E23A
:104BF000DA2B00500A0A0FE10401DA51E56E800E4B
:104C0000E56E0F0EE56E000EE56E46EC17F0040E35
:104C1000E1260401DA6BE4CF02F0E4CF01F0E4CF47
:104C200000F012000401D56B0401D66B0401D769B2
:104C300094808B909480B06A3F0EAF6EB886AC8A39
:104C4000AC84AC8CAC90AB8CAB8E03013D6B0301A0
:104C5000376B03013A6B03013B6B03013C6B000EA6
:104C6000E56A40EC2CF00401D96FE6529F989F9AB8
:104C7000010E0401D86F0401866B876B2F0E886FBD
:104C80004EEC2CF01200D9CFE5FFE1CFD9FF00C0E8
:104C9000E5FF01C0E5FF020EDBCF00F0000EE56A84
:104CA000ABEC28F0016EE652F30E0116005007E05F
:104CB0000050010A02E1018602D001860184015000
:104CC000E56E000EE56A3CEC27F0E652E652E4CFD2
:104CD00001F0E4CF00F0E4CFD9FF12000401D3517A
:104CE00003010E6F0401D45103010F6FD6500C6FF6
:104CF000D7500D6F0E510401D31905E103010F5177
:104D00000401D4190CE00401D35103010E6F040116
:104D1000D45103010F6FD6500C6FD7500D6F0FC3D6
:104D2000E9FF0EC3F4FF0DC3F3FF03010C511200A2
:104D300000C0E5FF01C0E5FF03013B510301441939
:104D400005E003013B5103013A1902E1E86A15D07D
:104D50003BC300F003013B2B016A600E0026000EEE
:104D6000012200C0E9FF01C0EAFFEFCF00F03B5194
:104D7000800A02E103013B6B0050E4CF01F0E4CF75
:104D800000F01200D9CFE5FFE1CFD9FF00C0E5FF69
:104D900001C0E5FF02C0E5FF020EDBCF00F0030E0D
:104DA000DBCF01F00F0E00160038F00B026E0F0E75
:104DB0000116015002120250E56E040EE56E3CEC45
:104DC00027F0E652E652E4CF02F0E4CF01F0E4CF60
:104DD00000F0E4CFD9FF120000C0E5FF01C0E5FFFD
:104DE00002C0E5FF006A000EE56AABEC28F0016E38
:104DF000E6520C0E0116010EE56EABEC28F0026EC9
:104E0000E65201B602D0025007E001A403D0020E20
:104E1000006E02D0010E006E0050E4CF02F0E4CF2D
:104E200001F0E4CF00F0120000C0E5FF1D0EE56EBA
:104E3000ABEC28F0006EE652060E00120050E56E54
:104E40001D0EE56E3CEC27F0E652E6521C0EE56EB8
:104E5000ABEC28F0006EE652030E00120050E56E37
:104E60001C0EE56E3CEC27F0E652E652010E030103
:104E7000496FE4CF00F01200D9CFE5FFE1CFD9FFB1
:104E800000C0E5FF01C0E5FF020EDBCF00F0030E1E
:104E9000DBCF01F022EC2DF01F0E0016008A00502F
:104EA000E56E94EC2CF0006EE6520150E56E94EC49
:104EB0002CF0E6521CEC2DF00050E4CF01F0E4CFD2
:104EC00000F0E4CFD9FF120000C0E5FF31EC2DF077
:104ED0000401896B806B8983006A89B3002A0050C2
:104EE000010BE844F46E8051FD0BF410806FD58EF9
:104EF000D59CD59AD588D596D594D582D580F28A79
:104F0000F184D08EF28EF28CBA80FF0EBB68BA8428
:104F1000E4CF00F0120000C0E5FF1D0EE56EABEC23
:104F200028F0006EE65200840050E56E1D0EE56E1E
:104F30003CEC27F0E652E6521C0EE56EABEC28F096
:104F4000006EE6523F0E00120050E56E1C0EE56E3C
:104F50003CEC27F0E652E652010E0301496FE4CF24
:104F600000F01200D9CFE5FFE1CFD9FF00C0E5FF87
:104F700001C0E5FF02C0E5FF020EDBCF00F07EC4FA
:104F800001F07FC402F004017E3F01D07F2B00506E
:104F9000E56E0150E56E22EC28F0E652E652E4CFD1
:104FA00002F0E4CF01F0E4CF00F0E4CFD9FF12002B
:104FB00000C2C2C2C2C2C2C2C2C2C200000B000052
:104FC000421E000000000000000000000000000081
:104FD00000000000000000000000000000000000D1
:104FE00000000000000000000000020000000000BF
:104FF00000000000FF000000000000C0E5FF22EC00
:105000002DF0600EE56E94EC2CF0E652FF0EE56894
:1050100094EC2CF0006EE6521CEC2DF0210E005C9E
:105020000DE316EC2DF0E56AE56AE56A020EE56E21
:105030004DEC12F0040EE126E86A01D00050E4CFF6
:1050400000F01200D9CFE5FFE1CFD9FF00C0E5FFA6
:10505000020EDBCF00F0030EDBCFA8FF00C0A9FFDC
:10506000A69EA69CA684F29EF29C550EA76EAA0E42
:10507000A76EA682A6A202D00000FCD7A694F28E4C
:10508000F28CE4CF00F0E4CFD9FF120000C0E5FFBE
:1050900029EC29F0000EE56AABEC28F0006EE65230
:1050A00000800050E56E000EE56A3CEC27F0E65209
:1050B000E652700EE56E070EE56E3CEC27F0E65208
:1050C000E652010EE56E99EC2BF0E652E4CF00F0CB
:1050D000120000C0E5FF01C0E5FF98EC26F0006E6D
:1050E000010A0DE198EC26F00401A06F0EEC04F02B
:1050F000016E015002E08B8209D08B9207D00050E4
:10510000020A04E198EC26F004019F6FE4CF01F05D
:10511000E4CF00F01200D9CFE5FFE1CFD9FF00C006
:10512000E5FF020EDBCF00F0005009E03F0EE56E18
:10513000010EE56E3CEC27F0E652E65207D0E56A38
:10514000010EE56E3CEC27F0E652E652E4CF00F0AB
:10515000E4CFD9FF1200D9CFE5FFE1CFD9FF00C0DE
:10516000E5FF020EDBCF00F022EC2DF01F0E001643
:105170000050E56E94EC2CF0E652FF0EE56894ECDE
:105180002CF0006EE6521CEC2DF00050E4CF00F045
:10519000E4CFD9FF1200E8AE0AD0F3CFEAFFEE5019
:1051A000EECFF3FFEECFF4FFEECFE9FF1200E8BC45
:1051B0004DEF2DF0E9CFF6FFF3CFF7FFF86E0900C2
:1051C000F5500900F5CFF3FF0900F5CFF4FF090012
:1051D000F5CFE9FF120000C0E5FF01C0E5FF0401C3
:1051E000D5510401D61902E1E86A0FD0000E04017E
:1051F000D625006E016A010E012200C0E9FF01C040
:10520000EAFFEFCF00F0D62B0050E4CF01F0E4CF5F
:1052100000F0120000C0E5FF01C0E5FF060EE56EDC
:10522000ABEC28F0006EE652280E00160050200A63
:1052300003E1020E016E07D00050080A03E1010EDF
:10524000016E01D0016A0150E4CF01F0E4CF00F01B
:10525000120000C0E5FF000EE56AABEC28F0006E1E
:10526000E65200B212D000820050E56E000EE56AF0
:105270003CEC27F0E652E652E56AE56AE56A050E7F
:10528000E56E4DEC12F0040EE126E4CF00F01200C2
:10529000B1EC19F0E56A010EE56E800EE56E040EC4
:1052A000E56EDC0EE56E5EEC0FF0050EE126800E7D
:1052B000E56E040EE56EDC0EE56E010EE56ECFECDC
:1052C00008F0040EE1269DEC21F01200F2CFEAFF77
:1052D000F29EA69EA69CA684E9CFA9FFF3CFAAFFC3
:1052E000E4CFA8FFE5EC2CF0F4CFA8FFE5EC2CF020
:1052F000F6CFA8FFE5EC2CF0F7CFA8FFE5EC2CF0FB
:10530000A694EABEF28E1200F2CFF6FFF29EA69E9F
:10531000A69CE9CFA9FFF3CFAAFFA680A850A94A6F
:10532000AA2AA680A8CFF3FFA94AAA2AA680A8CFB6
:10533000F4FFA94AAA2AA680A8CFEAFFF6BEF28EF9
:105340001200D9CFE5FFE1CFD9FF00C0E5FF020E83
:10535000DBCF00F0005002E08A8A01D08A9AE56A29
:10536000E56AE56A050EE56EE2EC12F0040EE12650
:10537000E4CF00F0E4CFD9FF1200D9CFE5FFE1CFB1
:10538000D9FF00C0E5FF020EDBCF00F07D0E005C10
:1053900002E37D0E006E0050E56E050EE56E3CECFE
:1053A00027F0E652E652E4CF00F0E4CFD9FF120036
:1053B000E8AE08D0F3CFEAFFEE50EECFF3FFEECF2A
:1053C000F4FF1200E8BC55EF2DF0E9CFF6FFF3CF64
:1053D000F7FFF86E0900F5500900F5CFF3FF09005B
:1053E000F5CFF4FF1200F2CFEAFFF29EA69EA69C34
:1053F000A684E9CFA9FFF3CFAAFFE4CFA8FFE5EC8D
:105400002CF0F4CFA8FFE5EC2CF0F6CFA8FFE5ECEC
:105410002CF0A694EABEF28E120000C0E5FF000E4A
:10542000E56A99EC2BF0E652000EE56AABEC28F049
:10543000006EE65200920050E56E000EE56A3CEC0C
:1054400027F0E652E652E4CF00F01200D9CFE5FF94
:10545000E1CFD9FF00C0E5FF020EDBCF00F022EC68
:105460002DF00050E56E94EC2CF0006EE6521CEC32
:105470002DF00050E4CF00F0E4CFD9FF1200D9CFD7
:10548000E5FFE1CFD9FF00C0E5FF020EDBCF00F062
:1054900000C0D9F40050E56E000EE56A22EC28F059
:1054A000E652E652E4CF00F0E4CFD9FF1200100E2E
:1054B000E56E070EE56E3CEC27F0E652E652E30E91
:1054C000E56E26EC2AF0E652000EE56A99EC2BF028
:1054D000E652010EE56E99EC2BF0E6521200F2CF87
:1054E000F6FFF29EA69EA69CE9CFA9FFF3CFAAFFE6
:1054F000A680A850A94AAA2AA680A8CFF3FFA94A45
:10550000AA2AA680A8CFF4FFF6BEF28E120000C031
:10551000E5FF01C0E5FF600E03013B25006E016A57
:10552000000E012200C0E9FF01C0EAFFEFCF00F04A
:105530000050E4CF01F0E4CF00F01200D9CFE5FF36
:10554000E1CFD9FF00C0E5FF020EDBCF00F0610E16
:10555000005C05E37B0E005C02E2010E01D0E86A0C
:10556000E4CF00F0E4CFD9FF120000C0E5FF01C096
:10557000E5FF7EC400F07FC401F004017E3F01D04E
:105580007F2B0050E56E40EC2CF0E652E4CF01F0AA
:10559000E4CF00F01200D9CFE5FFE1CFD9FF00C082
:1055A000E5FF020EDBCF00F000C0D8F4005004E1AC
:1055B0004EEC2CF09D9A9D98E4CF00F0E4CFD9FFFB
:1055C0001200D9CFE5FFE1CFD9FF00C0E5FF020E01
:1055D000DBCF00F0200E005C02E3200E006E0050D6
:1055E0000301486FE4CF00F0E4CFD9FF1200E8AE2A
:1055F00006D0F3CFEAFFEE50EECFF3FF1200E8BC87
:105600004BEF2DF0E9CFF6FFF3CFF7FFF86E09006F
:10561000F5500900F5CFF3FF1200F2CFEAFFF29E3A
:10562000A69EA69CA684E9CFA9FFF3CFAAFFE4CF4C
:10563000A8FFE5EC2CF0F4CFA8FFE5EC2CF0A69445
:10564000EABEF28E120000C0E5FF000EE56AABEC88
:1056500028F0006EE65200960050E56E000EE56AF6
:105660003CEC27F0E652E652E4CF00F0120000C016
:10567000E5FF1D0EE56EABEC28F0006EE6520080F3
:105680000050E56E1D0EE56E3CEC27F0E652E6524A
:10569000E4CF00F0120000C0E5FF030EE56EABECB6
:1056A00028F0006EE652010E005C05E3040E005C7B
:1056B00002E2010E01D0E86AE4CF00F0120012EE1F
:1056C000FFF022EEFFF0F86AA68EA69CE9680E0EA7
:1056D000EA6E0068000EED6A0050FDE18CEC1FF0F0
:1056E00006EC00F0FFD7D9CFE5FFE1CFD9FF00C02E
:1056F000E5FF020EDBCF00F00050E56EABEC28F0CA
:10570000E652E4CF00F0E4CFD9FF120000C0E5FF7D
:10571000170EE56EABEC28F0006EE6520050010B60
:10572000D880E866D890006A00360050E4CF00F0D8
:105730001200D9CFE5FFE1CFD9FF00C0E5FF020E8F
:10574000DBCF00F0005002E08A8801D08A98E4CFD5
:1057500000F0E4CFD9FF1200F2CFF6FFF29EA69E32
:10576000A69CE9CFA9FFF3CFAAFFA680A850A94A1B
:10577000AA2AA680A8CFF3FFF6BEF28E1200F2CFBF
:10578000EAFFF29EA69EA69CA684E9CFA9FFF3CFCE
:10579000AAFFE4CFA8FFE5EC2CF0A694EABEF28EB7
:1057A0001200E56A1D0EE56E3CEC27F0E652E6526B
:1057B000E56A1C0EE56E3CEC27F0E652E65203016A
:1057C000496B1200E8AE0BD0F3CFEAFFE4CFEEFF57
:1057D000F4CFEEFFF6CFEEFFF7CFEEFF1200E8BCFE
:1057E0004FEF2DF01200E8AE04D0F3CFEAFFEE50F9
:1057F0001200E8BC49EF2DF0E9CFF6FFF3CFF7FF39
:10580000F86E0900F550120000C0E5FF060EE56EC7
:10581000ABEC28F0006EE652060E001600407F0B3F
:10582000E4CF00F0120000C0E5FF000EE56AE56A73
:10583000E56AE8EC22F0006E030EE1260050E4CFAA
:1058400000F0120022EC2DF0500EE56E94EC2CF0DE
:10585000E652730EE56E94EC2CF0E6521CEC2DF043
:105860001200E8AE09D0F3CFEAFFE4CFEEFFF4CFA9
:10587000EEFFF6CFEEFF1200E8BC57EF2DF012005E
:10588000D9CFE5FFE1CFD9FF020EDBCFA9FFA69C60
:10589000A69EA680A850E4CFD9FF1200ACA2FED7E6
:1058A0009480AE500000AE50AB98AB88AB869D8A1A
:1058B0009D9812002564200000C0E5FF090EE56EEA
:1058C000ABEC28F0006EE652010E00160050E4CF5B
:1058D00000F0120000C0E5FF090EE56EABEC28F009
:1058E000006EE652010E00160050E4CF00F01200E8
:1058F00000C0E5FF170EE56EABEC28F0006EE65237
:10590000020E00160050E4CF00F01200F2CFF6FFB6
:10591000F29EA69EA69CE9CFA9FFF3CFAAFFA68080
:10592000A850F6BEF28E1200D9CFE5FFE1CFD9FF25
:10593000020EDBCF6FFF6DA0FED76F50E4CFD9FF13
:105940001200D9CFE5FFE1CFD9FF020EDBCFC9FFAF
:10595000C7A0FED7C950E4CFD9FF1200E8AE07D0E8
:10596000F3CFEAFFE4CFEEFFF4CFEEFF1200E8BC86
:1059700053EF2DF01200700ED36E9B8CFF0E9268C9
:10598000936894689668626AF19E120000C0E5FF11
:1059900097EC24F0006E005001E1FF00E4CF00F02E
:1059A0001200E8AE05D0F3CFEAFFE4CFEEFF12001D
:1059B000E8BC51EF2DF012000001020304050A0BB0
:1059C0000C0D0E0F111213141516550EA76EAA0EFC
:1059D000A76EA682A6B2FED7A94AAA2A010E030183
:1059E000356F1C0E04017E6F7F6B12000301356B57
:1059F0001C0E04017E6F7F6B12000100B04F00008F
:105A00009304000049000000050EE56EABEC28F0A1
:105A1000E6521200FF0EE56826EC2AF0E65212006C
:105A2000E10EE56E26EC2AF0E6521200E20EE56E7B
:105A300026EC2AF0E6521200010EE56EA1EC29F0E8
:105A4000E6521200000EE56AA1EC29F0E6521200BF
:105A500064EC27F012EC26F01200ACA2FED7AD6E7B
:105A60001200BBEC2CF0120046EC28F012000301EF
:105A70003B5112000301455112000401D85112009C
:105A8000030147511200030148511200E8CF7FFF84
:105A9000120086EF2CF0ACEF2BF084EF29F066EFCC
:105AA00029F0BFEF2BF00DEF2BF06FEF2AF0F3EFA3
:025AB00029F0DB
:020000040030CA
:010006008574
:00000001FF
