:020000040000FA
:100000004AEF3FF0C69A1200E9EF2DF04DEC26F0D2
:1000100040EC1DF0FDD71200ABEF34F0D9CFE5FF77
:10002000E1CFD9FF00C0E5FF01C0E5FF02C0E5FF59
:1000300003C0E5FF04C0E5FF05C0E5FF06C0E5FF1E
:1000400007C0E5FF08C0E5FF09C0E5FF0AC0E5FFFE
:100050000BC0E5FF0CC0E5FF0DC0E5FF0EC0E5FFDE
:100060000FC0E5FF10C0E5FF11C0E5FF12C0E5FFBE
:1000700013C0E5FF14C0E5FF15C0E5FF16C0E5FF9E
:1000800017C0E5FF18C0E5FF19C0E5FF1AC0E5FF7E
:100090001BC0E5FF1CC0E5FF1DC0E5FF1EC0E5FF5E
:1000A000020EDBCF00F0030EDBCF01F0040EDBCF3E
:1000B00002F0050EDBCF03F0060EDBCF04F0070ED7
:1000C000DBCF05F0080EDBCF06F0090EDBCF07F023
:1000D0000A0EDBCF08F0096A0A6A02C00DF00D5063
:1000E000800A0DE102500501216F0150206F005080
:1000F0001F6F050E016E1F0E006E800E026E03C094
:10010000E9FF04C0F3FF0550EFEC3FF00B6E0B501E
:10011000D8B4C4EF03F00B50250A02E0ABEF03F0B4
:100120000C6A0D6A0E6A0F6A106A0A0E116E126A64
:10013000136A146A200E156E1668176A2B0E186E55
:10014000032A02E3044A052A03C0E9FF04C0F3FFBF
:100150000550EFEC3FF0196E250A13E11950E56EDA
:100160000250E56E0150E56E0050E56E27EC24F07C
:10017000040EE126094A0A2A032A02E3044A052A50
:10018000BED71950300A06E1300E156E032A02E37D
:10019000044A052A03C0E9FF04C0F3FF0550EFEC51
:1001A0003FF02D0A06E1010E146E032A02E3044A11
:1001B000052A03C0E9FF04C0F3FF0550EFEC3FF050
:1001C000200A08E1010E176E200E186E032A02E3C2
:1001D000044A052A03C0E9FF04C0F3FF0550EFEC11
:1001E0003FF02B0A06E1010E176E032A02E3044AD0
:1001F000052A03C0E9FF04C0F3FF0550EFEC3FF010
:10020000196E310E195C2BE33A0E195C28E203C01B
:1002100019F004C01AF005C01BF019C0E9FF1AC09C
:10022000F3FF1B50EFEC3FF01C6E300E1C5C11E333
:100230003A0E1C5C0EE213500A0DF3CF1DF01C5059
:100240001D26D00E1D24136E192A02E31A4A1B2AFA
:10025000E4D719C003F01AC004F01BC005F003C0B6
:10026000E9FF04C0F3FF0550EFEC3FF02E0A2DE14B
:10027000032A02E3044A052A166A03C019F004C0DF
:100280001AF005C01BF019C0E9FF1AC0F3FF1B509C
:10029000EFEC3FF01C6E300E1C5C11E33A0E1C5C60
:1002A0000EE216500A0DF3CF1DF01C501D26D00E85
:1002B0001D24166E192A02E31A4A1B2AE4D719C014
:1002C00003F01AC004F01BC005F003C0E9FF04C02E
:1002D000F3FF0550EFEC3FF0196E6C0A07E1010ED9
:1002E0000C6E032A02E3044A052A09D01950680A51
:1002F00006E1010E0E6E032A02E3044A052A03C03A
:10030000E9FF04C0F3FF0550EFEC3FF0750A06E18A
:10031000010E106E032A02E3044A052A03C0E9FF16
:1003200004C0F3FF0550EFEC3FF0196E730A05E1CE
:10033000010E0D6E200E156E3FD01950780A03E1A4
:10034000100E116E39D01950580A05E1100E116EB9
:10035000010E126E31D01950630A02E1116A2CD0DD
:1003600019506F0A03E1080E116E26D01950660A63
:1003700003E1010E0F6E20D01950640A1DE01950E0
:10038000690A1AE0105005E0FF0E03260422052238
:1003900013D01950E56E0250E56E0150E56E005025
:1003A000E56E27EC24F0040EE126094A0A2A032A06
:1003B00002E3044A052AA3D60D5021E00650030F9C
:1003C0000D6E000E0720196E000E08201A6E0DC06B
:1003D00006F019C007F01AC008F0FD0E0D26FF0E3A
:1003E00019221A220DC0E9FF19C0F3FF1A50C3ECFD
:1003F0003DF00D6EF3CF19F0F4CF1AF0FDD00F5091
:100400000DE0000E1A6E080E196E100E0D6E040E21
:100410000626000E072208221668EED016680C5039
:1004200023E00650040F0C6E000E07200F6E000E26
:1004300008201B6E0CC006F00FC007F01BC008F0B0
:10044000FC0E0C26FF0E0F221B220CC0E9FF0FC072
:10045000F3FF1B5096EC3CF00C6EF3CF0FF0F4CF93
:100460001BF0E9CF1CF067D00E502FE00650020FB2
:100470000E6E000E07201D6E000E08201E6E0EC0B0
:1004800006F01DC007F01EC008F0FE0E0E26FF0E7F
:100490001D221E220EC0E9FF1DC0F3FF1E50E2EC1C
:1004A0003EF00E6E0EC00CF00F6A1B6A1C6A1150F3
:1004B0000A0A03E11050D8B43ED00C500E6E0EC0A4
:1004C0000CF00F6A1B6A1C6A36D00650020F0E6EC3
:1004D000000E07201D6E000E08201E6E0EC006F0D6
:1004E0001DC007F01EC008F0FE0E0E26FF0E1D22D6
:1004F0001E220EC0E9FF1DC0F3FF1E50E2EC3EF0CD
:100500000E6EF3CF1DF00EC00CF01DC00FF0E86AA8
:100510001DBEFF0E1B6E1C6E11500A0A02E1105028
:100520000AE00C500E6E0F501D6E0EC00CF01DC078
:100530000FF01B6A1C6A040E196EE60E0D6E800E1B
:100540001A6E1150D8B440D0105013E01150E56E1F
:10055000040EE56EE60EE56E1C50E56E1B50E56E72
:100560000F50E56E0C50E56E23EC1BF0070EE126F4
:1005700012D01150E56E040EE56EE60EE56E1C50CD
:10058000E56E1B50E56E0F50E56E0C50E56E26ECE7
:100590002DF0070EE12617502FE00DC0E9FF19C01E
:1005A000F3FF1A50EFEC3FF02D0A26E0FF0E0D2668
:1005B00019221A2218C0E5FF0DC0E9FF19C0F3FF88
:1005C0001A50E5EC40F018D00CC0E5FF0DC0E9FF73
:1005D00019C0F3FF1A50E5EC40F00D50010F0C6EFE
:1005E000000E19200E6E000E1A20E56A0CC0E9FFFD
:1005F0000EC0F3FFE5EC40F00DC00CF019C00EF09A
:100600001AC00FF013C010F0105010E00CC0E9FF3A
:100610000EC0F3FF0F50EFEC3FF0176E175006E0DF
:100620000C2A02E30E4A0F2A1006EED710C013F070
:1006300014501EE109C00CF00AC00EF010C00FF0FB
:100640000F5010E01550E56E0250E56E0150E56E5A
:100650000050E56E27EC24F0040EE1260C4A0E2A29
:100660000F06EED70CC009F00EC00AF00FC013F051
:1006700016C00CF00DC00DF019C00EF01AC00FF02E
:1006800009C010F00AC015F00DC0E9FF0EC0F3FF5D
:100690000F50EFEC3FF0166E1650D8B43ED00CC0A1
:1006A00016F0176A161E171E1650171005E00CC01C
:1006B00016F00C06165031E00DC0E9FF0EC0F3FF36
:1006C0000F50EFEC3FF0116E125010E01150E56E3C
:1006D00089EC3EF0166EE652165004E0DF0E11145F
:1006E000166E02D011C016F016C011F01150E56E52
:1006F0000250E56E0150E56E0050E56E27EC24F0E7
:10070000040EE1260D2A02E30E4A0F2A104A152A8A
:100710001350D8B4B9D71306B7D710C009F015C015
:100720000AF014502BE010C00CF015C00DF013C0EF
:100730000EF00E501FE0200EE56E0250E56E0150E7
:10074000E56E0050E56E27EC24F0040EE1260C4A1D
:100750000D2A0E06EED70B50E56E0250E56E0150E5
:10076000E56E0050E56E27EC24F0040EE126094A00
:100770000A2A04D00CC009F00DC00AF0032A02E3D3
:10078000044A052A7FEF00F00AC0F3FF0950E4CFC6
:100790001EF0E4CF1DF0E4CF1CF0E4CF1BF0E4CF5B
:1007A0001AF0E4CF19F0E4CF18F0E4CF17F0E4CF5B
:1007B00016F0E4CF15F0E4CF14F0E4CF13F0E4CF5B
:1007C00012F0E4CF11F0E4CF10F0E4CF0FF0E4CF5B
:1007D0000EF0E4CF0DF0E4CF0CF0E4CF0BF0E4CF5B
:1007E0000AF0E4CF09F0E4CF08F0E4CF07F0E4CF5B
:1007F00006F0E4CF05F0E4CF04F0E4CF03F0E4CF5B
:1008000002F0E4CF01F0E4CF00F0E4CFD9FF120012
:100810003C4E4F20464C4F41543E0000D9CFE5FF9F
:10082000E1CFD9FF00C0E5FF01C0E5FF02C0E5FF51
:1008300003C0E5FF04C0E5FF05C0E5FF06C0E5FF16
:1008400007C0E5FF08C0E5FF09C0E5FF0AC0E5FFF6
:100850000BC0E5FF0CC0E5FF0DC0E5FF0EC0E5FFD6
:10086000020EDBCF00F0030EDBCF01F0040EDBCF76
:1008700002F000C0E9FF01C0F3FF0250EFEC3FF0CF
:100880000501426FE56A4251E56E6CEC38F0E652C4
:10089000E652360EE56E13EC3DF0E6525FEC41F0A9
:1008A000010EE56E05014251E56E6CEC38F0E65242
:1008B000E65200504B0F036E000E0120046E000E36
:1008C0000220056E7CEC3BF0066E06C0E5FF03C01F
:1008D000E9FF04C0F3FF0550E5EC40F035EC3CF0D7
:1008E0000501436B0050150F036E000E0120046ECE
:1008F000000E0220056E002A02E3014A022A7CEC67
:100900003BF00501466F35EC3CF07CEC3BF005011B
:10091000476F35EC3CF07CEC3BF00501486F35EC63
:100920003CF005014351050DF3CF06F0076A086A54
:1009300000500626015007220250082246C509F041
:100940000A6A48C50BF00C6A300E0B160C38F00B17
:100950000E6E0B380D6E0F0B0D1A0E260D5009265C
:100960000E500A2209C024F50AC025F509C0E5FF8A
:100970000AC0F4FF06C0E9FF07C0F3FF0850B7EC58
:1009800040F005014351050DF3CF06F0076A086AF0
:10099000005006260150072202500822020E0626A9
:1009A000000E0722082247C509F00A6A48C50BF065
:1009B0000C6AC00E0B160B500D6E0D260C340E6E0D
:1009C000D8900D360E360D5009260E500A2209C059
:1009D00026F50AC027F509C0E5FF0AC0F4FF06C0E6
:1009E000E9FF07C0F3FF0850B7EC40F005014351A1
:1009F000050DF3CF06F0076A086A0050062601507D
:100A0000072202500822040E0626000E07220822A2
:100A100048C509F00F0E091609C049F509C0E5FFE0
:100A200006C0E9FF07C0F3FF0850E5EC40F0100EE8
:100A300005012A6F270E2B6F05014A6B0501265110
:100A4000FF0A04E12751030A01E165D10501446B66
:100A500005014451050DF3CF06F0076A086A0350FB
:100A60000626045007220550082206C0E9FF07C0E9
:100A7000F3FF0850E2EC3EF0F3CF07F00501245DF0
:100A8000066E07502559076ED88007AED89007E349
:100A9000071C096E061C086E084A092A04D006C005
:100AA00008F007C009F00850066E0950076E0501EE
:100AB0004451050DF3CF08F0096A0A6A035008266D
:100AC0000450092205500A22020E0826000E0922AF
:100AD0000A2208C0E9FF09C0F3FF0A50E2EC3EF029
:100AE000F3CF09F00501265D086E09502759096EFC
:100AF000D88009AED89007E3091C0B6E081C0A6E5B
:100B00000A4A0B2A04D008C00AF009C00BF00A50A8
:100B100006240501286F0B500720296F05012B5172
:100B20000501295D04E105012A510501285D06E260
:100B300028C52AF529C52BF544C54AF50501442BDE
:100B40000A0E445DD8A084D705012B510401E35D52
:100B500004E105012A510401E25DD8A05FD005013E
:100B60004A51050DF3CF06F0076A086A03500626BE
:100B7000045007220550082224C5E5FF25C5F4FFCF
:100B800006C0E9FF07C0F3FF0850B7EC40F00501CD
:100B90004A51050DF3CF06F0076A086A035006268E
:100BA0000450072205500822020E0626000E0722D6
:100BB000082226C5E5FF27C5F4FF06C0E9FF07C0E8
:100BC000F3FF0850B7EC40F005014A51050DF3CF93
:100BD00006F0076A086A03500626045007220550EB
:100BE0000822040E0626000E0722082206C0E9FF8E
:100BF00007C0F3FF0850EFEC3FF0096EFA0E095CF6
:100C0000D8B089D0050E092609C0E5FF06C0E9FF66
:100C100007C0F3FF0850E5EC40F07DD005014669C0
:100C200005014A6B0501446B05014451050DF3CFE5
:100C300006F0076A086A035006260450072205508A
:100C40000822040E0626000E0722082206C0E9FF2D
:100C500007C0F3FF0850EFEC3FF0066E0501465168
:100C6000065C04E206C046F544C54AF50501442B7E
:100C70000A0E445DD9E305014A51050DF3CF06F094
:100C8000076A086A03500626045007220550082206
:100C900024C5E5FF25C5F4FF06C0E9FF07C0F3FF43
:100CA0000850B7EC40F005014A51050DF3CF06F0AE
:100CB000076A086A035006260450072205500822D6
:100CC000020E0626000E0722082226C5E5FF27C5CC
:100CD000F4FF06C0E9FF07C0F3FF0850B7EC40F08F
:100CE00005014A51050DF3CF06F0076A086A035063
:100CF00006260450072205500822040E0626000E80
:100D000007220822050EE56E06C0E9FF07C0F3FFC3
:100D10000850E5EC40F00501432B040E435DD8A0DC
:100D20007FEF04F05FEC41F00501446B0501445195
:100D3000050DF3CF00F0016A026A0350002604504B
:100D40000122055002220050040F066E000E012001
:100D5000076E000E0220086E06C0E9FF07C0F3FF11
:100D6000EFEC3FF0096E09500BE0090609C0E5FF02
:100D700006C0E9FF07C0F3FF0850E5EC40F01AD0C9
:100D800000C006F001C007F002C008F0E568030EDD
:100D9000F46E00C0E9FF01C0F3FF0250B7EC40F071
:100DA000E568030EF46E06C0E9FF07C0F3FF0850C4
:100DB000B7EC40F00501442B0A0E445DD8A0B6D72D
:100DC000E4CF0EF0E4CF0DF0E4CF0CF0E4CF0BF065
:100DD000E4CF0AF0E4CF09F0E4CF08F0E4CF07F065
:100DE000E4CF06F0E4CF05F0E4CF04F0E4CF03F065
:100DF000E4CF02F0E4CF01F0E4CF00F0E4CFD9FF7C
:100E00001200D9CFE5FFE1CFD9FF00C0E5FF01C057
:100E1000E5FF02C0E5FF03C0E5FF04C0E5FF05C034
:100E2000E5FF06C0E5FF07C0E5FF08C0E5FF09C014
:100E3000E5FF0AC0E5FF0BC0E5FF0CC0E5FF0DC0F4
:100E4000E5FF0EC0E5FF0FC0E5FF020EDBCF00F0AF
:100E5000030EDBCF01F0040EDBCF02F0050EDBCF7B
:100E600003F0010E0501436F0050150F046E000ED4
:100E70000120056E000E0220066E43C544F50501F3
:100E80004451D8B464D04405076E086A07BE0868A8
:100E9000F20E0726040E082207C0E9FF08C0EAFF89
:100EA000EFCF09F00950050DF3CF0AF00B6A0C6A79
:100EB00004500A2605500B2206500C22040E0A2666
:100EC000000E0B220C220AC0E9FF0BC0F3FF0C50EE
:100ED000EFEC3FF00A6EF20E050144250B6E0C6A32
:100EE000040E0C220BC0E9FF0CC0EAFFEFCF0BF0A1
:100EF0000B50050DF3CF0CF00D6A0E6A04500C2652
:100F000005500D2206500E22040E0C26000E0D2256
:100F10000E220CC0E9FF0DC0F3FF0E50EFEC3FF0C6
:100F20000A5C15E207C0E9FF08C0EAFF0BC0EFFF4B
:100F3000F20E05014425076E086A040E082207C058
:100F4000E9FF08C0EAFF09C0EFFF440798D7050191
:100F5000432B0A0E435DD8A090D7436B470E002663
:100F6000000E0122022204C007F005C008F006C0EE
:100F70000AF0096AF20E050143250B6E0C6A040E95
:100F80000C220BC0E9FF0CC0EAFFEFCF0BF005010C
:100F9000446B44C50CF00D6A0E6A00500C260150DB
:100FA0000D2202500E220CC0E9FF0DC0F3FF0E50BF
:100FB000EFEC3FF00B1803E1010E096E05D00501BF
:100FC000442B040E445DE5E30950D8A472D0096AAD
:100FD0000C680501446B44C50DF00E6A0F6A0050A1
:100FE0000D2601500E2202500F220DC0E9FF0EC047
:100FF000F3FF0F50EFEC3FF0050DF3CF0DF00E6A4D
:101000000F6A07500D2608500E220A500F22040EB8
:101010000D26000E0E220F220DC0E9FF0EC0F3FFB9
:101020000F50EFEC3FF00D6E0C500D5C2BE244C501
:101030000DF00E6A0F6A00500D2601500E2202506C
:101040000F220DC0E9FF0EC0F3FF0F50EFEC3FF091
:10105000050DF3CF0DF00E6A0F6A07500D260850EC
:101060000E220A500F22040E0D26000E0E220F2211
:101070000DC0E9FF0EC0F3FF0F50EFEC3FF00C6E18
:1010800044C509F00501442B040E445DD8A0A3D744
:101090000C6A0D6A0050092601500C2202500D22E4
:1010A0000BC0E5FF09C0E9FF0CC0F3FF0D50E5ECF4
:1010B00040F00501432B040E435DD8A05AD70350DE
:1010C000D8B438D1420E0301EC6F020E076E035004
:1010D000ED6F0501436B07C003F0072A086AEC0EA9
:1010E0000326030E082243C509F00A6A0B6A005062
:1010F000092601500A2202500B2209C0E9FF0AC04A
:10110000F3FF0B50EFEC3FF0050DF3CF09F00A6A47
:101110000B6A0450092605500A2206500B2209C00A
:10112000E9FF0AC0F3FF0B50E2EC3EF0096E03C08A
:10113000E9FF08C0EAFF09C0EFFF07C003F0072A74
:10114000086AEC0E0326030E082243C509F00A6A5A
:101150000B6A0050092601500A2202500B2209C0D6
:10116000E9FF0AC0F3FF0B50EFEC3FF0050DF3CFA2
:1011700009F00A6A0B6A0450092605500A22065033
:101180000B2209C0E9FF0AC0F3FF0B50E2EC3EF06E
:10119000F3CF0AF00A50096E03C0E9FF08C0EAFF66
:1011A00009C0EFFF07C003F0072A086AEC0E032608
:1011B000030E082243C509F00A6A0B6A005009268B
:1011C00001500A2202500B2209C0E9FF0AC0F3FFB6
:1011D0000B50EFEC3FF0050DF3CF09F00A6A0B6AF4
:1011E0000450092605500A2206500B22020E092639
:1011F000000E0A220B2209C0E9FF0AC0F3FF0B50C0
:10120000E2EC3EF0096E03C0E9FF08C0EAFF09C046
:10121000EFFF07C003F0072A086AEC0E0326030E4F
:10122000082243C509F00A6A0B6A005009260150DA
:101230000A2202500B2209C0E9FF0AC0F3FF0B503B
:10124000EFEC3FF0050DF3CF09F00A6A0B6A04508A
:10125000092605500A2206500B22020E0926000E0E
:101260000A220B2209C0E9FF0AC0F3FF0B50E2EC8F
:101270003EF0F3CF0AF00A50096E03C0E9FF08C040
:10128000EAFF09C0EFFF07C003F0072A086AEC0E67
:101290000326030E082243C509F00A6A0B6A0050B0
:1012A000092601500A2202500B2209C0E9FF0AC098
:1012B000F3FF0B50EFEC3FF0050DF3CF09F00A6A96
:1012C0000B6A0450092605500A2206500B22040E10
:1012D0000926000E0A220B2209C0E9FF0AC0F3FF0B
:1012E0000B50EFEC3FF0096E03C0E9FF08C0EAFFC6
:1012F00009C0EFFF0501432B040E435DD8A0EBD6D8
:1013000007C000F0072A016AEC0E0026030E012236
:1013100000C0E9FF01C0EAFF0A0EEF6E0750E56E5C
:10132000800EE56E030EE56EEC0EE56ED1EC26F058
:10133000040EE126E4CF0FF0E4CF0EF0E4CF0DF081
:10134000E4CF0CF0E4CF0BF0E4CF0AF0E4CF09F0E7
:10135000E4CF08F0E4CF07F0E4CF06F0E4CF05F0E7
:10136000E4CF04F0E4CF03F0E4CF02F0E4CF01F0E7
:10137000E4CF00F0E4CFD9FF120000C0E5FF01C0C8
:10138000E5FF02C0E5FF03C0E5FF04C0E5FF05C0BF
:10139000E5FF06C0E5FF07C0E5FF08C0E5FF09C09F
:1013A000E5FF0AC0E5FFC2A204D00401D151F8EF65
:1013B0000BF00401D251D8B431D10401D151020D46
:1013C000F450016EF3CF00F0390E0026040E012216
:1013D00000C0E9FF01C0EAFFEECF00F0EFCF01F05F
:1013E000230ED125026E036A040E032202C0E9FF18
:1013F00003C0EAFFEFCF02F00250FF0A01E166D01E
:1014000002380F0B036E920E0324046E056A0F0E52
:101410000522066A920E03260F0E062203C0E9FF7C
:1014200006C0EAFFEFCF03F00250066E070E061665
:10143000010E076E06500DE006E6E86CD890073600
:10144000010FFDE306D0D89007BED8800732010F08
:10145000FBE3071C066E0350061604C0E9FF05C037
:10146000EAFF06C0EFFF02380F0B036E890E03245C
:10147000046E056A0F0E0522066A890E03260F0EFA
:10148000062203C0E9FF06C0EAFFEFCF03F00250D7
:10149000066E070E0616010E076E06500DE006E6F4
:1014A000E86CD8900736010FFDE306D0D89007BE50
:1014B000D8800732010FFBE3071C066E03500616A7
:1014C00004C0E9FF05C0EAFF06C0EFFF0401D151E7
:1014D000020DF450046EF3CF03F0390E0326040E10
:1014E000042200380F0B056E0138066EF00B061A49
:1014F000052606320532F80E06B406260550005CB5
:10150000056E06500158066EC3CF07F0086A0750F3
:10151000052608500622C4CF07F0086A07500A6E55
:10152000096A095005260A50062203C0E9FF04C0D3
:10153000EAFF05C0EEFF06C0EFFF0401CD51010A2E
:1015400001E06AD00401D151020DF450046EF3CFD2
:1015500003F0390E0324056E040E0420066E05C048
:10156000E9FF06C0EAFFEECF00F0EFCF01F06C0E0E
:101570000326030E042203C0E9FF04C0EAFFEECFF6
:1015800005F0EFCF06F09C0E0526D8A00606015008
:10159000800FF36E0650800FF35C02E10550005C93
:1015A0000EE20050640F056E000E0120066E03C0AF
:1015B000E9FF04C0EAFF05C0EEFF06C0EFFF04012B
:1015C000D151020DF450046EF3CF03F08C0E0326BC
:1015D000030E042203C0E9FF04C0EAFFEECF05F0CA
:1015E000EFCF06F0640E0526D8B0062A0650800F0D
:1015F000F36E0150800FF35C02E10050055C0CE2D9
:101600009C0E0026D8A0010603C0E9FF04C0EAFF33
:1016100000C0EEFF01C0EFFF0401D26B0401D12B2B
:10162000100ED15D01E3D16B0401D139E8441F0BE9
:10163000006E016A220E0026050E012200C0E9FF9D
:1016400001C0EAFFEFCF00F0D1C401F0070E011690
:10165000010E036E000E046E015006E0E86CD89097
:1016600003360436010FFCE3056A005003160550EB
:10167000041603500410D880E866D890036A033635
:101680000350D8A4B3D0230E0401D125006E016A03
:101690000F0E012200C0E9FF01C0EAFFEFCF00F00A
:1016A0000044E844FC0B016E0128C26E230ED125D4
:1016B000006E016A040E012200C0E9FF01C0EAFFCA
:1016C000EFCF02F00250FF0A01E18CD002380F0B7D
:1016D000006E920E0024016E036A0F0E0322046A4C
:1016E000920E00260F0E042200C0E9FF04C0EAFF9C
:1016F000EFCF00F00250046E070E0416010E056EC7
:1017000004500DE006E6E86CD8900536010FFDE3C5
:1017100006D0D89005BED8800532010FFBE30050FB
:10172000051201C0E9FF03C0EAFF05C0EFFF380E54
:10173000006E0F0E016E02380F0B036E046A035029
:10174000002604500122380E056E0F0E066E05505D
:1017500003260650042203C0E9FF04C0EAFFEFCFCE
:1017600003F0070E0216010E046E02500DE006E6AD
:10177000E86CD8900436010FFDE306D0D89004BE83
:10178000D8800432010FFBE30350041200C0E9FFCC
:1017900001C0EAFF04C0EFFF0F0145830000000015
:1017A00045930F0144930BC0E5FFF2CF0BF0F29E7F
:1017B0004481000000000000000000000000000064
:1017C0000000000000000000000000000000000019
:1017D0000000000000000000000044910BBEF28EEB
:1017E000E4CF0BF0C282010E0401D26F0401D1518B
:1017F000E4CF0AF0E4CF09F0E4CF08F0E4CF07F03B
:10180000E4CF06F0E4CF05F0E4CF04F0E4CF03F03A
:10181000E4CF02F0E4CF01F0E4CF00F0120000C00A
:10182000E5FF01C0E5FF02C0E5FF03C0E5FF04C01E
:10183000E5FF05C0E5FF06C0E5FF07C0E5FF08C0FE
:10184000E5FF09C0E5FF0AC0E5FF0BC0E5FF0CC0DE
:10185000E5FF006A016A026A040E025CD8B0ECD1AE
:1018600001C003F0012A100E035CD8B0E5D10401D9
:10187000D32B100ED35D01E3D36B0401D339E844BD
:101880001F0B036E046A220E0326050E042203C0FA
:10189000E9FF04C0EAFFEFCF03F0D3C404F0070E62
:1018A0000416010E056E000E066E045006E0E86C8C
:1018B000D89005360636010FFCE3076A035005167B
:1018C0000750061605500610D880E866D890056ABD
:1018D00005360550D8A4C0D70401D351020DF450E9
:1018E000046EF3CF03F0390E0324056E040E0420BA
:1018F000066E05C0E9FF06C0EAFFEECF05F0EFCFA8
:1019000006F0D0C407F007A09DD06C0E0324076E2C
:10191000030E0420086E07C0E9FF08C0EAFFEECFFF
:1019200007F0EFCF08F00650800FF36E0850800FDD
:10193000F35C02E10750055C03E2056A066A60D0C9
:101940008C0E0326030E042203C0E9FF04C0EAFF45
:10195000EECF03F0EFCF04F00450800FF36E06508B
:10196000800FF35C02E10550035C04E205683F0E62
:10197000066E46D00750055C096E085006580A6E80
:10198000E86A0ABEFF0E0B6EE56E0B50E56E0A505C
:10199000E56E0950E56EE56AE56A400EE56E000EFB
:1019A000E56AA7EC15F0096EF3CF0AF0F4CF0BF05F
:1019B000E9CF0CF0080EE1260750035C076E0850D3
:1019C0000458086EE86A08BEFF0E036EE56E035009
:1019D000E56E0850E56E0750E56E0C50E56E0B5055
:1019E000E56E0A50E56E0950E56E7DEC22F0036E5F
:1019F000F3CF04F0080EE1260350056E0450066E86
:101A00000401CF51800FF36E0650800FF35C02E1AA
:101A10000550CE5D03E3056A066A14D00401CE5179
:101A2000FF08036E3F0ECF55046E0650800FF36E15
:101A30000450800FF35C02E10350055C03E305688A
:101A40003F0E066E0401D351020DF450046EF3CF25
:101A500003F04C0E0326030E042203C0E9FF04C06A
:101A6000EAFFEECF03F0EFCF04F00350055C036E06
:101A700004500658046ED88004AED89004E3041EC7
:101A8000036CD8B4042A022A0401CF51800FF36EEC
:101A90000450800FF35C02E10350CE5DD8B0DCD679
:101AA0000401D351020DF450086EF3CF07F04C0E31
:101AB0000726030E082207C0E9FF08C0EAFF05C099
:101AC000EEFF06C0EFFFD0C407F007A459D0D351F2
:101AD000020DF450086EF3CF07F0AC0E0724096E28
:101AE000030E08200A6E09C0E9FF0AC0EAFFEECF24
:101AF0000BF0EFCF0CF00B500C10D8B441D0590EB6
:101B00000726040E082207C0E9FF08C0EAFFEECF4F
:101B100007F0EFCF08F00750055C036E0850065839
:101B2000046E03101CE00450800F800F02E1010ED0
:101B3000035C076A07360C50800F800F02E1010E2C
:101B40000B5C0B6A0B3607500B1809E109C0E9FF63
:101B50000AC0EAFF03C0EEFF04C0EFFF7DD6040118
:101B6000D351020DF450046EF3CF03F0AC0E0326F4
:101B7000030E042203C0E9FF04C0EAFFEE6AEF6A25
:101B8000D0C403F003A244D000500EE100C003F023
:101B9000002A046AD40E0326040E042203C0E9FFBF
:101BA00004C0EAFF420EEF6E00C003F0002A046A90
:101BB000D40E0326040E04220401D351076E640ED2
:101BC000072603C0E9FF04C0EAFF07C0EFFF00C01B
:101BD00003F0002A046AD40E0326040E04220650E1
:101BE000076E03C0E9FF04C0EAFF07C0EFFF00C0B3
:101BF00003F0002A046AD40E0326040E04220550C2
:101C0000076E03C0E9FF04C0EAFF07C0EFFF24D658
:101C1000D3C403F00650E56E0550E56EE56A035047
:101C2000E56E000EE56E4F0EE56EA20EE56E6DECF4
:101C300035F0070EE12610D602C001F000501EE07C
:101C4000D0C402F002A21AD000C002F0002A036A37
:101C5000D40E0226040E032202C0E9FF03C0EAFFED
:101C60000A0EEF6E0050E56E800EE56E040EE56E16
:101C7000D40EE56ED1EC26F0040EE1260150E4CF3F
:101C80000CF0E4CF0BF0E4CF0AF0E4CF09F0E4CF9E
:101C900008F0E4CF07F0E4CF06F0E4CF05F0E4CF9E
:101CA00004F0E4CF03F0E4CF02F0E4CF01F0E4CF9E
:101CB00000F01200D9CFE5FFE1CFD9FF00C0E5FF6A
:101CC00001C0E5FF02C0E5FF03C0E5FF04C0E5FF7A
:101CD00005C0E5FF06C0E5FF07C0E5FF08C0E5FF5A
:101CE00009C0E5FF0AC0E5FF0BC0E5FF0CC0E5FF3A
:101CF0000DC0E5FF0EC0E5FF0FC0E5FF020EDBCF14
:101D000000F0030EDBCF01F0040EDBCF02F0580E23
:101D1000E56E00C0E9FF01C0F3FF0250E5EC40F0C2
:101D20000050150F036E000E0120046E000E0220FD
:101D3000056E066A0650050DF3CF07F00750032421
:101D4000086EE86A0420096EE86A05200A6E0B6ACC
:101D50000C6A0350072604500B2205500C22075032
:101D6000020F0D6E000E0B200E6E000E0C200F6E7B
:101D7000E56A020EF46E0DC0E9FF0EC0F3FF0F50CE
:101D8000B7EC40F0E56A020EF46E08C0E9FF09C046
:101D9000F3FF0A50B7EC40F0040E0726000E0B22AA
:101DA0000C22E56A07C0E9FF0BC0F3FF0C50E5EC1D
:101DB00040F0F20E0624076E086A040E082207C0DF
:101DC000E9FF08C0EAFF06C0EFFF062A0A0E065C1C
:101DD000D8A0B0D70050470F036E000E0120046E4C
:101DE000000E0220056E066A06500324076EE86A9C
:101DF0000420086EE86A0520E56807C0E9FF08C00E
:101E0000F3FFE5EC40F0062A040E065CEDE300C0AB
:101E1000E9FF01C0F3FF0250EFEC3FF0036E010E4B
:101E2000E56E300EE56E0350E56E67EC39F0030E9B
:101E3000E126E56A0A0EE56EECEC21F0E652E65288
:101E400000C0E9FF01C0F3FF0250EFEC3FF0036E6A
:101E5000080EE56E300EE56E0350E56E67EC39F066
:101E6000030EE126E56A0A0EE56EECEC21F0E6527F
:101E7000E65200C0E9FF01C0F3FF0250EFEC3FF073
:101E8000E56AE56AE56E67EC39F0030EE126E56A7E
:101E90000A0EE56EECEC21F0E652E65200C0E9FFD6
:101EA00001C0F3FF0250EFEC3FF0036EE56A010E54
:101EB000E56E0350E56E67EC39F0030EE126E56A46
:101EC0000A0EE56EECEC21F0E652E65200C0E9FFA6
:101ED00001C0F3FF0250EFEC3FF0036EE56A020E23
:101EE000E56E0350E56E67EC39F0030EE126E56A16
:101EF0000A0EE56EECEC21F0E652E65200C0E9FF76
:101F000001C0F3FF0250EFEC3FF0036EE56A030EF1
:101F1000E56E0350E56E67EC39F0030EE126E56AE5
:101F20000A0EE56EECEC21F0E652E65200C0E9FF45
:101F300001C0F3FF0250EFEC3FF0036EE56A040EC0
:101F4000E56E0350E56E67EC39F0030EE126E56AB5
:101F50000A0EE56EECEC21F0E652E65200C0E9FF15
:101F600001C0F3FF0250EFEC3FF0036EE56A050E8F
:101F7000E56E0350E56E67EC39F0030EE126E56A85
:101F80000A0EE56EECEC21F0E652E65200C0E9FFE5
:101F900001C0F3FF0250EFEC3FF0036EE568060E60
:101FA000E56E0350E56E67EC39F0030EE126E56A55
:101FB0000A0EE56EECEC21F0E652E65200C0E9FFB5
:101FC00001C0F3FF0250EFEC3FF0036EE56A070E2D
:101FD000E56E0350E56E67EC39F0030EE126E56A25
:101FE0000A0EE56EECEC21F0E652E65200C0E9FF85
:101FF00001C0F3FF0250EFEC3FF0036E0C0EE56EF4
:10200000080EE56E0350E56E67EC39F0030EE1262D
:10201000E56A0A0EE56EECEC21F0E652E65200C0ED
:10202000E9FF01C0F3FF0250EFEC3FF0036EE56AF9
:102030001A0EE56E0350E56E67EC39F0030EE126EB
:10204000E56A0A0EE56EECEC21F0E652E65200C0BD
:10205000E9FF01C0F3FF0250EFEC3FF0036EE56AC9
:102060001B0EE56E0350E56E67EC39F0030EE126BA
:10207000E56A0A0EE56EECEC21F0E652E65200C08D
:10208000E9FF01C0F3FF0250EFEC3FF0006E330EAA
:10209000E56EE56E0050E56E67EC39F0030EE12663
:1020A000E56A0A0EE56EECEC21F0E652E652E56ACE
:1020B000640EE56EECEC21F0E652E652E4CF0FF050
:1020C000E4CF0EF0E4CF0DF0E4CF0CF0E4CF0BF052
:1020D000E4CF0AF0E4CF09F0E4CF08F0E4CF07F052
:1020E000E4CF06F0E4CF05F0E4CF04F0E4CF03F052
:1020F000E4CF02F0E4CF01F0E4CF00F0E4CFD9FF69
:102100001200D9CFE5FFE1CFD9FF00C0E5FF01C044
:10211000E5FF02C0E5FF03C0E5FF020EDBCF00F0E4
:10212000030EDBCF01F0040EDBCF02F000C0E9FFAD
:1021300001C0F3FF0250EFEC3FF0036E010EE56EBD
:10214000300EE56E0350E56E67EC39F0030EE126C4
:10215000E56A0A0EE56EECEC21F0E652E65200C0AC
:10216000E9FF01C0F3FF0250EFEC3FF0036E080EF1
:10217000E56E300EE56E0350E56E67EC39F0030E48
:10218000E126E56A0A0EE56EECEC21F0E652E65235
:1021900000C0E9FF01C0F3FF0250EFEC3FF0036E17
:1021A000EBEC39F0E56EE56A0350E56E67EC39F06B
:1021B000030EE126E56A0A0EE56EECEC21F0E6522C
:1021C000E65200C0E9FF01C0F3FF0250EFEC3FF020
:1021D000036EEBEC39F0E56E010EE56E0350E56E33
:1021E00067EC39F0030EE126E56A0A0EE56EECECC9
:1021F00021F0E652E65200C0E9FF01C0F3FF0250B1
:10220000EFEC3FF0036EEBEC39F0E56E020EE56E9D
:102210000350E56E67EC39F0030EE126E56A0A0E1D
:10222000E56EECEC21F0E652E65200C0E9FF01C099
:10223000F3FF0250EFEC3FF0036EEBEC39F0E56E8C
:10224000030EE56E0350E56E67EC39F0030EE126F0
:10225000E56A0A0EE56EECEC21F0E652E65200C0AB
:10226000E9FF01C0F3FF0250EFEC3FF0036EEBEC2F
:1022700039F0E56E040EE56E0350E56E67EC39F05B
:10228000030EE126E56A0A0EE56EECEC21F0E6525B
:10229000E65200C0E9FF01C0F3FF0250EFEC3FF04F
:1022A000036EEBEC39F0E56E050EE56E0350E56E5E
:1022B00067EC39F0030EE126E56A0A0EE56EECECF8
:1022C00021F0E652E65200C0E9FF01C0F3FF0250E0
:1022D000EFEC3FF0036EEBEC39F0E56E060EE56EC9
:1022E0000350E56E67EC39F0030EE126E56A0A0E4D
:1022F000E56EECEC21F0E652E65200C0E9FF01C0C9
:10230000F3FF0250EFEC3FF0036EEBEC39F0E56EBB
:10231000070EE56E0350E56E67EC39F0030EE1261B
:10232000E56A0A0EE56EECEC21F0E652E65200C0DA
:10233000E9FF01C0F3FF0250EFEC3FF0036EEBEC5E
:1023400039F0E56E080EE56E0350E56E67EC39F086
:10235000030EE126E56A0A0EE56EECEC21F0E6528A
:10236000E65200C0E9FF01C0F3FF0250EFEC3FF07E
:10237000036EEBEC39F0E56E1A0EE56E0350E56E78
:1023800067EC39F0030EE126E56A0A0EE56EECEC27
:1023900021F0E652E65200C0E9FF01C0F3FF02500F
:1023A000EFEC3FF0036EEBEC39F0E56E1B0EE56EE3
:1023B0000350E56E67EC39F0030EE126E56A0A0E7C
:1023C000E56EECEC21F0E652E65200C0E9FF01C0F8
:1023D000F3FF0250EFEC3FF0006E330EE56EE56E5A
:1023E0000050E56E67EC39F0030EE126E56A0A0E4F
:1023F000E56EECEC21F0E652E652E4CF03F0E4CFD8
:1024000002F0E4CF01F0E4CF00F0E4CFD9FF1200F6
:10241000800EE56E030EE56E8C0EE56EF0EC30F08E
:10242000030EE126800EE56E030EE56E6C0EE56E82
:10243000F0EC30F0030EE126800EE56E030EE56E43
:102440008E0EE56EF0EC30F0030EE126800EE56EA8
:10245000030EE56E6E0EE56EF0EC30F0030EE12635
:10246000800EE56E030EE56E900EE56EF0EC30F03A
:10247000030EE126800EE56E030EE56E700EE56E2E
:10248000F0EC30F0030EE126800EE56E030EE56EF3
:10249000920EE56EF0EC30F0030EE126800EE56E54
:1024A000030EE56E720EE56EF0EC30F0030EE126E1
:1024B000800EE56E030EE56E940EE56EF0EC30F0E6
:1024C000030EE126800EE56E030EE56E740EE56EDA
:1024D000F0EC30F0030EE126800EE56E030EE56EA3
:1024E000960EE56EF0EC30F0030EE126800EE56E00
:1024F000030EE56E760EE56EF0EC30F0030EE1268D
:10250000800EE56E030EE56E980EE56EF0EC30F091
:10251000030EE126800EE56E030EE56E780EE56E85
:10252000F0EC30F0030EE126800EE56E030EE56E52
:102530009A0EE56EF0EC30F0030EE126800EE56EAB
:10254000030EE56E7A0EE56EF0EC30F0030EE12638
:10255000800EE56E030EE56E9C0EE56EF0EC30F03D
:10256000030EE126800EE56E030EE56E7C0EE56E31
:10257000F0EC30F0030EE126800EE56E030EE56E02
:102580009E0EE56EF0EC30F0030EE126800EE56E57
:10259000030EE56E7E0EE56EF0EC30F0030EE126E4
:1025A000800EE56E030EE56EA00EE56EF0EC30F0E9
:1025B000030EE126800EE56E030EE56E800EE56EDD
:1025C000F0EC30F0030EE126800EE56E030EE56EB2
:1025D000A20EE56EF0EC30F0030EE126800EE56E03
:1025E000030EE56E820EE56EF0EC30F0030EE12690
:1025F000800EE56E030EE56EA40EE56EF0EC30F095
:10260000030EE126800EE56E030EE56E840EE56E88
:10261000F0EC30F0030EE126800EE56E030EE56E61
:10262000A60EE56EF0EC30F0030EE126800EE56EAE
:10263000030EE56E860EE56EF0EC30F0030EE1263B
:10264000800EE56E030EE56EA80EE56EF0EC30F040
:10265000030EE126800EE56E030EE56E880EE56E34
:10266000F0EC30F0030EE126800EE56E030EE56E11
:10267000AA0EE56EF0EC30F0030EE126800EE56E5A
:10268000030EE56E8A0EE56EF0EC30F0030EE126E7
:10269000120000C0E5FF01C0E5FF02C0E5FF03C076
:1026A000E5FF04C0E5FF05C0E5FF06C0E5FF07C084
:1026B000E5FFC0EC32F0040194510001E06FE56ADF
:1026C000100EE56E04019951E56E9851E56E13EC1C
:1026D0002BF0006EF3CF01F0040EE1260050011044
:1026E00016E1000EE56A2EEC3BF004019A6FF3CF81
:1026F0009BF4E6520001E16B04019B510001E26F83
:10270000040E006E04019A510001E36FD8D0020E4E
:10271000006E010E0001E16F016A00C002F0002AA4
:10272000036AE00E0226000E0322470E0124046E07
:10273000056A030E052204C0E9FF05C0EAFFEFCFDA
:1027400006F00650050DF3CF06F0076A150E0626B3
:10275000030E072206C0E9FF07C0EAFFEECF06F02E
:10276000EFCF07F002C0E9FF03C0EAFF06C0EFFFAA
:1027700000C002F0002A036AE00E0226000E0322C7
:1027800004C0E9FF05C0EAFFEFCF06F00650050DD3
:10279000F3CF06F0076A150E0626030E072206C0C1
:1027A000E9FF07C0EAFFEECF06F0EFCF07F00750D2
:1027B000066E02C0E9FF03C0EAFF06C0EFFF00C0DB
:1027C00002F0002A036AE00E0226000E032204C073
:1027D000E9FF05C0EAFFEFCF06F00650050DF3CF85
:1027E00006F0076A150E0626030E0722020E0626BD
:1027F000D8B0072A06C0E9FF07C0EAFFEECF06F00F
:10280000EFCF07F002C0E9FF03C0EAFF06C0EFFF09
:1028100000C002F0002A036AE00E0226000E032226
:1028200004C0E9FF05C0EAFFEFCF06F00650050D32
:10283000F3CF06F0076A150E0626030E0722020ED6
:102840000626D8B0072A06C0E9FF07C0EAFFEECF88
:1028500006F0EFCF07F00750066E02C0E9FF03C095
:10286000EAFF06C0EFFF00C002F0002A036AE00E94
:102870000226000E032204C0E9FF05C0EAFFEFCFE5
:1028800004F00450050DF3CF04F0056A150E04267C
:10289000030E0522040E0426D8B0052A04C0E9FF61
:1028A00005C0EAFFEFCF04F002C0E9FF03C0EAFF72
:1028B00004C0EFFF012A040E015CD8A02ED704014A
:1028C000983F01D0992B010EE56E0050E56E800E09
:1028D000E56E000EE56EE00EE56EC8EC25F0050E27
:1028E000E126A5EC2AF012EC3CF0E4CF07F0E4CFAF
:1028F00006F0E4CF05F0E4CF04F0E4CF03F0E4CF3A
:1029000002F0E4CF01F0E4CF00F0120000C0E5FFD8
:1029100001C0E5FF02C0E5FF03C0E5FF0401CA51A5
:10292000D8B40CD19DA81DD09EA81BD0050136514E
:102930000501331905E14AEC40F00501336BFED087
:10294000000E05013625006E016A040E012200C04A
:10295000E9FF01C0EAFFEFCF2FF5362B2FC5ADFF02
:10296000EDD09DAAEBD09EAAE9D0ABA205D005017F
:1029700034814AEC40F0E2D0ABA405D005013483A9
:102980004AEC40F0DBD0ABA048D0AECF2FF5CBC4A3
:1029900000F0016A008E2FC502F0036A0250001891
:1029A00003E10350011801E004D005013489AB961E
:1029B000C5D005012F5104E02F510401CB1929E1A5
:1029C00005013499AB9605012F5103E005013497B9
:1029D00002D0050134872FC538F531C539F5050119
:1029E0003151006E000405013A6F600E0501392572
:1029F000006E016A000E012200C0E9FF01C0EAFF7B
:102A00002FC5EFFF392B3951800A02E10501396BDF
:102A100095D005013499AB8691D0AECF2FF5050145
:102A200034A921D0CBC400F0016A008E2FC502F07A
:102A3000036A0250001803E10350011801E011D0AD
:102A40009D9AAB9894900501335104E1AD6A4AEC2C
:102A500040F007D000C4ADFF010E0501366F9D8820
:102A60006DD0AB866BD005012F51050138270501CC
:102A7000395105013A191BE1050138510CE139C5FD
:102A800031F5050134B712D09D9AAB989490AD6A98
:102A90004AEC40F00BD00501348534B707D09D9A3D
:102AA000AB989490010EAD6E4AEC40F047D0050112
:102AB00039510501321908E1050132510501311979
:102AC00003E04AEC40F03AD031C500F0016A004A18
:102AD000012AE56A800EE56E0150E56E0050E56E54
:102AE00013EC2BF0006E040EE12600500501306F50
:102AF000050139190FE12FC500F01F0E0014050163
:102B00003A6F006E020E00243A6F05013151050143
:102B10003A273A9F39C500F00501392B016A600E4A
:102B20000026000E012200C0E9FF01C0EAFF2FC508
:102B3000EFFF3951800A02E10501396BE4CF03F060
:102B4000E4CF02F0E4CF01F0E4CF00F01200D9CFDF
:102B5000E5FFE1CFD9FF00C0E5FF01C0E5FF02C0FE
:102B6000E5FF03C0E5FF04C0E5FF05C0E5FF06C0C3
:102B7000E5FF07C0E5FF020EDBCF00F0030EDBCF61
:102B800001F0040EDBCF02F0050EDBCF03F0060EE2
:102B9000DBCF04F0070EDBCF05F0080EDBCF06F02D
:102BA000090EDBCF07F000500501086F0150096FD7
:102BB00002500A6F03500B6F045005010C6F055053
:102BC0000D6F06500E6F07500F6F0501085105017C
:102BD0000E03F4CF01F0F3CF00F000500501126FA7
:102BE0000150136F0501085105010C03F4CF01F0EA
:102BF000F3CF00F000500501106F0150116F050177
:102C00000B5105010C03F3CF00F005011351002611
:102C10000050136F05010A5105010D03F3CF01F0B8
:102C20000150002600500501136F05010A510501EE
:102C30000C03F4CF01F0F3CF00F005011251002690
:102C4000135101220050126F0150136F05010951F9
:102C500005010D03F4CF03F0F3CF02F0025000267C
:102C60000350012200500501126F0150136F05013E
:102C7000095105010E03F3CF00F000500501176F55
:102C80000501095105010C03F4CF01F0F3CF00F069
:102C900000500501156F0150166F0501085105011F
:102CA0000F03F3CF00F0005005011B6F0501085121
:102CB00005010D03F4CF01F0F3CF00F00050050142
:102CC000196F01501A6F0501146B0501186B05018E
:102CD000145105011025006E050115510501112142
:102CE000016E0501165105011221026E05011751F1
:102CF00005011321036E0050106F0150116F025037
:102D0000126F0350136F0501185105011025006E55
:102D10000501195105011121016E05011A51050125
:102D20001221026E05011B5105011321036E03C020
:102D3000E9FF02C0F4FF01C0F3FF0050E4CF07F049
:102D4000E4CF06F0E4CF05F0E4CF04F0E4CF03F0E5
:102D5000E4CF02F0E4CF01F0E4CF00F0E4CFD9FFFC
:102D60001200D9CFE5FFE1CFD9FF00C0E5FF01C0D8
:102D7000E5FF02C0E5FF03C0E5FF04C0E5FF05C0B5
:102D8000E5FF06C0E5FF07C0E5FF08C0E5FF09C095
:102D9000E5FF0AC0E5FF020EDBCF00F0030EDBCF3C
:102DA00001F0040EDBCF02F0050EDBCF03F0005084
:102DB0001BE10350096E0250086E0150076E41C5B9
:102DC0000AF0E56A0A50E56E0950E56E0850E56EB6
:102DD0000750E56E800EE56E0F0EE56E330EE56E64
:102DE000D7EC27F0080EE126070E005CD8B092D091
:102DF000020E005C22E2FA0E0024046E056A810EC7
:102E00000522066A000E062204C0F6FF05C0F7FF81
:102E100006C0F8FF0900F5CF04F005014151E56E49
:102E20000350E56E0250E56E0150E56E0450E56E0C
:102E3000F9EC2FF0050EE12620D0FA0E0024046EE6
:102E4000056A810E0522066A000E062204C0F6FFFE
:102E500005C0F7FF06C0F8FF0900F5CF04F0010E2A
:102E6000E56E0350E56E0250E56E0150E56E0450CC
:102E7000E56EF9EC2FF0050EE126000E0024016E40
:102E8000026A820E0222036A000E032201C0F6FFCC
:102E900002C0F7FF03C0F8FF0900F5CF01F00501FC
:102EA0003F51E56E0150E56EB8EC3AF0E652E6525D
:102EB000020EE56E76EC3CF0016EE652026A036AA1
:102EC000F40E0026810E0222000E032200C0F6FF3F
:102ED00002C0F7FF03C0F8FF0900F5CF00F0010EB4
:102EE000026E00500DE006E6E86CD8900236010F45
:102EF000FDE306D0D89002BED8800232010FFBE37A
:102F0000015002120250E56E020EE56EB8EC3AF086
:102F1000E652E652E4CF0AF0E4CF09F0E4CF08F03D
:102F2000E4CF07F0E4CF06F0E4CF05F0E4CF04F0FF
:102F3000E4CF03F0E4CF02F0E4CF01F0E4CF00F0FF
:102F4000E4CFD9FF1200E70E0401796F7A6F7B6F2F
:102F50007C6F7D6FC20E0401816F826F836F846FFF
:102F6000856F080EE56E000EE56AB8EC3AF0E652A1
:102F7000E6523F0EE56E010EE56EB8EC3AF0E65211
:102F8000E652030EE56E020EE56EB8EC3AF0E6523C
:102F9000E652030EE56EE56EB8EC3AF0E652E65204
:102FA000030EE56E040EE56EB8EC3AF0E652E6521A
:102FB000020EE56E050EE56EB8EC3AF0E652E6520A
:102FC0000E0EE56E060EE56EB8EC3AF0E652E652ED
:102FD0000E0EE56E070EE56EB8EC3AF0E652E652DC
:102FE000E56A080EE56EB8EC3AF0E652E652E56A9C
:102FF000090EE56EB8EC3AF0E652E652050EE56EC3
:10300000800EE56E040EE56E790EE56E0A0EE56E35
:10301000F9EC2FF0050EE126E56E800EE56E040E4C
:10302000E56E810EE56E0B0EE56EF9EC2FF0050EE8
:10303000E126C30EE56E0C0EE56EB8EC3AF0E652F2
:10304000E652C40EE56E0D0EE56EB8EC3AF0E652AF
:10305000E652C50EE56E0E0EE56EB8EC3AF0E6529D
:10306000E652C60EE56E0F0EE56EB8EC3AF0E6528B
:10307000E652050EE56E800EE56E040EE56E790EE5
:10308000E56E100EE56EF9EC2FF0050EE126E56A0F
:10309000110EE56EB8EC3AF0E652E652E56A120E11
:1030A000E56EB8EC3AF0E652E652E56A130EE56ECC
:1030B000B8EC3AF0E652E652E56A140EE56EB8EC6A
:1030C0003AF0E652E652E56A150EE56EB8EC3AF0D3
:1030D000E652E652E56A160EE56EB8EC3AF0E652B4
:1030E000E652110EE56E170EE56EB8EC3AF0E652B8
:1030F000E652E56A1C0EE56EB8EC3AF0E652E6528E
:10310000E56A1D0EE56EB8EC3AF0E652E6521200A2
:10311000D9CFE5FFE1CFD9FF00C0E5FF01C0E5FF52
:1031200002C0E5FF03C0E5FF04C0E5FF05C0E5FF01
:1031300006C0E5FF020EDBCF00F0030EDBCF01F08F
:10314000040EDBCF02F0FA0EF66E810EF76E000E63
:10315000F86E0900F5CF03F0050EE56E0250E56E3E
:103160000150E56E0050E56E0350E56EFDEC2EF06B
:10317000050EE126FB0EF66E810EF76E000EF86E60
:103180000900F5CF03F00050050F046E000E01207A
:10319000056E000E0220066E050EE56E0650E56E09
:1031A0000550E56E0450E56E0350E56EFDEC2EF023
:1031B000050EE126FC0EF66E810EF76E000EF86E1F
:1031C0000900F5CF03F000500A0F046E000E012035
:1031D000056E000E0220066E010EE56E0650E56ECD
:1031E0000550E56E0450E56E0350E56EFDEC2EF0E3
:1031F000050EE126FD0EF66E810EF76E000EF86EDE
:103200000900F5CF03F000500B0F046E000E0120F3
:10321000056E000E0220066E010EE56E0650E56E8C
:103220000550E56E0450E56E0350E56EFDEC2EF0A2
:10323000050EE126FE0EF66E810EF76E000EF86E9C
:103240000900F5CF03F000500C0F046E000E0120B2
:10325000056E000E0220066E010EE56E0650E56E4C
:103260000550E56E0450E56E0350E56EFDEC2EF062
:10327000050EE126FF0EF66E810EF76E000EF86E5B
:103280000900F5CF03F00D0E0026000E01220222E8
:10329000010EE56E0250E56E0150E56E0050E56EE0
:1032A0000350E56EFDEC2EF0050EE126E4CF06F0AE
:1032B000E4CF05F0E4CF04F0E4CF03F0E4CF02F074
:1032C000E4CF01F0E4CF00F0E4CFD9FF1200D9CF72
:1032D000E5FFE1CFD9FF00C0E5FF01C0E5FF02C077
:1032E000E5FF03C0E5FF04C0E5FF05C0E5FF06C03C
:1032F000E5FF07C0E5FF08C0E5FF09C0E5FF0AC01C
:10330000E5FF0BC0E5FF0CC0E5FF0DC0E5FF0EC0FB
:10331000E5FF0FC0E5FF020EDBCF00F0030EDBCFB1
:1033200001F0040EDBCF02F0050EDBCF03F0060E3A
:10333000DBCF04F0045007E036EC2AF0010EE56E16
:1033400084EC3FF0E65252EC37F0046EF3CF05F018
:10335000F4CF06F0E9CF07F000505F0F086E000EC3
:103360000120096E000E02200A6E000E03200B6E73
:10337000170EE56E76EC3CF00C6EE6520CB85DD0A4
:1033800030EC41F00C6E0CA838D0100EE56E070E34
:10339000E56EB8EC3AF0E652E652000EE56A84ECCF
:1033A0003FF0E652010EE56E84EC3FF0E65252EC3F
:1033B00037F00C6EF3CF0DF0F4CF0EF0E9CF0FF035
:1033C00004500C5E05500D5A06500E5A07500F5A05
:1033D00003500F5C08E102500E5C05E101500D5CEA
:1033E00002E100500C5C09E3000EE56A84EC3FF05A
:1033F000E65236EC41F0E86A26D052EC37F00C6E1B
:10340000F3CF0DF0F4CF0EF0E9CF0FF004500C5EC7
:1034100005500D5A06500E5A07500F5A0F500B5CAC
:1034200008E10E500A5C05E10D50095C02E10C5008
:10343000085CD8B09DD7E86A06D0000EE56A84EC37
:103440003FF0E652010EE4CF0FF0E4CF0EF0E4CFF0
:103450000DF0E4CF0CF0E4CF0BF0E4CF0AF0E4CFB2
:1034600009F0E4CF08F0E4CF07F0E4CF06F0E4CFB2
:1034700005F0E4CF04F0E4CF03F0E4CF02F0E4CFB2
:1034800001F0E4CF00F0E4CFD9FF1200D9CFE5FF7F
:10349000E1CFD9FF00C0E5FF01C0E5FF02C0E5FFB5
:1034A00003C0E5FF04C0E5FF05C0E5FF06C0E5FF7A
:1034B00007C0E5FF08C0E5FF09C0E5FF0AC0E5FF5A
:1034C0000BC0E5FF0CC0E5FF0DC0E5FF0EC0E5FF3A
:1034D0000FC0E5FF10C0E5FF11C0E5FF12C0E5FF1A
:1034E00013C0E5FF020EDBCF00F0030EDBCF01F0CF
:1034F000040EDBCF02F0050EDBCF03F0060EDBCFB0
:1035000004F0070EDBCF05F0080EDBCF06F0090E46
:10351000DBCF07F052EC37F0086EF3CF09F0F4CFB1
:103520000AF0E9CF0BF004505F0F0C6E000E05207F
:103530000D6E000E06200E6E000E07200F6E30EC92
:1035400041F0106E10A046D030EC41F0106E10A883
:1035500021D042EC3EF052EC37F0106EF3CF11F078
:10356000F4CF12F0E9CF13F00850105E0950115A51
:103570000A50125A0B50135A1350075C08E11250AC
:10358000065C05E11150055C02E11050045C02E2AA
:10359000E86A2ED052EC37F0106EF3CF11F0F4CF72
:1035A00012F0E9CF13F00850105E0950115A0A507A
:1035B000125A0B50135A13500F5C08E112500E5C54
:1035C00005E111500D5C02E110500C5CD8B0B7D78A
:1035D000E86A0ED0E56A0350E56E0250E56E0150D0
:1035E000E56E0050E56E9EEC33F0050EE126010E0F
:1035F000E4CF13F0E4CF12F0E4CF11F0E4CF10F0F9
:10360000E4CF0FF0E4CF0EF0E4CF0DF0E4CF0CF0F8
:10361000E4CF0BF0E4CF0AF0E4CF09F0E4CF08F0F8
:10362000E4CF07F0E4CF06F0E4CF05F0E4CF04F0F8
:10363000E4CF03F0E4CF02F0E4CF01F0E4CF00F0F8
:10364000E4CFD9FF1200D9CFE5FFE1CFD9FF00C009
:10365000E5FF01C0E5FF02C0E5FF03C0E5FF04C0D0
:10366000E5FF05C0E5FF06C0E5FF07C0E5FF08C0B0
:10367000E5FF09C0E5FF0AC0E5FF0BC0E5FF0CC090
:10368000E5FF0DC0E5FF0EC0E5FF0FC0E5FF020E30
:10369000DBCF00F0030EDBCF01F0040EDBCF02F036
:1036A000050EDBCF03F0060EDBCF04F0070EDBCFF9
:1036B00005F0080EDBCF06F0200E076E086A06C084
:1036C00009F00A6A0B6A0C6AE56AE56AE56A09505C
:1036D000E56E0350E56E0250E56E0150E56E005058
:1036E000E56EA3EC1CF00D6E080EE126300E0D26E3
:1036F0003A0E0D5C05E30D500E6E270E0E240D6E76
:10370000FF0E07260822CC0E07240E6E030E08209B
:103710000F6E0EC0E9FF0FC0EAFF0DC0EFFF0C50A7
:10372000E56E0B50E56E0A50E56E0950E56E0350EC
:10373000E56E0250E56E0150E56E0050E56E7DECE1
:1037400022F0006EF3CF01F0F4CF02F0E9CF03F0E6
:10375000080EE1260050011002100310D8A4AFD7C4
:1037600007C000F008C001F004C002F005C003F07B
:1037700000C004F001C005F0004A012ACC0E042666
:10378000030E052204C0E9FF05C0EAFFEFCF04F0F5
:1037900002C0E9FF03C0EAFF04C0EFFF024A032AA8
:1037A000000E015C02E1200E005CE2E302C0E9FFD2
:1037B00003C0EAFF000EEF6AE4CF0FF0E4CF0EF093
:1037C000E4CF0DF0E4CF0CF0E4CF0BF0E4CF0AF03F
:1037D000E4CF09F0E4CF08F0E4CF07F0E4CF06F03F
:1037E000E4CF05F0E4CF04F0E4CF03F0E4CF02F03F
:1037F000E4CF01F0E4CF00F0E4CFD9FF120000C025
:10380000E5FF05013E6B200E05013F6F0501406B92
:10381000050E0501416F0501006F016B026B036B23
:103820000F01336B000EE56A84EC3FF0E652010EA7
:10383000E56E8CEC3DF0E6529398939A000EE56AA3
:1038400084EC3FF0E652010EE56E8CEC3DF0E65262
:1038500026EC32F0E56AE56AE56A140EE56E9BEC4B
:103860001FF0040EE126A3EC17F0E56AE56AE56AAD
:10387000050EE56E9BEC1FF0040EE1260C0EE56EC6
:10388000000EE56AB8EC3AF0E652E652E56A020E3E
:10389000E56EB8EC3AF0E652E6520F0EE56E050E14
:1038A000E56E15EC3AF0E652E6520E0EE56E060EA7
:1038B000E56EB8EC3AF0E652E652020EE56E8CEC9C
:1038C00031F0006EE652005003E0010E05013E6F3C
:1038D000000EE56A8CEC31F0E652E56A1D0EE56EED
:1038E000B8EC3AF0E652E652E56A1C0EE56EB8EC2A
:1038F0003AF0E652E6520501406B700EE56E070E97
:10390000E56EB8EC3AF0E652E6524C0EE56EA8ECE5
:103910003DF0E6523CEC41F036EC41F0F4EC3CF08A
:10392000000EE56A76EC3CF0006EE6520090005026
:10393000E56E000EE56AB8EC3AF0E652E652E86A47
:10394000E4CF00F01200D9CFE5FFE1CFD9FF00C0EE
:10395000E5FF01C0E5FF02C0E5FF03C0E5FF04C0CD
:10396000E5FF05C0E5FF06C0E5FF07C0E5FF08C0AD
:10397000E5FF09C0E5FF0AC0E5FF020EDBCF00F05E
:10398000030EDBCF01F0040EDBCF02F0050EDBCF20
:1039900003F0060EDBCF04F0070EDBCF05F0080EB8
:1039A000DBCF06F0090EDBCF07F0086A04500510E4
:1039B0000610071005E1E968F468F368E86847D085
:1039C000096A0750800BE8440A6E0A501BE1045054
:1039D00004260536063607360750035C08E1065014
:1039E000025C05E10550015C02E10450005C06E266
:1039F000D890073206320532043204D0092A09C0B1
:103A000008F0DFD70750035C08E10650025C05E1CF
:103A10000550015C02E10450005C08E30450005EC4
:103A20000550015A0650025A0750035AD8900732DF
:103A300006320532043208C009F008060950E2E1F6
:103A400003C0E9FF02C0F4FF01C0F3FF0050E4CF60
:103A50000AF0E4CF09F0E4CF08F0E4CF07F0E4CFB8
:103A600006F0E4CF05F0E4CF04F0E4CF03F0E4CFB8
:103A700002F0E4CF01F0E4CF00F0E4CFD9FF120070
:103A800000C0E5FF01C0E5FF02C0E5FF03C0E5FFA0
:103A9000D9EC1DF0BDEC09F0040197510AE0800E4D
:103AA000E56E030EE56E000EE56E0EEC04F0030EFF
:103AB000E126B3EC24F0006E005002E08B8201D0CE
:103AC0008B92C1EC39F0006EF3CF01F0F4CF02F02D
:103AD000E9CF03F00401FC51005EFD51015AFE5193
:103AE000025AFF51035A039E3F0E035C08E1FF0E8A
:103AF000025C05E1FF0E015C02E1FF0E005CD8B044
:103B00004FD0C1EC39F0F3CF01F0F4CF02F0E9CFA0
:103B100003F0100F0401FC6F270E0120FD6F000E53
:103B20000220FE6F000E0320FF6F040197510CE08E
:103B3000010EE56E800EE56E030EE56E000EE56E7D
:103B400001EC07F0040EE12695C400F096C401F0E4
:103B50000401953F01D0962B0050320A02E101503A
:103B600001E01ED00401956B966B93C400F0E56AEA
:103B70000050E56E000EE56E4B0EE56E860EE56EAE
:103B80006DEC35F0050EE12636EC3FF0006E00508E
:103B900002E10401936B04019351D8B4BCEC3FF0F3
:103BA000E4CF03F0E4CF02F0E4CF01F0E4CF00F083
:103BB000120000C0E5FF01C0E5FF02C0E5FF03C041
:103BC000E5FF04C0E5FF050132510501311901E1AE
:103BD0006AD032C500F00050016E0128006E009ED0
:103BE000600E0024016E026A000E022201C0E9FF8D
:103BF00002C0EAFFEFCF3CF51F0E05013C1732C5AE
:103C00003BF53C5105013B273B51016E020E01245F
:103C10003B6F3B9FEBEC39F0016E015003E1016A11
:103C2000012A01D0016AEBEC39F005013C6F3CC57B
:103C300002F0800E02163CC503F01F0E031603C0EF
:103C400004F003C03CF5045003E131C532F53ED029
:103C500001501EE0025025E0EBEC39F0006E05014A
:103C60003C51016E01043C6F0050420A1AE00050C2
:103C70004E0A03E169EC34F014D00050460A03E127
:103C8000CFEC40F00ED00050490A0BE1FF0009D004
:103C900032C53DF5025003E038EC39F002D036EC85
:103CA00038F03BC532F50401C7510401C81906E0DC
:103CB0000501335103E171EC1EF008D094B006D039
:103CC0000501335103E1ACB24AEC40F0E4CF04F01B
:103CD000E4CF03F0E4CF02F0E4CF01F0E4CF00F052
:103CE000120000C0E5FF01C0E5FF02C0E5FF03C010
:103CF000E5FF04C0E5FFACA27ED0B6EC3CF0006E60
:103D0000005005E10401C86B0401C76B74D0C8C43E
:103D100001F000500126B6EC3CF0026E0050036E3C
:103D20000304006E0250230A1FE1010E005CD8A0BC
:103D300060D0B6EC3CF0026E690A03E107EC39F0A2
:103D400058D00250720A03E14AEC40F052D00250BF
:103D5000730A01E04ED09480AB869D8A9D98AE5048
:103D6000AE50AB98AB8845D00250430A05E00250F4
:103D7000420A01E03ED006D000C003F0046A038E80
:103D80000350006E00C035F500500401006F010EB5
:103D90000501366F0401C851011814E0B6EC3CF07F
:103DA000026E05013527000E05013625006E036AF7
:103DB000040E032200C0E9FF03C0EAFF02C0EFFFC8
:103DC000362BE8D7000E05013625006E026A040E78
:103DD00002220501351D036E032A00C0E9FF02C05F
:103DE000EAFF03C0EFFF0501362B36C533F50501A9
:103DF0002D6B01C0C8F4E4CF04F0E4CF03F0E4CFAE
:103E000002F0E4CF01F0E4CF00F01200D9CFE5FFDB
:103E1000E1CFD9FF00C0E5FF01C0E5FF02C0E5FF2B
:103E200003C0E5FF04C0E5FF05C0E5FF06C0E5FFF0
:103E300007C0E5FF08C0E5FF09C0E5FF0AC0E5FFD0
:103E40000BC0E5FF0CC0E5FF020EDBCF00F0030E58
:103E5000DBCF01F0040EDBCF02F0050EDBCF03F069
:103E6000060EDBCF04F052EC37F0056EF3CF06F010
:103E7000F4CF07F0E9CF08F030EC41F0096E09A06B
:103E80002ED030EC41F0096E09A80AD0100EE56E74
:103E9000070EE56EB8EC3AF0E652E652E86A2ED02C
:103EA00052EC37F0096EF3CF0AF0F4CF0BF0E9CF04
:103EB0000CF00550095E06500A5A07500B5A08507C
:103EC0000C5A000E0C5C08E1000E0B5C05E1000EC4
:103ED0000A5C02E1600E095CCFE3E86A0FD004508F
:103EE000E56E0350E56E0250E56E0150E56E005040
:103EF000E56E9EEC33F0050EE126010EE4CF0CF0EA
:103F0000E4CF0BF0E4CF0AF0E4CF09F0E4CF08F0FF
:103F1000E4CF07F0E4CF06F0E4CF05F0E4CF04F0FF
:103F2000E4CF03F0E4CF02F0E4CF01F0E4CF00F0FF
:103F3000E4CFD9FF1200D9CFE5FFE1CFD9FF00C010
:103F4000E5FF01C0E5FF02C0E5FF03C0E5FF04C0D7
:103F5000E5FF05C0E5FF06C0E5FF07C0E5FF020E6F
:103F6000DBCF00F0030EDBCF01F0040EDBCF02F05D
:103F7000050EDBCF03F0C1EC39F0046EF3CF05F092
:103F8000F4CF06F0E9CF07F00350E56E0250E56E7E
:103F90000150E56E0050E56EE56A0F0EE56E420ECB
:103FA000E56E400EE56EA7EC15F0006EF3CF01F064
:103FB000F4CF02F0E9CF03F0080EE126E56AE56AE6
:103FC000030EE56EE80EE56E0350E56E0250E56EF9
:103FD0000150E56E0050E56E7DEC22F0006EF3CFEF
:103FE00001F0F4CF02F0E9CF03F0080EE12604500F
:103FF0000026055001220650022207500322C1EC80
:1040000039F0046EF3CF05F0F4CF06F0E9CF07F0F6
:104010000050045E0150055A0250065A0350075AD8
:10402000079E3F0E075C08E1FF0E065C05E1FF0EF0
:10403000055C02E1FF0E045CE2E2E4CF07F0E4CFAE
:1040400006F0E4CF05F0E4CF04F0E4CF03F0E4CFD2
:1040500002F0E4CF01F0E4CF00F0E4CFD9FF12008A
:10406000D9CFE5FFE1CFD9FF00C0E5FF01C0E5FFF3
:1040700002C0E5FF03C0E5FF04C0E5FF06C0E5FFA1
:10408000020EDBCF00F0030EDBCF01F0040EDBCF1E
:1040900002F03F0EC716C66AC56A0050C61201502C
:1040A000C7129488820E006E0F0E016E0F0E046E02
:1040B000380E0026045001220F0E046E800E005EA2
:1040C0000450015A820E036E0F0E046E0F0E066E20
:1040D000380E0326065004220F0E066E800E035E75
:1040E0000650045A03C0E9FF04C0EAFFEFCF03F013
:1040F000039800C0E9FF01C0EAFF03C0EFFF948608
:10410000820E006E0F0E016E0F0E046E380E00262A
:10411000045001220F0E046E800E005E0450015AFE
:10412000820E036E0F0E046E0F0E066E380E0326FF
:10413000065004220F0E066E800E035E0650045ACF
:1041400003C0E9FF04C0EAFFEFCF03F0039600C00D
:10415000E9FF01C0EAFF03C0EFFF02C0C8FFC6CFFE
:1041600000F0008A0050C66E9E96A196E4CF06F03D
:10417000E4CF04F0E4CF03F0E4CF02F0E4CF01F0A9
:10418000E4CF00F0E4CFD9FF1200D9CFE5FFE1CFB3
:10419000D9FF00C0E5FF01C0E5FF02C0E5FF03C095
:1041A000E5FF04C0E5FF05C0E5FF06C0E5FF07C069
:1041B000E5FF020EDBCF00F0030EDBCF01F0040EB3
:1041C000DBCF02F0050EDBCF03F0C1EC39F0046E5B
:1041D000F3CF05F0F4CF06F0E9CF07F00350E56E1A
:1041E0000250E56E0150E56E0050E56EE56AE56A45
:1041F000030EE56EE80EE56EA7EC15F0006EF3CF4A
:1042000001F0F4CF02F0E9CF03F0080EE126E56AF1
:10421000E56A030EE56EE80EE56E0350E56E0250AA
:10422000E56E0150E56E0050E56E7DEC22F0006E0B
:10423000F3CF01F0F4CF02F0E9CF03F0080EE1264E
:104240000450002605500122065002220750032286
:10425000C1EC39F0046EF3CF05F0F4CF06F0E9CFEE
:1042600007F00050045E0150055A0250065A0350F0
:10427000075A079E3F0E075C08E1FF0E065C05E14A
:10428000FF0E055C02E1FF0E045CE2E2E4CF07F002
:10429000E4CF06F0E4CF05F0E4CF04F0E4CF03F080
:1042A000E4CF02F0E4CF01F0E4CF00F0E4CFD9FF97
:1042B0001200D9CFE5FFE1CFD9FF00C0E5FF01C073
:1042C000E5FF02C0E5FF03C0E5FF04C0E5FF05C050
:1042D000E5FF06C0E5FF07C0E5FF08C0E5FF09C030
:1042E000E5FF0AC0E5FF020EDBCF00F0030EDBCFD7
:1042F00001F0040EDBCF02F0050EDBCF03F0060E5B
:10430000DBCF04F0070EDBCF05F00038E8441F0BCD
:10431000066E076A220E0626050E072206C0E9FF72
:1043200007C0EAFFEFCF08F00050096E070E09162C
:10433000010E0A6E09500DE006E6E86CD8900A36C8
:10434000010FFDE306D0D8900ABED8800A32010FD3
:10435000FBE308500A1206C0E9FF07C0EAFF0AC0E3
:10436000EFFF230E0024066E076A0F0E072206C019
:10437000E9FF07C0EAFF01C0EFFF016A230E002634
:10438000040E0122800E025E070E02160238F00BA8
:10439000036E070E05160550032600C0E9FF01C095
:1043A000EAFF03C0EFFFE4CF0AF0E4CF09F0E4CF67
:1043B00008F0E4CF07F0E4CF06F0E4CF05F0E4CF57
:1043C00004F0E4CF03F0E4CF02F0E4CF01F0E4CF57
:1043D00000F0E4CFD9FF1200D9CFE5FFE1CFD9FF3C
:1043E00000C0E5FF01C0E5FF02C0E5FF03C0E5FF37
:1043F00004C0E5FF05C0E5FF06C0E5FF07C0E5FF17
:10440000020EDBCF00F0030EDBCF01F0C1EC39F080
:10441000026EF3CF03F0F4CF04F0E9CF05F0E56AC4
:10442000E56A0150E56E0050E56EE56A0F0EE56E37
:10443000420EE56E400EE56EA7EC15F0006EF3CF70
:1044400001F0F4CF06F0E9CF07F0080EE126E56AA7
:10445000E56A030EE56EE80EE56E0750E56E065060
:10446000E56E0150E56E0050E56E7DEC22F0006EC9
:10447000F3CF01F0F4CF06F0E9CF07F0080EE12604
:1044800000500224006E01500320016E06500420EB
:10449000026E07500520036EC1EC39F0046EF3CFB5
:1044A00005F0F4CF06F0E9CF07F00050045E0150AC
:1044B000055A0250065A0350075A079E3F0E075CE2
:1044C00008E1FF0E065C05E1FF0E055C02E1FF0E50
:1044D000045CE2E2E4CF07F0E4CF06F0E4CF05F0BD
:1044E000E4CF04F0E4CF03F0E4CF02F0E4CF01F036
:1044F000E4CF00F0E4CFD9FF1200D9CFE5FFE1CF40
:10450000D9FF00C0E5FF01C0E5FF02C0E5FF03C021
:10451000E5FF04C0E5FF05C0E5FF06C0E5FF07C0F5
:10452000E5FF08C0E5FF09C0E5FF0AC0E5FF0BC0D5
:10453000E5FF0CC0E5FF0DC0E5FF020EDBCF00F08C
:10454000030EDBCF01F0040EDBCF02F0050EDBCF54
:1045500003F0060EDBCF04F0070EDBCF05F0080EEC
:10456000DBCF06F0090EDBCF07F0086A096A0A6A9A
:104570000B6A200E0C6E0350800BE8440D6E005049
:1045800000260136023603360850082609360A3658
:104590000B360D50D8A4088007500B5C08E106507C
:1045A0000A5C05E10550095C02E10450085C09E37E
:1045B0000450085E0550095A06500A5A07500B5A13
:1045C00000800C040D6E0DC00CF00D50D4E103C042
:1045D000E9FF02C0F4FF01C0F3FF0050E4CF0DF08B
:1045E000E4CF0CF0E4CF0BF0E4CF0AF0E4CF09F015
:1045F000E4CF08F0E4CF07F0E4CF06F0E4CF05F015
:10460000E4CF04F0E4CF03F0E4CF02F0E4CF01F014
:10461000E4CF00F0E4CFD9FF120000C0E5FF01C0F5
:10462000E5FF03C0E5FF04C0E5FF05C0E5FF06C0E8
:10463000E5FF07C0E5FF08C0E5FF09C0E5FF0AC0C8
:10464000E5FF0BC0E5FF7EC400F07FC401F004016C
:104650007E3F01D07F2B0050E56E3CEC40F0E652EF
:10466000076E046A056A066A7EC400F07FC401F022
:1046700004017E3F01D07F2B0050E56E3CEC40F002
:10468000E6520B6A0A6E086A0850041205120A50B4
:1046900006120B5007127EC400F07FC401F0040123
:1046A0007E3F01D07F2B0050E56E3CEC40F0E6529F
:1046B000036E006A03C001F0E86A03BEFF0E086ED5
:1046C000096E0050041201500512085006120950DC
:1046D00007127EC400F07FC401F004017E3F01D0C8
:1046E0007F2B0050E56E3CEC40F0E652016A04126C
:1046F000015005120612071207C0E9FF06C0F4FFB9
:1047000005C0F3FF0450E4CF0BF0E4CF0AF0E4CF90
:1047100009F0E4CF08F0E4CF07F0E4CF06F0E4CFEF
:1047200005F0E4CF04F0E4CF03F0E4CF01F0E4CFF0
:1047300000F01200D9CFE5FFE1CFD9FF00C0E5FFBF
:1047400001C0E5FF02C0E5FF03C0E5FF04C0E5FFCF
:1047500005C0E5FF06C0E5FF07C0E5FF020EDBCFA1
:1047600000F0030EDBCF01F0040EDBCF02F0050EEC
:10477000DBCF03F003C004F0056A0350D8B454D073
:1047800000C0E9FF01C0F3FF0250EFEC3FF0066EFE
:10479000430A08E1010E056E03C006F0076A068EA3
:1047A0000650036E0406002A02E3014A022A9D9A7B
:1047B000AB9894909D989EA8FED7AC80AD6A0000FF
:1047C0009EA8FED7AC9003C0ADFF00009EA8FED708
:1047D000055004E0420EAD6E032604D0620EAD6EAD
:1047E000620E0326045015E000009EA8FED700C00C
:1047F000E9FF01C0F3FF0250EFEC3FF0056E05C08A
:10480000ADFF055003260406002A02E3014A022AEE
:10481000E9D700009EA8FED7031CAD6EAD2A0000AC
:104820009EA8FED74AEC40F0E4CF07F0E4CF06F0B4
:10483000E4CF05F0E4CF04F0E4CF03F0E4CF02F0DE
:10484000E4CF01F0E4CF00F0E4CFD9FF1200D9CFDC
:10485000E5FFE1CFD9FF00C0E5FF01C0E5FF02C0E1
:10486000E5FF03C0E5FF04C0E5FF05C0E5FF06C0A6
:10487000E5FF07C0E5FF020EDBCF00F0030EDBCF44
:1048800001F0040EDBCF02F0050EDBCF03F002C017
:1048900006F00650046E800A33E100C0E9FF01C053
:1048A000F3FF0250C3EC3DF0056EF3CF06F0F4CFFA
:1048B00007F003C0E5FF05C0E9FF06C0F3FF07509E
:1048C000E5EC40F000C0E9FF01C0F3FF0250C3EC8B
:1048D0003DF0056EF3CF06F0F4CF07F0052A02E3B2
:1048E000064A072A05C0E5FF06C0F4FF07C0F6FF29
:1048F00000C0E9FF01C0F3FF02502DEC40F020D0D2
:1049000004C000F000AA1CD0007A0050046E04E13C
:10491000035063EC41F014D00450010A04E1035049
:104920007CEC41F00DD004500F0A04E10350D6ECAA
:1049300038F006D004500E0A03E1035079EC41F040
:10494000E4CF07F0E4CF06F0E4CF05F0E4CF04F0C5
:10495000E4CF03F0E4CF02F0E4CF01F0E4CF00F0C5
:10496000E4CFD9FF120000C0E5FF01C0E5FF02C09F
:10497000E5FF03C0E5FFC1EC39F0006EF3CF01F0B5
:10498000F4CF02F0E9CF03F00401C051005EC15141
:10499000015AC251025AC351035A039E3F0E035C8F
:1049A00008E1FF0E025C05E1FF0E015C02E1FF0E73
:1049B000005C02E20401C46B0FEC40F0006E00509A
:1049C00003E10401C45151D0C9EC3BF0006E010E6B
:1049D000005C03E20401C45148D0200EE56E800E55
:1049E000E56E040EE56E9E0EE56EFFEC37F0040EEC
:1049F000E126030E002600C001F0026A00BE026834
:104A00009C0E0126040E022201C0E9FF02C0EAFF4B
:104A10000A0EEF6E0050E56E800EE56E040EE56E38
:104A20009C0EE56ED1EC26F0040EE12604019E51A9
:104A30000B0A02E149EC13F0010E0401C46FC1EC52
:104A400039F0F3CF01F0F4CF02F0E9CF03F0080F13
:104A50000401C06FC20E0120C16F0A0E0220C26F96
:104A6000000E0320C36F0401C451E4CF03F0E4CF70
:104A700002F0E4CF01F0E4CF00F01200D9CFE5FF5F
:104A8000E1CFD9FF00C0E5FF01C0E5FF02C0E5FFAF
:104A900003C0E5FF04C0E5FF05C0E5FF020EDBCF64
:104AA00000F0030EDBCF01F0040EDBCF02F0050EA9
:104AB000DBCF03F0060EDBCF04F00338F00B056EFE
:104AC0000450052605C0E5FF00C0E9FF01C0F3FF63
:104AD0000250E5EC40F00050010F036E000E012083
:104AE000046E000E0220056E0A0EE56E03C0E9FF9B
:104AF00004C0F3FF0550E5EC40F00050020F036ED8
:104B0000000E0120046E000E0220056E990EE56E67
:104B100003C0E9FF04C0F3FF0550E5EC40F000508E
:104B2000030F036E000E0120046E000E0220056EBE
:104B3000980EE56E03C0E9FF04C0F3FF0550E5ECF5
:104B400040F0040E0026000E01220222970EE56EB0
:104B500000C0E9FF01C0F3FF0250E5EC40F0E4CFF4
:104B600005F0E4CF04F0E4CF03F0E4CF02F0E4CFAB
:104B700001F0E4CF00F0E4CFD9FF12004320696ECA
:104B8000697452460A00435220432025640A0000FB
:104B9000D9CFE5FFE1CFD9FF00C0E5FF01C0E5FFB8
:104BA00002C0E5FF03C0E5FF04C0E5FF05C0E5FF67
:104BB00006C0E5FF07C0E5FF020EDBCF00F0030EE5
:104BC000DBCF01F0040EDBCF02F0050EDBCF03F0EC
:104BD000060EDBCF04F00450E56E0350E56E025084
:104BE000E56E0150E56E0050E56E9EEC33F0050E6B
:104BF000E12652EC37F0006EF3CF01F0F4CF02F073
:104C0000E9CF03F030EC41F0300B1FE152EC37F00C
:104C1000046EF3CF05F0F4CF06F0E9CF07F00050B3
:104C2000045E0150055A0250065A0350075A000EFE
:104C3000075C08E1000E065C05E1000E055C02E180
:104C4000600E045CDFE3E86A15D0000EE56A84ECD0
:104C50003FF0E652700EE56E070EE56EB8EC3AF0E6
:104C6000006EE652E65200A804D036EC41F0E86A45
:104C700001D0010EE4CF07F0E4CF06F0E4CF05F059
:104C8000E4CF04F0E4CF03F0E4CF02F0E4CF01F08E
:104C9000E4CF00F0E4CFD9FF120000C0E5FF01C06F
:104CA000E5FF02C0E5FF03C0E5FF05C0E5FF5AECE4
:104CB00041F094928B92C1EC39F0F3CF01F0F4CF34
:104CC00002F0E9CF03F0880F0401FC6F130E0120FE
:104CD000FD6F000E0220FE6F000E0320FF6F54ECEC
:104CE00027F00F01428F4251CF0B2009426FC15074
:104CF000F30B0809C16E9484820E006E0F0E016ED4
:104D00000F0E036E380E0026035001220F0E036EA5
:104D1000800E005E0350015A820E026E0F0E036E6B
:104D20000F0E056E380E0226055003220F0E056E7B
:104D3000800E025E0550035A02C0E9FF03C0EAFF7D
:104D4000EFCF02F0028400C0E9FF01C0EAFF02C019
:104D5000EFFF0E0EE56E000EE56AEDEC2BF0E6526D
:104D6000E652270EE56EE56A080EE56E30EC20F09F
:104D7000030EE126800EE56E030EE56E000EE56E75
:104D80005AEC0EF0030EE126BCEC3FF0E4CF05F048
:104D9000E4CF03F0E4CF02F0E4CF01F0E4CF00F081
:104DA0001200D9CFE5FFE1CFD9FF00C0E5FF01C078
:104DB000E5FF02C0E5FF03C0E5FF04C0E5FF05C055
:104DC000E5FF06C0E5FF07C0E5FF020EDBCF00F000
:104DD000030EDBCF01F0040EDBCF02F0050EDBCFBC
:104DE00003F0C8C4C9F40401C7510401C95FC95123
:104DF000046E0404C96F03C004F0056A030E0426A0
:104E0000D8B0052AC9C406F0076A0750800FF36EB0
:104E10000550800FF35C02E10450065C02E2E86892
:104E200030D0020E035C02E2E86A2BD00350046E1D
:104E30000404036EE56E29EC36F0E652046A035072
:104E4000045C14E204500024056EE86A0120066E3A
:104E5000E86A022005C0E9FF06C0F3FFEFEC3FF06F
:104E6000042AE56E29EC36F0E652E9D7C8C4C9F445
:104E70000401C7510401C95FC951006E0004C96F24
:104E8000E86AE4CF07F0E4CF06F0E4CF05F0E4CF22
:104E900004F0E4CF03F0E4CF02F0E4CF01F0E4CF7C
:104EA00000F0E4CFD9FF120000C0E5FF01C0E5FF2C
:104EB00002C0E5FF03C0E5FF04C0E5FF006A220E63
:104EC0000024016E026A050E022201C0E9FF02C041
:104ED000EAFFEF6A002A020E005CF1E3006A00506C
:104EE000020DF450026EF3CF01F0390E0124036E6F
:104EF000040E0220046E03C0E9FF04C0EAFFEE6A5C
:104F0000EF6A590E0124036E040E0220046E03C0E2
:104F1000E9FF04C0EAFFEE6AEF6A4C0E0124036E5B
:104F2000030E0220046E03C0E9FF04C0EAFFEE6A2C
:104F3000EF6A6C0E0124036E030E0220046E03C0A0
:104F4000E9FF04C0EAFFEE6AEF6A8C0E0126030E49
:104F5000022201C0E9FF02C0EAFFEE687F0EEF6E99
:104F6000230E0024016E026A040E022201C0E9FF32
:104F700002C0EAFFEF68002A100E005CD8A0AFD78D
:104F8000AF0EC06EC16A010EC26EC282E4CF04F0E1
:104F9000E4CF03F0E4CF02F0E4CF01F0E4CF00F07F
:104FA00012004320412025642025640A0000D9CF47
:104FB000E5FFE1CFD9FF00C0E5FF01C0E5FF02C07A
:104FC000E5FF03C0E5FF04C0E5FF05C0E5FF06C03F
:104FD000E5FF07C0E5FF08C0E5FF09C0E5FF0AC01F
:104FE000E5FF0BC0E5FF0CC0E5FF020EDBCF00F0D4
:104FF000030EDBCF01F0040EDBCF02F0050EDBCF9A
:1050000003F0060EDBCF04F0070EDBCF05F0080E31
:10501000DBCF06F0090EDBCF07F002500A6E01501D
:10502000096E0050086E06C00BF007C00CF0FF0EB2
:10503000062607220B500C101AE003C0E9FF04C03B
:10504000F3FF0550EFEC3FF00B6E032A02E3044A36
:10505000052A0BC0E5FF08C0E9FF09C0F3FF0A50AD
:10506000E5EC40F0082ADFE3094A0A2ADCD702C04F
:10507000F4FF01C0F3FF0050E4CF0CF0E4CF0BF0DD
:10508000E4CF0AF0E4CF09F0E4CF08F0E4CF07F072
:10509000E4CF06F0E4CF05F0E4CF04F0E4CF03F072
:1050A000E4CF02F0E4CF01F0E4CF00F0E4CFD9FF89
:1050B0001200D9CFE5FFE1CFD9FF00C0E5FF01C065
:1050C000E5FF02C0E5FF03C0E5FF04C0E5FF05C042
:1050D000E5FF06C0E5FF07C0E5FF020EDBCF00F0ED
:1050E000030EDBCF01F0040EDBCF02F0050EDBCFA9
:1050F00003F0060EDBCF04F005013F51035C03E231
:1051000003C005F002D03FC505F005C003F005015E
:10511000405102E0056A06D0035005013F5D076E6D
:1051200007C005F048EC41F00450E56E90EC40F00B
:10513000046EE65203C006F00306065012E000C0FB
:10514000E9FF01C0F3FF0250EFEC3FF0066E002ACA
:1051500002E3014A022A0650E56E90EC40F0E65266
:10516000E9D705C000F000C001F00006015006E0DC
:10517000000EE56A90EC40F0E652F5D742EC41F0C3
:105180000450E4CF07F0E4CF06F0E4CF05F0E4CF1D
:1051900004F0E4CF03F0E4CF02F0E4CF01F0E4CF79
:1051A00000F0E4CFD9FF1200D9CFE5FFE1CFD9FF5E
:1051B00000C0E5FF01C0E5FF02C0E5FF03C0E5FF59
:1051C00004C0E5FF05C0E5FF06C0E5FF07C0E5FF39
:1051D00008C0E5FF09C0E5FF0AC0E5FF020EDBCF0E
:1051E00000F0030EDBCF01F0040EDBCF02F0050E62
:1051F000DBCF03F0060EDBCF04F0070EDBCF05F0AC
:10520000080EDBCF06F0090EDBCF07F00A0EDBCF6E
:1052100008F0700EE56E070EE56EB8EC3AF0096E18
:10522000E652E652200E09140A6E0AC0E5FF00C0DD
:10523000E9FF01C0F3FF0250E5EC40F0100E091445
:10524000006E00C0E5FF03C0E9FF04C0F3FF055096
:10525000E5EC40F0400E091609C0E5FF06C0E9FF85
:1052600007C0F3FF0850E5EC40F0E4CF0AF0E4CFCC
:1052700009F0E4CF08F0E4CF07F0E4CF06F0E4CF84
:1052800005F0E4CF04F0E4CF03F0E4CF02F0E4CF84
:1052900001F0E4CF00F0E4CFD9FF1200D9CFE5FF51
:1052A000E1CFD9FF00C0E5FF01C0E5FF02C0E5FF87
:1052B00003C0E5FF04C0E5FF05C0E5FF020EDBCF3C
:1052C00000F0030EDBCF01F0040EDBCF02F0005044
:1052D000020DF450036EF3CF00F0590E0024046E5B
:1052E000040E0320056E04C0E9FF05C0EAFF01C0FB
:1052F000EEFF02C0EFFF4C0E0024046E030E0320ED
:10530000056E04C0E9FF05C0EAFFEECF04F0EFCF61
:1053100005F00150045C016E02500558026EAC0E9F
:105320000026030E032200C0E9FF03C0EAFF01C00C
:10533000EEFF02C0EFFFD88002AED89004E3021E59
:10534000016CD8B4022A0250800F800F02E1030ED4
:10535000015C02E2016A026A0150021007E100C02A
:10536000E9FF03C0EAFF000EEE6AEF6AE4CF05F042
:10537000E4CF04F0E4CF03F0E4CF02F0E4CF01F097
:10538000E4CF00F0E4CFD9FF1200D9CFE5FFE1CFA1
:10539000D9FF00C0E5FF01C0E5FF02C0E5FF03C083
:1053A000E5FF04C0E5FF05C0E5FF06C0E5FF020E0E
:1053B000DBCF00F0030EDBCF01F0040EDBCF02F0F9
:1053C000050EDBCF03F0035005013F5DD8A03FC5BC
:1053D00003F00501405102E0046A06D003500501C4
:1053E0003F5D066E06C004F048EC41F0610EE56ECC
:1053F00090EC40F0056EE65203C006F0030606503E
:1054000014E0FF0EE56890EC40F0066EE65206C030
:10541000E5FF00C0E9FF01C0F3FF0250E5EC40F0FA
:10542000002AEAE3014A022AE7D704C000F000C0DC
:1054300001F00006015006E0FF0EE56890EC40F038
:10544000E652F5D742EC41F00550E4CF06F0E4CF48
:1054500005F0E4CF04F0E4CF03F0E4CF02F0E4CFB2
:1054600001F0E4CF00F0E4CFD9FF120000C0E5FF67
:1054700001C0E5FF02C0E5FF000EE56A84EC3FF0E5
:10548000E65205010751E56E0651E56E0551E56EE0
:105490000451E56EC5EC20F0040EE1261D0EE56E0C
:1054A00076EC3CF0006EE65200A20FD005010751E9
:1054B000E56E0651E56E0551E56E0451E56EC5ECED
:1054C00020F0040EE12636EC41F0000EE56E76EC9D
:1054D0003CF0006EE65200900050E56E000EE56E66
:1054E000B8EC3AF0E652E652020EE56E76EC3CF08D
:1054F000006EE652F40EF66E810EF76E000EF86E38
:105500000900F5CF01F0010E026E01500DE006E634
:10551000E86CD8900236010FFDE306D0D89002BEA9
:10552000D8800232010FFBE3005002120250E56EF8
:10553000020EE56EB8EC3AF0E652E652E4CF02F025
:10554000E4CF01F0E4CF00F0120000C0E5FF01C09D
:10555000E5FF02C0E5FF03C0E5FF04C0E5FF05C0AD
:10556000E5FF06C0E5FF07C0E5FF52EC37F0006E2F
:10557000F3CF01F0F4CF02F0E9CF03F0170EE56EA0
:1055800076EC3CF0046EE65204B836D030EC41F0D4
:10559000046E04A811D0100EE56E070EE56EB8EC8F
:1055A0003AF0E652E652000EE56A84EC3FF0E6522D
:1055B00036EC41F0E86A26D052EC37F0046EF3CFB7
:1055C00005F0F4CF06F0E9CF07F00050045E01507B
:1055D000055A0250065A0350075A000E075C08E1AC
:1055E000000E065C05E1000E055C02E1600E045C45
:1055F000D8A0C4D7E86A06D0000EE56A84EC3FF074
:10560000E652010EE4CF07F0E4CF06F0E4CF05F058
:10561000E4CF04F0E4CF03F0E4CF02F0E4CF01F0F4
:10562000E4CF00F01200D9CFE5FFE1CFD9FF00C0F1
:10563000E5FF01C0E5FF02C0E5FF03C0E5FF04C0D0
:10564000E5FF05C0E5FF06C0E5FF020EDBCF00F079
:10565000030EDBCF01F0040EDBCF02F0050EDBCF33
:1056600003F0D88001AED890046A0436045007E0F5
:10567000011C066E001C056E054A062A04D000C0F7
:1056800005F001C006F0D88003AED89007E3031CF4
:10569000016E021C006E004A012A04D002C000F014
:1056A00003C001F00150E56E0050E56E0650E56E56
:1056B0000550E56E47EC2EF0006EF3CF01F0040EBE
:1056C000E12604500AE0011C036E001C026E024A2F
:1056D000032A03C0F3FF025003D001C0F3FF0050C0
:1056E000E4CF06F0E4CF05F0E4CF04F0E4CF03F01C
:1056F000E4CF02F0E4CF01F0E4CF00F0E4CFD9FF33
:105700001200D9CFE5FFE1CFD9FF00C0E5FF01C00E
:10571000E5FF02C0E5FF03C0E5FF04C0E5FF05C0EB
:10572000E5FF020EDBCF00F0030EDBCF01F0040E2D
:10573000DBCF02F0050EDBCF03F07EC404F07FC4A4
:1057400005F004017E3F01D07F2B0350E56E04502D
:10575000E56EEEEC3BF0E652E6527EC404F07FC408
:1057600005F004017E3F01D07F2B0250056EE56EEF
:105770000450E56EEEEC3BF0E652E6527EC404F0D7
:105780007FC405F004017E3F01D07F2B0150E56E00
:105790000450E56EEEEC3BF0E652E6527EC404F0B7
:1057A0007FC405F004017E3F01D07F2B0050E56EE1
:1057B0000450E56EEEEC3BF0E652E652E4CF05F025
:1057C000E4CF04F0E4CF03F0E4CF02F0E4CF01F043
:1057D000E4CF00F0E4CFD9FF1200D9CFE5FFE1CF4D
:1057E000D9FF00C0E5FF01C0E5FF02C0E5FF03C02F
:1057F000E5FF04C0E5FF05C0E5FF06C0E5FF020EBA
:10580000DBCF00F0030EDBCF01F00038E8441F0BC4
:10581000026E036A220E0226050E032202C0E9FF71
:1058200003C0EAFFEFCF04F00050056E070E051627
:10583000010E066E05500DE006E6E86CD8900636BF
:10584000010FFDE306D0D89006BED8800632010FC6
:10585000FBE30450061202C0E9FF03C0EAFF06C0E2
:10586000EFFF230E0024026E036A0F0E032202C014
:10587000E9FF03C0EAFF01C0EFFF016A230E002623
:10588000040E012200C0E9FF01C0EAFFFF0EEF682D
:10589000E4CF06F0E4CF05F0E4CF04F0E4CF03F06A
:1058A000E4CF02F0E4CF01F0E4CF00F0E4CFD9FF81
:1058B0001200D9CFE5FFE1CFD9FF00C0E5FF01C05D
:1058C000E5FF020EDBCF00F00401936BFFEC1BF051
:1058D00036EC3FF0016E0150D8B44BD0010E0401FC
:1058E000936F55EC3BF022EC3FF090EC3AF0000E59
:1058F000E56AD9EC31F0E652010EE56ED9EC31F0F3
:10590000E652000EE56A56EC3CF0E65236EC2AF020
:10591000E56AE56A800EE56E040EE56E330EE56E0F
:105920003EEC25F0050EE126800EE56E040EE56ED8
:10593000330EE56E26EC34F0030EE1260050E56EE2
:10594000E56A800EE56E040EE56E330EE56E3EEC04
:1059500025F0050EE126800EE56E040EE56E330E91
:10596000E56E010EE56EB1EC16F0040EE126E2ECF8
:1059700033F0E4CF01F0E4CF00F0E4CFD9FF120020
:10598000D9CFE5FFE1CFD9FF00C0E5FF01C0E5FFBA
:1059900002C0E5FF03C0E5FF04C0E5FF05C0E5FF69
:1059A00006C0E5FF020EDBCF00F0030EDBCF01F0F7
:1059B000040EDBCF02F005012C5119E10DEC23F0B0
:1059C000036EF3CF04F0F4CF05F0E9CF06F003C087
:1059D000E5FF04C0F4FF05C0F6FF06C0F7FF00C0F6
:1059E000E9FF01C0F3FF0250DEEC3FF01ED00501DD
:1059F0002C51010A1AE100C0E9FF01C0F3FF025077
:105A000096EC3CF0006EF3CF01F0F4CF02F0E9CF5A
:105A100003F00350E56E0250E56E0150E56E005054
:105A2000E56E81EC2BF0040EE126E4CF06F0E4CF26
:105A300005F0E4CF04F0E4CF03F0E4CF02F0E4CFCC
:105A400001F0E4CF00F0E4CFD9FF1200D9CFE5FF99
:105A5000E1CFD9FF00C0E5FF01C0E5FF02C0E5FFCF
:105A600003C0E5FF04C0E5FF05C0E5FF06C0E5FF94
:105A7000020EDBCF00F0030EDBCF01F0040EDBCF14
:105A800002F0050EDBCF03F0060EDBCF04F0070EAD
:105A9000DBCF05F0080EDBCF06F0D88003AED89040
:105AA00015E306500A0A12E104C0E9FF05C0EAFF47
:105AB0002D0EEF6E044A052A031E021E011E006C05
:105AC00005E1012A03E1022AD8B4032A0650E56E53
:105AD0000550E56E0450E56E0350E56E0250E56E2C
