:020000040000FA
:1000000030EF2EF0C96E120096EF1FF004EC1BF0DB
:1000100099EC19F0FDD7120065EF25F0D9CFE5FF77
:10002000E1CFD9FF00C0E5FF01C0E5FF02C0E5FF59
:1000300003C0E5FF04C0E5FF05C0E5FF06C0E5FF1E
:1000400007C0E5FF08C0E5FF09C0E5FF0AC0E5FFFE
:100050000BC0E5FF0CC0E5FF0DC0E5FF0EC0E5FFDE
:100060000FC0E5FF10C0E5FF11C0E5FF12C0E5FFBE
:1000700013C0E5FF14C0E5FF15C0E5FF16C0E5FF9E
:1000800017C0E5FF18C0E5FF19C0E5FF1AC0E5FF7E
:100090001BC0E5FF1CC0E5FF1DC0E5FF1EC0E5FF5E
:1000A000020EDBCF00F0030EDBCF01F0040EDBCF3E
:1000B00002F0050EDBCF03F0060EDBCF04F0070ED7
:1000C000DBCF05F0080EDBCF06F0090EDBCF07F023
:1000D0000A0EDBCF08F0096A0A6A02C00DF00D5063
:1000E000800A0DE1025003017E6F01507D6F0050C8
:1000F0007C6F030E016E7C0E006E800E026E03C0DC
:10010000E9FF04C0F3FF0550C4EC2EF00B6E0B505A
:10011000D8B4C4EF03F00B50250A02E0ABEF03F0B4
:100120000C6A0D6A0E6A0F6A106A0A0E116E126A64
:10013000136A146A200E156E1668176A2B0E186E55
:10014000032A02E3044A052A03C0E9FF04C0F3FFBF
:100150000550C4EC2EF0196E250A13E11950E56E16
:100160000250E56E0150E56E0050E56EFBEC15F0B7
:10017000040EE126094A0A2A032A02E3044A052A50
:10018000BED71950300A06E1300E156E032A02E37D
:10019000044A052A03C0E9FF04C0F3FF0550C4EC7C
:1001A0002EF02D0A06E1010E146E032A02E3044A22
:1001B000052A03C0E9FF04C0F3FF0550C4EC2EF08C
:1001C000200A08E1010E176E200E186E032A02E3C2
:1001D000044A052A03C0E9FF04C0F3FF0550C4EC3C
:1001E0002EF02B0A06E1010E176E032A02E3044AE1
:1001F000052A03C0E9FF04C0F3FF0550C4EC2EF04C
:10020000196E310E195C2BE33A0E195C28E203C01B
:1002100019F004C01AF005C01BF019C0E9FF1AC09C
:10022000F3FF1B50C4EC2EF01C6E300E1C5C11E36F
:100230003A0E1C5C0EE213500A0DF3CF1DF01C5059
:100240001D26D00E1D24136E192A02E31A4A1B2AFA
:10025000E4D719C003F01AC004F01BC005F003C0B6
:10026000E9FF04C0F3FF0550C4EC2EF02E0A2DE187
:10027000032A02E3044A052A166A03C019F004C0DF
:100280001AF005C01BF019C0E9FF1AC0F3FF1B509C
:10029000C4EC2EF01C6E300E1C5C11E33A0E1C5C9C
:1002A0000EE216500A0DF3CF1DF01C501D26D00E85
:1002B0001D24166E192A02E31A4A1B2AE4D719C014
:1002C00003F01AC004F01BC005F003C0E9FF04C02E
:1002D000F3FF0550C4EC2EF0196E6C0A07E1010E15
:1002E0000C6E032A02E3044A052A09D01950680A51
:1002F00006E1010E0E6E032A02E3044A052A03C03A
:10030000E9FF04C0F3FF0550C4EC2EF0750A06E1C6
:10031000010E106E032A02E3044A052A03C0E9FF16
:1003200004C0F3FF0550C4EC2EF0196E730A05E10A
:10033000010E0D6E200E156E3FD01950780A03E1A4
:10034000100E116E39D01950580A05E1100E116EB9
:10035000010E126E31D01950630A02E1116A2CD0DD
:1003600019506F0A03E1080E116E26D01950660A63
:1003700003E1010E0F6E20D01950640A1DE01950E0
:10038000690A1AE0105005E0FF0E03260422052238
:1003900013D01950E56E0250E56E0150E56E005025
:1003A000E56EFBEC15F0040EE126094A0A2A032A41
:1003B00002E3044A052AA3D60D5021E00650030F9C
:1003C0000D6E000E0720196E000E08201A6E0DC06B
:1003D00006F019C007F01AC008F0FD0E0D26FF0E3A
:1003E00019221A220DC0E9FF19C0F3FF1A5092EC2E
:1003F0002CF00D6EF3CF19F0F4CF1AF0FDD00F50A2
:100400000DE0000E1A6E080E196E100E0D6E040E21
:100410000626000E072208221668EED016680C5039
:1004200023E00650040F0C6E000E07200F6E000E26
:1004300008201B6E0CC006F00FC007F01BC008F0B0
:10044000FC0E0C26FF0E0F221B220CC0E9FF0FC072
:10045000F3FF1B50A3EC2BF00C6EF3CF0FF0F4CF97
:100460001BF0E9CF1CF067D00E502FE00650020FB2
:100470000E6E000E07201D6E000E08201E6E0EC0B0
:1004800006F01DC007F01EC008F0FE0E0E26FF0E7F
:100490001D221E220EC0E9FF1DC0F3FF1E50C8EC36
:1004A0002DF00E6E0EC00CF00F6A1B6A1C6A115004
:1004B0000A0A03E11050D8B43ED00C500E6E0EC0A4
:1004C0000CF00F6A1B6A1C6A36D00650020F0E6EC3
:1004D000000E07201D6E000E08201E6E0EC006F0D6
:1004E0001DC007F01EC008F0FE0E0E26FF0E1D22D6
:1004F0001E220EC0E9FF1DC0F3FF1E50C8EC2DF0F8
:100500000E6EF3CF1DF00EC00CF01DC00FF0E86AA8
:100510001DBEFF0E1B6E1C6E11500A0A02E1105028
:100520000AE00C500E6E0F501D6E0EC00CF01DC078
:100530000FF01B6A1C6A040E196EF40E0D6E800E0D
:100540001A6E1150D8B440D0105013E01150E56E1F
:10055000040EE56EF40EE56E1C50E56E1B50E56E64
:100560000F50E56E0C50E56EC5EC0EF0070EE1265F
:1005700012D01150E56E040EE56EF40EE56E1C50BF
:10058000E56E1B50E56E0F50E56E0C50E56ED3EC3A
:100590001EF0070EE12617502FE00DC0E9FF19C02D
:1005A000F3FF1A50C4EC2EF02D0A26E0FF0E0D26A4
:1005B00019221A2218C0E5FF0DC0E9FF19C0F3FF88
:1005C0001A50BCEC2FF018D00CC0E5FF0DC0E9FFAD
:1005D00019C0F3FF1A50BCEC2FF00D50010F0C6E38
:1005E000000E19200E6E000E1A20E56A0CC0E9FFFD
:1005F0000EC0F3FFBCEC2FF00DC00CF019C00EF0D4
:100600001AC00FF013C010F0105010E00CC0E9FF3A
:100610000EC0F3FF0F50C4EC2EF0176E175006E01B
:100620000C2A02E30E4A0F2A1006EED710C013F070
:1006300014501EE109C00CF00AC00EF010C00FF0FB
:100640000F5010E01550E56E0250E56E0150E56E5A
:100650000050E56EFBEC15F0040EE1260C4A0E2A64
:100660000F06EED70CC009F00EC00AF00FC013F051
:1006700016C00CF00DC00DF019C00EF01AC00FF02E
:1006800009C010F00AC015F00DC0E9FF0EC0F3FF5D
:100690000F50C4EC2EF0166E1650D8B43ED00CC0DD
:1006A00016F0176A161E171E1650171005E00CC01C
:1006B00016F00C06165031E00DC0E9FF0EC0F3FF36
:1006C0000F50C4EC2EF0116E125010E01150E56E78
:1006D0006FEC2DF0166EE652165004E0DF0E11148A
:1006E000166E02D011C016F016C011F01150E56E52
:1006F0000250E56E0150E56E0050E56EFBEC15F022
:10070000040EE1260D2A02E30E4A0F2A104A152A8A
:100710001350D8B4B9D71306B7D710C009F015C015
:100720000AF014502BE010C00CF015C00DF013C0EF
:100730000EF00E501FE0200EE56E0250E56E0150E7
:10074000E56E0050E56EFBEC15F0040EE1260C4A58
:100750000D2A0E06EED70B50E56E0250E56E0150E5
:10076000E56E0050E56EFBEC15F0040EE126094A3B
:100770000A2A04D00CC009F00DC00AF0032A02E3D3
:10078000044A052A7FEF00F00AC0F3FF0950E4CFC6
:100790001EF0E4CF1DF0E4CF1CF0E4CF1BF0E4CF5B
:1007A0001AF0E4CF19F0E4CF18F0E4CF17F0E4CF5B
:1007B00016F0E4CF15F0E4CF14F0E4CF13F0E4CF5B
:1007C00012F0E4CF11F0E4CF10F0E4CF0FF0E4CF5B
:1007D0000EF0E4CF0DF0E4CF0CF0E4CF0BF0E4CF5B
:1007E0000AF0E4CF09F0E4CF08F0E4CF07F0E4CF5B
:1007F00006F0E4CF05F0E4CF04F0E4CF03F0E4CF5B
:1008000002F0E4CF01F0E4CF00F0E4CFD9FF120012
:100810003C4E4F20464C4F41543E000000C0E5FF87
:1008200001C0E5FF02C0E5FF03C0E5FF04C0E5FF2E
:1008300005C0E5FF06C0E5FF07C0E5FF08C0E5FF0E
:1008400009C0E5FF0AC0E5FFC2A204D004011451AB
:1008500049EF06F004011551D8B431D10401145107
:10086000020DF450016EF3CF00F05C0E0026040E72
:10087000012200C0E9FF01C0EAFFEECF00F0EFCF98
:1008800001F0250E1425026E036A040E032202C035
:10089000E9FF03C0EAFFEFCF02F00250FF0A01E1D7
:1008A00066D002380F0B036E920E0324046E056AA5
:1008B0000F0E0522066A920E03260F0E062203C0B3
:1008C000E9FF06C0EAFFEFCF03F00250066E070E05
:1008D0000616010E076E06500DE006E6E86CD8908D
:1008E0000736010FFDE306D0D89007BED880073247
:1008F000010FFBE3071C066E0350061604C0E9FF58
:1009000005C0EAFF06C0EFFF02380F0B036E890E29
:100910000324046E056A0F0E0522066A890E03265B
:100920000F0E062203C0E9FF06C0EAFFEFCF03F077
:100930000250066E070E0616010E076E06500DE0F9
:1009400006E6E86CD8900736010FFDE306D0D89094
:1009500007BED8800732010FFBE3071C066E035069
:10096000061604C0E9FF05C0EAFF06C0EFFF040158
:100970001451020DF450046EF3CF03F05C0E032605
:10098000040E042200380F0B056E0138066EF00BC2
:10099000061A052606320532F80E06B4062605505C
:1009A000005C056E06500158066EC3CF07F0086A5A
:1009B0000750052608500622C4CF07F0086A0750E2
:1009C0000A6E096A095005260A50062203C0E9FF8B
:1009D00004C0EAFF05C0EEFF06C0EFFF040110519E
:1009E000010A01E06AD004011451020DF450046EB2
:1009F000F3CF03F05C0E0324056E040E0420066E94
:100A000005C0E9FF06C0EAFFEECF00F0EFCF01F02E
:100A1000D30E0326040E042203C0E9FF04C0EAFF3C
:100A2000EECF05F0EFCF06F09C0E0526D8A0060607
:100A30000150800FF36E0650800FF35C02E1055009
:100A4000005C0EE20050640F056E000E0120066E81
:100A500003C0E9FF04C0EAFF05C0EEFF06C0EFFFD8
:100A600004011451020DF450046EF3CF03F0000E94
:100A70000326030E042203C0E9FF04C0EAFFEECF01
:100A800005F0EFCF06F0640E0526D8B0062A065012
:100A9000800FF36E0150800FF35C02E10050055CA3
:100AA0000CE29C0E0026D8A0010603C0E9FF04C09A
:100AB000EAFF00C0EEFF01C0EFFF0401156B040167
:100AC000142B100E145D01E3146B04011439E84477
:100AD0001F0B006E016A810E0026030E012200C06A
:100AE000E9FF01C0EAFFEFCF00F014C401F0070EE8
:100AF0000116010E036E000E046E015006E0E86C54
:100B0000D89003360436010FFCE3056A0050031643
:100B10000550041603500410D880E866D890036A84
:100B200003360350D8A4B3D0230E04011425006E5D
:100B3000016A0F0E012200C0E9FF01C0EAFFEFCFFA
:100B400000F00044E844FC0B016E0128C26E250E43
:100B50001425006E016A040E012200C0E9FF01C0E5
:100B6000EAFFEFCF02F00250FF0A01E18CD0023819
:100B70000F0B006E920E0024016E036A0F0E03220B
:100B8000046A920E00260F0E042200C0E9FF04C082
:100B9000EAFFEFCF00F00250046E070E0416010EBC
:100BA000056E04500DE006E6E86CD8900536010F9E
:100BB000FDE306D0D89005BED8800532010FFBE3D7
:100BC0000050051201C0E9FF03C0EAFF05C0EFFFB6
:100BD000380E006E0F0E016E02380F0B036E046AA2
:100BE0000350002604500122380E056E0F0E066ECB
:100BF000055003260650042203C0E9FF04C0EAFFA3
:100C0000EFCF03F0070E0216010E046E02500DE046
:100C100006E6E86CD8900436010FFDE306D0D890C4
:100C200004BED8800432010FFBE30350041200C05D
:100C3000E9FF01C0EAFF04C0EFFF0F014583000098
:100C4000000045930F0144930BC0E5FFF2CF0BF07A
:100C5000F29E44810000000000000000000000003F
:100C60000000000000000000000000000000000084
:100C700000000000000000000000000044910BBED6
:100C8000F28EE4CF0BF0C282010E0401156F040155
:100C90001451E4CF0AF0E4CF09F0E4CF08F0E4CF38
:100CA00007F0E4CF06F0E4CF05F0E4CF04F0E4CFA2
:100CB00003F0E4CF02F0E4CF01F0E4CF00F0120043
:100CC00000C0E5FF01C0E5FF02C0E5FF03C0E5FF8E
:100CD00004C0E5FF05C0E5FF06C0E5FF07C0E5FF6E
:100CE00008C0E5FF09C0E5FF0AC0E5FF0BC0E5FF4E
:100CF0000CC0E5FF006A016A026A040E025CD8B00B
:100D0000ECD101C003F0012A100E035CD8B0E5D18C
:100D10000401162B100E165D01E3166B0401163943
:100D2000E8441F0B036E046A810E0326030E04229F
:100D300003C0E9FF04C0EAFFEFCF03F016C404F0DC
:100D4000070E0416010E056E000E066E045006E036
:100D5000E86CD89005360636010FFCE3076A0350AD
:100D600005160750061605500610D880E866D8907C
:100D7000056A05360550D8A4C0D704011651020DE6
:100D8000F450046EF3CF03F05C0E0324056E040EE2
:100D90000420066E05C0E9FF06C0EAFFEECF05F0AD
:100DA000EFCF06F013C407F007A09DD0D30E0324A5
:100DB000076E040E0420086E07C0E9FF08C0EAFFB2
:100DC000EECF07F0EFCF08F00650800FF36E08501B
:100DD000800FF35C02E10750055C03E2056A066AD6
:100DE00060D0000E0326030E042203C0E9FF04C0F6
:100DF000EAFFEECF03F0EFCF04F00450800FF36E64
:100E00000650800FF35C02E10550035C04E20568C4
:100E10003F0E066E46D00750055C096E0850065816
:100E20000A6EE86A0ABEFF0E0B6EE56E0B50E56EA9
:100E30000A50E56E0950E56EE56AE56A400EE56E1A
:100E4000000EE56A0DEC0BF0096EF3CF0AF0F4CF5B
:100E50000BF0E9CF0CF0080EE1260750035C076E9B
:100E600008500458086EE86A08BEFF0E036EE56E6F
:100E70000350E56E0850E56E0750E56E0C50E56EC8
:100E80000B50E56E0A50E56E0950E56E51EC14F01A
:100E9000036EF3CF04F0080EE1260350056E0450F4
:100EA000066E04011251800FF36E0650800FF35C42
:100EB00002E10550115D03E3056A066A14D00401DE
:100EC0001151FF08036E3F0E1255046E0650800F3D
:100ED000F36E0450800FF35C02E10350055C03E302
:100EE00005683F0E066E04011651020DF450046EA3
:100EF000F3CF03F0B30E0326040E042203C0E9FF70
:100F000004C0EAFFEECF03F0EFCF04F00350055C1E
:100F1000036E04500658046ED88004AED89004E3E3
:100F2000041E036CD8B4042A022A04011251800F53
:100F3000F36E0450800FF35C02E10350115DD8B0F2
:100F4000DCD604011651020DF450086EF3CF07F001
:100F5000B30E0726040E082207C0E9FF08C0EAFF07
:100F600005C0EEFF06C0EFFF13C407F007A459D079
:100F70001651020DF450086EF3CF07F0200E07242F
:100F8000096E030E08200A6E09C0E9FF0AC0EAFFD5
:100F9000EECF0BF0EFCF0CF00B500C10D8B441D0CB
:100FA000930E0726040E082207C0E9FF08C0EAFFD7
:100FB000EECF07F0EFCF08F00750055C036E085046
:100FC0000658046E03101CE00450800F800F02E1ED
:100FD000010E035C076A07360C50800F800F02E198
:100FE000010E0B5C0B6A0B3607500B1809E109C0A8
:100FF000E9FF0AC0EAFF03C0EEFF04C0EFFF7DD6A1
:1010000004011651020DF450046EF3CF03F0200ECC
:101010000326030E042203C0E9FF04C0EAFFEE6AC0
:10102000EF6A13C403F003A244D000500EE100C0E5
:1010300003F0002A046A170E0326040E042203C0DC
:10104000E9FF04C0EAFF420EEF6E00C003F0002A81
:10105000046A170E0326040E042204011651076EBB
:10106000640E072603C0E9FF04C0EAFF07C0EFFFD4
:1010700000C003F0002A046A170E0326040E04229F
:101080000650076E03C0E9FF04C0EAFF07C0EFFF88
:1010900000C003F0002A046A170E0326040E04227F
:1010A0000550076E03C0E9FF04C0EAFF07C0EFFF69
:1010B00024D616C403F00650E56E0550E56EE56AC9
:1010C0000350E56E000EE56E310EE56E2C0EE56EFA
:1010D00027EC26F0070EE12610D602C001F00050E2
:1010E0001EE013C402F002A21AD000C002F0002ACF
:1010F000036A170E0226040E032202C0E9FF03C092
:10110000EAFF0A0EEF6E0050E56E800EE56E040EEB
:10111000E56E170EE56E96EC17F0040EE126015011
:10112000E4CF0CF0E4CF0BF0E4CF0AF0E4CF09F009
:10113000E4CF08F0E4CF07F0E4CF06F0E4CF05F009
:10114000E4CF04F0E4CF03F0E4CF02F0E4CF01F009
:10115000E4CF00F01200800EE56E030EE56E000E87
:10116000E56EF5EC21F0030EE126800EE56E040E2F
:10117000E56ED30EE56EF5EC21F0030EE126800E50
:10118000E56E030EE56E020EE56EF5EC21F0030E42
:10119000E126800EE56E040EE56ED50EE56EF5ECEB
:1011A00021F0030EE126800EE56E030EE56E040EBF
:1011B000E56EF5EC21F0030EE126800EE56E040EDF
:1011C000E56ED70EE56EF5EC21F0030EE126800EFC
:1011D000E56E030EE56E060EE56EF5EC21F0030EEE
:1011E000E126800EE56E040EE56ED90EE56EF5EC97
:1011F00021F0030EE126800EE56E030EE56E080E6B
:10120000E56EF5EC21F0030EE126800EE56E040E8E
:10121000E56EDB0EE56EF5EC21F0030EE126800EA7
:10122000E56E030EE56E0A0EE56EF5EC21F0030E99
:10123000E126800EE56E040EE56EDD0EE56EF5EC42
:1012400021F0030EE126800EE56E030EE56E0C0E16
:10125000E56EF5EC21F0030EE126800EE56E040E3E
:10126000E56EDF0EE56EF5EC21F0030EE126800E53
:10127000E56E030EE56E0E0EE56EF5EC21F0030E45
:10128000E126800EE56E040EE56EE10EE56EF5ECEE
:1012900021F0030EE126800EE56E030EE56E100EC2
:1012A000E56EF5EC21F0030EE126800EE56E040EEE
:1012B000E56EE30EE56EF5EC21F0030EE126800EFF
:1012C000E56E030EE56E120EE56EF5EC21F0030EF1
:1012D000E126800EE56E040EE56EE50EE56EF5EC9A
:1012E00021F0030EE126800EE56E030EE56E140E6E
:1012F000E56EF5EC21F0030EE126800EE56E040E9E
:10130000E56EE70EE56EF5EC21F0030EE126800EAA
:10131000E56E030EE56E160EE56EF5EC21F0030E9C
:10132000E126800EE56E040EE56EE90EE56EF5EC45
:1013300021F0030EE126800EE56E030EE56E180E19
:10134000E56EF5EC21F0030EE126800EE56E040E4D
:10135000E56EEB0EE56EF5EC21F0030EE126800E56
:10136000E56E030EE56E1A0EE56EF5EC21F0030E48
:10137000E126800EE56E040EE56EED0EE56EF5ECF1
:1013800021F0030EE126800EE56E030EE56E1C0EC5
:10139000E56EF5EC21F0030EE126800EE56E040EFD
:1013A000E56EEF0EE56EF5EC21F0030EE126800E02
:1013B000E56E030EE56E1E0EE56EF5EC21F0030EF4
:1013C000E126800EE56E040EE56EF10EE56EF5EC9D
:1013D00021F0030EE126120000C0E5FF01C0E5FF89
:1013E00002C0E5FF03C0E5FF04010D51D8B40CD1E4
:1013F0009DA81DD09EA81BD003018D5103018A1901
:1014000005E12EEC2FF003018A6BFED0000E0301E4
:101410008D25006E016A0F0E012200C0E9FF01C098
:10142000EAFFEFCF86F38D2B86C3ADFFEDD09DAAEB
:10143000EBD09EAAE9D0ABA205D003018B812EECA4
:101440002FF0E2D0ABA405D003018B832EEC2FF05C
:10145000DBD0ABA048D0AECF86F30EC400F0016A5B
:10146000008E86C302F0036A0250001803E10350A5
:10147000011801E004D003018B89AB96C5D00301AC
:10148000865104E0865104010E1929E103018B996C
:10149000AB960301865103E003018B9702D0030151
:1014A0008B8786C38FF388C390F303018851006E46
:1014B00000040301916F600E03019025006E016A24
:1014C000000E012200C0E9FF01C0EAFF86C3EFFF62
:1014D000902B9051800A02E10301906B95D003019B
:1014E0008B99AB8691D0AECF86F303018BA921D027
:1014F0000EC400F0016A008E86C302F0036A025037
:10150000001803E10350011801E011D09D9AAB9837
:10151000949003018A5104E1AD6A2EEC2FF007D0BC
:1015200000CFADFF010E03018D6F9D886DD0AB869E
:101530006BD00301865103018F27030190510301F2
:1015400091191BE103018F510CE190C388F3030152
:101550008BB712D09D9AAB989490AD6A2EEC2FF079
:101560000BD003018B858BB707D09D9AAB989490D5
:10157000010EAD6E2EEC2FF047D003019051030108
:10158000891908E1030189510301881903E02EEC50
:101590002FF03AD088C300F0016A004A012AE56AB8
:1015A000800EE56E0150E56E0050E56EC3EC1CF058
:1015B000006E040EE12600500301876F03019019AD
:1015C0000FE186C300F01F0E00140301916F006E3F
:1015D000020E0024916F0301885103019127919F0E
:1015E00090C300F00301902B016A600E0026000EEC
:1015F000012200C0E9FF01C0EAFF86C3EFFF90515E
:10160000800A02E10301906BE4CF03F0E4CF02F023
:10161000E4CF01F0E4CF00F01200D9CFE5FFE1CF35
:10162000D9FF00C0E5FF01C0E5FF02C0E5FF03C030
:10163000E5FF04C0E5FF05C0E5FF06C0E5FF07C004
:10164000E5FF020EDBCF00F0030EDBCF01F0040E4E
:10165000DBCF02F0050EDBCF03F0060EDBCF04F08C
:10166000070EDBCF05F0080EDBCF06F0090EDBCF4F
:1016700007F000500301686F0150696F02506A6FF4
:1016800003506B6F045003016C6F05506D6F065073
:101690006E6F07506F6F0301685103016E03F4CF43
:1016A00001F0F3CF00F000500301726F0150736F2F
:1016B0000301685103016C03F4CF01F0F3CF00F094
:1016C00000500301706F0150716F03016B510301F2
:1016D0006C03F3CF00F00301735100260050736FC9
:1016E00003016A5103016D03F3CF01F0015000269D
:1016F00000500301736F03016A5103016C03F4CFBF
:1017000001F0F3CF00F00301725100267351012262
:101710000050726F0150736F0301695103016D0333
:10172000F4CF03F0F3CF02F0025000260350012261
:1017300000500301726F0150736F0301695103017F
:101740006E03F3CF00F000500301776F030169517E
:1017500003016C03F4CF01F0F3CF00F0005003015C
:10176000756F0150766F0301685103016F03F3CF6A
:1017700000F0005003017B6F0301685103016D030A
:10178000F4CF01F0F3CF00F000500301796F015066
:101790007A6F0301746B0301786B030174510301C9
:1017A0007025006E0301755103017121016E030163
:1017B000765103017221026E0301775103017321F7
:1017C000036E0050706F0150716F0250726F0350C2
:1017D000736F0301785103017025006E0301795185
:1017E00003017121016E03017A5103017221026E1E
:1017F00003017B5103017321036E03C0E9FF02C0A3
:10180000F4FF01C0F3FF0050E4CF07F0E4CF06F08F
:10181000E4CF05F0E4CF04F0E4CF03F0E4CF02F02E
:10182000E4CF01F0E4CF00F0E4CFD9FF1200D9CF2C
:10183000E5FFE1CFD9FF00C0E5FF01C0E5FF02C031
:10184000E5FF03C0E5FF04C0E5FF05C0E5FF06C0F6
:10185000E5FF07C0E5FF08C0E5FF09C0E5FF0AC0D6
:10186000E5FF020EDBCF00F0030EDBCF01F0040E2C
:10187000DBCF02F0050EDBCF03F000501BE103507D
:10188000096E0250086E0150076E98C30AF0E56AAF
:101890000A50E56E0950E56E0850E56E0750E56E9A
:1018A000800EE56E040EE56E810EE56E9CEC18F080
:1018B000080EE126070E005CD8B092D0020E005C44
:1018C00022E2A80E0024046E056A5F0E0522066A55
:1018D000000E062204C0F6FF05C0F7FF06C0F8FFA1
:1018E0000900F5CF04F003019851E56E0350E56E51
:1018F0000250E56E0150E56E0450E56EFEEC20F0FE
:10190000050EE12620D0A80E0024046E056A5F0EA5
:101910000522066A000E062204C0F6FF05C0F7FF86
:1019200006C0F8FF0900F5CF04F0010EE56E035084
:10193000E56E0250E56E0150E56E0450E56EFEEC7A
:1019400020F0050EE126AE0E0024016E026A5F0E45
:101950000222036A000E032201C0F6FF02C0F7FF55
:1019600003C0F8FF0900F5CF01F003019651E56EC1
:101970000150E56E09EC2AF0E652E652020EE56EE1
:1019800083EC2BF0016EE652026A036AA20E002677
:101990005F0E0222000E032200C0F6FF02C0F7FF16
:1019A00003C0F8FF0900F5CF00F0010E026E0050F1
:1019B0000DE006E6E86CD8900236010FFDE306D094
:1019C000D89002BED8800232010FFBE30150021210
:1019D0000250E56E020EE56E09EC2AF0E652E65280
:1019E000E4CF0AF0E4CF09F0E4CF08F0E4CF07F049
:1019F000E4CF06F0E4CF05F0E4CF04F0E4CF03F049
:101A0000E4CF02F0E4CF01F0E4CF00F0E4CFD9FF5F
:101A10001200D9CFE5FFE1CFD9FF00C0E5FF01C03B
:101A2000E5FF02C0E5FF03C0E5FF04C0E5FF05C018
:101A3000E5FF06C0E5FF07C0E5FF08C0E5FF09C0F8
:101A4000E5FF0AC0E5FF0BC0E5FF0CC0E5FF0DC0D8
:101A5000E5FF0EC0E5FF0FC0E5FF020EDBCF00F093
:101A6000030EDBCF01F0040EDBCF02F0050EDBCF5F
:101A700003F0060EDBCF04F0045007E0E6EC1BF0A9
:101A8000010EE56E6AEC2EF0E652D0EC27F0046E03
:101A9000F3CF05F0F4CF06F0E9CF07F000505F0F69
:101AA000086E000E0120096E000E02200A6E000E64
:101AB00003200B6E170EE56E83EC2BF00C6EE652D6
:101AC0000CB85DD0FFEC2FF00C6E0CA838D0100EC7
:101AD000E56E070EE56E09EC2AF0E652E652000EBE
:101AE000E56A6AEC2EF0E652010EE56E6AEC2EF025
:101AF000E652D0EC27F00C6EF3CF0DF0F4CF0EF0E1
:101B0000E9CF0FF004500C5E05500D5A06500E5AE6
:101B100007500F5A03500F5C08E102500E5C05E1BC
:101B200001500D5C02E100500C5C09E3000EE56A17
:101B30006AEC2EF0E65205EC30F0E86A26D0D0ECE4
:101B400027F00C6EF3CF0DF0F4CF0EF0E9CF0FF0CD
:101B500004500C5E05500D5A06500E5A07500F5A8D
:101B60000F500B5C08E10E500A5C05E10D50095C5A
:101B700002E10C50085CD8B09DD7E86A06D0000E90
:101B8000E56A6AEC2EF0E652010EE4CF0FF0E4CFE6
:101B90000EF0E4CF0DF0E4CF0CF0E4CF0BF0E4CF87
:101BA0000AF0E4CF09F0E4CF08F0E4CF07F0E4CF87
:101BB00006F0E4CF05F0E4CF04F0E4CF03F0E4CF87
:101BC00002F0E4CF01F0E4CF00F0E4CFD9FF12003F
:101BD000D9CFE5FFE1CFD9FF00C0E5FF01C0E5FFA8
:101BE00002C0E5FF03C0E5FF04C0E5FF05C0E5FF57
:101BF00006C0E5FF07C0E5FF08C0E5FF09C0E5FF37
:101C00000AC0E5FF0BC0E5FF0CC0E5FF0DC0E5FF16
:101C10000EC0E5FF0FC0E5FF10C0E5FF11C0E5FFF6
:101C200012C0E5FF13C0E5FF020EDBCF00F0030E8C
:101C3000DBCF01F0040EDBCF02F0050EDBCF03F0AB
:101C4000060EDBCF04F0070EDBCF05F0080EDBCF6E
:101C500006F0090EDBCF07F0D0EC27F0086EF3CFCB
:101C600009F0F4CF0AF0E9CF0BF004505F0F0C6ECF
:101C7000000E05200D6E000E06200E6E000E0720D1
:101C80000F6EFFEC2FF0106E10A046D0FFEC2FF07F
:101C9000106E10A821D011EC2DF0D0EC27F0106EB2
:101CA000F3CF11F0F4CF12F0E9CF13F00850105E2B
:101CB0000950115A0A50125A0B50135A1350075C0C
:101CC00008E11250065C05E11150055C02E110507C
:101CD000045C02E2E86A2ED0D0EC27F0106EF3CF5D
:101CE00011F0F4CF12F0E9CF13F00850105E095054
:101CF000115A0A50125A0B50135A13500F5C08E134
:101D000012500E5C05E111500D5C02E110500C5CAC
:101D1000D8B0B7D7E86A0ED0E56A0350E56E025036
:101D2000E56E0150E56E0050E56E58EC24F0050EAE
:101D3000E126010EE4CF13F0E4CF12F0E4CF11F06E
:101D4000E4CF10F0E4CF0FF0E4CF0EF0E4CF0DF0CD
:101D5000E4CF0CF0E4CF0BF0E4CF0AF0E4CF09F0CD
:101D6000E4CF08F0E4CF07F0E4CF06F0E4CF05F0CD
:101D7000E4CF04F0E4CF03F0E4CF02F0E4CF01F0CD
:101D8000E4CF00F0E4CFD9FF1200D9CFE5FFE1CFD7
:101D9000D9FF00C0E5FF01C0E5FF02C0E5FF03C0B9
:101DA000E5FF04C0E5FF05C0E5FF06C0E5FF07C08D
:101DB000E5FF08C0E5FF09C0E5FF0AC0E5FF0BC06D
:101DC000E5FF0CC0E5FF0DC0E5FF0EC0E5FF0FC04D
:101DD000E5FF020EDBCF00F0030EDBCF01F0040EB7
:101DE000DBCF02F0050EDBCF03F0060EDBCF04F0F5
:101DF000070EDBCF05F0080EDBCF06F0200E076ED6
:101E0000086A06C009F00A6A0B6A0C6AE56AE56AA4
:101E1000E56A0950E56E0350E56E0250E56E01502B
:101E2000E56E0050E56EA1EC0FF00D6E080EE12698
:101E3000300E0D263A0E0D5C05E30D500E6E270E8A
:101E40000E240D6EFF0E07260822400E07240E6E8C
:101E5000030E08200F6E0EC0E9FF0FC0EAFF0DC091
:101E6000EFFF0C50E56E0B50E56E0A50E56E095021
:101E7000E56E0350E56E0250E56E0150E56E0050D0
:101E8000E56E51EC14F0006EF3CF01F0F4CF02F0E8
:101E9000E9CF03F0080EE1260050011002100310F4
:101EA000D8A4AFD707C000F008C001F004C002F00A
:101EB00005C003F000C004F001C005F0004A012A8B
:101EC000400E0426030E052204C0E9FF05C0EAFF08
:101ED000EFCF04F002C0E9FF03C0EAFF04C0EFFF48
:101EE000024A032A000E015C02E1200E005CE2E3DC
:101EF00002C0E9FF03C0EAFF000EEF6AE4CF0FF073
:101F0000E4CF0EF0E4CF0DF0E4CF0CF0E4CF0BF013
:101F1000E4CF0AF0E4CF09F0E4CF08F0E4CF07F013
:101F2000E4CF06F0E4CF05F0E4CF04F0E4CF03F013
:101F3000E4CF02F0E4CF01F0E4CF00F0E4CFD9FF2A
:101F40001200D9CFE5FFE1CFD9FF00C0E5FF01C006
:101F5000E5FF02C0E5FF03C0E5FF04C0E5FF05C0E3
:101F6000E5FF06C0E5FF07C0E5FF08C0E5FF09C0C3
:101F7000E5FF0AC0E5FF020EDBCF00F0030EDBCF6A
:101F800001F0040EDBCF02F0050EDBCF03F0060EEE
:101F9000DBCF04F0070EDBCF05F0080EDBCF06F039
:101FA000090EDBCF07F0086A045005100610071071
:101FB00005E1E968F468F368E86847D0096A075002
:101FC000800BE8440A6E0A501BE1045004260536D3
:101FD000063607360750035C08E10650025C05E14F
:101FE0000550015C02E10450005C06E2D890073223
:101FF00006320532043204D0092A09C008F0DFD7BE
:102000000750035C08E10650025C05E10550015CE5
:1020100002E10450005C08E30450005E0550015AE0
:102020000650025A0750035AD8900732063205323A
:10203000043208C009F008060950E2E103C0E9FFD4
:1020400002C0F4FF01C0F3FF0050E4CF0AF0E4CF78
:1020500009F0E4CF08F0E4CF07F0E4CF06F0E4CFD6
:1020600005F0E4CF04F0E4CF03F0E4CF02F0E4CFD6
:1020700001F0E4CF00F0E4CFD9FF120000C0E5FF8B
:1020800001C0E5FF02C0E5FF03C0E5FF04C0E5FFB6
:10209000030189510301881901E16AD089C300F065
:1020A0000050016E0128006E009E600E0024016E3B
:1020B000026A000E022201C0E9FF02C0EAFFEFCF70
:1020C00093F31F0E0301931789C392F393510301F6
:1020D00092279251016E020E0124926F929F65EC3D
:1020E00029F0016E015003E1016A012A01D0016A61
:1020F00065EC29F00301936F93C302F0800E021682
:1021000093C303F01F0E031603C004F003C093F340
:10211000045003E188C389F33ED001501EE0025011
:1021200025E065EC29F0006E03019351016E010476
:10213000936F0050420A1AE000504E0A03E123EC6C
:1021400025F014D00050460A03E1A6EC2FF00ED083
:102150000050490A0BE1FF0009D089C394F30250F3
:1021600003E041EC2DF002D029EC30F092C389F36A
:1021700004010A5104010B1906E003018A5103E12D
:10218000D6EC10F008D094B006D003018A5103E1D8
:10219000ACB22EEC2FF0E4CF04F0E4CF03F0E4CFA8
:1021A00002F0E4CF01F0E4CF00F0120000C0E5FF40
:1021B00001C0E5FF02C0E5FF03C0E5FF04C0E5FF85
:1021C000ACA27ED0C3EC2BF0006E005005E1040100
:1021D0000B6B04010A6B74D00BC401F00050012694
:1021E000C3EC2BF0026E0050036E0304006E02502D
:1021F000230A1FE1010E005CD8A060D0C3EC2BF0D5
:10220000026E690A03E1DFEC28F058D00250720A2E
:1022100003E12EEC2FF052D00250730A01E04ED0B1
:102220009480AB869D8A9D98AE50AE50AB98AB889B
:1022300045D00250430A05E00250420A01E03ED078
:1022400006D000C003F0046A038E0350006E00C085
:102250008CF300500F01006F010E03018D6F04011C
:102260000B51011814E0C3EC2BF0026E03018C2714
:10227000000E03018D25006E036A0F0E032200C0BD
:10228000E9FF03C0EAFF02C0EFFF8D2BE8D7000E85
:1022900003018D25006E026A0F0E022203018C1DC0
:1022A000036E032A00C0E9FF02C0EAFF03C0EFFF8C
:1022B00003018D2B8DC38AF30301846B01C00BF4E2
:1022C000E4CF04F0E4CF03F0E4CF02F0E4CF01F078
:1022D000E4CF00F01200D9CFE5FFE1CFD9FF00C075
:1022E000E5FF01C0E5FF02C0E5FF03C0E5FF04C054
:1022F000E5FF05C0E5FF06C0E5FF07C0E5FF08C034
:10230000E5FF09C0E5FF0AC0E5FF0BC0E5FF0CC013
:10231000E5FF020EDBCF00F0030EDBCF01F0040E71
:10232000DBCF02F0050EDBCF03F0060EDBCF04F0AF
:10233000D0EC27F0056EF3CF06F0F4CF07F0E9CF2D
:1023400008F0FFEC2FF0096E09A02ED0FFEC2FF063
:10235000096E09A80AD0100EE56E070EE56E09ECAD
:102360002AF0E652E652E86A2ED0D0EC27F0096E49
:10237000F3CF0AF0F4CF0BF0E9CF0CF00550095E73
:1023800006500A5A07500B5A08500C5A000E0C5CA3
:1023900008E1000E0B5C05E1000E0A5C02E1600E34
:1023A000095CCFE3E86A0FD00450E56E0350E56E98
:1023B0000250E56E0150E56E0050E56E58EC24F0D9
:1023C000050EE126010EE4CF0CF0E4CF0BF0E4CFD4
:1023D0000AF0E4CF09F0E4CF08F0E4CF07F0E4CF4F
:1023E00006F0E4CF05F0E4CF04F0E4CF03F0E4CF4F
:1023F00002F0E4CF01F0E4CF00F0E4CFD9FF120007
:1024000000C0E5FF01C0E5FF0301956B200E03014D
:10241000966F0301976B050E0301986F0301606FC0
:10242000616B626B636B0401816B9398939A000EEE
:10243000E56A6AEC2EF0E652010EE56E5BEC2CF0DC
:10244000E6522BEC23F0E56AE56AE56A050EE56ED7
:1024500095EC12F0040EE1260C0EE56E000EE56A16
:1024600009EC2AF0E652E6520F0EE56E050EE56E17
:102470008FEC29F0E652E652020EE56E91EC22F066
:10248000006EE652005003E0010E0301956F060E48
:10249000E56E83EC2BF0006EE652000EE56A91ECDF
:1024A00022F0E65202EC2FF0E56A1D0EE56E09EC13
:1024B0002AF0E652E652E56A1C0EE56E09EC2AF0B7
:1024C000E652E6520301976B700EE56E070EE56E5D
:1024D00009EC2AF0E652E6524C0EE56E77EC2CF051
:1024E000E6520BEC30F005EC30F001EC2CF0000E75
:1024F000E56A83EC2BF0016EE65201900150E56E27
:10250000000EE56A09EC2AF0E652E652005003E0BC
:102510000050FF0A02E1006A02D0010E006E005076
:10252000E4CF01F0E4CF00F01200D9CFE5FFE1CF16
:10253000D9FF00C0E5FF01C0E5FF02C0E5FF03C011
:10254000E5FF04C0E5FF05C0E5FF06C0E5FF07C0E5
:10255000E5FF020EDBCF00F0030EDBCF01F0040E2F
:10256000DBCF02F0050EDBCF03F03BEC29F0046E6D
:10257000F3CF05F0F4CF06F0E9CF07F00350E56E96
:102580000250E56E0150E56E0050E56EE56A0F0EF3
:10259000E56E420EE56E400EE56E0DEC0BF0006E42
:1025A000F3CF01F0F4CF02F0E9CF03F0080EE126FB
:1025B000E56AE56A030EE56EE80EE56E0350E56E2A
:1025C0000250E56E0150E56E0050E56E51EC14F0DE
:1025D000006EF3CF01F0F4CF02F0E9CF03F0080E64
:1025E000E126045000260550012206500222075021
:1025F00003223BEC29F0046EF3CF05F0F4CF06F094
:10260000E9CF07F00050045E0150055A0250065A07
:102610000350075A079E3F0E075C08E1FF0E065C59
:1026200005E1FF0E055C02E1FF0E045CE2E2E4CF8F
:1026300007F0E4CF06F0E4CF05F0E4CF04F0E4CFF8
:1026400003F0E4CF02F0E4CF01F0E4CF00F0E4CFF8
:10265000D9FF1200D9CFE5FFE1CFD9FF00C0E5FFD8
:1026600001C0E5FF02C0E5FF03C0E5FF04C0E5FFD0
:1026700005C0E5FF06C0E5FF07C0E5FF020EDBCFA2
:1026800000F0030EDBCF01F0040EDBCF02F0050EED
:10269000DBCF03F03BEC29F0046EF3CF05F0F4CF71
:1026A00006F0E9CF07F00350E56E0250E56E0150E9
:1026B000E56E0050E56EE56AE56A030EE56EE80E2C
:1026C000E56E0DEC0BF0006EF3CF01F0F4CF02F0ED
:1026D000E9CF03F0080EE126E56AE56A030EE56E30
:1026E000E80EE56E0350E56E0250E56E0150E56EB2
:1026F0000050E56E51EC14F0006EF3CF01F0F4CF12
:1027000002F0E9CF03F0080EE12604500026055040
:10271000012206500222075003223BEC29F0046EEE
:10272000F3CF05F0F4CF06F0E9CF07F00050045ED8
:102730000150055A0250065A0350075A079E3F0E91
:10274000075C08E1FF0E065C05E1FF0E055C02E197
:10275000FF0E045CE2E2E4CF07F0E4CF06F0E4CF42
:1027600005F0E4CF04F0E4CF03F0E4CF02F0E4CFCF
:1027700001F0E4CF00F0E4CFD9FF1200D9CFE5FF9C
:10278000E1CFD9FF00C0E5FF01C0E5FF02C0E5FFD2
:1027900003C0E5FF04C0E5FF05C0E5FF06C0E5FF97
:1027A00007C0E5FF08C0E5FF09C0E5FF0AC0E5FF77
:1027B000020EDBCF00F0030EDBCF01F0040EDBCF07
:1027C00002F0050EDBCF03F0060EDBCF04F0070EA0
:1027D000DBCF05F00038E8441F0B066E076A810E58
:1027E0000626030E072206C0E9FF07C0EAFFEFCF67
:1027F00008F00050096E070E0916010E0A6E095006
:102800000DE006E6E86CD8900A36010FFDE306D02D
:10281000D8900ABED8800A32010FFBE308500A1292
:1028200006C0E9FF07C0EAFF0AC0EFFF230E00243D
:10283000066E076A0F0E072206C0E9FF07C0EAFF0F
:1028400001C0EFFF016A250E0026040E0122800E52
:10285000025E070E02160238F00B036E070E051615
:102860000550032600C0E9FF01C0EAFF03C0EFFFE7
:10287000E4CF0AF0E4CF09F0E4CF08F0E4CF07F0AA
:10288000E4CF06F0E4CF05F0E4CF04F0E4CF03F0AA
:10289000E4CF02F0E4CF01F0E4CF00F0E4CFD9FFC1
:1028A0001200D9CFE5FFE1CFD9FF00C0E5FF01C09D
:1028B000E5FF02C0E5FF03C0E5FF04C0E5FF05C07A
:1028C000E5FF06C0E5FF07C0E5FF08C0E5FF09C05A
:1028D000E5FF0AC0E5FF0BC0E5FF0CC0E5FF0DC03A
:1028E000E5FF020EDBCF00F0030EDBCF01F0040E9C
:1028F000DBCF02F0050EDBCF03F0060EDBCF04F0DA
:10290000070EDBCF05F0080EDBCF06F0090EDBCF9C
:1029100007F0086A096A0A6A0B6A200E0C6E0350F7
:10292000800BE8440D6E0050002601360236033657
:102930000850082609360A360B360D50D8A40880F0
:1029400007500B5C08E106500A5C05E10550095C84
:1029500002E10450085C09E30450085E0550095A7E
:1029600006500A5A07500B5A00800C040D6E0DC019
:102970000CF00D50D4E103C0E9FF02C0F4FF01C028
:10298000F3FF0050E4CF0DF0E4CF0CF0E4CF0BF0F8
:10299000E4CF0AF0E4CF09F0E4CF08F0E4CF07F089
:1029A000E4CF06F0E4CF05F0E4CF04F0E4CF03F089
:1029B000E4CF02F0E4CF01F0E4CF00F0E4CFD9FFA0
:1029C000120000C0E5FF01C0E5FF03C0E5FF04C041
:1029D000E5FF05C0E5FF06C0E5FF07C0E5FF08C04D
:1029E000E5FF09C0E5FF0AC0E5FF0BC0E5FF7FC3B7
:1029F00000F080C301F003017F3F01D0802B005025
:102A0000E56E20EC2FF0E652076E046A056A066A4E
:102A10007FC300F080C301F003017F3F01D0802B12
:102A20000050E56E20EC2FF0E6520B6A0A6E086A41
:102A30000850041205120A5006120B5007127FC3E9
:102A400000F080C301F003017F3F01D0802B0050D4
:102A5000E56E20EC2FF0E652036E006A03C001F031
:102A6000E86A03BEFF0E086E096E005004120150A2
:102A7000051208500612095007127FC300F080C3E8
:102A800001F003017F3F01D0802B0050E56E20EC68
:102A90002FF0E652016A04120150051206120712C5
:102AA00007C0E9FF06C0F4FF05C0F3FF0450E4CF00
:102AB0000BF0E4CF0AF0E4CF09F0E4CF08F0E4CF64
:102AC00007F0E4CF06F0E4CF05F0E4CF04F0E4CF64
:102AD00003F0E4CF01F0E4CF00F01200D9CFE5FF1E
:102AE000E1CFD9FF00C0E5FF01C0E5FF02C0E5FF6F
:102AF00003C0E5FF04C0E5FF05C0E5FF06C0E5FF34
:102B000007C0E5FF020EDBCF00F0030EDBCF01F0C4
:102B1000040EDBCF02F0050EDBCF03F003C004F0A0
:102B2000056A0350D8B454D000C0E9FF01C0F3FFD8
:102B30000250C4EC2EF0066E430A08E1010E056E49
:102B400003C006F0076A068E0650036E0406002ACC
:102B500002E3014A022A9D9AAB9894909D989EA800
:102B6000FED7AC80AD6A00009EA8FED7AC9003C033
:102B7000ADFF00009EA8FED7055004E0420EAD6EEA
:102B8000032604D0620EAD6E620E0326045015E0DB
:102B900000009EA8FED700C0E9FF01C0F3FF02506D
:102BA000C4EC2EF0056E05C0ADFF055003260406EB
:102BB000002A02E3014A022AE9D700009EA8FED7B4
:102BC000031CAD6EAD2A00009EA8FED72EEC2FF0A0
:102BD000E4CF07F0E4CF06F0E4CF05F0E4CF04F053
:102BE000E4CF03F0E4CF02F0E4CF01F0E4CF00F053
:102BF000E4CFD9FF1200D9CFE5FFE1CFD9FF00C064
:102C0000E5FF01C0E5FF02C0E5FF03C0E5FF04C02A
:102C1000E5FF05C0E5FF06C0E5FF07C0E5FF020EC2
:102C2000DBCF00F0030EDBCF01F0040EDBCF02F0B0
:102C3000050EDBCF03F002C006F00650046E800ADA
:102C400033E100C0E9FF01C0F3FF025092EC2CF029
:102C5000056EF3CF06F0F4CF07F003C0E5FF05C023
:102C6000E9FF06C0F3FF0750BCEC2FF000C0E9FFFE
:102C700001C0F3FF025092EC2CF0056EF3CF06F08A
:102C8000F4CF07F0052A02E3064A072A05C0E5FF4C
:102C900006C0F4FF07C0F6FF00C0E9FF01C0F3FF64
:102CA000025011EC2FF020D004C000F000AA1CD07C
:102CB000007A0050046E04E1035022EC30F014D08E
:102CC0000450010A04E1035002EC00F00DD004505E
:102CD0000F0A04E10350AEEC28F006D004500E0AAF
:102CE00003E103503BEC30F0E4CF07F0E4CF06F013
:102CF000E4CF05F0E4CF04F0E4CF03F0E4CF02F03A
:102D0000E4CF01F0E4CF00F0E4CFD9FF1200D9CF37
:102D1000E5FFE1CFD9FF00C0E5FF01C0E5FF02C03C
:102D2000E5FF03C0E5FF04C0E5FF05C0E5FF020EB7
:102D3000DBCF00F0030EDBCF01F0040EDBCF02F09F
:102D4000050EDBCF03F0060EDBCF04F00338F00BEB
:102D5000056E0450052605C0E5FF00C0E9FF01C06F
:102D6000F3FF0250BCEC2FF00050010F036E000E79
:102D70000120046E000E0220056E0A0EE56E03C0EF
:102D8000E9FF04C0F3FF0550BCEC2FF00050020F28
:102D9000036E000E0120046E000E0220056E990ED7
:102DA000E56E03C0E9FF04C0F3FF0550BCEC2FF053
:102DB0000050030F036E000E0120046E000E02206F
:102DC000056E980EE56E03C0E9FF04C0F3FF0550E1
:102DD000BCEC2FF0040E0026000E01220222970EFA
:102DE000E56E00C0E9FF01C0F3FF0250BCEC2FF01C
:102DF000E4CF05F0E4CF04F0E4CF03F0E4CF02F039
:102E0000E4CF01F0E4CF00F0E4CFD9FF120043207B
:102E1000696E697452460A00435220432025640AB1
:102E20000000D9CFE5FFE1CFD9FF00C0E5FF01C029
:102E3000E5FF02C0E5FF03C0E5FF04C0E5FF05C0F4
:102E4000E5FF06C0E5FF07C0E5FF020EDBCF00F09F
:102E5000030EDBCF01F0040EDBCF02F0050EDBCF5B
:102E600003F0060EDBCF04F00450E56E0350E56E70
:102E70000250E56E0150E56E0050E56E58EC24F00E
:102E8000050EE126D0EC27F0006EF3CF01F0F4CF71
:102E900002F0E9CF03F0FFEC2FF0300B1FE1D0EC94
:102EA00027F0046EF3CF05F0F4CF06F0E9CF07F07A
:102EB0000050045E0150055A0250065A0350075A4A
:102EC000000E075C08E1000E065C05E1000E055CE3
:102ED00002E1600E045CDFE3E86A15D0000EE56AEB
:102EE0006AEC2EF0E652700EE56E070EE56E09EC08
:102EF0002AF0006EE652E65200A804D005EC30F04D
:102F0000E86A01D0010EE4CF07F0E4CF06F0E4CF89
:102F100005F0E4CF04F0E4CF03F0E4CF02F0E4CF17
:102F200001F0E4CF00F0E4CFD9FF1200D9CFE5FFE4
:102F3000E1CFD9FF00C0E5FF01C0E5FF02C0E5FF1A
:102F400003C0E5FF04C0E5FF05C0E5FF06C0E5FFDF
:102F500007C0E5FF020EDBCF00F0030EDBCF01F070
:102F6000040EDBCF02F0050EDBCF03F00BC40CF434
:102F700004010A5104010C5F0C51046E04040C6F2F
:102F800003C004F0056A030E0426D8B0052A0CC459
:102F900006F0076A0750800FF36E0550800FF35C50
:102FA00002E10450065C02E2E86830D0020E035CE5
:102FB00002E2E86A2BD00350046E0404036EE56E4F
:102FC000E3EC26F0E652046A0350045C14E2045079
:102FD0000024056EE86A0120066EE86A022005C03A
:102FE000E9FF06C0F3FFC4EC2EF0042AE56EE3EC23
:102FF00026F0E652E9D70BC40CF404010A5104018F
:103000000C5F0C51006E00040C6FE86AE4CF07F00F
:10301000E4CF06F0E4CF05F0E4CF04F0E4CF03F012
:10302000E4CF02F0E4CF01F0E4CF00F0E4CFD9FF29
:10303000120000C0E5FF01C0E5FF02C0E5FF03C0CC
:10304000E5FF04C0E5FF006A810E0024016E026AFC
:10305000030E022201C0E9FF02C0EAFFEF6A002A64
:10306000020E005CF1E3006A0050020DF450026EA3
:10307000F3CF01F05C0E0124036E040E0220046EF7
:1030800003C0E9FF04C0EAFFEE6AEF6A930E012471
:10309000036E040E0220046E03C0E9FF04C0EAFFC1
:1030A000EE6AEF6AB30E0124036E040E0220046E72
:1030B00003C0E9FF04C0EAFFEE6AEF6AD30E012401
:1030C000036E040E0220046E03C0E9FF04C0EAFF91
:1030D000EE6AEF6A000E0126030E022201C0E9FF2C
:1030E00002C0EAFFEE687F0EEF6E250E0024016E2F
:1030F000026A040E022201C0E9FF02C0EAFFEF6883
:10310000002A100E005CD8A0AFD7AF0EC06EC16A07
:10311000010EC26EC282E4CF04F0E4CF03F0E4CF2C
:1031200002F0E4CF01F0E4CF00F012004320412090
:1031300025642025640A0000D9CFE5FFE1CFD9FF3F
:1031400000C0E5FF01C0E5FF02C0E5FF03C0E5FFE9
:1031500004C0E5FF05C0E5FF06C0E5FF07C0E5FFC9
:1031600008C0E5FF09C0E5FF0AC0E5FF0BC0E5FFA9
:103170000CC0E5FF020EDBCF00F0030EDBCF01F049
:10318000040EDBCF02F0050EDBCF03F0060EDBCF23
:1031900004F0070EDBCF05F0080EDBCF06F0090EBA
:1031A000DBCF07F002500A6E0150096E0050086E26
:1031B00006C00BF007C00CF0FF0E062607220B50CE
:1031C0000C101AE003C0E9FF04C0F3FF0550C4EC83
:1031D0002EF00B6E032A02E3044A052A0BC0E5FF1A
:1031E00008C0E9FF09C0F3FF0A50BCEC2FF0082A21
:1031F000DFE3094A0A2ADCD702C0F4FF01C0F3FF6B
:103200000050E4CF0CF0E4CF0BF0E4CF0AF0E4CFB1
:1032100009F0E4CF08F0E4CF07F0E4CF06F0E4CF04
:1032200005F0E4CF04F0E4CF03F0E4CF02F0E4CF04
:1032300001F0E4CF00F0E4CFD9FF1200D9CFE5FFD1
:10324000E1CFD9FF00C0E5FF01C0E5FF02C0E5FF07
:1032500003C0E5FF04C0E5FF05C0E5FF06C0E5FFCC
:1032600007C0E5FF020EDBCF00F0030EDBCF01F05D
:10327000040EDBCF02F0050EDBCF03F0060EDBCF32
:1032800004F003019651035C03E203C005F002D091
:1032900096C305F005C003F00301975102E0056AEB
:1032A00006D003500301965D076E07C005F017ECCA
:1032B00030F00450E56E74EC2FF0046EE65203C05B
:1032C00006F00306065012E000C0E9FF01C0F3FF5C
:1032D0000250C4EC2EF0066E002A02E3014A022AD4
:1032E0000650E56E74EC2FF0E652E9D705C000F009
:1032F00000C001F00006015006E0000EE56A74EC23
:103300002FF0E652F5D711EC30F00450E4CF07F07F
:10331000E4CF06F0E4CF05F0E4CF04F0E4CF03F00F
:10332000E4CF02F0E4CF01F0E4CF00F0E4CFD9FF26
:10333000120000C0E5FF01C0E5FF02C0E5FF03C0C9
:10334000E5FF3EEC10F00EEC04F03BEC29F0006ED3
:10335000F3CF01F0F4CF02F0E9CF03F004017C5188
:10336000005E7D51015A7E51025A7F51035A039EDD
:103370003F0E035C08E1FF0E025C05E1FF0E015CFD
:1033800002E1FF0E005CD8B045D03BEC29F0F3CF52
:1033900001F0F4CF02F0E9CF03F0880F04017C6F55
:1033A000130E01207D6F000E02207E6F000E0320A1
:1033B0007F6F04010051D8A46FEC1EF002C400F02E
:1033C00003C401F00401023F01D0032B0050640A42
:1033D00002E1015001E01ED00401026B036B00C446
:1033E00000F0E56A0050E56E000EE56E2E0EE56E0B
:1033F000180EE56E27EC26F0050EE1261CEC2EF0EB
:10340000006E005002E10401006B04010051D8B4C9
:1034100031EC2AF0E4CF03F0E4CF02F0E4CF01F086
:10342000E4CF00F01200D9CFE5FFE1CFD9FF00C013
:10343000E5FF01C0E5FF02C0E5FF03C0E5FF04C0F2
:10344000E5FF05C0E5FF06C0E5FF07C0E5FF08C0D2
:10345000E5FF09C0E5FF0AC0E5FF020EDBCF00F083
:10346000030EDBCF01F0040EDBCF02F0050EDBCF45
:1034700003F0060EDBCF04F0070EDBCF05F0080EDD
:10348000DBCF06F0090EDBCF07F00A0EDBCF08F02A
:10349000700EE56E070EE56E09EC2AF0096EE65235
:1034A000E652200E09140A6E0AC0E5FF00C0E9FFCB
:1034B00001C0F3FF0250BCEC2FF0100E0914006E97
:1034C00000C0E5FF03C0E9FF04C0F3FF0550BCECFA
:1034D0002FF0400E091609C0E5FF06C0E9FF07C03E
:1034E000F3FF0850BCEC2FF0E4CF0AF0E4CF09F072
:1034F000E4CF08F0E4CF07F0E4CF06F0E4CF05F026
:10350000E4CF04F0E4CF03F0E4CF02F0E4CF01F025
:10351000E4CF00F0E4CFD9FF1200D9CFE5FFE1CF2F
:10352000D9FF00C0E5FF01C0E5FF02C0E5FF03C011
:10353000E5FF04C0E5FF05C0E5FF020EDBCF00F0AC
:10354000030EDBCF01F0040EDBCF02F00050020DC2
:10355000F450036EF3CF00F0930E0024046E040EBB
:103560000320056E04C0E9FF05C0EAFF01C0EEFFBD
:1035700002C0EFFFB30E0024046E040E0320056E9C
:1035800004C0E9FF05C0EAFFEECF04F0EFCF05F07D
:103590000150045C016E02500558026E200E002698
:1035A000030E032200C0E9FF03C0EAFF01C0EEFFE3
:1035B00002C0EFFFD88002AED89004E3021E016C77
:1035C000D8B4022A0250800F800F02E1030E015C82
:1035D00002E2016A026A0150021007E100C0E9FF3D
:1035E00003C0EAFF000EEE6AEF6AE4CF05F0E4CF15
:1035F00004F0E4CF03F0E4CF02F0E4CF01F0E4CF35
:1036000000F0E4CFD9FF120000C0E5FF01C0E5FFE4
:1036100002C0E5FF03C0E5FF05C0E5FF1DEC30F08B
:1036200094928B923BEC29F0F3CF01F0F4CF02F0AF
:10363000E9CF03F0880F04017C6F130E01207D6F2A
:10364000000E02207E6F000E03207F6F19EC18F031
:103650000F01428F4251CF0B2009426FC150F30B33
:103660000809C16E9484820E006E0F0E016E0F0E5B
:10367000036E380E0026035001220F0E036E800EDB
:10368000005E0350015A820E026E0F0E036E0F0E83
:10369000056E380E0226055003220F0E056E800EB1
:1036A000025E0550035A02C0E9FF03C0EAFFEFCFF4
:1036B00002F0028400C0E9FF01C0EAFF02C0EFFF90
:1036C0000E0EE56E000EE56A9DEC1DF0E652E65228
:1036D00031EC2AF0E4CF05F0E4CF03F0E4CF02F0C0
:1036E000E4CF01F0E4CF00F01200D9CFE5FFE1CF45
:1036F000D9FF00C0E5FF01C0E5FF02C0E5FF03C040
:10370000E5FF04C0E5FF05C0E5FF06C0E5FF020ECA
:10371000DBCF00F0030EDBCF01F0040EDBCF02F0B5
:10372000050EDBCF03F003500301965DD8A096C3CE
:1037300003F00301975102E0046A06D0035003012D
:10374000965D066E06C004F017EC30F0610EE56E73
:1037500074EC2FF0056EE65203C006F00306065027
:1037600014E0FF0EE56874EC2FF0066EE65206C01A
:10377000E5FF00C0E9FF01C0F3FF0250BCEC2FF0F1
:10378000002AEAE3014A022AE7D704C000F000C099
:1037900001F00006015006E0FF0EE56874EC2FF022
:1037A000E652F5D711EC30F00550E4CF06F0E4CF47
:1037B00005F0E4CF04F0E4CF03F0E4CF02F0E4CF6F
:1037C00001F0E4CF00F0E4CFD9FF120000C0E5FF24
:1037D00001C0E5FF02C0E5FF000EE56A6AEC2EF0CD
:1037E000E65203016751E56E6651E56E6551E56E7F
:1037F0006451E56E2AEC13F0040EE1261D0EE56E11
:1038000083EC2BF0006EE65200A20FD0030167514B
:10381000E56E6651E56E6551E56E6451E56E2AEC24
:1038200013F0040EE12605EC30F0000EE56E83EC9B
:103830002BF0006EE65200900050E56E000EE56E33
:1038400009EC2AF0E652E652020EE56E83EC2BF00C
:10385000006EE652A20EF66E5F0EF76E000EF86E68
:103860000900F5CF01F0010E026E01500DE006E6F1
:10387000E86CD8900236010FFDE306D0D89002BE66
:10388000D8800232010FFBE3005002120250E56EB5
:10389000020EE56E09EC2AF0E652E652E4CF02F0A1
:1038A000E4CF01F0E4CF00F0120000C0E5FF01C05A
:1038B000E5FF02C0E5FF03C0E5FF04C0E5FF05C06A
:1038C000E5FF06C0E5FF07C0E5FFD0EC27F0006E7E
:1038D000F3CF01F0F4CF02F0E9CF03F0170EE56E5D
:1038E00083EC2BF0046EE65204B836D0FFEC2FF0D8
:1038F000046E04A811D0100EE56E070EE56E09ECFB
:103900002AF0E652E652000EE56A6AEC2EF0E65224
:1039100005EC30F0E86A26D0D0EC27F0046EF3CF47
:1039200005F0F4CF06F0E9CF07F00050045E015037
:10393000055A0250065A0350075A000E075C08E168
:10394000000E065C05E1000E055C02E1600E045C01
:10395000D8A0C4D7E86A06D0000EE56A6AEC2EF05B
:10396000E652010EE4CF07F0E4CF06F0E4CF05F015
:10397000E4CF04F0E4CF03F0E4CF02F0E4CF01F0B1
:10398000E4CF00F01200D9CFE5FFE1CFD9FF00C0AE
:10399000E5FF01C0E5FF02C0E5FF03C0E5FF04C08D
:1039A000E5FF05C0E5FF06C0E5FF020EDBCF00F036
:1039B000030EDBCF01F0040EDBCF02F0050EDBCFF0
:1039C00003F0D88001AED890046A0436045007E0B2
:1039D000011C066E001C056E054A062A04D000C0B4
:1039E00005F001C006F0D88003AED89007E3031CB1
:1039F000016E021C006E004A012A04D002C000F0D1
:103A000003C001F00150E56E0050E56E0650E56E12
:103A10000550E56EF4EC1FF0006EF3CF01F0040EDC
:103A2000E12604500AE0011C036E001C026E024AEB
:103A3000032A03C0F3FF025003D001C0F3FF00507C
:103A4000E4CF06F0E4CF05F0E4CF04F0E4CF03F0D8
:103A5000E4CF02F0E4CF01F0E4CF00F0E4CFD9FFEF
:103A60001200D9CFE5FFE1CFD9FF00C0E5FF01C0CB
:103A7000E5FF02C0E5FF03C0E5FF04C0E5FF05C0A8
:103A8000E5FF020EDBCF00F0030EDBCF01F0040EEA
:103A9000DBCF02F0050EDBCF03F07FC304F080C361
:103AA00005F003017F3F01D0802B0350E56E0450E9
:103AB000E56E3FEC2BF0E652E6527FC304F080C384
:103AC00005F003017F3F01D0802B0250056EE56EAB
:103AD0000450E56E3FEC2BF0E652E6527FC304F053
:103AE00080C305F003017F3F01D0802B0150E56EBC
:103AF0000450E56E3FEC2BF0E652E6527FC304F033
:103B000080C305F003017F3F01D0802B0050E56E9C
:103B10000450E56E3FEC2BF0E652E652E4CF05F0A0
:103B2000E4CF04F0E4CF03F0E4CF02F0E4CF01F0FF
:103B3000E4CF00F0E4CFD9FF1200D9CFE5FFE1CF09
:103B4000D9FF00C0E5FF01C0E5FF02C0E5FF03C0EB
:103B5000E5FF04C0E5FF05C0E5FF06C0E5FF020E76
:103B6000DBCF00F0030EDBCF01F00038E8441F0B81
:103B7000026E036A810E0226030E032202C0E9FFD1
:103B800003C0EAFFEFCF04F00050056E070E0516E4
:103B9000010E066E05500DE006E6E86CD89006367C
:103BA000010FFDE306D0D89006BED8800632010F83
:103BB000FBE30450061202C0E9FF03C0EAFF06C09F
:103BC000EFFF230E0024026E036A0F0E032202C0D1
:103BD000E9FF03C0EAFF01C0EFFF016A250E0026DE
:103BE000040E012200C0E9FF01C0EAFFFF0EEF68EA
:103BF000E4CF06F0E4CF05F0E4CF04F0E4CF03F027
:103C0000E4CF02F0E4CF01F0E4CF00F0E4CFD9FF3D
:103C10001200D9CFE5FFE1CFD9FF00C0E5FF01C019
:103C2000E5FF02C0E5FF03C0E5FF04C0E5FF05C0F6
:103C3000E5FF06C0E5FF020EDBCF00F0030EDBCF91
:103C400001F0040EDBCF02F00301835119E1E1EC36
:103C500014F0036EF3CF04F0F4CF05F0E9CF06F0D3
:103C600003C0E5FF04C0F4FF05C0F6FF06C0F7FF80
:103C700000C0E9FF01C0F3FF0250B3EC2EF01ED0EC
:103C800003018351010A1AE100C0E9FF01C0F3FFFB
:103C90000250A3EC2BF0006EF3CF01F0F4CF02F052
:103CA000E9CF03F00350E56E0250E56E0150E56E7A
:103CB0000050E56E31EC1DF0040EE126E4CF06F075
:103CC000E4CF05F0E4CF04F0E4CF03F0E4CF02F05A
:103CD000E4CF01F0E4CF00F0E4CFD9FF120000C040
:103CE000E5FF01C0E5FF800EE56E0F0EE56E330EB9
:103CF000E56EE0EC24F0030EE126010EE56EE56AC8
:103D000004010551E56E0451E56EC3EC1CF0006E34
:103D1000F3CF01F0040EE1260050011021E1000E66
:103D2000E56AA6EC2AF00401066FF3CF07F4E65229
:103D30000001E06B040107510001E16F040106512D
:103D40000001E26FE56A030EE56E800EE56E000E7F
:103D5000E56EE00EE56E11EC17F0050EE12618D0C9
:103D6000010E0001E06F040105510001E16F040143
:103D700004510001E26FE56A030EE56E800EE56E08
:103D8000000EE56EE00EE56E11EC17F0050EE12673
:103D90000401043F01D0052B55EC1CF0E4CF01F0E9
:103DA000E4CF00F01200D9CFE5FFE1CFD9FF00C08A
:103DB000E5FF01C0E5FF02C0E5FF03C0E5FF04C069
:103DC000E5FF05C0E5FF06C0E5FF020EDBCF00F012
:103DD000030EDBCF01F0040EDBCF02F0050EDBCFCC
:103DE00003F0060EDBCF04F0070EDBCF05F0080E64
:103DF000DBCF06F0D88003AED89015E306500A0A50
:103E000012E104C0E9FF05C0EAFF2D0EEF6E044A7F
:103E1000052A031E021E011E006C05E1012A03E1B2
:103E2000022AD8B4032A0650E56E0550E56E045008
:103E3000E56E0350E56E0250E56E0150E56E0050F0
:103E4000E56EC5EC0EF0070EE126E4CF06F0E4CFF8
:103E500005F0E4CF04F0E4CF03F0E4CF02F0E4CFC8
:103E600001F0E4CF00F0E4CFD9FF1200D9CFE5FF95
:103E7000E1CFD9FF00C0E5FF01C0E5FF02C0E5FFCB
:103E800003C0E5FF020EDBCF00F0030EDBCF01F035
:103E9000070E005CD8B03FD0010EE56E83EC2BF02E
:103EA000026EE652015017E00050016E010E036EE3
:103EB00001500DE006E6E86CD8900336010FFDE3F3
:103EC00006D0D89003BED8800332010FFBE3025026
:103ED0000310026E18D0010E016E00500DE006E6D0
:103EE000E86CD8900136010FFDE306D0D89001BEF2
:103EF000D8800132010FFBE3011C006E0250016EFD
:103F000000500114026E0250E56E010EE56E09ECE0
:103F10002AF0E652E652E4CF03F0E4CF02F0E4CF19
:103F200001F0E4CF00F0E4CFD9FF1200D8CFE5FFD5
:103F3000E0CFE5FFE56EF3CFE5FFF4CFE5FFE9CF96
:103F4000E5FFEACFE5FFFACFE5FFFBCFE5FFF6CFD0
:103F5000E5FFF6CFE5FFF7CFE5FFF8CFE5FFF5CFBB
:103F6000E5FFE1CFE5FFE2CFE5FF040108510401E1
:103F70008C6F0401095104018D6FD6508A6FD750A0
:103F80008B6FF2A411D00401083F01D0092BF294E9
:103F90000401085104018C6F0401095104018D6F63
:103FA000D6508A6FD7508B6FE4CFE2FFE4CFE1FFAA
:103FB000E4CFF5FFE4CFF8FFE4CFF7FFE4CFF6FF5F
:103FC000E4CFF6FFE4CFFBFFE4CFFAFFE4CFEAFF54
:103FD000E4CFE9FFE4CFF4FFE4CFF3FFE450E4CF14
:103FE000E0FFE4CFD8FF1000D9CFE5FFE1CFD9FF44
:103FF00000C0E5FF01C0E5FF02C0E5FF03C0E5FF2B
:1040000004C0E5FF05C0E5FF06C0E5FF020EDBCFFB
:1040100000F0030EDBCF01F0040EDBCF02F0050E43
:10402000DBCF03F0046A056A0350800BE844066E98
:10403000065011E10250022603360350015C02E1F2
:104040000250005C04E2D8900332023204D0052A08
:1040500005C004F0E9D70350015C02E10250005CA6
:1040600004E30250005E0350015AD890033202323A
:1040700004C005F004060550EEE101C0F3FF005056
:10408000E4CF06F0E4CF05F0E4CF04F0E4CF03F092
:10409000E4CF02F0E4CF01F0E4CF00F0E4CFD9FFA9
:1040A0001200D9CFE5FFE1CFD9FF00C0E5FF01C085
:1040B000E5FF02C0E5FF03C0E5FF04C0E5FF020E17
:1040C000DBCF00F0030EDBCF01F0040EDBCF02F0FC
:1040D000050EDBCF03F0060EDBCF04F0200E045CF0
:1040E00002E3200E046E17EC30F0070E0016A80E47
:1040F00000120050E56E74EC2FF0E65201C000F0A3
:1041000002C001F003C002F004C003F00406035033
:1041100012E000C0E9FF01C0F3FF0250C4EC2EF032
:10412000036E002A02E3014A022A0350E56E74EC92
:104130002FF0E652E9D711EC30F0E4CF04F0E4CFF1
:1041400003F0E4CF02F0E4CF01F0E4CF00F0E4CFDD
:10415000D9FF1200D9CFE5FFE1CFD9FF00C0E5FFBD
:1041600001C0E5FF02C0E5FF03C0E5FF04C0E5FFB5
:1041700005C0E5FF020EDBCF00F0030EDBCF01F040
:10418000040EDBCF02F0050EDBCF03F0060EDBCF13
:1041900004F017EC30F01F0E00160050E56E74ECC2
:1041A0002FF0006EE65204C005F00406055014E03E
:1041B000FF0EE56874EC2FF0056EE65205C0E5FFD2
:1041C00001C0E9FF02C0F3FF0350BCEC2FF0012A4D
:1041D000EAE3024A032AE7D711EC30F00050E4CFBB
:1041E00005F0E4CF04F0E4CF03F0E4CF02F0E4CF35
:1041F00001F0E4CF00F0E4CFD9FF1200D9CFE5FF02
:10420000E1CFD9FF00C0E5FF01C0E5FF02C0E5FF37
:1042100003C0E5FF04C0E5FF05C0E5FF020EDBCFEC
:1042200000F0030EDBCF01F0040EDBCF02F0050E31
:10423000DBCF03F0060EDBCF04F017EC30F01F0EDF
:104240000016008A0050E56E74EC2FF0006EE65206
:1042500004C005F00406055012E001C0E9FF02C0E9
:10426000F3FF0350C4EC2EF0056E012A02E3024A6C
:10427000032A0550E56E74EC2FF0E652E9D711ECF5
:1042800030F00050E4CF05F0E4CF04F0E4CF03F0C9
:10429000E4CF02F0E4CF01F0E4CF00F0E4CFD9FFA7
:1042A000120000C0E5FF01C0E5FF02C0E5FF03C04A
:1042B000E5FF89C300F0016A94C302F0036A02506B
:1042C000005E0350015AE56A800EE56E0150E56E0E
:1042D0000050E56EC3EC1CF0006E040EE1260006F3
:1042E00094C301F0430EAEEC28F0200EAEEC28F0A3
:1042F000005020E0600E0124026E036A000E0322CB
:1043000002C0E9FF03C0EAFFEFCF02F0E56A025006
:10431000E56E000EE56E5E0EE56E740EE56E27EC42
:1043200026F0050EE126012A0150800A01E1016A0A
:104330000006DED7E4CF03F0E4CF02F0E4CF01F0D3
:10434000E4CF00F01200D9CFE5FFE1CFD9FF00C0E4
:10435000E5FF01C0E5FF02C0E5FF03C0E5FF04C0C3
:10436000E5FF020EDBCF00F0030EDBCF01F0040E01
:10437000DBCF02F0050EDBCF03F0060EDBCF04F03F
:10438000045003E0B00E046E02D0A00E046E045080
:10439000E56E0350E56E0250E56E0150E56E00508B
:1043A000E56E1EEC19F0050EE126010EE56E6AECD5
:1043B0002EF0E652E56AE56AE56A0A0EE56E2AEC39
:1043C00013F0040EE126000EE56A6AEC2EF0E652C8
:1043D000E4CF04F0E4CF03F0E4CF02F0E4CF01F047
:1043E000E4CF00F0E4CFD9FF1200D9CFE5FFE1CF51
:1043F000D9FF00C0E5FF01C0E5FF02C0E5FF03C033
:10440000E5FF04C0E5FF020EDBCF00F0030EDBCFBB
:1044100001F0040EDBCF02F00301835111E17AECCD
:1044200028F0036EF3CF04F003C0E5FF04C0F4FFEF
:1044300000C0E9FF01C0F3FF02508EEC2FF016D050
:1044400003018351010A12E100C0E9FF01C0F3FF3B
:104450000250C8EC2DF0006EF3CF01F00150E56E74
:104460000050E56EA6EC26F0E652E652E4CF04F0EA
:10447000E4CF03F0E4CF02F0E4CF01F0E4CF00F0AA
:10448000E4CFD9FF1200E40EF66E5F0EF76E000E59
:10449000F86E0900F550056E0900F550066E04E14E
:1044A000056702D090EF22F00900F550006E090078
:1044B000F550016E0900F550026E09000900F55033
:1044C000E96E0900F550EA6E090009000900F5508F
:1044D000036E0900F550046E09000900F6CF07F0DD
:1044E000F7CF08F0F8CF09F000C0F6FF01C0F7FFE2
:1044F00002C0F8FF035002E1045007E00900F55044
:10450000EE6E0306F8E20406F9D707C0F6FF08C00E
:10451000F7FF09C0F8FF050601E206064FEF22F09B
:104520001200D9CFE5FFE1CFD9FF00C0E5FF01C000
:10453000E5FF02C0E5FF020EDBCF00F0016A060EC8
:10454000E56E83EC2BF0026EE652D70E0216FA0EE1
:104550000301646F656B666B676B0050020A09E1CB
:10456000028AC20E0301646F010E656F666B676B92
:104570000AD00050010A07E10286BE0E0301646FF3
:10458000656B666B676B0250E56E060EE56E09ECB7
:104590002AF0E652E652060EE56E83EC2BF0E65268
:1045A000021802E1010E016E0150E4CF02F0E4CFE7
:1045B00001F0E4CF00F0E4CFD9FF1200D9CFE5FF3E
:1045C000E1CFD9FF00C0E5FF01C0E5FF02C0E5FF74
:1045D00003C0E5FF020EDBCF00F0E56E83EC2BF0AD
:1045E000016EE652026A036AA20E00265F0E0222E4
:1045F000000E032200C0F6FF02C0F7FF03C0F8FF61
:104600000900F5CF00F0010E026E00500DE006E645
:10461000E86CD8900236010FFDE306D0D89002BEB8
:10462000D8800232010FFBE3021C006E015000161D
:104630000050E56E020EE56E09EC2AF0E652E652F5
:10464000E4CF03F0E4CF02F0E4CF01F0E4CF00F0D8
:10465000E4CFD9FF120000C0E5FF01C0E5FF02C0B2
:10466000E5FF03C0E5FF04C0E5FF6D8E6D8C6C981F
:104670006C8A6C50F00B01096C6E93929384810EDE
:10468000006E0F0E016E0F0E036E380E00260350E3
:1046900001220F0E036E800E005E0350015A810E40
:1046A000026E0F0E036E0F0E046E380E02260450BB
:1046B00003220F0E046E800E025E0450035A02C0E5
:1046C000E9FF03C0EAFFEFCF02F0029400C0E9FF68
:1046D00001C0EAFF02C0EFFF9396E4CF04F0E4CFFD
:1046E00003F0E4CF02F0E4CF01F0E4CF00F01200D9
:1046F00000C0E5FF01C0E5FF02C0E5FF03C0E5FF24
:1047000004C0E5FFC78EC78CC698C68AC650F00B9A
:104710000109C66E94969488820E006E0F0E016E8B
:104720000F0E036E380E0026035001220F0E036E8B
:10473000800E005E0350015A820E026E0F0E036E51
:104740000F0E046E380E0226045003220F0E046E64
:10475000800E025E0450035A02C0E9FF03C0EAFF64
:10476000EFCF02F0029800C0E9FF01C0EAFF02C0EB
:10477000EFFF949AE4CF04F0E4CF03F0E4CF02F02B
:10478000E4CF01F0E4CF00F01200D9CFE5FFE1CF94
:10479000D9FF00C0E5FF01C0E5FF02C0E5FF03C08F
:1047A000E5FF04C0E5FF020EDBCF00F00038E8446F
:1047B0001F0B016E026A810E0126030E022201C048
:1047C000E9FF02C0EAFFEFCF03F0070E0016010E6B
:1047D000046E00500DE006E6E86CD8900436010F38
:1047E000FDE306D0D89004BED8800432010FFBE36D
:1047F000041C006E0350001601C0E9FF02C0EAFF6E
:1048000000C0EFFFE4CF04F0E4CF03F0E4CF02F008
:10481000E4CF01F0E4CF00F0E4CFD9FF1200D9CF0C
:10482000E5FFE1CFD9FF00C0E5FF01C0E5FF02C011
:10483000E5FF03C0E5FF04C0E5FF05C0E5FF020E8C
:10484000DBCF00F00050010A22E1016A0150020DA5
:10485000F450036EF3CF02F0D30E0224046E040E64
:104860000320056E04C0E9FF05C0EAFFEE687F0E75
:10487000EF6E000E0226030E032202C0E9FF03C002
:10488000EAFFEE6AEF6A012A100E015CDFE300C066
:1048900010F4E4CF05F0E4CF04F0E4CF03F0E4CF6C
:1048A00002F0E4CF01F0E4CF00F0E4CFD9FF120032
:1048B000D9CFE5FFE1CFD9FF00C0E5FF01C0E5FF9B
:1048C00002C0E5FF03C0E5FF04C0E5FF020EDBCF39
:1048D00000F0030EDBCF01F0040EDBCF02F0050E7B
:1048E000DBCF03F0060EDBCF04F0045003E0B00E84
:1048F000046E02D0A00E046E0450E56E0350E56E07
:104900000250E56E0150E56E0050E56E1EEC19F0A8
:10491000050EE126010EE56E6AEC2EF0E652E4CFBC
:1049200004F0E4CF03F0E4CF02F0E4CF01F0E4CFF1
:1049300000F0E4CFD9FF120000C0E5FF01EC2CF03D
:10494000000EE56A83EC2BF0006EE652008000500A
:10495000E56E000EE56A09EC2AF0E652E652700EAA
:10496000E56E070EE56E09EC2AF0E652E652010EFE
:10497000E56E6AEC2EF0E6520401815110E003016D
:104980009851E56E800EE56E040EE56E810EE56EC3
:104990000A0EE56EFEEC20F0050EE12605D0000EB5
:1049A000E56ADEEC22F0E6521D0EE56E83EC2BF09C
:1049B000006EE65200B205EC30F0E4CF00F01200D9
:1049C000D9CFE5FFE1CFD9FF00C0E5FF01C0E5FF8A
:1049D00002C0E5FF020EDBCF00F0030EDBCF01F0DB
:1049E000040EDBCF02F003019851E56E0250E56E34
:1049F0000150E56E0050E56E0A0EE56EFEEC20F00B
:104A0000050EE12603019851E56E0250E56E015056
:104A1000E56E0050E56E100EE56EFEEC20F0050E22
:104A2000E12603019651E56E110EE56E09EC2AF0C0
:104A3000E652E652E4CF02F0E4CF01F0E4CF00F01A
:104A4000E4CFD9FF120000C0E5FF01C0E5FF02C0BE
:104A5000E5FF65EC29F0006E65EC29F0016E005071
:104A6000026ED00E0224006E0A0E005C05E30050B8
:104A7000026EF90E0224006E0150026ED00E022466
:104A8000016E0A0E015C05E30150026EF90E02246C
:104A9000016E080E005C12E2100E015CD8B00ED060
:104AA0000038F00B0124006E96EC27F0016E0150E7
:104AB00005E10050E56EF9EC2CF0E652E4CF02F08F
:104AC000E4CF01F0E4CF00F01200D8CFE5FFE0CF53
:104AD000E5FFE56EF3CFE5FFF4CFE5FFE9CFE5FFB6
:104AE000EACFE5FFFACFE5FFFBCFE5FFF6CFE5FF25
:104AF000F6CFE5FFF7CFE5FFF8CFE5FFF5CFE5FF10
:104B0000E1CFE5FFE2CFE5FFECEC09F0E4CFE2FF17
:104B1000E4CFE1FFE4CFF5FFE4CFF8FFE4CFF7FF08
:104B2000E4CFF6FFE4CFF6FFE4CFFBFFE4CFFAFFDC
:104B3000E4CFEAFFE4CFE9FFE4CFF4FFE4CFF3FFF3
:104B4000E450E4CFE0FFE4CFD8FF1000D9CFE5FF79
:104B5000E1CFD9FF00C0E5FF01C0E5FF02C0E5FFDE
:104B600003C0E5FF04C0E5FF020EDBCF00F0030E3B
:104B7000DBCF01F0040EDBCF02F0000EE56A83EC20
:104B80002BF0036EE6528F0E03160138F00B046E05
:104B90000038E844E00B04120240E840C00B041265
:104BA000045003120350E56E000EE56A09EC2AF08A
:104BB000E652E652E4CF04F0E4CF03F0E4CF02F093
:104BC000E4CF01F0E4CF00F0E4CFD9FF1200D9CF59
:104BD000E5FFE1CFD9FF00C0E5FF01C0E5FF02C05E
:104BE000E5FF03C0E5FF020EDBCF00F0030EDBCFD5
:104BF00001F0040EDBCF02F0170EE56E83EC2BF014
:104C0000036EE65203B017D000500110021011E0FD
:104C1000FFEC2FF0036E03407F0B036E070E0316AD
:104C200003C0E5FF00C0E9FF01C0F3FF0250BCEC88
:104C30002FF0010E01D0E86AE4CF03F0E4CF02F0D8
:104C4000E4CF01F0E4CF00F0E4CFD9FF1200D9CFD8
:104C5000E5FFE1CFD9FF00C0E5FF01C0E5FF02C0DD
:104C6000E5FF020ED924006E000EDA20016E800EE0
:104C7000026E030E0026000E012202220250E56E93
:104C80000150E56E0050E56E040EDBCFE5FF030E2C
:104C9000DBCFE5FF020EDBCFE5FF04013751E56E08
:104CA0003651E56E3551E56E0EEC00F0006EF3CF37
:104CB00001F0090EE12601C0F3FF0050E4CF02F03D
:104CC000E4CF01F0E4CF00F0E4CFD9FF1200D9CF58
:104CD000E5FFE1CFD9FF00C0E5FF01C0E5FF02C05D
:104CE000E5FF03C0E5FF020EDBCF00F0030EDBCFD4
:104CF00001F0040EDBCF02F0030183510DE186ECDD
:104D00002DF0036E03C0E5FF00C0E9FF01C0F3FF13
:104D10000250BCEC2FF00FD003018351010A0BE1CC
:104D200000C0E9FF01C0F3FF0250C4EC2EF0E56EB5
:104D3000F4EC2AF0E652E4CF03F0E4CF02F0E4CF43
:104D400001F0E4CF00F0E4CFD9FF1200D9CFE5FFA6
:104D5000E1CFD9FF00C0E5FF01C0E5FF02C0E5FFDC
:104D600003C0E5FF020EDBCF00F0030EDBCF01F046
:104D70007FC302F080C303F003017F3F01D0802B8B
:104D80000150E56E0250E56E3FEC2BF0E652E65224
:104D90007FC302F080C303F003017F3F01D0802B6B
:104DA0000050E56E0250E56E3FEC2BF0E652E65205
:104DB000E4CF03F0E4CF02F0E4CF01F0E4CF00F061
:104DC000E4CFD9FF1200D9CFE5FFE1CFD9FF00C072
:104DD000E5FF01C0E5FF02C0E5FF03C0E5FF04C039
:104DE000E5FF020EDBCF00F00AC401F0026A014ABF
:104DF000022A0BC403F0046A0150031803E10250B5
:104E0000041801E001D00ED0000E04010A25016E45
:104E1000026A010E022201C0E9FF02C0EAFF00C0DF
:104E2000EFFF0A2BE4CF04F0E4CF03F0E4CF02F06D
:104E3000E4CF01F0E4CF00F0E4CFD9FF1200D9CFE6
:104E4000E5FFE1CFD9FF00C0E5FF01C0E5FF020E9D
:104E5000DBCF00F00050016EFE0E012601C000F015
:104E6000015018E0E56A040EE56EE56A0050E56E53
:104E7000C3EC1CF0006E040EE1260050E56E030E3C
:104E8000E56E09EC2AF0E652E652020E0024030118
:104E9000986F0AD0E56A030EE56E09EC2AF0E65237
:104EA000E652020E0301986FE4CF01F0E4CF00F068
:104EB000E4CFD9FF1200D9CFE5FFE1CFD9FF00C081
:104EC000E5FF01C0E5FF02C0E5FF03C0E5FF020EFC
:104ED000DBCF00F0016A94C302F0036A025000269F
:104EE00003500122E56A800EE56E0150E56E005028
:104EF000E56EC3EC1CF0006EF3CF01F0040EE1266A
:104F0000600E0026000E012200C0E9FF01C0EAFF8A
:104F1000EFCF00F00050E4CF03F0E4CF02F0E4CF95
:104F200001F0E4CF00F0E4CFD9FF120000C0E5FFAC
:104F300001C0E5FF02C0E5FF010E006E65EC29F03F
:104F4000016E01C002F0015023E00050E56E20EC3C
:104F50002FF0016EE652015010E10A0E005C0BE2E8
:104F60000A0E006EE56E20EC2FF0016EE652015045
:104F700004E1E8680ED0E8680CD00150021802E0A5
:104F8000E86807D0002A1B0E005CD8E3E86801D06F
:104F9000E86AE4CF02F0E4CF01F0E4CF00F01200C1
:104FA00000C0E5FF01C0E5FF02C0E5FF03C0E5FF6B
:104FB0003BEC29F0006EF3CF01F0F4CF02F0E9CF23
:104FC00003F0E56AE56A030EE56EE80EE56E035050
:104FD000E56E0250E56E0150E56E0050E56E51EC55
:104FE00014F0006EF3CF01F0F4CF02F0E9CF03F03C
:104FF000080EE12603C0E9FF02C0F4FF01C0F3FF81
:105000000050E4CF03F0E4CF02F0E4CF01F0E4CFAE
:1050100000F01200D9CFE5FFE1CFD9FF00C0E5FFD6
:1050200001C0E5FF02C0E5FF03C0E5FF020EDBCFD4
:1050300000F0060EE56E83EC2BF0016EE652F80EE2
:105040000116040E005C03E3070E006E07D000504B
:10505000026E0244FE0B036E0328006E0150001224
:105060000050E56E060EE56E09EC2AF0E652E652B7
:10507000E4CF03F0E4CF02F0E4CF01F0E4CF00F09E
:10508000E4CFD9FF1200D9CFE5FFE1CFD9FF00C0AF
:10509000E5FF01C0E5FF02C0E5FF03C0E5FF020E2A
:1050A000DBCF00F0030EDBCF01F0040EDBCF02F00C
:1050B000050EDBCF03F00350E56E0250E56E0150A4
:1050C000E56E0050E56E75EC1BF0040EE126700EE7
:1050D000E56E070EE56E09EC2AF0E652E652E4CFE3
:1050E00003F0E4CF02F0E4CF01F0E4CF00F0E4CF2E
:1050F000D9FF120000C0E5FF01C0E5FF02C0E5FFD7
:1051000003C0E5FF7FC300F080C301F003017F3FD0
:1051100001D0802B0050E56E20EC2FF0E652036E9C
:10512000026A7FC300F080C301F003017F3F01D01A
:10513000802B0050E56E20EC2FF0E652016A02123F
:105140000150031203C0F3FF0250E4CF03F0E4CF99
:1051500002F0E4CF01F0E4CF00F0120000C0E5FF60
:1051600001C0E5FF02C0E5FF006E390E04010F2506
:10517000016E026A040E022201C0E9FF02C0EAFFCA
:1051800000C0EFFF220E0F5D01E20F2B00500A0A54
:105190000FE104010F51E56E800EE56E040EE56E21
:1051A000390EE56E96EC17F0040EE12604010F6B44
:1051B000E4CF02F0E4CF01F0E4CF00F012000401EC
:1051C0000A6B04010B6B04010C6994808B90948032
:1051D000B06A3F0EAF6EB886AC8AAC84AC8CAC9033
:1051E000AB8CAB8E03018B6B0301856B0301886B6A
:1051F0000301896B03018A6B000EE56A20EC2FF036
:1052000004010E6FE6529F989F9A010E04010D6FE4
:105210000401356B366B2F0E376F2EEC2FF012001A
:10522000D9CFE5FFE1CFD9FF00C0E5FF01C0E5FF21
:10523000020EDBCF00F0000EE56A83EC2BF0016E6E
:10524000E652F30E0116005007E00050010A02E199
:10525000018602D0018601840150E56E000EE56AE8
:1052600009EC2AF0E652E652E4CF01F0E4CF00F078
:10527000E4CFD9FF1200040108510401906F04012A
:1052800009510401916FD6508E6FD7508F6F905196
:105290000401081905E104019151040109190CE008
:1052A000040108510401906F040109510401916F38
:1052B000D6508E6FD7508F6F91C4E9FF90C4F4FF22
:1052C0008FC4F3FF04018E51120000C0E5FF01C03E
:1052D000E5FF030189510301921905E0030189519A
:1052E0000301881902E1E86A15D089C300F00301BF
:1052F000892B016A600E0026000E012200C0E9FF22
:1053000001C0EAFFEFCF00F08951800A02E10301FA
:10531000896B0050E4CF01F0E4CF00F01200D9CF48
:10532000E5FFE1CFD9FF00C0E5FF01C0E5FF02C006
:10533000E5FF020EDBCF00F0030EDBCF01F00F0E16
:1053400000160038F00B026E0F0E0116015002120B
:105350000250E56E040EE56E09EC2AF0E652E652C4
:10536000E4CF02F0E4CF01F0E4CF00F0E4CFD9FFC6
:10537000120000C0E5FF01C0E5FF02C0E5FF006AC2
:10538000000EE56A83EC2BF0016EE6520C0E01165E
:10539000010EE56E83EC2BF0026EE65201B602D0F0
:1053A000025007E001A403D0020E006E02D0010EED
:1053B000006E0050E4CF02F0E4CF01F0E4CF00F043
:1053C000120000C0E5FF1D0EE56E83EC2BF0006EB1
:1053D000E652060E00120050E56E1D0EE56E09EC59
:1053E0002AF0E652E6521C0EE56E83EC2BF0006EBE
:1053F000E652030E00120050E56E1C0EE56E09EC3D
:105400002AF0E652E652010E0301976FE4CF00F056
:105410001200D9CFE5FFE1CFD9FF00C0E5FF01C001
:10542000E5FF020EDBCF00F0030EDBCF01F017EC3F
:1054300030F01F0E0016008A0050E56E74EC2FF05D
:10544000006EE6520150E56E74EC2FF0E65211EC5E
:1054500030F00050E4CF01F0E4CF00F0E4CFD9FF0A
:10546000120000C0E5FF000EE56E2E0EE56E0E0E7A
:10547000E56E27EC26F0030EE1260401006B00EC3C
:1054800012F01CEC2EF0006E00500FE0010E040133
:10549000006FCDEC2AF0020EE56E000EE56A8FEC8F
:1054A00029F0E652E652D5EC2EF0E4CF00F01200DF
:1054B00000C0E5FF26EC30F00401896B806B898326
:1054C000006A89B3002A0050010BE844F46E805151
:1054D000FD0BF410806FD58ED59CD59AD588D596C6
:1054E000D594D582D580F28AF184D08EF28EF28C5A
:1054F000BA80FF0EBB68BA84E4CF00F01200D9CFA7
:10550000E5FFE1CFD9FF00C0E5FF01C0E5FF020ED6
:10551000DBCF00F00050020DF450016EF3CF00F02D
:10552000200E0026030E012200C0E9FF01C0EAFFA1
:10553000EECF00F0EFCF01F001C0F3FF0050E4CF59
:1055400001F0E4CF00F0E4CFD9FF1200D9CFE5FF9E
:10555000E1CFD9FF00C0E5FF01C0E5FF020EDBCFC0
:1055600000F00050020DF450016EF3CF00F05C0E1D
:105570000026040E012200C0E9FF01C0EAFFEECFC1
:1055800000F0EFCF01F001C0F3FF0050E4CF01F0D5
:10559000E4CF00F0E4CFD9FF120000C0E5FF1D0EFC
:1055A000E56E83EC2BF0006EE65200840050E56E51
:1055B0001D0EE56E09EC2AF0E652E6521C0EE56E71
:1055C00083EC2BF0006EE6523F0E00120050E56EA9
:1055D0001C0EE56E09EC2AF0E652E652010E0301BC
:1055E000976FE4CF00F01200D9CFE5FFE1CFD9FFEC
:1055F00000C0E5FF01C0E5FF02C0E5FF020EDBCF02
:1056000000F07FC301F080C302F003017F3F01D0AF
:10561000802B0050E56E0150E56E3FEC2BF0E6521A
:10562000E652E4CF02F0E4CF01F0E4CF00F0E4CFA3
:10563000D9FF120000C0E5FF17EC30F0600EE56EF8
:1056400074EC2FF0E652FF0EE56874EC2FF0006E5C
:10565000E65211EC30F0210E005C0DE30BEC30F063
:10566000E56AE56AE56A020EE56E95EC12F0040E55
:10567000E126E86A01D00050E4CF00F01200D9CF53
:10568000E5FFE1CFD9FF00C0E5FF020EDBCF00F060
:10569000030EDBCFA8FF00C0A9FFA69EA69CA68490
:1056A000F29EF29C550EA76EAA0EA76EA682A6A227
:1056B00002D00000FCD7A694F28EF28CE4CF00F06A
:1056C000E4CFD9FF1200D9CFE5FFE1CFD9FF00C069
:1056D000E5FF020EDBCF00F0005009E03F0EE56E63
:1056E000010EE56E09EC2AF0E652E65207D0E56AB3
:1056F000010EE56E09EC2AF0E652E652E4CF00F026
:10570000E4CFD9FF1200D9CFE5FFE1CFD9FF00C028
:10571000E5FF020EDBCF00F017EC30F01F0E001695
:105720000050E56E74EC2FF0E652FF0EE56874EC65
:105730002FF0006EE65211EC30F00050E4CF00F094
:10574000E4CFD9FF1200E8AE0AD0F3CFEAFFEE5063
:10575000EECFF3FFEECFF4FFEECFE9FF1200E8BC8F
:1057600042EF30F0E9CFF6FFF3CFF7FFF86E090014
:10577000F5500900F5CFF3FF0900F5CFF4FF09005C
:10578000F5CFE9FF120000C0E5FF01C0E5FF04010D
:105790000A5104010B1902E1E86A0FD0000E04015E
:1057A0000B25006E016A010E012200C0E9FF01C055
:1057B000EAFFEFCF00F00B2B0050E4CF01F0E4CF75
:1057C00000F0120000C0E5FF01C0E5FF060EE56E27
:1057D00083EC2BF0006EE652280E00160050200AD3
:1057E00003E1020E016E07D00050080A03E1010E2A
:1057F000016E01D0016A0150E4CF01F0E4CF00F066
:10580000120000C0E5FF000EE56A83EC2BF0006E8D
:10581000E65200B212D000820050E56E000EE56A3A
:1058200009EC2AF0E652E652E56AE56AE56A050EF9
:10583000E56E95EC12F0040EE126E4CF00F01200C4
:10584000F2CFEAFFF29EA69EA69CA684E9CFA9FF0E
:10585000F3CFAAFFE4CFA8FFDAEC2FF0F4CFA8FF34
:10586000DAEC2FF0F6CFA8FFDAEC2FF0F7CFA8FF95
:10587000DAEC2FF0A694EABEF28E1200F2CFF6FF19
:10588000F29EA69EA69CE9CFA9FFF3CFAAFFA68011
:10589000A850A94AAA2AA680A8CFF3FFA94AAA2AF3
:1058A000A680A8CFF4FFA94AAA2AA680A8CFEAFF1B
:1058B000F6BEF28E1200D9CFE5FFE1CFD9FF00C0CE
:1058C000E5FF020EDBCF00F0005002E08A8A01D033
:1058D0008A9AE56AE56AE56A050EE56E2AEC13F038
:1058E000040EE126E4CF00F0E4CFD9FF1200D9CFB7
:1058F000E5FFE1CFD9FF00C0E5FF020EDBCF00F0EE
:105900007D0E005C02E37D0E006E0050E56E050E1C
:10591000E56E09EC2AF0E652E652E4CF00F0E4CF5F
:10592000D9FF1200E8AE08D0F3CFEAFFEE50EECF79
:10593000F3FFEECFF4FF1200E8BC4AEF30F0E9CFFE
:10594000F6FFF3CFF7FFF86E0900F5500900F5CF29
:10595000F3FF0900F5CFF4FF1200F2CFEAFFF29E49
:10596000A69EA69CA684E9CFA9FFF3CFAAFFE4CF09
:10597000A8FFDAEC2FF0F4CFA8FFDAEC2FF0F6CF87
:10598000A8FFDAEC2FF0A694EABEF28E120000C057
:10599000E5FF000EE56A6AEC2EF0E652000EE56ABD
:1059A00083EC2BF0006EE65200920050E56E000E84
:1059B000E56A09EC2AF0E652E652E4CF00F0120064
:1059C000D9CFE5FFE1CFD9FF00C0E5FF020EDBCF65
:1059D00000F017EC30F00050E56E74EC2FF0006E24
:1059E000E65211EC30F00050E4CF00F0E4CFD9FFE4
:1059F0001200D9CFE5FFE1CFD9FF00C0E5FF020ECD
:105A0000DBCF00F000C00EF40050E56E000EE56A3A
:105A10003FEC2BF0E652E652E4CF00F0E4CFD9FFA2
:105A20001200100EE56E070EE56E09EC2AF0E65244
:105A3000E652E30EE56EE0EC2CF0E652000EE56A6D
:105A40006AEC2EF0E652010EE56E6AEC2EF0E6529C
:105A50001200F2CFF6FFF29EA69EA69CE9CFA9FF08
:105A6000F3CFAAFFA680A850A94AAA2AA680A8CF49
:105A7000F3FFA94AAA2AA680A8CFF4FFF6BEF28EA9
:105A8000120000C0E5FF65EC29F0006E4C0A08E149
:105A900065EC29F0300A02E08B8207D08B9205D0AA
:105AA0000050520A02E131EC2AF0E4CF00F012007B
:105AB00000C0E5FF01C0E5FF600E03018925006E0F
:105AC000016A000E012200C0E9FF01C0EAFFEFCF2A
:105AD00000F00050E4CF01F0E4CF00F01200D9CF85
