:020000040000FA
:100000007DEF36F0C69A12004DEF25F0BEEC1CF0E5
:1000100037EC1CF0FDD7120069EF2CF0D9CFE5FFCB
:10002000E1CFD9FF00C0E5FF01C0E5FF02C0E5FF59
:1000300003C0E5FF04C0E5FF05C0E5FF06C0E5FF1E
:1000400007C0E5FF08C0E5FF09C0E5FF0AC0E5FFFE
:100050000BC0E5FF0CC0E5FF0DC0E5FF0EC0E5FFDE
:100060000FC0E5FF10C0E5FF11C0E5FF12C0E5FFBE
:1000700013C0E5FF14C0E5FF15C0E5FF16C0E5FF9E
:1000800017C0E5FF18C0E5FF19C0E5FF1AC0E5FF7E
:100090001BC0E5FF1CC0E5FF1DC0E5FF1EC0E5FF5E
:1000A000020EDBCF00F0030EDBCF01F0040EDBCF3E
:1000B00002F0050EDBCF03F0060EDBCF04F0070ED7
:1000C000DBCF05F0080EDBCF06F0090EDBCF07F023
:1000D0000A0EDBCF08F0096A0A6A02C00DF00D5063
:1000E000800A0DE102500401FF6F0150FE6F0050C5
:1000F000FD6F040E016EFD0E006E800E026E03C0D9
:10010000E9FF04C0F3FF055022EC37F00B6E0B50F3
:10011000D8B4C4EF03F00B50250A02E0ABEF03F0B4
:100120000C6A0D6A0E6A0F6A106A0A0E116E126A64
:10013000136A146A200E156E1668176A2B0E186E55
:10014000032A02E3044A052A03C0E9FF04C0F3FFBF
:10015000055022EC37F0196E250A13E11950E56EAF
:100160000250E56E0150E56E0050E56E20EC1BF08C
:10017000040EE126094A0A2A032A02E3044A052A50
:10018000BED71950300A06E1300E156E032A02E37D
:10019000044A052A03C0E9FF04C0F3FF055022EC1E
:1001A00037F02D0A06E1010E146E032A02E3044A19
:1001B000052A03C0E9FF04C0F3FF055022EC37F025
:1001C000200A08E1010E176E200E186E032A02E3C2
:1001D000044A052A03C0E9FF04C0F3FF055022ECDE
:1001E00037F02B0A06E1010E176E032A02E3044AD8
:1001F000052A03C0E9FF04C0F3FF055022EC37F0E5
:10020000196E310E195C2BE33A0E195C28E203C01B
:1002100019F004C01AF005C01BF019C0E9FF1AC09C
:10022000F3FF1B5022EC37F01C6E300E1C5C11E308
:100230003A0E1C5C0EE213500A0DF3CF1DF01C5059
:100240001D26D00E1D24136E192A02E31A4A1B2AFA
:10025000E4D719C003F01AC004F01BC005F003C0B6
:10026000E9FF04C0F3FF055022EC37F02E0A2DE120
:10027000032A02E3044A052A166A03C019F004C0DF
:100280001AF005C01BF019C0E9FF1AC0F3FF1B509C
:1002900022EC37F01C6E300E1C5C11E33A0E1C5C35
:1002A0000EE216500A0DF3CF1DF01C501D26D00E85
:1002B0001D24166E192A02E31A4A1B2AE4D719C014
:1002C00003F01AC004F01BC005F003C0E9FF04C02E
:1002D000F3FF055022EC37F0196E6C0A07E1010EAE
:1002E0000C6E032A02E3044A052A09D01950680A51
:1002F00006E1010E0E6E032A02E3044A052A03C03A
:10030000E9FF04C0F3FF055022EC37F0750A06E15F
:10031000010E106E032A02E3044A052A03C0E9FF16
:1003200004C0F3FF055022EC37F0196E730A05E1A3
:10033000010E0D6E200E156E3FD01950780A03E1A4
:10034000100E116E39D01950580A05E1100E116EB9
:10035000010E126E31D01950630A02E1116A2CD0DD
:1003600019506F0A03E1080E116E26D01950660A63
:1003700003E1010E0F6E20D01950640A1DE01950E0
:10038000690A1AE0105005E0FF0E03260422052238
:1003900013D01950E56E0250E56E0150E56E005025
:1003A000E56E20EC1BF0040EE126094A0A2A032A16
:1003B00002E3044A052AA3D60D5021E00650030F9C
:1003C0000D6E000E0720196E000E08201A6E0DC06B
:1003D00006F019C007F01AC008F0FD0E0D26FF0E3A
:1003E00019221A220DC0E9FF19C0F3FF1A50DFECE1
:1003F00034F00D6EF3CF19F0F4CF1AF0FDD00F509A
:100400000DE0000E1A6E080E196E100E0D6E040E21
:100410000626000E072208221668EED016680C5039
:1004200023E00650040F0C6E000E07200F6E000E26
:1004300008201B6E0CC006F00FC007F01BC008F0B0
:10044000FC0E0C26FF0E0F221B220CC0E9FF0FC072
:10045000F3FF1B50B2EC33F00C6EF3CF0FF0F4CF80
:100460001BF0E9CF1CF067D00E502FE00650020FB2
:100470000E6E000E07201D6E000E08201E6E0EC0B0
:1004800006F01DC007F01EC008F0FE0E0E26FF0E7F
:100490001D221E220EC0E9FF1DC0F3FF1E5015ECE9
:1004A00036F00E6E0EC00CF00F6A1B6A1C6A1150FB
:1004B0000A0A03E11050D8B43ED00C500E6E0EC0A4
:1004C0000CF00F6A1B6A1C6A36D00650020F0E6EC3
:1004D000000E07201D6E000E08201E6E0EC006F0D6
:1004E0001DC007F01EC008F0FE0E0E26FF0E1D22D6
:1004F0001E220EC0E9FF1DC0F3FF1E5015EC36F0A2
:100500000E6EF3CF1DF00EC00CF01DC00FF0E86AA8
:100510001DBEFF0E1B6E1C6E11500A0A02E1105028
:100520000AE00C500E6E0F501D6E0EC00CF01DC078
:100530000FF01B6A1C6A040E196EE30E0D6E800E1E
:100540001A6E1150D8B440D0105013E01150E56E1F
:10055000040EE56EE30EE56E1C50E56E1B50E56E75
:100560000F50E56E0C50E56E89EC10F0070EE12699
:1005700012D01150E56E040EE56EE30EE56E1C50D0
:10058000E56E1B50E56E0F50E56E0C50E56E8AEC83
:1005900024F0070EE12617502FE00DC0E9FF19C027
:1005A000F3FF1A5022EC37F02D0A26E0FF0E0D263D
:1005B00019221A2218C0E5FF0DC0E9FF19C0F3FF88
:1005C0001A500BEC38F018D00CC0E5FF0DC0E9FF55
:1005D00019C0F3FF1A500BEC38F00D50010F0C6EE0
:1005E000000E19200E6E000E1A20E56A0CC0E9FFFD
:1005F0000EC0F3FF0BEC38F00DC00CF019C00EF07C
:100600001AC00FF013C010F0105010E00CC0E9FF3A
:100610000EC0F3FF0F5022EC37F0176E175006E0B4
:100620000C2A02E30E4A0F2A1006EED710C013F070
:1006300014501EE109C00CF00AC00EF010C00FF0FB
:100640000F5010E01550E56E0250E56E0150E56E5A
:100650000050E56E20EC1BF0040EE1260C4A0E2A39
:100660000F06EED70CC009F00EC00AF00FC013F051
:1006700016C00CF00DC00DF019C00EF01AC00FF02E
:1006800009C010F00AC015F00DC0E9FF0EC0F3FF5D
:100690000F5022EC37F0166E1650D8B43ED00CC076
:1006A00016F0176A161E171E1650171005E00CC01C
:1006B00016F00C06165031E00DC0E9FF0EC0F3FF36
:1006C0000F5022EC37F0116E125010E01150E56E11
:1006D000BCEC35F0166EE652165004E0DF0E111435
:1006E000166E02D011C016F016C011F01150E56E52
:1006F0000250E56E0150E56E0050E56E20EC1BF0F7
:10070000040EE1260D2A02E30E4A0F2A104A152A8A
:100710001350D8B4B9D71306B7D710C009F015C015
:100720000AF014502BE010C00CF015C00DF013C0EF
:100730000EF00E501FE0200EE56E0250E56E0150E7
:10074000E56E0050E56E20EC1BF0040EE1260C4A2D
:100750000D2A0E06EED70B50E56E0250E56E0150E5
:10076000E56E0050E56E20EC1BF0040EE126094A10
:100770000A2A04D00CC009F00DC00AF0032A02E3D3
:10078000044A052A7FEF00F00AC0F3FF0950E4CFC6
:100790001EF0E4CF1DF0E4CF1CF0E4CF1BF0E4CF5B
:1007A0001AF0E4CF19F0E4CF18F0E4CF17F0E4CF5B
:1007B00016F0E4CF15F0E4CF14F0E4CF13F0E4CF5B
:1007C00012F0E4CF11F0E4CF10F0E4CF0FF0E4CF5B
:1007D0000EF0E4CF0DF0E4CF0CF0E4CF0BF0E4CF5B
:1007E0000AF0E4CF09F0E4CF08F0E4CF07F0E4CF5B
:1007F00006F0E4CF05F0E4CF04F0E4CF03F0E4CF5B
:1008000002F0E4CF01F0E4CF00F0E4CFD9FF120012
:100810003C4E4F20464C4F41543E000000C0E5FF87
:1008200001C0E5FF02C0E5FF03C0E5FF04C0E5FF2E
:1008300005C0E5FF06C0E5FF07C0E5FF08C0E5FF0E
:1008400009C0E5FF0AC0E5FFC2A204D00401D051EF
:1008500049EF06F00401D151D8B431D10401D0518F
:10086000020DF450016EF3CF00F0390E0026040E95
:10087000012200C0E9FF01C0EAFFEECF00F0EFCF98
:1008800001F0230ED025026E036A040E032202C07B
:10089000E9FF03C0EAFFEFCF02F00250FF0A01E1D7
:1008A00066D002380F0B036E920E0324046E056AA5
:1008B0000F0E0522066A920E03260F0E062203C0B3
:1008C000E9FF06C0EAFFEFCF03F00250066E070E05
:1008D0000616010E076E06500DE006E6E86CD8908D
:1008E0000736010FFDE306D0D89007BED880073247
:1008F000010FFBE3071C066E0350061604C0E9FF58
:1009000005C0EAFF06C0EFFF02380F0B036E890E29
:100910000324046E056A0F0E0522066A890E03265B
:100920000F0E062203C0E9FF06C0EAFFEFCF03F077
:100930000250066E070E0616010E076E06500DE0F9
:1009400006E6E86CD8900736010FFDE306D0D89094
:1009500007BED8800732010FFBE3071C066E035069
:10096000061604C0E9FF05C0EAFF06C0EFFF040158
:10097000D051020DF450046EF3CF03F0390E03266C
:10098000040E042200380F0B056E0138066EF00BC2
:10099000061A052606320532F80E06B4062605505C
:1009A000005C056E06500158066EC3CF07F0086A5A
:1009B0000750052608500622C4CF07F0086A0750E2
:1009C0000A6E096A095005260A50062203C0E9FF8B
:1009D00004C0EAFF05C0EEFF06C0EFFF0401CC51E2
:1009E000010A01E06AD00401D051020DF450046EF6
:1009F000F3CF03F0390E0324056E040E0420066EB7
:100A000005C0E9FF06C0EAFFEECF00F0EFCF01F02E
:100A1000200E0326030E042203C0E9FF04C0EAFFF0
:100A2000EECF05F0EFCF06F09C0E0526D8A0060607
:100A30000150800FF36E0650800FF35C02E1055009
:100A4000005C0EE20050640F056E000E0120066E81
:100A500003C0E9FF04C0EAFF05C0EEFF06C0EFFFD8
:100A60000401D051020DF450046EF3CF03F0400E98
:100A70000326030E042203C0E9FF04C0EAFFEECF01
:100A800005F0EFCF06F0640E0526D8B0062A065012
:100A9000800FF36E0150800FF35C02E10050055CA3
:100AA0000CE29C0E0026D8A0010603C0E9FF04C09A
:100AB000EAFF00C0EEFF01C0EFFF0401D16B0401AB
:100AC000D02B100ED05D01E3D06B0401D039E84487
:100AD0001F0B006E016ACF0E0026030E012200C01C
:100AE000E9FF01C0EAFFEFCF00F0D0C401F0070E2C
:100AF0000116010E036E000E046E015006E0E86C54
:100B0000D89003360436010FFCE3056A0050031643
:100B10000550041603500410D880E866D890036A84
:100B200003360350D8A4B3D0230E0401D025006EA1
:100B3000016A0F0E012200C0E9FF01C0EAFFEFCFFA
:100B400000F00044E844FC0B016E0128C26E230E45
:100B5000D025006E016A040E012200C0E9FF01C029
:100B6000EAFFEFCF02F00250FF0A01E18CD0023819
:100B70000F0B006E920E0024016E036A0F0E03220B
:100B8000046A920E00260F0E042200C0E9FF04C082
:100B9000EAFFEFCF00F00250046E070E0416010EBC
:100BA000056E04500DE006E6E86CD8900536010F9E
:100BB000FDE306D0D89005BED8800532010FFBE3D7
:100BC0000050051201C0E9FF03C0EAFF05C0EFFFB6
:100BD000380E006E0F0E016E02380F0B036E046AA2
:100BE0000350002604500122380E056E0F0E066ECB
:100BF000055003260650042203C0E9FF04C0EAFFA3
:100C0000EFCF03F0070E0216010E046E02500DE046
:100C100006E6E86CD8900436010FFDE306D0D890C4
:100C200004BED8800432010FFBE30350041200C05D
:100C3000E9FF01C0EAFF04C0EFFF0F014583000098
:100C4000000045930F0144930BC0E5FFF2CF0BF07A
:100C5000F29E44810000000000000000000000003F
:100C60000000000000000000000000000000000084
:100C700000000000000000000000000044910BBED6
:100C8000F28EE4CF0BF0C282010E0401D16F040199
:100C9000D051E4CF0AF0E4CF09F0E4CF08F0E4CF7C
:100CA00007F0E4CF06F0E4CF05F0E4CF04F0E4CFA2
:100CB00003F0E4CF02F0E4CF01F0E4CF00F0120043
:100CC00000C0E5FF01C0E5FF02C0E5FF03C0E5FF8E
:100CD00004C0E5FF05C0E5FF06C0E5FF07C0E5FF6E
:100CE00008C0E5FF09C0E5FF0AC0E5FF0BC0E5FF4E
:100CF0000CC0E5FF006A016A026A040E025CD8B00B
:100D0000ECD101C003F0012A100E035CD8B0E5D18C
:100D10000401D22B100ED25D01E3D26B0401D23953
:100D2000E8441F0B036E046ACF0E0326030E042251
:100D300003C0E9FF04C0EAFFEFCF03F0D2C404F020
:100D4000070E0416010E056E000E066E045006E036
:100D5000E86CD89005360636010FFCE3076A0350AD
:100D600005160750061605500610D880E866D8907C
:100D7000056A05360550D8A4C0D70401D251020D2A
:100D8000F450046EF3CF03F0390E0324056E040E05
:100D90000420066E05C0E9FF06C0EAFFEECF05F0AD
:100DA000EFCF06F0CFC407F007A09DD0200E03249C
:100DB000076E030E0420086E07C0E9FF08C0EAFFB3
:100DC000EECF07F0EFCF08F00650800FF36E08501B
:100DD000800FF35C02E10750055C03E2056A066AD6
:100DE00060D0400E0326030E042203C0E9FF04C0B6
:100DF000EAFFEECF03F0EFCF04F00450800FF36E64
:100E00000650800FF35C02E10550035C04E20568C4
:100E10003F0E066E46D00750055C096E0850065816
:100E20000A6EE86A0ABEFF0E0B6EE56E0B50E56EA9
:100E30000A50E56E0950E56EE56AE56A400EE56E1A
:100E4000000EE56A0DEC0BF0096EF3CF0AF0F4CF5B
:100E50000BF0E9CF0CF0080EE1260750035C076E9B
:100E600008500458086EE86A08BEFF0E036EE56E6F
:100E70000350E56E0850E56E0750E56E0C50E56EC8
:100E80000B50E56E0A50E56E0950E56E76EC19F0F0
:100E9000036EF3CF04F0080EE1260350056E0450F4
:100EA000066E0401CE51800FF36E0650800FF35C86
:100EB00002E10550CD5D03E3056A066A14D0040122
:100EC000CD51FF08036E3F0ECE55046E0650800FC5
:100ED000F36E0450800FF35C02E10350055C03E302
:100EE00005683F0E066E0401D251020DF450046EE7
:100EF000F3CF03F0000E0326030E042203C0E9FF24
:100F000004C0EAFFEECF03F0EFCF04F00350055C1E
:100F1000036E04500658046ED88004AED89004E3E3
:100F2000041E036CD8B4042A022A0401CE51800F97
:100F3000F36E0450800FF35C02E10350CD5DD8B036
:100F4000DCD60401D251020DF450086EF3CF07F045
:100F5000000E0726030E082207C0E9FF08C0EAFFBB
:100F600005C0EEFF06C0EFFFCFC407F007A459D0BD
:100F7000D251020DF450086EF3CF07F0600E072433
:100F8000096E030E08200A6E09C0E9FF0AC0EAFFD5
:100F9000EECF0BF0EFCF0CF00B500C10D8B441D0CB
:100FA000590E0726040E082207C0E9FF08C0EAFF11
:100FB000EECF07F0EFCF08F00750055C036E085046
:100FC0000658046E03101CE00450800F800F02E1ED
:100FD000010E035C076A07360C50800F800F02E198
:100FE000010E0B5C0B6A0B3607500B1809E109C0A8
:100FF000E9FF0AC0EAFF03C0EEFF04C0EFFF7DD6A1
:101000000401D251020DF450046EF3CF03F0600ED0
:101010000326030E042203C0E9FF04C0EAFFEE6AC0
:10102000EF6ACFC403F003A244D000500EE100C029
:1010300003F0002A046AD30E0326040E042203C020
:10104000E9FF04C0EAFF420EEF6E00C003F0002A81
:10105000046AD30E0326040E04220401D251076E43
:10106000640E072603C0E9FF04C0EAFF07C0EFFFD4
:1010700000C003F0002A046AD30E0326040E0422E3
:101080000650076E03C0E9FF04C0EAFF07C0EFFF88
:1010900000C003F0002A046AD30E0326040E0422C3
:1010A0000550076E03C0E9FF04C0EAFF07C0EFFF69
:1010B00024D6D2C403F00650E56E0550E56EE56A0D
:1010C0000350E56E000EE56E3D0EE56E900EE56E8A
:1010D0002BEC2DF0070EE12610D602C001F00050D7
:1010E0001EE0CFC402F002A21AD000C002F0002A13
:1010F000036AD30E0226040E032202C0E9FF03C0D6
:10110000EAFF0A0EEF6E0050E56E800EE56E040EEB
:10111000E56ED30EE56EC8EC1DF0040EE12601501D
:10112000E4CF0CF0E4CF0BF0E4CF0AF0E4CF09F009
:10113000E4CF08F0E4CF07F0E4CF06F0E4CF05F009
:10114000E4CF04F0E4CF03F0E4CF02F0E4CF01F009
:10115000E4CF00F01200800EE56E030EE56E400E47
:10116000E56EAEEC28F0030EE126800EE56E030E70
:10117000E56E200EE56EAEEC28F0030EE126800E43
:10118000E56E030EE56E420EE56EAEEC28F0030E42
:10119000E126800EE56E030EE56E220EE56EAEECE6
:1011A00028F0030EE126800EE56E030EE56E440E78
:1011B000E56EAEEC28F0030EE126800EE56E030E20
:1011C000E56E240EE56EAEEC28F0030EE126800EEF
:1011D000E56E030EE56E460EE56EAEEC28F0030EEE
:1011E000E126800EE56E030EE56E260EE56EAEEC92
:1011F00028F0030EE126800EE56E030EE56E480E24
:10120000E56EAEEC28F0030EE126800EE56E030ECF
:10121000E56E280EE56EAEEC28F0030EE126800E9A
:10122000E56E030EE56E4A0EE56EAEEC28F0030E99
:10123000E126800EE56E030EE56E2A0EE56EAEEC3D
:1012400028F0030EE126800EE56E030EE56E4C0ECF
:10125000E56EAEEC28F0030EE126800EE56E030E7F
:10126000E56E2C0EE56EAEEC28F0030EE126800E46
:10127000E56E030EE56E4E0EE56EAEEC28F0030E45
:10128000E126800EE56E030EE56E2E0EE56EAEECE9
:1012900028F0030EE126800EE56E030EE56E500E7B
:1012A000E56EAEEC28F0030EE126800EE56E030E2F
:1012B000E56E300EE56EAEEC28F0030EE126800EF2
:1012C000E56E030EE56E520EE56EAEEC28F0030EF1
:1012D000E126800EE56E030EE56E320EE56EAEEC95
:1012E00028F0030EE126800EE56E030EE56E540E27
:1012F000E56EAEEC28F0030EE126800EE56E030EDF
:10130000E56E340EE56EAEEC28F0030EE126800E9D
:10131000E56E030EE56E560EE56EAEEC28F0030E9C
:10132000E126800EE56E030EE56E360EE56EAEEC40
:1013300028F0030EE126800EE56E030EE56E580ED2
:10134000E56EAEEC28F0030EE126800EE56E030E8E
:10135000E56E380EE56EAEEC28F0030EE126800E49
:10136000E56E030EE56E5A0EE56EAEEC28F0030E48
:10137000E126800EE56E030EE56E3A0EE56EAEECEC
:1013800028F0030EE126800EE56E030EE56E5C0E7E
:10139000E56EAEEC28F0030EE126800EE56E030E3E
:1013A000E56E3C0EE56EAEEC28F0030EE126800EF5
:1013B000E56E030EE56E5E0EE56EAEEC28F0030EF4
:1013C000E126800EE56E030EE56E3E0EE56EAEEC98
:1013D00028F0030EE126120000C0E5FF01C0E5FF82
:1013E00002C0E5FF03C0E5FF0401C951D8B40CD128
:1013F0009DA81DD09EA81BD00301DC510301D91963
:1014000005E17DEC37F00301D96BFED0000E03013E
:10141000DC25006E016A040E012200C0E9FF01C054
:10142000EAFFEFCFD5F3DC2BD5C3ADFFEDD09DAAFE
:10143000EBD09EAAE9D0ABA205D00301DA817DEC06
:1014400037F0E2D0ABA405D00301DA837DEC37F0AE
:10145000DBD0ABA048D0AECFD5F3CAC400F0016A50
:10146000008ED5C302F0036A0250001803E1035056
:10147000011801E004D00301DA89AB96C5D003015D
:10148000D55104E0D5510401CA1929E10301DA99C3
:10149000AB960301D55103E00301DA9702D00301B3
:1014A000DA87D5C3DEF3D7C3DFF30301D751006E6C
:1014B00000040301E06F600E0301DF25006E016A86
:1014C000000E012200C0E9FF01C0EAFFD5C3EFFF13
:1014D000DF2BDF51800A02E10301DF6B95D00301AE
:1014E000DA99AB8691D0AECFD5F30301DAA921D03A
:1014F000CAC400F0016A008ED5C302F0036A02502C
:10150000001803E10350011801E011D09D9AAB9837
:1015100094900301D95104E1AD6A7DEC37F007D016
:1015200000C4ADFF010E0301DC6F9D886DD0AB865A
:101530006BD00301D5510301DE270301DF51030105
:10154000E0191BE10301DE510CE1DFC3D7F3030116
:10155000DAB712D09D9AAB989490AD6A7DEC37F0D3
:101560000BD00301DA85DAB707D09D9AAB98949037
:10157000010EAD6E7DEC37F047D00301DF51030162
:10158000D81908E10301D8510301D71903E07DEC14
:1015900037F03AD0D7C300F0016A004A012AE56A61
:1015A000800EE56E0150E56E0050E56E0AEC22F00B
:1015B000006E040EE12600500301D66F0301DF190F
:1015C0000FE1D5C300F01F0E00140301E06F006EA1
:1015D000020E0024E06F0301D7510301E027E09FD2
:1015E000DFC300F00301DF2B016A600E0026000E4E
:1015F000012200C0E9FF01C0EAFFD5C3EFFFDF51C0
:10160000800A02E10301DF6BE4CF03F0E4CF02F0D4
:10161000E4CF01F0E4CF00F01200D9CFE5FFE1CF35
:10162000D9FF00C0E5FF01C0E5FF02C0E5FF03C030
:10163000E5FF04C0E5FF05C0E5FF06C0E5FF07C004
:10164000E5FF020EDBCF00F0030EDBCF01F0040E4E
:10165000DBCF02F0050EDBCF03F0060EDBCF04F08C
:10166000070EDBCF05F0080EDBCF06F0090EDBCF4F
:1016700007F000500301B96F0150BA6F0250BB6F01
:101680000350BC6F04500301BD6F0550BE6F065080
:10169000BF6F0750C06F0301B9510301BF03F4CFFF
:1016A00001F0F3CF00F000500301C36F0150C46F8D
:1016B0000301B9510301BD03F4CF01F0F3CF00F0F2
:1016C00000500301C16F0150C26F0301BC510301FF
:1016D000BD03F3CF00F00301C45100260050C46FD6
:1016E0000301BB510301BE03F3CF01F001500026FB
:1016F00000500301C46F0301BB510301BD03F4CFCC
:1017000001F0F3CF00F00301C3510026C4510122C0
:101710000050C36F0150C46F0301BA510301BE03EF
:10172000F4CF03F0F3CF02F0025000260350012261
:1017300000500301C36F0150C46F0301BA5103018C
:10174000BF03F3CF00F000500301C86F0301BA518B
:101750000301BD03F4CF01F0F3CF00F0005003010B
:10176000C66F0150C76F0301B9510301C003F3CF26
:1017700000F000500301CC6F0301B9510301BE0317
:10178000F4CF01F0F3CF00F000500301CA6F015015
:10179000CB6F0301C56B0301C96B0301C551030185
:1017A000C125006E0301C6510301C221016E030170
:1017B000C7510301C321026E0301C8510301C421B3
:1017C000036E0050C16F0150C26F0250C36F0350CF
:1017D000C46F0301C9510301C125006E0301CA5141
:1017E0000301C221016E0301CB510301C321026E2B
:1017F0000301CC510301C421036E03C0E9FF02C001
:10180000F4FF01C0F3FF0050E4CF07F0E4CF06F08F
:10181000E4CF05F0E4CF04F0E4CF03F0E4CF02F02E
:10182000E4CF01F0E4CF00F0E4CFD9FF1200D9CF2C
:10183000E5FFE1CFD9FF00C0E5FF01C0E5FF02C031
:10184000E5FF03C0E5FF04C0E5FF05C0E5FF06C0F6
:10185000E5FF07C0E5FF08C0E5FF09C0E5FF0AC0D6
:10186000E5FF020EDBCF00F0030EDBCF01F0040E2C
:10187000DBCF02F0050EDBCF03F000501BE103507D
:10188000096E0250086E0150076EE7C30AF0E56A60
:101890000A50E56E0950E56E0850E56E0750E56E9A
:1018A000800EE56E040EE56E8A0EE56ECEEC1EF03F
:1018B000080EE126070E005CD8B092D0020E005C44
:1018C00022E2460E0024046E056A700E0522066AA6
:1018D000000E062204C0F6FF05C0F7FF06C0F8FFA1
:1018E0000900F5CF04F00301E751E56E0350E56E02
:1018F0000250E56E0150E56E0450E56EB7EC27F03E
:10190000050EE12620D0460E0024046E056A700EF6
:101910000522066A000E062204C0F6FF05C0F7FF86
:1019200006C0F8FF0900F5CF04F0010EE56E035084
:10193000E56E0250E56E0150E56E0450E56EB7ECC1
:1019400027F0050EE1264C0E0024016E026A700E8F
:101950000222036A000E032201C0F6FF02C0F7FF55
:1019600003C0F8FF0900F5CF01F00301E551E56E72
:101970000150E56ED4EC31F0E652E652020EE56E0F
:1019800092EC33F0016EE652026A036A400E0026C2
:10199000700E0222000E032200C0F6FF02C0F7FF05
:1019A00003C0F8FF0900F5CF00F0010E026E0050F1
:1019B0000DE006E6E86CD8900236010FFDE306D094
:1019C000D89002BED8800232010FFBE30150021210
:1019D0000250E56E020EE56ED4EC31F0E652E652AE
:1019E000E4CF0AF0E4CF09F0E4CF08F0E4CF07F049
:1019F000E4CF06F0E4CF05F0E4CF04F0E4CF03F049
:101A0000E4CF02F0E4CF01F0E4CF00F0E4CFD9FF5F
:101A10001200E70E0401F86FF96FFA6FFB6FFC6FAD
:101A2000C20E0301A06FA16FA26FA36FA46F080E77
:101A3000E56E000EE56AD4EC31F0E652E6523F0E58
:101A4000E56E010EE56ED4EC31F0E652E652030E7F
:101A5000E56E020EE56ED4EC31F0E652E652030E6E
:101A6000E56EE56ED4EC31F0E652E652030EE56E1B
:101A7000040EE56ED4EC31F0E652E652020EE56E4D
:101A8000050EE56ED4EC31F0E652E6520E0EE56E30
:101A9000060EE56ED4EC31F0E652E6520E0EE56E1F
:101AA000070EE56ED4EC31F0E652E652E56A080E18
:101AB000E56ED4EC31F0E652E652E56A090EE56EC9
:101AC000D4EC31F0E652E652050EE56E800EE56E7E
:101AD000040EE56EF80EE56E0A0EE56EB7EC27F023
:101AE000050EE126E56E800EE56E030EE56EA00E96
:101AF000E56E0B0EE56EB7EC27F0050EE126C30E82
:101B0000E56E0C0EE56ED4EC31F0E652E652C40EF2
:101B1000E56E0D0EE56ED4EC31F0E652E652C50EE0
:101B2000E56E0E0EE56ED4EC31F0E652E652C60ECE
:101B3000E56E0F0EE56ED4EC31F0E652E652050E7E
:101B4000E56E800EE56E040EE56EF80EE56E100E85
:101B5000E56EB7EC27F0050EE126E56A110EE56E9D
:101B6000D4EC31F0E652E652E56A120EE56ED4ECA2
:101B700031F0E652E652E56A130EE56ED4EC31F030
:101B8000E652E652E56A140EE56ED4EC31F0E65208
:101B9000E652E56A150EE56ED4EC31F0E652E652F7
:101BA000E56A160EE56ED4EC31F0E652E652110EFF
:101BB000E56E170EE56ED4EC31F0E652E652E56ABA
:101BC0001C0EE56ED4EC31F0E652E652E56A1D0ECD
:101BD000E56ED4EC31F0E652E6521200D9CFE5FFC3
:101BE000E1CFD9FF00C0E5FF01C0E5FF02C0E5FF7E
:101BF00003C0E5FF04C0E5FF05C0E5FF06C0E5FF43
:101C0000020EDBCF00F0030EDBCF01F0040EDBCFC2
:101C100002F0460EF66E700EF76E000EF86E0900BA
:101C2000F5CF03F0050EE56E0250E56E0150E56E4E
:101C30000050E56E0350E56EBBEC26F0050EE12684
:101C4000470EF66E700EF76E000EF86E0900F5CFB7
:101C500003F00050050F046E000E0120056E000E0B
:101C60000220066E050EE56E0650E56E0550E56E27
:101C70000450E56E0350E56EBBEC26F0050EE12640
:101C8000480EF66E700EF76E000EF86E0900F5CF76
:101C900003F000500A0F046E000E0120056E000EC6
:101CA0000220066E010EE56E0650E56E0550E56EEB
:101CB0000450E56E0350E56EBBEC26F0050EE12600
:101CC000490EF66E700EF76E000EF86E0900F5CF35
:101CD00003F000500B0F046E000E0120056E000E85
:101CE0000220066E010EE56E0650E56E0550E56EAB
:101CF0000450E56E0350E56EBBEC26F0050EE126C0
:101D00004A0EF66E700EF76E000EF86E0900F5CFF3
:101D100003F000500C0F046E000E0120056E000E43
:101D20000220066E010EE56E0650E56E0550E56E6A
:101D30000450E56E0350E56EBBEC26F0050EE1267F
:101D40004B0EF66E700EF76E000EF86E0900F5CFB2
:101D500003F00D0E0026000E01220222010EE56E98
:101D60000250E56E0150E56E0050E56E0350E56EE1
:101D7000BBEC26F0050EE126E4CF06F0E4CF05F03B
:101D8000E4CF04F0E4CF03F0E4CF02F0E4CF01F0BD
:101D9000E4CF00F0E4CFD9FF1200D9CFE5FFE1CFC7
:101DA000D9FF00C0E5FF01C0E5FF02C0E5FF03C0A9
:101DB000E5FF04C0E5FF05C0E5FF06C0E5FF07C07D
:101DC000E5FF08C0E5FF09C0E5FF0AC0E5FF0BC05D
:101DD000E5FF0CC0E5FF0DC0E5FF0EC0E5FF0FC03D
:101DE000E5FF020EDBCF00F0030EDBCF01F0040EA7
:101DF000DBCF02F0050EDBCF03F0060EDBCF04F0E5
:101E0000045007E02DEC21F0010EE56EB7EC36F042
:101E1000E652D4EC2EF0046EF3CF05F0F4CF06F0CA
:101E2000E9CF07F000505F0F086E000E0120096E29
:101E3000000E02200A6E000E03200B6E170EE56ED8
:101E400092EC33F00C6EE6520CB85DD056EC38F0E4
:101E50000C6E0CA838D0100EE56E070EE56ED4ECB3
:101E600031F0E652E652000EE56AB7EC36F0E65283
:101E7000010EE56EB7EC36F0E652D4EC2EF00C6EA7
:101E8000F3CF0DF0F4CF0EF0E9CF0FF004500C5E5D
:101E900005500D5A06500E5A07500F5A03500F5C4A
:101EA00008E102500E5C05E101500D5C02E10050BA
:101EB0000C5C09E3000EE56AB7EC36F0E6525CEC28
:101EC00038F0E86A26D0D4EC2EF00C6EF3CF0DF08B
:101ED000F4CF0EF0E9CF0FF004500C5E05500D5A10
:101EE00006500E5A07500F5A0F500B5C08E10E5067
:101EF0000A5C05E10D50095C02E10C50085CD8B0A9
:101F00009DD7E86A06D0000EE56AB7EC36F0E652D7
:101F1000010EE4CF0FF0E4CF0EF0E4CF0DF0E4CFEC
:101F20000CF0E4CF0BF0E4CF0AF0E4CF09F0E4CFFB
:101F300008F0E4CF07F0E4CF06F0E4CF05F0E4CFFB
:101F400004F0E4CF03F0E4CF02F0E4CF01F0E4CFFB
:101F500000F0E4CFD9FF1200D9CFE5FFE1CFD9FFE0
:101F600000C0E5FF01C0E5FF02C0E5FF03C0E5FFDB
:101F700004C0E5FF05C0E5FF06C0E5FF07C0E5FFBB
:101F800008C0E5FF09C0E5FF0AC0E5FF0BC0E5FF9B
:101F90000CC0E5FF0DC0E5FF0EC0E5FF0FC0E5FF7B
:101FA00010C0E5FF11C0E5FF12C0E5FF13C0E5FF5B
:101FB000020EDBCF00F0030EDBCF01F0040EDBCF0F
:101FC00002F0050EDBCF03F0060EDBCF04F0070EA8
:101FD000DBCF05F0080EDBCF06F0090EDBCF07F0F4
:101FE000D4EC2EF0086EF3CF09F0F4CF0AF0E9CF6D
:101FF0000BF004505F0F0C6E000E05200D6E000EEE
:1020000006200E6E000E07200F6E56EC38F0106E94
:1020100010A046D056EC38F0106E10A821D05EEC1F
:1020200035F0D4EC2EF0106EF3CF11F0F4CF12F0A7
:10203000E9CF13F00850105E0950115A0A50125A95
:102040000B50135A1350075C08E11250065C05E16F
:102050001150055C02E11050045C02E2E86A2ED0E7
:10206000D4EC2EF0106EF3CF11F0F4CF12F0E9CFD4
:1020700013F00850105E0950115A0A50125A0B50B2
:10208000135A13500F5C08E112500E5C05E1115019
:102090000D5C02E110500C5CD8B0B7D7E86A0ED0E6
:1020A000E56A0350E56E0250E56E0150E56E0050A2
:1020B000E56E5CEC2BF0050EE126010EE4CF13F08B
:1020C000E4CF12F0E4CF11F0E4CF10F0E4CF0FF042
:1020D000E4CF0EF0E4CF0DF0E4CF0CF0E4CF0BF042
:1020E000E4CF0AF0E4CF09F0E4CF08F0E4CF07F042
:1020F000E4CF06F0E4CF05F0E4CF04F0E4CF03F042
:10210000E4CF02F0E4CF01F0E4CF00F0E4CFD9FF58
:102110001200D9CFE5FFE1CFD9FF00C0E5FF01C034
:10212000E5FF02C0E5FF03C0E5FF04C0E5FF05C011
:10213000E5FF06C0E5FF07C0E5FF08C0E5FF09C0F1
:10214000E5FF0AC0E5FF0BC0E5FF0CC0E5FF0DC0D1
:10215000E5FF0EC0E5FF0FC0E5FF020EDBCF00F08C
:10216000030EDBCF01F0040EDBCF02F0050EDBCF58
:1021700003F0060EDBCF04F0070EDBCF05F0080EF0
:10218000DBCF06F0200E076E086A06C009F00A6A67
:102190000B6A0C6AE56AE56AE56A0950E56E035068
:1021A000E56E0250E56E0150E56E0050E56E9BEC69
:1021B00013F00D6E080EE126300E0D263A0E0D5C62
:1021C00005E30D500E6E270E0E240D6EFF0E072632
:1021D0000822800E07240E6E030E08200F6E0EC01C
:1021E000E9FF0FC0EAFF0DC0EFFF0C50E56E0B508A
:1021F000E56E0A50E56E0950E56E0350E56E02503B
:10220000E56E0150E56E0050E56E76EC19F0006E5B
:10221000F3CF01F0F4CF02F0E9CF03F0080EE1268E
:102220000050011002100310D8A4AFD707C000F06F
:1022300008C001F004C002F005C003F000C004F0C3
:1022400001C005F0004A012A800E0426030E052273
:1022500004C0E9FF05C0EAFFEFCF04F002C0E9FFC8
:1022600003C0EAFF04C0EFFF024A032A000E015C2C
:1022700002E1200E005CE2E302C0E9FF03C0EAFFD6
:10228000000EEF6AE4CF0FF0E4CF0EF0E4CF0DF0D4
:10229000E4CF0CF0E4CF0BF0E4CF0AF0E4CF09F088
:1022A000E4CF08F0E4CF07F0E4CF06F0E4CF05F088
:1022B000E4CF04F0E4CF03F0E4CF02F0E4CF01F088
:1022C000E4CF00F0E4CFD9FF1200D9CFE5FFE1CF92
:1022D000D9FF00C0E5FF01C0E5FF02C0E5FF03C074
:1022E000E5FF04C0E5FF05C0E5FF06C0E5FF020EFF
:1022F000DBCF00F0030EDBCF01F0040EDBCF02F0EA
:1023000000C0E9FF01C0F3FF025022EC37F0036E7A
:10231000E56AE56EB8EC2FF0E652E652320EE56E55
:102320002FEC34F0E65285EC38F0010EE56E0350E8
:10233000E56EB8EC2FF0E652E6520050010F036E46
:10234000000E0120046E000E0220056E98EC32F0A3
:10235000066E06C0E5FF03C0E9FF04C0F3FF0550A9
:102360000BEC38F051EC33F00050020F036E000E0E
:102370000120046E000E0220056E98EC32F0066E0D
:1023800006C0E5FF03C0E9FF04C0F3FF05500BECF6
:1023900038F051EC33F00050030F036E000E0120B3
:1023A000046E000E0220056E98EC32F0066E06C038
:1023B000E5FF03C0E9FF04C0F3FF05500BEC38F064
:1023C00051EC33F00050040F036E000E0120046E38
:1023D000000E0220056E98EC32F0066E06C0E5FF96
:1023E00003C0E9FF04C0F3FF05500BEC38F051ECDB
:1023F00033F00050050F036E000E0120046E000E36
:102400000220056E98EC32F0066E06C0E5FF03C0B0
:10241000E9FF04C0F3FF05500BEC38F051EC33F04A
:10242000060E0026000E0122022298EC32F0036E06
:1024300003C0E5FF00C0E9FF01C0F3FF02500BEC51
:1024400038F085EC38F0E4CF06F0E4CF05F0E4CFC7
:1024500004F0E4CF03F0E4CF02F0E4CF01F0E4CFE6
:1024600000F0E4CFD9FF120000C0E5FF01C0E5FF96
:1024700002C0E5FF0301D16B000EE56A4AEC32F0C1
:102480000401996FF3CF9AF4E652D1C300F0D12B37
:10249000016AE00E0026000E012200C0E9FF01C023
:1024A000EAFF94C4EFFFD1C300F0D12B016AE00E24
:1024B0000026000E012200C0E9FF01C0EAFF020E63
:1024C000EF6ED1C300F0D12B016AE00E0026000EA2
:1024D00001229A51026E00C0E9FF01C0EAFF02C06A
:1024E000EFFFD1C300F0D12B016AE00E0026000EF1
:1024F00001229951026E00C0E9FF01C0EAFF02C04B
:10250000EFFFD1C300F0D12B016AE00E0026000ED0
:1025100001227BC402F000C0E9FF01C0EAFF02C053
:10252000EFFFD1C300F0D12B016AE00E0026000EB0
:1025300001227AC402F000C0E9FF01C0EAFF02C034
:10254000EFFFD1C300F0D12B016AE00E0026000E90
:1025500001227DC402F000C0E9FF01C0EAFF02C011
:10256000EFFFD1C300F0D12B016AE00E0026000E70
:1025700001227CC402F000C0E9FF01C0EAFF02C0F2
:10258000EFFFD1C300F0D12B016AE00E0026000E50
:1025900001227FC402F000C0E9FF01C0EAFF02C0CF
:1025A000EFFFD1C300F0D12B016AE00E0026000E30
:1025B00001227EC402F000C0E9FF01C0EAFF02C0B0
:1025C000EFFF0301D151E56E800EE56E000EE56E62
:1025D000E00EE56E010EE56E62EC26F0050EE126DA
:1025E000E4CF02F0E4CF01F0E4CF00F0120000C02D
:1025F000E5FF0301E46B200E0301E56F0301E66BC9
:10260000050E0301E76F0301B16FB26BB36BB46BDF
:1026100004018A6B000EE56AB7EC36F0E652010E53
:10262000E56EA8EC34F0E6529398939A000EE56AB2
:10263000B7EC36F0E652010EE56EA8EC34F0E65247
:10264000E4EC29F0E56AE56AE56A140EE56E92ECC1
:1026500016F0040EE12609EC0DF0E56AE56AE56A7C
:10266000050EE56E92EC16F0040EE1260C0EE56EFA
:10267000000EE56AD4EC31F0E652E652E56A020E4D
:10268000E56ED4EC31F0E652E6520F0EE56E050E23
:10269000E56E32EC31F0E652E6520E0EE56E060EB5
:1026A000E56ED4EC31F0E652E652020EE56E4AECED
:1026B00029F0006EE652005003E0010E0301E46FC2
:1026C000000EE56A4AEC29F0E652E56A1D0EE56E59
:1026D000D4EC31F0E652E652E56A1C0EE56ED4EC1D
:1026E00031F0E652E6520301E66B700EE56E070E1E
:1026F000E56ED4EC31F0E652E6524C0EE56EC4ECD9
:1027000034F0E65262EC38F05CEC38F010EC34F067
:10271000000EE56A92EC33F0006EE6520090005035
:10272000E56E000EE56AD4EC31F0E652E652E86A56
:10273000E4CF00F01200D9CFE5FFE1CFD9FF00C010
:10274000E5FF01C0E5FF02C0E5FF03C0E5FF04C0EF
:10275000E5FF05C0E5FF06C0E5FF07C0E5FF08C0CF
:10276000E5FF09C0E5FF0AC0E5FF020EDBCF00F080
:10277000030EDBCF01F0040EDBCF02F0050EDBCF42
:1027800003F0060EDBCF04F0070EDBCF05F0080EDA
:10279000DBCF06F0090EDBCF07F0086A0450051006
:1027A0000610071005E1E968F468F368E86847D0A7
:1027B000096A0750800BE8440A6E0A501BE1045076
:1027C00004260536063607360750035C08E1065036
:1027D000025C05E10550015C02E10450005C06E288
:1027E000D890073206320532043204D0092A09C0D3
:1027F00008F0DFD70750035C08E10650025C05E1F2
:102800000550015C02E10450005C08E30450005EE6
:102810000550015A0650025A0750035AD890073201
:1028200006320532043208C009F008060950E2E118
:1028300003C0E9FF02C0F4FF01C0F3FF0050E4CF82
:102840000AF0E4CF09F0E4CF08F0E4CF07F0E4CFDA
:1028500006F0E4CF05F0E4CF04F0E4CF03F0E4CFDA
:1028600002F0E4CF01F0E4CF00F0E4CFD9FF120092
:1028700000C0E5FF01C0E5FF02C0E5FF03C0E5FFC2
:1028800004C0E5FF0301D8510301D71901E16AD063
:10289000D8C300F00050016E0128006E009E600E4B
:1028A0000024016E026A000E022201C0E9FF02C08C
:1028B000EAFFEFCFE2F31F0E0301E217D8C3E1F303
:1028C000E2510301E127E151016E020E0124E16FA3
:1028D000E19F08EC31F0016E015003E1016A012A29
:1028E00001D0016A08EC31F00301E26FE2C302F0AB
:1028F000800E0216E2C303F01F0E031603C004F09D
:1029000003C0E2F3045003E1D7C3D8F33ED0015033
:102910001EE0025025E008EC31F0006E0301E251A8
:10292000016E0104E26F0050420A1AE000504E0AA4
:1029300003E127EC2CF014D00050460A03E1F5EC3B
:1029400037F00ED00050490A0BE1FF0009D0D8C380
:10295000E3F3025003E08EEC35F002D090EC38F057
:10296000E1C3D8F30401C6510401C71906E003010D
:10297000D95103E168EC15F008D094B006D00301FA
:10298000D95103E1ACB27DEC37F0E4CF04F0E4CFF1
:1029900003F0E4CF02F0E4CF01F0E4CF00F0120046
:1029A000D9CFE5FFE1CFD9FF00C0E5FF01C0E5FFCA
:1029B00002C0E5FF03C0E5FF04C0E5FF020EDBCF68
:1029C00000F0030EDBCF01F0040EDBCF02F0050EAA
:1029D000DBCF03F0420E0401EF6F0350F06F0050A5
:1029E000010F036E000E0120046E000E022003C0D2
:1029F000E9FF04C0F3FF22EC37F00401F16F00504F
:102A0000020F036E000E0120046E000E022003C0B0
:102A1000E9FF04C0F3FF22EC37F00401F26F00502D
:102A2000030F036E000E0120046E000E022003C08F
:102A3000E9FF04C0F3FF22EC37F00401F36F00500C
:102A4000040F036E000E0120046E000E022003C06E
:102A5000E9FF04C0F3FF22EC37F00401F46F0050EB
:102A6000050F036E000E0120046E000E022003C04D
:102A7000E9FF04C0F3FF22EC37F00401F56F060E06
:102A80000026000E0122022200C0E9FF01C0F3FF70
:102A9000025022EC37F00401F66F0A0EF76F090EB0
:102AA000E56E800EE56E040EE56EEF0EE56EC8EC89
:102AB0001DF0040EE126E4CF04F0E4CF03F0E4CFF0
:102AC00002F0E4CF01F0E4CF00F0E4CFD9FF120030
:102AD00000C0E5FF01C0E5FF02C0E5FF03C0E5FF60
:102AE00004C0E5FFACA27ED0D2EC33F0006E005003
:102AF00005E10401C76B0401C66B74D0C7C401F0C3
:102B000000500126D2EC33F0026E0050036E030435
:102B1000006E0250230A1FE1010E005CD8A060D0B5
:102B2000D2EC33F0026E690A03E153EC30F058D076
:102B30000250720A03E17DEC37F052D00250730A62
:102B400001E04ED09480AB869D8A9D98AE50AE50E9
:102B5000AB98AB8845D00250430A05E00250420AC8
:102B600001E03ED006D000C003F0046A038E03509B
:102B7000006E00C0DBF300500401006F010E030182
:102B8000DC6F0401C751011814E0D2EC33F0026E7F
:102B90000301DB27000E0301DC25006E036A040E2F
:102BA000032200C0E9FF03C0EAFF02C0EFFFDC2BF5
:102BB000E8D7000E0301DC25006E026A040E022233
:102BC0000301DB1D036E032A00C0E9FF02C0EAFF18
:102BD00003C0EFFF0301DC2BDCC3D9F30301D36B8C
:102BE00001C0C7F4E4CF04F0E4CF03F0E4CF02F077
:102BF000E4CF01F0E4CF00F01200D9CFE5FFE1CF40
:102C0000D9FF00C0E5FF01C0E5FF02C0E5FF03C03A
:102C1000E5FF04C0E5FF05C0E5FF06C0E5FF07C00E
:102C2000E5FF08C0E5FF09C0E5FF0AC0E5FF0BC0EE
:102C3000E5FF0CC0E5FF020EDBCF00F0030EDBCF9B
:102C400001F0040EDBCF02F0050EDBCF03F0060E21
:102C5000DBCF04F0D4EC2EF0056EF3CF06F0F4CF0A
:102C600007F0E9CF08F056EC38F0096E09A02ED035
:102C700056EC38F0096E09A80AD0100EE56E070E62
:102C8000E56ED4EC31F0E652E652E86A2ED0D4EC90
:102C90002EF0096EF3CF0AF0F4CF0BF0E9CF0CF071
:102CA0000550095E06500A5A07500B5A08500C5A34
:102CB000000E0C5C08E1000E0B5C05E1000E0A5CE6
:102CC00002E1600E095CCFE3E86A0FD00450E56EC4
:102CD0000350E56E0250E56E0150E56E0050E56E62
:102CE0005CEC2BF0050EE126010EE4CF0CF0E4CFF6
:102CF0000BF0E4CF0AF0E4CF09F0E4CF08F0E4CF22
:102D000007F0E4CF06F0E4CF05F0E4CF04F0E4CF21
:102D100003F0E4CF02F0E4CF01F0E4CF00F0E4CF21
:102D2000D9FF1200D9CFE5FFE1CFD9FF00C0E5FF01
:102D300001C0E5FF02C0E5FF03C0E5FF04C0E5FFF9
:102D400005C0E5FF06C0E5FF07C0E5FF020EDBCFCB
:102D500000F0030EDBCF01F0040EDBCF02F0050E16
:102D6000DBCF03F0DEEC30F0046EF3CF05F0F4CFF0
:102D700006F0E9CF07F00350E56E0250E56E015012
:102D8000E56E0050E56EE56A0F0EE56E420EE56EEB
:102D9000400EE56E0DEC0BF0006EF3CF01F0F4CFBA
:102DA00002F0E9CF03F0080EE126E56AE56A030EBA
:102DB000E56EE80EE56E0350E56E0250E56E0150DB
:102DC000E56E0050E56E76EC19F0006EF3CF01F081
:102DD000F4CF02F0E9CF03F0080EE12604500026FC
:102DE000055001220650022207500322DEEC30F08B
:102DF000046EF3CF05F0F4CF06F0E9CF07F00050F2
:102E0000045E0150055A0250065A0350075A079EA5
:102E10003F0E075C08E1FF0E065C05E1FF0E055C56
:102E200002E1FF0E045CE2E2E4CF07F0E4CF06F03B
:102E3000E4CF05F0E4CF04F0E4CF03F0E4CF02F0F8
:102E4000E4CF01F0E4CF00F0E4CFD9FF1200D9CFF6
:102E5000E5FFE1CFD9FF00C0E5FF01C0E5FF02C0FB
:102E6000E5FF03C0E5FF04C0E5FF06C0E5FF020E75
:102E7000DBCF00F0030EDBCF01F0040EDBCF02F05E
:102E80003F0EC716C66AC56A0050C6120150C71267
:102E90009488820E006E0F0E016E0F0E046E380EB7
:102EA0000026045001220F0E046E800E005E0450B6
:102EB000015A820E036E0F0E046E0F0E066E380E50
:102EC0000326065004220F0E066E800E035E065087
:102ED000045A03C0E9FF04C0EAFFEFCF03F00398F0
:102EE00000C0E9FF01C0EAFF03C0EFFF9486820E35
:102EF000006E0F0E016E0F0E046E380E0026045089
:102F000001220F0E046E800E005E0450015A820EE4
:102F1000036E0F0E046E0F0E066E380E032606505B
:102F200004220F0E066E800E035E0650045A03C084
:102F3000E9FF04C0EAFFEFCF03F0039600C0E9FF0A
:102F400001C0EAFF03C0EFFF02C0C8FFC6CF00F018
:102F5000008A0050C66E9E96A196E4CF06F0E4CF9C
:102F600004F0E4CF03F0E4CF02F0E4CF01F0E4CFCB
:102F700000F0E4CFD9FF1200D9CFE5FFE1CFD9FFB0
:102F800000C0E5FF01C0E5FF02C0E5FF03C0E5FFAB
:102F900004C0E5FF05C0E5FF06C0E5FF07C0E5FF8B
:102FA000020EDBCF00F0030EDBCF01F0040EDBCF0F
:102FB00002F0050EDBCF03F0DEEC30F0046EF3CF51
:102FC00005F0F4CF06F0E9CF07F00350E56E0250AC
:102FD000E56E0150E56E0050E56EE56AE56A030EA8
:102FE000E56EE80EE56E0DEC0BF0006EF3CF01F030
:102FF000F4CF02F0E9CF03F0080EE126E56AE56AB6
:10300000030EE56EE80EE56E0350E56E0250E56EC8
:103010000150E56E0050E56E76EC19F0006EF3CFCE
:1030200001F0F4CF02F0E9CF03F0080EE1260450DE
:103030000026055001220650022207500322DEEC32
:1030400030F0046EF3CF05F0F4CF06F0E9CF07F0CF
:103050000050045E0150055A0250065A0350075AA8
:10306000079E3F0E075C08E1FF0E065C05E1FF0EC0
:10307000055C02E1FF0E045CE2E2E4CF07F0E4CF7E
:1030800006F0E4CF05F0E4CF04F0E4CF03F0E4CFA2
:1030900002F0E4CF01F0E4CF00F0E4CFD9FF12005A
:1030A000D9CFE5FFE1CFD9FF00C0E5FF01C0E5FFC3
:1030B00002C0E5FF03C0E5FF04C0E5FF05C0E5FF72
:1030C000020EDBCF00F0030EDBCF01F0040EDBCFEE
:1030D00002F0050EDBCF03F0060EDBCF04F0033861
:1030E000F00B056E0450052605C0E5FF00C0E9FFA2
:1030F00001C0F3FF02500BEC38F00050010F036EDB
:10310000000E0120046E000E0220056E0A0EE56E10
:1031100003C0E9FF04C0F3FF05500BEC38F000508A
:10312000020F036E000E0120046E000E0220056ED9
:10313000990EE56E03C0E9FF04C0F3FF05500BECE8
:1031400038F00050030F036E000E0120046E000ED5
:103150000220056E980EE56E03C0E9FF04C0F3FF80
:1031600005500BEC38F0040E0026000E012202225E
:10317000970EE56E00C0E9FF01C0F3FF02500BECB3
:1031800038F0E4CF05F0E4CF04F0E4CF03F0E4CF6F
:1031900002F0E4CF01F0E4CF00F0E4CFD9FF120059
:1031A0004320696E697452460A0043747820657240
:1031B000726F7221206C3D25640A00004352204347
:1031C0002025640A0000D9CFE5FFE1CFD9FF00C078
:1031D000E5FF01C0E5FF02C0E5FF03C0E5FF04C055
:1031E000E5FF05C0E5FF06C0E5FF07C0E5FF08C035
:1031F000E5FF09C0E5FF0AC0E5FF020EDBCF00F0E6
:10320000030EDBCF01F0040EDBCF02F0050EDBCFA7
:1032100003F0060EDBCF04F0070EDBCF05F000381D
:10322000E8441F0B066E076ACF0E0626030E072220
:1032300006C0E9FF07C0EAFFEFCF08F00050096EB3
:10324000070E0916010E0A6E09500DE006E6E86C3D
:10325000D8900A36010FFDE306D0D8900ABED88078
:103260000A32010FFBE308500A1206C0E9FF07C04B
:10327000EAFF0AC0EFFF230E0024066E076A0F0E56
:10328000072206C0E9FF07C0EAFF01C0EFFF016A9D
:10329000230E0026040E0122800E025E070E021687
:1032A0000238F00B036E070E05160550032600C00A
:1032B000E9FF01C0EAFF03C0EFFFE4CF0AF0E4CF6B
:1032C00009F0E4CF08F0E4CF07F0E4CF06F0E4CF54
:1032D00005F0E4CF04F0E4CF03F0E4CF02F0E4CF54
:1032E00001F0E4CF00F0E4CFD9FF1200D9CFE5FF21
:1032F000E1CFD9FF00C0E5FF01C0E5FF02C0E5FF57
:1033000003C0E5FF04C0E5FF05C0E5FF06C0E5FF1B
:1033100007C0E5FF08C0E5FF09C0E5FF0AC0E5FFFB
:103320000BC0E5FF0CC0E5FF0DC0E5FF020EDBCFD3
:1033300000F0030EDBCF01F0040EDBCF02F0050E30
:10334000DBCF03F0060EDBCF04F0070EDBCF05F07A
:10335000080EDBCF06F0090EDBCF07F0086A096A1A
:103360000A6A0B6A200E0C6E0350800BE8440D6E47
:10337000005000260136023603360850082609366A
:103380000A360B360D50D8A4088007500B5C08E1B4
:1033900006500A5C05E10550095C02E10450085C36
:1033A00009E30450085E0550095A06500A5A0750AE
:1033B0000B5A00800C040D6E0DC00CF00D50D4E1C2
:1033C00003C0E9FF02C0F4FF01C0F3FF0050E4CFE7
:1033D0000DF0E4CF0CF0E4CF0BF0E4CF0AF0E4CF33
:1033E00009F0E4CF08F0E4CF07F0E4CF06F0E4CF33
:1033F00005F0E4CF04F0E4CF03F0E4CF02F0E4CF33
:1034000001F0E4CF00F0E4CFD9FF120000C0E5FFE7
:1034100001C0E5FF03C0E5FF04C0E5FF05C0E5FF0F
:1034200006C0E5FF07C0E5FF08C0E5FF09C0E5FFEE
:103430000AC0E5FF0BC0E5FFCDC300F0CEC301F02D
:103440000301CD3F01D0CE2B0050E56E6FEC37F07D
:10345000E652076E046A056A066ACDC300F0CEC361
:1034600001F00301CD3F01D0CE2B0050E56E6FEC93
:1034700037F0E6520B6A0A6E086A08500412051209
:103480000A5006120B500712CDC300F0CEC301F054
:103490000301CD3F01D0CE2B0050E56E6FEC37F02D
:1034A000E652036E006A03C001F0E86A03BEFF0E35
:1034B000086E096E005004120150051208500612E1
:1034C00009500712CDC300F0CEC301F00301CD3F78
:1034D00001D0CE2B0050E56E6FEC37F0E652016A5A
:1034E0000412015005120612071207C0E9FF06C0B8
:1034F000F4FF05C0F3FF0450E4CF0BF0E4CF0AF073
:10350000E4CF09F0E4CF08F0E4CF07F0E4CF06F011
:10351000E4CF05F0E4CF04F0E4CF03F0E4CF01F012
:10352000E4CF00F01200D9CFE5FFE1CFD9FF00C012
:10353000E5FF01C0E5FF02C0E5FF03C0E5FF04C0F1
:10354000E5FF05C0E5FF06C0E5FF07C0E5FF020E89
:10355000DBCF00F0030EDBCF01F0040EDBCF02F077
:10356000050EDBCF03F003C004F0056A0350D8B4A6
:1035700054D000C0E9FF01C0F3FF025022EC37F045
:10358000066E430A08E1010E056E03C006F0076AE5
:10359000068E0650036E0406002A02E3014A022A40
:1035A0009D9AAB9894909D989EA8FED7AC80AD6AEA
:1035B00000009EA8FED7AC9003C0ADFF00009EA8FF
:1035C000FED7055004E0420EAD6E032604D0620E15
:1035D000AD6E620E0326045015E000009EA8FED7D3
:1035E00000C0E9FF01C0F3FF025022EC37F0056E86
:1035F00005C0ADFF055003260406002A02E3014A78
:10360000022AE9D700009EA8FED7031CAD6EAD2AA2
:1036100000009EA8FED77DEC37F0E4CF07F0E4CFA2
:1036200006F0E4CF05F0E4CF04F0E4CF03F0E4CFFC
:1036300002F0E4CF01F0E4CF00F0E4CFD9FF1200B4
:10364000D9CFE5FFE1CFD9FF00C0E5FF01C0E5FF1D
:1036500002C0E5FF03C0E5FF04C0E5FF05C0E5FFCC
:1036600006C0E5FF07C0E5FF020EDBCF00F0030E4A
:10367000DBCF01F0040EDBCF02F0050EDBCF03F051
:1036800002C006F00650046E800A33E100C0E9FF74
:1036900001C0F3FF0250DFEC34F0056EF3CF06F00B
:1036A000F4CF07F003C0E5FF05C0E9FF06C0F3FF54
:1036B00007500BEC38F000C0E9FF01C0F3FF0250E7
:1036C000DFEC34F0056EF3CF06F0F4CF07F0052AF7
:1036D00002E3064A072A05C0E5FF06C0F4FF07C05B
:1036E000F6FF00C0E9FF01C0F3FF025060EC37F0C5
:1036F00020D004C000F000AA1CD0007A0050046E54
:1037000004E1035089EC38F014D00450010A04E1BC
:103710000350A5EC38F00DD004500F0A04E103501B
:1037200022EC30F006D004500E0A03E10350A2EC64
:1037300038F0E4CF07F0E4CF06F0E4CF05F0E4CFB3
:1037400004F0E4CF03F0E4CF02F0E4CF01F0E4CFE3
:1037500000F0E4CFD9FF120000C0E5FF01C0E5FF93
:1037600002C0E5FF03C0E5FFDEEC30F0006EF3CFF2
:1037700001F0F4CF02F0E9CF03F00401BF51005E85
:10378000C051015AC151025AC251035A039E3F0E01
:10379000035C08E1FF0E025C05E1FF0E015C02E143
:1037A000FF0E005C02E20401C36B42EC37F0006ED6
:1037B000005003E10401C35151D0E5EC32F0006E3A
:1037C000010E005C03E20401C35148D0200EE56EF7
:1037D000800EE56E040EE56E9D0EE56E81EC2FF019
:1037E000040EE126030E002600C001F0026A00BEAE
:1037F00002689B0E0126040E022201C0E9FF02C0EE
:10380000EAFF0A0EEF6E0050E56E800EE56E040EC4
:10381000E56E9B0EE56EC8EC1DF0040EE12604017A
:103820009D510B0A02E178EC22F0010E0401C36FF6
:10383000DEEC30F0F3CF01F0F4CF02F0E9CF03F08B
:10384000080F0401BF6FC20E0120C06F0A0E0220D4
:10385000C16F000E0320C26F0401C351E4CF03F017
:10386000E4CF02F0E4CF01F0E4CF00F0120000C09A
:10387000E5FF01C0E5FF02C0E5FF03C0E5FF38EC4E
:1038800014F00EEC04F0800EE56E040EE56E790E79
:10389000E56E65EC11F0030EE126ACEC1BF0006E5A
:1038A000005002E08B8201D08B92DEEC30F0006E93
:1038B000F3CF01F0F4CF02F0E9CF03F00301A551FB
:1038C000005EA651015AA751025AA851035A039EFD
:1038D0003F0E035C08E1FF0E025C05E1FF0E015C98
:1038E00002E1FF0E005CD8B040D0DEEC30F0F3CF48
:1038F00001F0F4CF02F0E9CF03F0880F0301A56FC8
:10390000130E0120A66F000E0220A76F000E0320E9
:10391000A86F95C400F096C401F00401953F01D052
:10392000962B0050640A02E1015001E01ED0040110
:10393000956B966B93C400F0E56A0050E56E000E3F
:10394000E56E310EE56EBC0EE56E2BEC2DF0050E2E
:10395000E12669EC36F0006E005002E10401936B41
:1039600004019351D8B4EFEC36F0E4CF03F0E4CF88
:1039700002F0E4CF01F0E4CF00F0120000C0E5FF58
:1039800001C0E5FF02C0E5FF03C0E5FF05C0E5FF9C
:1039900080EC38F094928B92DEEC30F0F3CF01F0B3
:1039A000F4CF02F0E9CF03F0880F0301A56F130EE7
:1039B0000120A66F000E0220A76F000E0320A86F43
:1039C0004BEC1EF00F01428F4251CF0B2009426F8A
:1039D000C150F30B0809C16E9484820E006E0F0E65
:1039E000016E0F0E036E380E0026035001220F0EDB
:1039F000036E800E005E0350015A820E026E0F0E9F
:103A0000036E0F0E056E380E0226055003220F0EB0
:103A1000056E800E025E0550035A02C0E9FF03C026
:103A2000EAFFEFCF02F0028400C0E9FF01C0EAFF25
:103A300002C0EFFF0E0EE56E000EE56A51EC23F0BA
:103A4000E652E652270EE56EE56A080EE56E27ECB3
:103A500017F0030EE126E56A800EE56E040EE56EB2
:103A6000790EE56E08EC26F0040EE126EFEC36F058
:103A7000E4CF05F0E4CF03F0E4CF02F0E4CF01F0AF
:103A8000E4CF00F01200D9CFE5FFE1CFD9FF00C0AD
:103A9000E5FF01C0E5FF02C0E5FF03C0E5FF04C08C
:103AA000E5FF05C0E5FF06C0E5FF07C0E5FF020E24
:103AB000DBCF00F0030EDBCF01F0040EDBCF02F012
:103AC000050EDBCF03F0060EDBCF04F00450E56EED
:103AD0000350E56E0250E56E0150E56E0050E56E54
:103AE0005CEC2BF0050EE126D4EC2EF0006EF3CF4B
:103AF00001F0F4CF02F0E9CF03F056EC38F0300BD0
:103B00001FE1D4EC2EF0046EF3CF05F0F4CF06F0F5
:103B1000E9CF07F00050045E0150055A0250065AE2
:103B20000350075A000E075C08E1000E065C05E131
:103B3000000E055C02E1600E045CDFE3E86A15D06C
:103B4000000EE56AB7EC36F0E652700EE56E070E31
:103B5000E56ED4EC31F0006EE652E65200A804D0D7
:103B60005CEC38F0E86A01D0010EE4CF07F0E4CF56
:103B700006F0E4CF05F0E4CF04F0E4CF03F0E4CFA7
:103B800002F0E4CF01F0E4CF00F0E4CFD9FF12005F
:103B9000D9CFE5FFE1CFD9FF00C0E5FF01C0E5FFC8
:103BA00002C0E5FF03C0E5FF04C0E5FF05C0E5FF77
:103BB00006C0E5FF07C0E5FF020EDBCF00F0030EF5
:103BC000DBCF01F0040EDBCF02F0050EDBCF03F0FC
:103BD000C7C4C8F40401C6510401C85FC851046ECB
:103BE0000404C86F03C004F0056A030E0426D8B0AD
:103BF000052AC8C406F0076A0750800FF36E055007
:103C0000800FF35C02E10450065C02E2E86830D009
:103C1000020E035C02E2E86A2BD00350046E040437
:103C2000036EE56EE7EC2DF0E652046A0350045C87
:103C300014E204500024056EE86A0120066EE86A6A
:103C4000022005C0E9FF06C0F3FF22EC37F0042A8A
:103C5000E56EE7EC2DF0E652E9D7C7C4C8F40401DD
:103C6000C6510401C85FC851006E0004C86FE86AFD
:103C7000E4CF07F0E4CF06F0E4CF05F0E4CF04F0A2
:103C8000E4CF03F0E4CF02F0E4CF01F0E4CF00F0A2
:103C9000E4CFD9FF120000C0E5FF01C0E5FF02C07C
:103CA000E5FF03C0E5FF04C0E5FF006ACF0E002476
:103CB000016E026A030E022201C0E9FF02C0EAFFA0
:103CC000EF6A002A020E005CF1E3006A0050020D68
:103CD000F450026EF3CF01F0390E0124036E040E8E
:103CE0000220046E03C0E9FF04C0EAFFEE6AEF6A37
:103CF000590E0124036E040E0220046E03C0E9FF76
:103D000004C0EAFFEE6AEF6A000E0124036E030EA0
:103D10000220046E03C0E9FF04C0EAFFEE6AEF6A06
:103D2000200E0124036E030E0220046E03C0E9FF7F
:103D300004C0EAFFEE6AEF6A400E0126030E02227B
:103D400001C0E9FF02C0EAFFEE687F0EEF6E230EAE
:103D50000024016E026A040E022201C0E9FF02C0C3
:103D6000EAFFEF68002A100E005CD8A0AFD7AF0EB4
:103D7000C06EC16A010EC26EC282E4CF04F0E4CF0D
:103D800003F0E4CF02F0E4CF01F0E4CF00F0120042
:103D90004320412025642025640A0000D9CFE5FF97
:103DA000E1CFD9FF00C0E5FF01C0E5FF02C0E5FF9C
:103DB00003C0E5FF04C0E5FF05C0E5FF06C0E5FF61
:103DC00007C0E5FF08C0E5FF09C0E5FF0AC0E5FF41
:103DD0000BC0E5FF0CC0E5FF020EDBCF00F0030EC9
:103DE000DBCF01F0040EDBCF02F0050EDBCF03F0DA
:103DF000060EDBCF04F0070EDBCF05F0080EDBCF9D
:103E000006F0090EDBCF07F002500A6E0150096E72
:103E10000050086E06C00BF007C00CF0FF0E06261F
:103E200007220B500C101AE003C0E9FF04C0F3FF97
:103E3000055022EC37F00B6E032A02E3044A052AF0
:103E40000BC0E5FF08C0E9FF09C0F3FF0A500BEC07
:103E500038F0082ADFE3094A0A2ADCD702C0F4FF57
:103E600001C0F3FF0050E4CF0CF0E4CF0BF0E4CF3F
:103E70000AF0E4CF09F0E4CF08F0E4CF07F0E4CF94
:103E800006F0E4CF05F0E4CF04F0E4CF03F0E4CF94
:103E900002F0E4CF01F0E4CF00F0E4CFD9FF12004C
:103EA000D9CFE5FFE1CFD9FF00C0E5FF01C0E5FFB5
:103EB00002C0E5FF03C0E5FF04C0E5FF05C0E5FF64
:103EC00006C0E5FF07C0E5FF020EDBCF00F0030EE2
:103ED000DBCF01F0040EDBCF02F0050EDBCF03F0E9
:103EE000060EDBCF04F00301E551035C03E203C0DF
:103EF00005F002D0E5C305F005C003F00301E6516B
:103F000002E0056A06D003500301E55D076E07C0B5
:103F100005F06EEC38F00450E56EC3EC37F0046E3B
:103F2000E65203C006F00306065012E000C0E9FFA7
:103F300001C0F3FF025022EC37F0066E002A02E3C4
:103F4000014A022A0650E56EC3EC37F0E652E9D783
:103F500005C000F000C001F00006015006E0000EB0
:103F6000E56AC3EC37F0E652F5D768EC38F0045058
:103F7000E4CF07F0E4CF06F0E4CF05F0E4CF04F09F
:103F8000E4CF03F0E4CF02F0E4CF01F0E4CF00F09F
:103F9000E4CFD9FF1200D9CFE5FFE1CFD9FF00C0B0
:103FA000E5FF01C0E5FF02C0E5FF03C0E5FF04C077
:103FB000E5FF05C0E5FF06C0E5FF07C0E5FF08C057
:103FC000E5FF09C0E5FF0AC0E5FF020EDBCF00F008
:103FD000030EDBCF01F0040EDBCF02F0050EDBCFCA
:103FE00003F0060EDBCF04F0070EDBCF05F0080E62
:103FF000DBCF06F0090EDBCF07F00A0EDBCF08F0AF
:10400000700EE56E070EE56ED4EC31F0096EE652E7
:10401000E652200E09140A6E0AC0E5FF00C0E9FF4F
:1040200001C0F3FF02500BEC38F0100E0914006EC3
:1040300000C0E5FF03C0E9FF04C0F3FF05500BEC2F
:1040400038F0400E091609C0E5FF06C0E9FF07C0B9
:10405000F3FF08500BEC38F0E4CF0AF0E4CF09F09E
:10406000E4CF08F0E4CF07F0E4CF06F0E4CF05F0AA
:10407000E4CF04F0E4CF03F0E4CF02F0E4CF01F0AA
:10408000E4CF00F0E4CFD9FF1200D9CFE5FFE1CFB4
:10409000D9FF00C0E5FF01C0E5FF02C0E5FF03C096
:1040A000E5FF04C0E5FF05C0E5FF020EDBCF00F031
:1040B000030EDBCF01F0040EDBCF02F00050020D47
:1040C000F450036EF3CF00F0590E0024046E040E7A
:1040D0000320056E04C0E9FF05C0EAFF01C0EEFF42
:1040E00002C0EFFF000E0024046E030E0320056ED5
:1040F00004C0E9FF05C0EAFFEECF04F0EFCF05F002
:104100000150045C016E02500558026E600E0026DC
:10411000030E032200C0E9FF03C0EAFF01C0EEFF67
:1041200002C0EFFFD88002AED89004E3021E016CFB
:10413000D8B4022A0250800F800F02E1030E015C06
:1041400002E2016A026A0150021007E100C0E9FFC1
:1041500003C0EAFF000EEE6AEF6AE4CF05F0E4CF99
:1041600004F0E4CF03F0E4CF02F0E4CF01F0E4CFB9
:1041700000F0E4CFD9FF1200D9CFE5FFE1CFD9FF9E
:1041800000C0E5FF01C0E5FF02C0E5FF03C0E5FF99
:1041900004C0E5FF05C0E5FF06C0E5FF020EDBCF6A
:1041A00000F0030EDBCF01F0040EDBCF02F0050EB2
:1041B000DBCF03F003500301E55DD8A0E5C303F0B6
:1041C0000301E65102E0046A06D003500301E55DF5
:1041D000066E06C004F06EEC38F0610EE56EC3ECBE
:1041E00037F0056EE65203C006F00306065014E0F1
:1041F000FF0EE568C3EC37F0066EE65206C0E5FF39
:1042000000C0E9FF01C0F3FF02500BEC38F0002AB8
:10421000EAE3014A022AE7D704C000F000C001F037
:104220000006015006E0FF0EE568C3EC37F0E652E9
:10423000F5D768EC38F00550E4CF06F0E4CF05F090
:10424000E4CF04F0E4CF03F0E4CF02F0E4CF01F0D8
:10425000E4CF00F0E4CFD9FF120000C0E5FF01C0B9
:10426000E5FF02C0E5FF000EE56AB7EC36F0E65266
:104270000301B851E56EB751E56EB651E56EB55123
:10428000E56EBCEC17F0040EE1261D0EE56E92EC17
:1042900033F0006EE65200A20FD00301B851E56E74
:1042A000B751E56EB651E56EB551E56EBCEC17F051
:1042B000040EE1265CEC38F0000EE56E92EC33F073
:1042C000006EE65200900050E56E000EE56ED4ECF4
:1042D00031F0E652E652020EE56E92EC33F0006EDB
:1042E000E652400EF66E700EF76E000EF86E090084
:1042F000F5CF01F0010E026E01500DE006E6E86C0C
:10430000D8900236010FFDE306D0D89002BED880C7
:104310000232010FFBE3005002120250E56E020E62
:10432000E56ED4EC31F0E652E652E4CF02F0E4CF91
:1043300001F0E4CF00F0120000C0E5FF01C0E5FF8E
:1043400002C0E5FF03C0E5FF04C0E5FF05C0E5FFCF
:1043500006C0E5FF07C0E5FFD4EC2EF0006EF3CFFA
:1043600001F0F4CF02F0E9CF03F0170EE56E92EC06
:1043700033F0046EE65204B836D056EC38F0046ED2
:1043800004A811D0100EE56E070EE56ED4EC31F0E6
:10439000E652E652000EE56AB7EC36F0E6525CEC07
:1043A00038F0E86A26D0D4EC2EF0046EF3CF05F096
:1043B000F4CF06F0E9CF07F00050045E0150055A33
:1043C0000250065A0350075A000E075C08E1000E1F
:1043D000065C05E1000E055C02E1600E045CD8A0FD
:1043E000C4D7E86A06D0000EE56AB7EC36F0E652AC
:1043F000010EE4CF07F0E4CF06F0E4CF05F0E4CF00
:1044000004F0E4CF03F0E4CF02F0E4CF01F0E4CF16
:1044100000F01200D9CFE5FFE1CFD9FF00C0E5FFE2
:1044200001C0E5FF02C0E5FF03C0E5FF04C0E5FFF2
:1044300005C0E5FF06C0E5FF020EDBCF00F0030E6E
:10444000DBCF01F0040EDBCF02F0050EDBCF03F073
:10445000D88001AED890046A0436045007E0011CED
:10446000066E001C056E054A062A04D000C005F041
:1044700001C006F0D88003AED89007E3031C016E9C
:10448000021C006E004A012A04D002C000F003C0E2
:1044900001F00150E56E0050E56E0650E56E0550E6
:1044A000E56EABEC25F0006EF3CF01F0040EE126D3
:1044B00004500AE0011C036E001C026E024A032A2B
:1044C00003C0F3FF025003D001C0F3FF0050E4CF5C
:1044D00006F0E4CF05F0E4CF04F0E4CF03F0E4CF3E
:1044E00002F0E4CF01F0E4CF00F0E4CFD9FF1200F6
:1044F00000C0E5FF01C0E5FF02C0E5FF7EEC2AF049
:10450000040197510F0B14E1000EE56A4AEC32F0FA
:10451000006EF3CF01F0E652040194510001E06F08
:10452000E16B0150E26F040E026E0050E36F20D089
:10453000040194510001E06F020EE16F04017B5110
:104540000001E26F04017A510001E36F04017D5123
:104550000001E46F04017C510001E56F04017F510B
:104560000001E66F080E026E04017E510001E76F44
:104570000401973F01D0982B010EE56E0250E56EC5
:10458000800EE56E000EE56EE00EE56E43EC1DF06C
:10459000006E050EE12600500DE1E56A0250E56E61
:1045A000000EE56E310EE56EAA0EE56E2BEC2DF0D9
:1045B000050EE1269CEC21F02EEC33F0E4CF02F066
:1045C000E4CF01F0E4CF00F01200D9CFE5FFE1CF56
:1045D000D9FF00C0E5FF01C0E5FF02C0E5FF03C051
:1045E000E5FF04C0E5FF05C0E5FF020EDBCF00F0EC
:1045F000030EDBCF01F0040EDBCF02F0050EDBCFA4
:1046000003F0CDC304F0CEC305F00301CD3F01D0CC
:10461000CE2B0350E56E0450E56E0AEC33F0E65203
:10462000E652CDC304F0CEC305F00301CD3F01D067
:10463000CE2B0250056EE56E0450E56E0AEC33F0A9
:10464000E652E652CDC304F0CEC305F00301CD3FE0
:1046500001D0CE2B0150E56E0450E56E0AEC33F02C
:10466000E652E652CDC304F0CEC305F00301CD3FC0
:1046700001D0CE2B0050E56E0450E56E0AEC33F00D
:10468000E652E652E4CF05F0E4CF04F0E4CF03F0C5
:10469000E4CF02F0E4CF01F0E4CF00F0E4CFD9FFA3
:1046A0001200D9CFE5FFE1CFD9FF00C0E5FF01C07F
:1046B000E5FF02C0E5FF03C0E5FF04C0E5FF05C05C
:1046C000E5FF06C0E5FF020EDBCF00F0030EDBCFF7
:1046D00001F00038E8441F0B026E036ACF0E022679
:1046E000030E032202C0E9FF03C0EAFFEFCF04F08C
:1046F0000050056E070E0516010E066E05500DE002
:1047000006E6E86CD8900636010FFDE306D0D89097
:1047100006BED8800632010FFBE30450061202C029
:10472000E9FF03C0EAFF06C0EFFF230E0024026E7C
:10473000036A0F0E032202C0E9FF03C0EAFF01C0B3
:10474000EFFF016A230E0026040E012200C0E9FFDC
:1047500001C0EAFFFF0EEF68E4CF06F0E4CF05F0FA
:10476000E4CF04F0E4CF03F0E4CF02F0E4CF01F0B3
:10477000E4CF00F0E4CFD9FF1200D9CFE5FFE1CFBD
:10478000D9FF00C0E5FF01C0E5FF020EDBCF00F05E
:104790000401936BF7EC12F069EC36F0016E0150F6
:1047A000D8B44BD0010E0401936F71EC32F055EC8C
:1047B00036F0ACEC31F0000EE56A97EC29F0E652E9
:1047C000010EE56E97EC29F0E652000EE56A72ECF8
:1047D00033F0E6522DEC21F0E56AE56A800EE56ED5
:1047E000040EE56E810EE56E50EC18F0050EE12624
:1047F000800EE56E040EE56E810EE56EE4EC2BF0A6
:10480000030EE1260050E56EE56A800EE56E040EAB
:10481000E56E810EE56E50EC18F0050EE126800E77
:10482000E56E040EE56E810EE56E010EE56E17EC89
:104830000CF0040EE126A0EC2BF0E4CF01F0E4CF65
:1048400000F0E4CFD9FF1200D9CFE5FFE1CFD9FFC7
:1048500000C0E5FF01C0E5FF02C0E5FF03C0E5FFC2
:1048600004C0E5FF05C0E5FF06C0E5FF020EDBCF93
:1048700000F0030EDBCF01F0040EDBCF02F00301EA
:10488000D25119E106EC1AF0036EF3CF04F0F4CF25
:1048900005F0E9CF06F003C0E5FF04C0F4FF05C052
:1048A000F6FF06C0F7FF00C0E9FF01C0F3FF0250AA
:1048B00011EC37F01ED00301D251010A1AE100C0F9
:1048C000E9FF01C0F3FF0250B2EC33F0006EF3CF0A
:1048D00001F0F4CF02F0E9CF03F00350E56E02508F
:1048E000E56E0150E56E0050E56EE5EC22F0040E39
:1048F000E126E4CF06F0E4CF05F0E4CF04F0E4CF06
:1049000003F0E4CF02F0E4CF01F0E4CF00F0E4CF15
:10491000D9FF1200D9CFE5FFE1CFD9FF00C0E5FFF5
:1049200001C0E5FF02C0E5FF03C0E5FF04C0E5FFED
:1049300005C0E5FF06C0E5FF020EDBCF00F0030E69
:10494000DBCF01F0040EDBCF02F0050EDBCF03F06E
:10495000060EDBCF04F0070EDBCF05F0080EDBCF31
:1049600006F0D88003AED89015E306500A0A12E18B
:1049700004C0E9FF05C0EAFF2D0EEF6E044A052AC8
:10498000031E021E011E006C05E1012A03E1022A3A
:10499000D8B4032A0650E56E0550E56E0450E56E66
:1049A0000350E56E0250E56E0150E56E0050E56E75
:1049B00089EC10F0070EE126E4CF06F0E4CF05F015
:1049C000E4CF04F0E4CF03F0E4CF02F0E4CF01F051
:1049D000E4CF00F0E4CFD9FF1200D9CFE5FFE1CF5B
:1049E000D9FF00C0E5FF01C0E5FF02C0E5FF03C03D
:1049F000E5FF020EDBCF00F0030EDBCF01F0070E68
:104A0000005CD8B03FD0010EE56E92EC33F0026E40
:104A1000E652015017E00050016E010E036E015086
:104A20000DE006E6E86CD8900336010FFDE306D0F2
:104A3000D89003BED8800332010FFBE3025003106D
:104A4000026E18D0010E016E00500DE006E6E86C13
:104A5000D8900136010FFDE306D0D89001BED88072
:104A60000132010FFBE3011C006E0250016E005089
:104A70000114026E0250E56E010EE56ED4EC31F0C9
:104A8000E652E652E4CF03F0E4CF02F0E4CF01F0C7
:104A9000E4CF00F0E4CFD9FF1200D8CFE5FFE0CF9C
:104AA000E5FFE56EF3CFE5FFF4CFE5FFE9CFE5FFE6
:104AB000EACFE5FFFACFE5FFFBCFE5FFF6CFE5FF55
:104AC000F6CFE5FFF7CFE5FFF8CFE5FFF5CFE5FF40
:104AD000E1CFE5FFE2CFE5FF0401C4510301AB6F75
:104AE0000401C5510301AC6FD650A96FD750AA6F0E
:104AF000F2A411D00401C43F01D0C52BF2940401EB
:104B0000C4510301AB6F0401C5510301AC6FD65012
:104B1000A96FD750AA6FE4CFE2FFE4CFE1FFE4CF63
:104B2000F5FFE4CFF8FFE4CFF7FFE4CFF6FFE4CFE3
:104B3000F6FFE4CFFBFFE4CFFAFFE4CFEAFFE4CFD8
:104B4000E9FFE4CFF4FFE4CFF3FFE450E4CFE0FF6C
:104B5000E4CFD8FF1000D9CFE5FFE1CFD9FF00C0E7
:104B6000E5FF01C0E5FF02C0E5FF03C0E5FF04C0AB
:104B7000E5FF05C0E5FF06C0E5FF020EDBCF00F054
:104B8000030EDBCF01F0040EDBCF02F0050EDBCF0E
:104B900003F0046A056A0350800BE844066E065071
:104BA00011E10250022603360350015C02E102507B
:104BB000005C04E2D8900332023204D0052A05C01A
:104BC00004F0E9D70350015C02E10250005C04E309
:104BD0000250005E0350015AD8900332023204C0E2
:104BE00005F004060550EEE101C0F3FF0050E4CFEC
:104BF00006F0E4CF05F0E4CF04F0E4CF03F0E4CF17
:104C000002F0E4CF01F0E4CF00F0E4CFD9FF1200CE
:104C1000D9CFE5FFE1CFD9FF00C0E5FF01C0E5FF37
:104C200002C0E5FF03C0E5FF020EDBCF00F0030E7C
:104C3000DBCF01F0040EDBCF02F0050EDBCF03F07B
:104C4000035003E11D0E036E02D0530E036E03C02A
:104C5000E5FF00C0E9FF01C0F3FF02500BEC38F0A4
:104C6000E56A2D0EE56E0350E56E84EC30F0030E20
:104C7000E126100EE56E2D0EE56E0350E56E84EC18
:104C800030F0030EE126080EE56E2D0EE56E0350A2
:104C9000E56E84EC30F0030EE1260B0EE56E310E6E
:104CA000E56E0350E56E84EC30F0030EE126E4CFB0
:104CB00003F0E4CF02F0E4CF01F0E4CF00F0E4CF62
:104CC000D9FF1200D9CFE5FFE1CFD9FF00C0E5FF42
:104CD00001C0E5FF02C0E5FF03C0E5FF04C0E5FF3A
:104CE000020EDBCF00F0030EDBCF01F0040EDBCFB2
:104CF00002F0050EDBCF03F0060EDBCF04F0200E32
:104D0000045C02E3200E046E6EEC38F0070E001611
:104D1000A80E00120050E56EC3EC37F0E65201C059
:104D200000F002C001F003C002F004C003F004066A
:104D3000035012E000C0E9FF01C0F3FF025022EC73
:104D400037F0036E002A02E3014A022A0350E56E9F
:104D5000C3EC37F0E652E9D768EC38F0E4CF04F062
:104D6000E4CF03F0E4CF02F0E4CF01F0E4CF00F0B1
:104D7000E4CFD9FF1200D9CFE5FFE1CFD9FF00C0C2
:104D8000E5FF01C0E5FF02C0E5FF03C0E5FF04C089
:104D9000E5FF05C0E5FF020EDBCF00F0030EDBCF21
:104DA00001F0040EDBCF02F0050EDBCF03F0060EA0
:104DB000DBCF04F06EEC38F01F0E00160050E56EED
:104DC000C3EC37F0006EE65204C005F0040605504F
:104DD00014E0FF0EE568C3EC37F0056EE65205C03F
:104DE000E5FF01C0E9FF02C0F3FF03500BEC38F010
:104DF000012AEAE3024A032AE7D768EC38F00050B8
:104E0000E4CF05F0E4CF04F0E4CF03F0E4CF02F008
:104E1000E4CF01F0E4CF00F0E4CFD9FF1200D9CF06
:104E2000E5FFE1CFD9FF00C0E5FF01C0E5FF02C00B
:104E3000E5FF03C0E5FF020EDBCF00F0030EDBCF82
:104E400001F0040EDBCF02F000C0E9FF01C0F3FF68
:104E5000025022EC37F0036E035029E0C6A610D0B2
:104E60000350E56E2FEC34F0036EE652035002E07F
:104E7000FD0E1ED00EEC2FF0C5AC14D0FE0E18D0D7
:104E80009E9600C0E9FF01C0F3FF025022EC37F00C
:104E9000C96EC6889EA6FED7C7B404D0C7B002D0DC
:104EA000FE0E06D0002AD0E3014A022ACDD7E86AD6
:104EB000E4CF03F0E4CF02F0E4CF01F0E4CF00F060
:104EC000E4CFD9FF1200D9CFE5FFE1CFD9FF00C071
:104ED000E5FF01C0E5FF02C0E5FF03C0E5FF04C038
:104EE000E5FF05C0E5FF020EDBCF00F0030EDBCFD0
:104EF00001F0040EDBCF02F0050EDBCF03F0046AF5
:104F000003C005F00306055022E098EC32F0056E70
:104F100005C0E5FF00C0E9FF01C0F3FF02500BEC44
:104F200038F0002A02E3014A022A04C005F0C5A6AF
:104F3000E7D7A1A602D0E8680BD0052A05C004F087
:104F40000350F5E051EC33F0C5B8FED7F0D704506C
:104F5000E4CF05F0E4CF04F0E4CF03F0E4CF02F0B7
:104F6000E4CF01F0E4CF00F0E4CFD9FF1200D9CFB5
:104F7000E5FFE1CFD9FF00C0E5FF01C0E5FF02C0BA
:104F8000E5FF03C0E5FF04C0E5FF05C0E5FF020E35
:104F9000DBCF00F0030EDBCF01F0040EDBCF02F01D
:104FA000050EDBCF03F0060EDBCF04F06EEC38F01D
:104FB0001F0E0016008A0050E56EC3EC37F0006E3D
:104FC000E65204C005F00406055012E001C0E9FFF6
:104FD00002C0F3FF035022EC37F0056E012A02E312
:104FE000024A032A0550E56EC3EC37F0E652E9D7D2
:104FF00068EC38F00050E4CF05F0E4CF04F0E4CFE3
:1050000003F0E4CF02F0E4CF01F0E4CF00F0E4CF0E
:10501000D9FF120000C0E5FF01C0E5FF02C0E5FFB7
:1050200003C0E5FFD8C300F0016AE3C302F0036ADE
:105030000250005E0350015AE56A800EE56E015091
:10504000E56E0050E56E0AEC22F0006E040EE126DB
:105050000006E3C301F0430E22EC30F0200E22ECF8
:1050600030F0005020E0600E0124026E036A000E52
:10507000032202C0E9FF03C0EAFFEFCF02F0E56AB6
:105080000250E56E000EE56E6F0EE56E120EE56ED7
:105090002BEC2DF0050EE126012A0150800A01E1DA
:1050A000016A0006DED7E4CF03F0E4CF02F0E4CFDC
:1050B00001F0E4CF00F01200D9CFE5FFE1CFD9FF36
:1050C00000C0E5FF01C0E5FF02C0E5FF03C0E5FF4A
:1050D00004C0E5FF020EDBCF00F0030EDBCF01F0D2
:1050E000040EDBCF02F0050EDBCF03F0060EDBCFA4
:1050F00004F0045003E0B00E046E02D0A00E046E63
:105100000450E56E0350E56E0250E56E0150E56E09
:105110000050E56E50EC1FF0050EE126010EE56E25
:10512000B7EC36F0E652E56AE56AE56A0A0EE56E26
:10513000BCEC17F0040EE126000EE56AB7EC36F081
:10514000E652E4CF04F0E4CF03F0E4CF02F0E4CF82
:1051500001F0E4CF00F0E4CFD9FF1200D9CFE5FF92
:10516000E1CFD9FF00C0E5FF01C0E5FF02C0E5FFC8
:1051700003C0E5FF04C0E5FF020EDBCF00F0030E25
:10518000DBCF01F0040EDBCF02F00301D25111E1BD
:10519000EEEC2FF0036EF3CF04F003C0E5FF04C084
:1051A000F4FF00C0E9FF01C0F3FF0250DDEC37F06F
:1051B00016D00301D251010A12E100C0E9FF01C07B
:1051C000F3FF025015EC36F0006EF3CF01F0015002
:1051D000E56E0050E56EAAEC2DF0E652E652E4CF03
:1051E00004F0E4CF03F0E4CF02F0E4CF01F0E4CF29
:1051F00000F0E4CFD9FF1200920EF66E700EF76E3B
:10520000000EF86E0900F550056E0900F550066EA7
:1052100004E1056702D049EF29F00900F550006E5E
:105220000900F550016E0900F550026E09000900F1
:10523000F550E96E0900F550EA6E09000900090011
:10524000F550036E0900F550046E09000900F6CF11
:1052500007F0F7CF08F0F8CF09F000C0F6FF01C063
:10526000F7FF02C0F8FF035002E1045007E0090015
:10527000F550EE6E0306F8E20406F9D707C0F6FF14
:1052800008C0F7FF09C0F8FF050601E2060608EFAF
:1052900029F01200D9CFE5FFE1CFD9FF00C0E5FF2B
:1052A00001C0E5FF02C0E5FF020EDBCF00F0016A9E
:1052B000060EE56E92EC33F0026EE652D70E021641
:1052C000FA0E0301B56FB66BB76BB86B0050020AEC
:1052D00009E1028AC20E0301B56F010EB66FB76B0A
:1052E000B86B0AD00050010A07E10286BE0E030126
:1052F000B56FB66BB76BB86B0250E56E060EE56E18
:10530000D4EC31F0E652E652060EE56E92EC33F044
:10531000E652021802E1010E016E0150E4CF02F0E4
:10532000E4CF01F0E4CF00F0E4CFD9FF1200D9CFF1
:10533000E5FFE1CFD9FF00C0E5FF01C0E5FF02C0F6
:10534000E5FF03C0E5FF020EDBCF00F0E56E92EC57
:1053500033F0016EE652026A036A400E0026700EB8
:105360000222000E032200C0F6FF02C0F7FF03C0B6
:10537000F8FF0900F5CF00F0010E026E00500DE0BD
:1053800006E6E86CD8900236010FFDE306D0D8900F
:1053900002BED8800232010FFBE3021C006E0150F6
:1053A00000160050E56E020EE56ED4EC31F0E652C8
:1053B000E652E4CF03F0E4CF02F0E4CF01F0E4CF13
:1053C00000F0E4CFD9FF120000C0E5FF01C0E5FF07
:1053D00002C0E5FF03C0E5FF04C0E5FF6D8E6D8CE4
:1053E0006C986C8A6C50F00B01096C6E93929384EC
:1053F000810E006E0F0E016E0F0E036E380E00262A
:10540000035001220F0E036E800E005E0350015AFE
:10541000810E026E0F0E036E0F0E046E380E022602
:10542000045003220F0E046E800E025E0450035AD5
:1054300002C0E9FF03C0EAFFEFCF02F0029400C010
:10544000E9FF01C0EAFF02C0EFFF9396E4CF04F04A
:10545000E4CF03F0E4CF02F0E4CF01F0E4CF00F0BA
:10546000120000C0E5FF01C0E5FF02C0E5FF03C078
:10547000E5FF04C0E5FFC78EC78CC698C68AC65034
:10548000F00B0109C66E94969488820E006E0F0E82
:10549000016E0F0E036E380E0026035001220F0E10
:1054A000036E800E005E0350015A820E026E0F0ED4
:1054B000036E0F0E046E380E0226045003220F0EE8
:1054C000046E800E025E0450035A02C0E9FF03C05E
:1054D000EAFFEFCF02F0029800C0E9FF01C0EAFF47
:1054E00002C0EFFF949AE4CF04F0E4CF03F0E4CFDE
:1054F00002F0E4CF01F0E4CF00F0120000C0E5FFBD
:1055000001C0E5FF02C0E5FF000EE56EB7EC36F026
:10551000E652000EE56E92EC33F0006EE65200901B
:105520000050E56E000EE56ED4EC31F0E652E65226
:10553000020EE56E92EC33F0006EE652400EF66E0F
:10554000700EF76E000EF86E0900F5CF01F0010E37
:10555000026E01500DE006E6E86CD8900236010FAD
:10556000FDE306D0D89002BED8800232010FFBE3E3
:10557000005002120250E56E020EE56ED4EC31F0DE
:10558000E652E652E4CF02F0E4CF01F0E4CF00F0BF
:105590001200D9CFE5FFE1CFD9FF00C0E5FF01C080
:1055A000E5FF02C0E5FF03C0E5FF04C0E5FF020E12
:1055B000DBCF00F00038E8441F0B016E026ACF0E0B
:1055C0000126030E022201C0E9FF02C0EAFFEFCF6D
:1055D00003F0070E0016010E046E00500DE006E603
:1055E000E86CD8900436010FFDE306D0D89004BED5
:1055F000D8800432010FFBE3041C006E0350001638
:1056000001C0E9FF02C0EAFF00C0EFFFE4CF04F0F1
:10561000E4CF03F0E4CF02F0E4CF01F0E4CF00F0F8
:10562000E4CFD9FF1200D9CFE5FFE1CFD9FF00C009
:10563000E5FF01C0E5FF02C0E5FF03C0E5FF04C0D0
:10564000E5FF05C0E5FF020EDBCF00F00050010AC8
:1056500022E1016A0150020DF450036EF3CF02F013
:10566000200E0224046E030E0320056E04C0E9FF21
:1056700005C0EAFFEE687F0EEF6E400E0226030EB5
:10568000032202C0E9FF03C0EAFFEE6AEF6A012AC3
:10569000100E015CDFE300C0CCF4E4CF05F0E4CFF2
:1056A00004F0E4CF03F0E4CF02F0E4CF01F0E4CF64
:1056B00000F0E4CFD9FF1200D9CFE5FFE1CFD9FF49
:1056C00000C0E5FF01C0E5FF02C0E5FF03C0E5FF44
:1056D00004C0E5FF020EDBCF00F0030EDBCF01F0CC
:1056E000040EDBCF02F0050EDBCF03F0060EDBCF9E
:1056F00004F0045003E0B00E046E02D0A00E046E5D
:105700000450E56E0350E56E0250E56E0150E56E03
:105710000050E56E50EC1FF0050EE126010EE56E1F
:10572000B7EC36F0E652E4CF04F0E4CF03F0E4CF78
:1057300002F0E4CF01F0E4CF00F0E4CFD9FF120093
:1057400000C0E5FF10EC34F0000EE56A92EC33F097
:10575000006EE65200800050E56E000EE56AD4EC63
:1057600031F0E652E652700EE56E070EE56ED4ECAF
:1057700031F0E652E652010EE56EB7EC36F0E65235
:1057800004018A5110E00301E751E56E800EE56ED9
:10579000040EE56E8A0EE56E0A0EE56EB7EC27F094
:1057A000050EE12605D0000EE56A97EC29F0E652D9
:1057B0001D0EE56E92EC33F0006EE65200B25CEC2A
:1057C00038F0E4CF00F01200D9CFE5FFE1CFD9FFE8
:1057D00000C0E5FF01C0E5FF02C0E5FF020EDBCF20
:1057E00000F0030EDBCF01F0040EDBCF02F003016B
:1057F000E751E56E0250E56E0150E56E0050E56E32
:105800000A0EE56EB7EC27F0050EE1260301E7511D
:10581000E56E0250E56E0150E56E0050E56E100E2B
:10582000E56EB7EC27F0050EE1260301E551E56EC4
:10583000110EE56ED4EC31F0E652E652E4CF02F000
:10584000E4CF01F0E4CF00F0E4CFD9FF120000C0B4
:10585000E5FF01C0E5FF02C0E5FF08EC31F0006E96
:1058600008EC31F0016E0050026ED00E0224006E82
:105870000A0E005C05E30050026EF90E0224006E71
:105880000150026ED00E0224016E0A0E015C05E387
:105890000150026EF90E0224016E080E005C12E245
:1058A000100E015CD8B00ED00038F00B0124006E51
:1058B0009AEC2EF0016E015005E10050E56E46ECC9
:1058C00035F0E652E4CF02F0E4CF01F0E4CF00F08F
:1058D0001200D8CFE5FFE0CFE5FFE56EF3CFE5FF9F
:1058E000F4CFE5FFE9CFE5FFEACFE5FFFACFE5FF2B
:1058F000FBCFE5FFF6CFE5FFF6CFE5FFF7CFE5FFFE
:10590000F8CFE5FFF5CFE5FFE1CFE5FFE2CFE5FF1B
:10591000ECEC09F0E4CFE2FFE4CFE1FFE4CFF5FFE8
:10592000E4CFF8FFE4CFF7FFE4CFF6FFE4CFF6FFD4
:10593000E4CFFBFFE4CFFAFFE4CFEAFFE4CFE9FFD7
:10594000E4CFF4FFE4CFF3FFE450E4CFE0FFE4CF93
:10595000D8FF1000D9CFE5FFE1CFD9FF00C0E5FFA8
:1059600001C0E5FF02C0E5FF03C0E5FF04C0E5FF9D
:10597000020EDBCF00F0030EDBCF01F0040EDBCF15
:1059800002F0000EE56A92EC33F0036EE6528F0EE1
:1059900003160138F00B046E0038E844E00B0412E3
:1059A0000240E840C00B0412045003120350E56E9D
:1059B000000EE56AD4EC31F0E652E652E4CF04F092
:1059C000E4CF03F0E4CF02F0E4CF01F0E4CF00F045
:1059D000E4CFD9FF1200D9CFE5FFE1CFD9FF00C056
:1059E000E5FF01C0E5FF02C0E5FF03C0E5FF020ED1
:1059F000DBCF00F0030EDBCF01F0040EDBCF02F0B3
:105A0000170EE56E92EC33F0036EE65203B017D03A
:105A100000500110021011E056EC38F0036E034004
:105A20007F0B036E070E031603C0E5FF00C0E9FFFE
:105A300001C0F3FF02500BEC38F0010E01D0E86A10
:105A4000E4CF03F0E4CF02F0E4CF01F0E4CF00F0C4
:105A5000E4CFD9FF1200D9CFE5FFE1CFD9FF00C0D5
:105A6000E5FF01C0E5FF02C0E5FF020ED924006E8C
:105A7000000EDA20016E800E026E030E0026000E6C
:105A8000012202220250E56E0150E56E0050E56EE3
:105A9000040EDBCFE5FF030EDBCFE5FF020EDBCF0D
:105AA000E5FF04018851E56E8751E56E8651E56E8C
:105AB0000EEC00F0006EF3CF01F0090EE12601C0FC
:105AC000F3FF0050E4CF02F0E4CF01F0E4CF00F0A8
:105AD000E4CFD9FF1200D9CFE5FFE1CFD9FF00C055
