:020000040000FA
:10000000F0EF33F0C69A12000AEF23F062EC1AF018
:10001000DBEC19F0FDD7120081EF29F0D9CFE5FF15
:10002000E1CFD9FF00C0E5FF01C0E5FF02C0E5FF59
:1000300003C0E5FF04C0E5FF05C0E5FF06C0E5FF1E
:1000400007C0E5FF08C0E5FF09C0E5FF0AC0E5FFFE
:100050000BC0E5FF0CC0E5FF0DC0E5FF0EC0E5FFDE
:100060000FC0E5FF10C0E5FF11C0E5FF12C0E5FFBE
:1000700013C0E5FF14C0E5FF15C0E5FF16C0E5FF9E
:1000800017C0E5FF18C0E5FF19C0E5FF1AC0E5FF7E
:100090001BC0E5FF1CC0E5FF1DC0E5FF1EC0E5FF5E
:1000A000020EDBCF00F0030EDBCF01F0040EDBCF3E
:1000B00002F0050EDBCF03F0060EDBCF04F0070ED7
:1000C000DBCF05F0080EDBCF06F0090EDBCF07F023
:1000D0000A0EDBCF08F0096A0A6A02C00DF00D5063
:1000E000800A0DE102500301B66F0150B56F005058
:1000F000B46F030E016EB40E006E800E026E03C06C
:10010000E9FF04C0F3FF055071EC34F00B6E0B50A7
:10011000D8B4C4EF03F00B50250A02E0ABEF03F0B4
:100120000C6A0D6A0E6A0F6A106A0A0E116E126A64
:10013000136A146A200E156E1668176A2B0E186E55
:10014000032A02E3044A052A03C0E9FF04C0F3FFBF
:10015000055071EC34F0196E250A13E11950E56E63
:100160000250E56E0150E56E0050E56EC5EC18F0EA
:10017000040EE126094A0A2A032A02E3044A052A50
:10018000BED71950300A06E1300E156E032A02E37D
:10019000044A052A03C0E9FF04C0F3FF055071ECCF
:1001A00034F02D0A06E1010E146E032A02E3044A1C
:1001B000052A03C0E9FF04C0F3FF055071EC34F0D9
:1001C000200A08E1010E176E200E186E032A02E3C2
:1001D000044A052A03C0E9FF04C0F3FF055071EC8F
:1001E00034F02B0A06E1010E176E032A02E3044ADB
:1001F000052A03C0E9FF04C0F3FF055071EC34F099
:10020000196E310E195C2BE33A0E195C28E203C01B
:1002100019F004C01AF005C01BF019C0E9FF1AC09C
:10022000F3FF1B5071EC34F01C6E300E1C5C11E3BC
:100230003A0E1C5C0EE213500A0DF3CF1DF01C5059
:100240001D26D00E1D24136E192A02E31A4A1B2AFA
:10025000E4D719C003F01AC004F01BC005F003C0B6
:10026000E9FF04C0F3FF055071EC34F02E0A2DE1D4
:10027000032A02E3044A052A166A03C019F004C0DF
:100280001AF005C01BF019C0E9FF1AC0F3FF1B509C
:1002900071EC34F01C6E300E1C5C11E33A0E1C5CE9
:1002A0000EE216500A0DF3CF1DF01C501D26D00E85
:1002B0001D24166E192A02E31A4A1B2AE4D719C014
:1002C00003F01AC004F01BC005F003C0E9FF04C02E
:1002D000F3FF055071EC34F0196E6C0A07E1010E62
:1002E0000C6E032A02E3044A052A09D01950680A51
:1002F00006E1010E0E6E032A02E3044A052A03C03A
:10030000E9FF04C0F3FF055071EC34F0750A06E113
:10031000010E106E032A02E3044A052A03C0E9FF16
:1003200004C0F3FF055071EC34F0196E730A05E157
:10033000010E0D6E200E156E3FD01950780A03E1A4
:10034000100E116E39D01950580A05E1100E116EB9
:10035000010E126E31D01950630A02E1116A2CD0DD
:1003600019506F0A03E1080E116E26D01950660A63
:1003700003E1010E0F6E20D01950640A1DE01950E0
:10038000690A1AE0105005E0FF0E03260422052238
:1003900013D01950E56E0250E56E0150E56E005025
:1003A000E56EC5EC18F0040EE126094A0A2A032A74
:1003B00002E3044A052AA3D60D5021E00650030F9C
:1003C0000D6E000E0720196E000E08201A6E0DC06B
:1003D00006F019C007F01AC008F0FD0E0D26FF0E3A
:1003E00019221A220DC0E9FF19C0F3FF1A5052EC6E
:1003F00032F00D6EF3CF19F0F4CF1AF0FDD00F509C
:100400000DE0000E1A6E080E196E100E0D6E040E21
:100410000626000E072208221668EED016680C5039
:1004200023E00650040F0C6E000E07200F6E000E26
:1004300008201B6E0CC006F00FC007F01BC008F0B0
:10044000FC0E0C26FF0E0F221B220CC0E9FF0FC072
:10045000F3FF1B5006EC31F00C6EF3CF0FF0F4CF2E
:100460001BF0E9CF1CF067D00E502FE00650020FB2
:100470000E6E000E07201D6E000E08201E6E0EC0B0
:1004800006F01DC007F01EC008F0FE0E0E26FF0E7F
:100490001D221E220EC0E9FF1DC0F3FF1E5088EC76
:1004A00033F00E6E0EC00CF00F6A1B6A1C6A1150FE
:1004B0000A0A03E11050D8B43ED00C500E6E0EC0A4
:1004C0000CF00F6A1B6A1C6A36D00650020F0E6EC3
:1004D000000E07201D6E000E08201E6E0EC006F0D6
:1004E0001DC007F01EC008F0FE0E0E26FF0E1D22D6
:1004F0001E220EC0E9FF1DC0F3FF1E5088EC33F032
:100500000E6EF3CF1DF00EC00CF01DC00FF0E86AA8
:100510001DBEFF0E1B6E1C6E11500A0A02E1105028
:100520000AE00C500E6E0F501D6E0EC00CF01DC078
:100530000FF01B6A1C6A030E196E810E0D6E800E81
:100540001A6E1150D8B440D0105013E01150E56E1F
:10055000030EE56E810EE56E1C50E56E1B50E56ED8
:100560000F50E56E0C50E56EC5EC0EF0070EE1265F
:1005700012D01150E56E030EE56E810EE56E1C5033
:10058000E56E1B50E56E0F50E56E0C50E56E47ECC6
:1005900022F0070EE12617502FE00DC0E9FF19C029
:1005A000F3FF1A5071EC34F02D0A26E0FF0E0D26F1
:1005B00019221A2218C0E5FF0DC0E9FF19C0F3FF88
:1005C0001A505AEC35F018D00CC0E5FF0DC0E9FF09
:1005D00019C0F3FF1A505AEC35F00D50010F0C6E94
:1005E000000E19200E6E000E1A20E56A0CC0E9FFFD
:1005F0000EC0F3FF5AEC35F00DC00CF019C00EF030
:100600001AC00FF013C010F0105010E00CC0E9FF3A
:100610000EC0F3FF0F5071EC34F0176E175006E068
:100620000C2A02E30E4A0F2A1006EED710C013F070
:1006300014501EE109C00CF00AC00EF010C00FF0FB
:100640000F5010E01550E56E0250E56E0150E56E5A
:100650000050E56EC5EC18F0040EE1260C4A0E2A97
:100660000F06EED70CC009F00EC00AF00FC013F051
:1006700016C00CF00DC00DF019C00EF01AC00FF02E
:1006800009C010F00AC015F00DC0E9FF0EC0F3FF5D
:100690000F5071EC34F0166E1650D8B43ED00CC02A
:1006A00016F0176A161E171E1650171005E00CC01C
:1006B00016F00C06165031E00DC0E9FF0EC0F3FF36
:1006C0000F5071EC34F0116E125010E01150E56EC5
:1006D0002FEC33F0166EE652165004E0DF0E1114C4
:1006E000166E02D011C016F016C011F01150E56E52
:1006F0000250E56E0150E56E0050E56EC5EC18F055
:10070000040EE1260D2A02E30E4A0F2A104A152A8A
:100710001350D8B4B9D71306B7D710C009F015C015
:100720000AF014502BE010C00CF015C00DF013C0EF
:100730000EF00E501FE0200EE56E0250E56E0150E7
:10074000E56E0050E56EC5EC18F0040EE1260C4A8B
:100750000D2A0E06EED70B50E56E0250E56E0150E5
:10076000E56E0050E56EC5EC18F0040EE126094A6E
:100770000A2A04D00CC009F00DC00AF0032A02E3D3
:10078000044A052A7FEF00F00AC0F3FF0950E4CFC6
:100790001EF0E4CF1DF0E4CF1CF0E4CF1BF0E4CF5B
:1007A0001AF0E4CF19F0E4CF18F0E4CF17F0E4CF5B
:1007B00016F0E4CF15F0E4CF14F0E4CF13F0E4CF5B
:1007C00012F0E4CF11F0E4CF10F0E4CF0FF0E4CF5B
:1007D0000EF0E4CF0DF0E4CF0CF0E4CF0BF0E4CF5B
:1007E0000AF0E4CF09F0E4CF08F0E4CF07F0E4CF5B
:1007F00006F0E4CF05F0E4CF04F0E4CF03F0E4CF5B
:1008000002F0E4CF01F0E4CF00F0E4CFD9FF120012
:100810003C4E4F20464C4F41543E000000C0E5FF87
:1008200001C0E5FF02C0E5FF03C0E5FF04C0E5FF2E
:1008300005C0E5FF06C0E5FF07C0E5FF08C0E5FF0E
:1008400009C0E5FF0AC0E5FFC2A204D00401CE51F1
:1008500049EF06F00401CF51D8B431D10401CE5193
:10086000020DF450016EF3CF00F0E00E0026040EEE
:10087000012200C0E9FF01C0EAFFEECF00F0EFCF98
:1008800001F0230ECE25026E036A040E032202C07D
:10089000E9FF03C0EAFFEFCF02F00250FF0A01E1D7
:1008A00066D002380F0B036E920E0324046E056AA5
:1008B0000F0E0522066A920E03260F0E062203C0B3
:1008C000E9FF06C0EAFFEFCF03F00250066E070E05
:1008D0000616010E076E06500DE006E6E86CD8908D
:1008E0000736010FFDE306D0D89007BED880073247
:1008F000010FFBE3071C066E0350061604C0E9FF58
:1009000005C0EAFF06C0EFFF02380F0B036E890E29
:100910000324046E056A0F0E0522066A890E03265B
:100920000F0E062203C0E9FF06C0EAFFEFCF03F077
:100930000250066E070E0616010E076E06500DE0F9
:1009400006E6E86CD8900736010FFDE306D0D89094
:1009500007BED8800732010FFBE3071C066E035069
:10096000061604C0E9FF05C0EAFF06C0EFFF040158
:10097000CE51020DF450046EF3CF03F0E00E0326C7
:10098000040E042200380F0B056E0138066EF00BC2
:10099000061A052606320532F80E06B4062605505C
:1009A000005C056E06500158066EC3CF07F0086A5A
:1009B0000750052608500622C4CF07F0086A0750E2
:1009C0000A6E096A095005260A50062203C0E9FF8B
:1009D00004C0EAFF05C0EEFF06C0EFFF0401CA51E4
:1009E000010A01E06AD00401CE51020DF450046EF8
:1009F000F3CF03F0E00E0324056E040E0420066E10
:100A000005C0E9FF06C0EAFFEECF00F0EFCF01F02E
:100A1000000E0326030E042203C0E9FF04C0EAFF10
:100A2000EECF05F0EFCF06F09C0E0526D8A0060607
:100A30000150800FF36E0650800FF35C02E1055009
:100A4000005C0EE20050640F056E000E0120066E81
:100A500003C0E9FF04C0EAFF05C0EEFF06C0EFFFD8
:100A60000401CE51020DF450046EF3CF03F0200EBA
:100A70000326030E042203C0E9FF04C0EAFFEECF01
:100A800005F0EFCF06F0640E0526D8B0062A065012
:100A9000800FF36E0150800FF35C02E10050055CA3
:100AA0000CE29C0E0026D8A0010603C0E9FF04C09A
:100AB000EAFF00C0EEFF01C0EFFF0401CF6B0401AD
:100AC000CE2B100ECE5D01E3CE6B0401CE39E8448F
:100AD0001F0B006E016AB90E0026030E012200C032
:100AE000E9FF01C0EAFFEFCF00F0CEC401F0070E2E
:100AF0000116010E036E000E046E015006E0E86C54
:100B0000D89003360436010FFCE3056A0050031643
:100B10000550041603500410D880E866D890036A84
:100B200003360350D8A4B3D0230E0401CE25006EA3
:100B3000016A0F0E012200C0E9FF01C0EAFFEFCFFA
:100B400000F00044E844FC0B016E0128C26E230E45
:100B5000CE25006E016A040E012200C0E9FF01C02B
:100B6000EAFFEFCF02F00250FF0A01E18CD0023819
:100B70000F0B006E920E0024016E036A0F0E03220B
:100B8000046A920E00260F0E042200C0E9FF04C082
:100B9000EAFFEFCF00F00250046E070E0416010EBC
:100BA000056E04500DE006E6E86CD8900536010F9E
:100BB000FDE306D0D89005BED8800532010FFBE3D7
:100BC0000050051201C0E9FF03C0EAFF05C0EFFFB6
:100BD000380E006E0F0E016E02380F0B036E046AA2
:100BE0000350002604500122380E056E0F0E066ECB
:100BF000055003260650042203C0E9FF04C0EAFFA3
:100C0000EFCF03F0070E0216010E046E02500DE046
:100C100006E6E86CD8900436010FFDE306D0D890C4
:100C200004BED8800432010FFBE30350041200C05D
:100C3000E9FF01C0EAFF04C0EFFF0F014583000098
:100C4000000045930F0144930BC0E5FFF2CF0BF07A
:100C5000F29E44810000000000000000000000003F
:100C60000000000000000000000000000000000084
:100C700000000000000000000000000044910BBED6
:100C8000F28EE4CF0BF0C282010E0401CF6F04019B
:100C9000CE51E4CF0AF0E4CF09F0E4CF08F0E4CF7E
:100CA00007F0E4CF06F0E4CF05F0E4CF04F0E4CFA2
:100CB00003F0E4CF02F0E4CF01F0E4CF00F0120043
:100CC00000C0E5FF01C0E5FF02C0E5FF03C0E5FF8E
:100CD00004C0E5FF05C0E5FF06C0E5FF07C0E5FF6E
:100CE00008C0E5FF09C0E5FF0AC0E5FF0BC0E5FF4E
:100CF0000CC0E5FF006A016A026A040E025CD8B00B
:100D0000ECD101C003F0012A100E035CD8B0E5D18C
:100D10000401D02B100ED05D01E3D06B0401D0395B
:100D2000E8441F0B036E046AB90E0326030E042267
:100D300003C0E9FF04C0EAFFEFCF03F0D0C404F022
:100D4000070E0416010E056E000E066E045006E036
:100D5000E86CD89005360636010FFCE3076A0350AD
:100D600005160750061605500610D880E866D8907C
:100D7000056A05360550D8A4C0D70401D051020D2C
:100D8000F450046EF3CF03F0E00E0324056E040E5E
:100D90000420066E05C0E9FF06C0EAFFEECF05F0AD
:100DA000EFCF06F0CDC407F007A09DD0000E0324BE
:100DB000076E030E0420086E07C0E9FF08C0EAFFB3
:100DC000EECF07F0EFCF08F00650800FF36E08501B
:100DD000800FF35C02E10750055C03E2056A066AD6
:100DE00060D0200E0326030E042203C0E9FF04C0D6
:100DF000EAFFEECF03F0EFCF04F00450800FF36E64
:100E00000650800FF35C02E10550035C04E20568C4
:100E10003F0E066E46D00750055C096E0850065816
:100E20000A6EE86A0ABEFF0E0B6EE56E0B50E56EA9
:100E30000A50E56E0950E56EE56AE56A400EE56E1A
:100E4000000EE56A0DEC0BF0096EF3CF0AF0F4CF5B
:100E50000BF0E9CF0CF0080EE1260750035C076E9B
:100E600008500458086EE86A08BEFF0E036EE56E6F
:100E70000350E56E0850E56E0750E56E0C50E56EC8
:100E80000B50E56E0A50E56E0950E56E1BEC17F04D
:100E9000036EF3CF04F0080EE1260350056E0450F4
:100EA000066E0401CC51800FF36E0650800FF35C88
:100EB00002E10550CB5D03E3056A066A14D0040124
:100EC000CB51FF08036E3F0ECC55046E0650800FC9
:100ED000F36E0450800FF35C02E10350055C03E302
:100EE00005683F0E066E0401D051020DF450046EE9
:100EF000F3CF03F0590E0326040E042203C0E9FFCA
:100F000004C0EAFFEECF03F0EFCF04F00350055C1E
:100F1000036E04500658046ED88004AED89004E3E3
:100F2000041E036CD8B4042A022A0401CC51800F99
:100F3000F36E0450800FF35C02E10350CB5DD8B038
:100F4000DCD60401D051020DF450086EF3CF07F047
:100F5000590E0726040E082207C0E9FF08C0EAFF61
:100F600005C0EEFF06C0EFFFCDC407F007A459D0BF
:100F7000D051020DF450086EF3CF07F0400E072455
:100F8000096E030E08200A6E09C0E9FF0AC0EAFFD5
:100F9000EECF0BF0EFCF0CF00B500C10D8B441D0CB
:100FA000390E0726040E082207C0E9FF08C0EAFF31
:100FB000EECF07F0EFCF08F00750055C036E085046
:100FC0000658046E03101CE00450800F800F02E1ED
:100FD000010E035C076A07360C50800F800F02E198
:100FE000010E0B5C0B6A0B3607500B1809E109C0A8
:100FF000E9FF0AC0EAFF03C0EEFF04C0EFFF7DD6A1
:101000000401D051020DF450046EF3CF03F0400EF2
:101010000326030E042203C0E9FF04C0EAFFEE6AC0
:10102000EF6ACDC403F003A244D000500EE100C02B
:1010300003F0002A046AD10E0326040E042203C022
:10104000E9FF04C0EAFF420EEF6E00C003F0002A81
:10105000046AD10E0326040E04220401D051076E47
:10106000640E072603C0E9FF04C0EAFF07C0EFFFD4
:1010700000C003F0002A046AD10E0326040E0422E5
:101080000650076E03C0E9FF04C0EAFF07C0EFFF88
:1010900000C003F0002A046AD10E0326040E0422C5
:1010A0000550076E03C0E9FF04C0EAFF07C0EFFF69
:1010B00024D6D0C403F00650E56E0550E56EE56A0F
:1010C0000350E56E000EE56E380EE56ED80EE56E47
:1010D00043EC2AF0070EE12610D602C001F00050C2
:1010E0001EE0CDC402F002A21AD000C002F0002A15
:1010F000036AD10E0226040E032202C0E9FF03C0D8
:10110000EAFF0A0EEF6E0050E56E800EE56E040EEB
:10111000E56ED10EE56E6CEC1BF0040EE12601507D
:10112000E4CF0CF0E4CF0BF0E4CF0AF0E4CF09F009
:10113000E4CF08F0E4CF07F0E4CF06F0E4CF05F009
:10114000E4CF04F0E4CF03F0E4CF02F0E4CF01F009
:10115000E4CF00F01200800EE56E030EE56E200E67
:10116000E56E11EC26F0030EE126800EE56E030E0F
:10117000E56E000EE56E11EC26F0030EE126800E02
:10118000E56E030EE56E220EE56E11EC26F0030E01
:10119000E126800EE56E030EE56E020EE56E11ECA3
:1011A00026F0030EE126800EE56E030EE56E240E9A
:1011B000E56E11EC26F0030EE126800EE56E030EBF
:1011C000E56E040EE56E11EC26F0030EE126800EAE
:1011D000E56E030EE56E260EE56E11EC26F0030EAD
:1011E000E126800EE56E030EE56E060EE56E11EC4F
:1011F00026F0030EE126800EE56E030EE56E280E46
:10120000E56E11EC26F0030EE126800EE56E030E6E
:10121000E56E080EE56E11EC26F0030EE126800E59
:10122000E56E030EE56E2A0EE56E11EC26F0030E58
:10123000E126800EE56E030EE56E0A0EE56E11ECFA
:1012400026F0030EE126800EE56E030EE56E2C0EF1
:10125000E56E11EC26F0030EE126800EE56E030E1E
:10126000E56E0C0EE56E11EC26F0030EE126800E05
:10127000E56E030EE56E2E0EE56E11EC26F0030E04
:10128000E126800EE56E030EE56E0E0EE56E11ECA6
:1012900026F0030EE126800EE56E030EE56E300E9D
:1012A000E56E11EC26F0030EE126800EE56E030ECE
:1012B000E56E100EE56E11EC26F0030EE126800EB1
:1012C000E56E030EE56E320EE56E11EC26F0030EB0
:1012D000E126800EE56E030EE56E120EE56E11EC52
:1012E00026F0030EE126800EE56E030EE56E340E49
:1012F000E56E11EC26F0030EE126800EE56E030E7E
:10130000E56E140EE56E11EC26F0030EE126800E5C
:10131000E56E030EE56E360EE56E11EC26F0030E5B
:10132000E126800EE56E030EE56E160EE56E11ECFD
:1013300026F0030EE126800EE56E030EE56E380EF4
:10134000E56E11EC26F0030EE126800EE56E030E2D
:10135000E56E180EE56E11EC26F0030EE126800E08
:10136000E56E030EE56E3A0EE56E11EC26F0030E07
:10137000E126800EE56E030EE56E1A0EE56E11ECA9
:1013800026F0030EE126800EE56E030EE56E3C0EA0
:10139000E56E11EC26F0030EE126800EE56E030EDD
:1013A000E56E1C0EE56E11EC26F0030EE126800EB4
:1013B000E56E030EE56E3E0EE56E11EC26F0030EB3
:1013C000E126800EE56E030EE56E1E0EE56E11EC55
:1013D00026F0030EE126120000C0E5FF01C0E5FF84
:1013E00002C0E5FF03C0E5FF0401C751D8B40CD12A
:1013F0009DA81DD09EA81BD00301C6510301C3198F
:1014000005E1CCEC34F00301C36BFED0000E030108
:10141000C625006E016A040E012200C0E9FF01C06A
:10142000EAFFEFCFBFF3C62BBFC3ADFFEDD09DAA40
:10143000EBD09EAAE9D0ABA205D00301C481CCECCD
:1014400034F0E2D0ABA405D00301C483CCEC34F07B
:10145000DBD0ABA048D0AECFBFF3C8C400F0016A68
:10146000008EBFC302F0036A0250001803E103506C
:10147000011801E004D00301C489AB96C5D0030173
:10148000BF5104E0BF510401C81929E10301C49907
:10149000AB960301BF5103E00301C49702D00301DF
:1014A000C487BFC3C8F3C1C3C9F30301C151006EF0
:1014B00000040301CA6F600E0301C925006E016AB2
:1014C000000E012200C0E9FF01C0EAFFBFC3EFFF29
:1014D000C92BC951800A02E10301C96B95D00301F0
:1014E000C499AB8691D0AECFBFF30301C4A921D07C
:1014F000C8C400F0016A008EBFC302F0036A025044
:10150000001803E10350011801E011D09D9AAB9837
:1015100094900301C35104E1AD6ACCEC34F007D0E0
:1015200000C4ADFF010E0301C66F9D886DD0AB8670
:101530006BD00301BF510301C8270301C951030147
:10154000CA191BE10301C8510CE1C9C3C1F303016E
:10155000C4B712D09D9AAB989490AD6ACCEC34F09D
:101560000BD00301C485C4B707D09D9AAB98949063
:10157000010EAD6ECCEC34F047D00301C95103012C
:10158000C21908E10301C2510301C11903E0CCEC07
:1015900034F03AD0C1C300F0016A004A012AE56A7A
:1015A000800EE56E0150E56E0050E56E9BEC20F07C
:1015B000006E040EE12600500301C06F0301C9193B
:1015C0000FE1BFC300F01F0E00140301CA6F006ECD
:1015D000020E0024CA6F0301C1510301CA27CA9F2A
:1015E000C9C300F00301C92B016A600E0026000E7A
:1015F000012200C0E9FF01C0EAFFBFC3EFFFC951EC
:10160000800A02E10301C96BE4CF03F0E4CF02F0EA
:10161000E4CF01F0E4CF00F01200D9CFE5FFE1CF35
:10162000D9FF00C0E5FF01C0E5FF02C0E5FF03C030
:10163000E5FF04C0E5FF05C0E5FF06C0E5FF07C004
:10164000E5FF020EDBCF00F0030EDBCF01F0040E4E
:10165000DBCF02F0050EDBCF03F0060EDBCF04F08C
:10166000070EDBCF05F0080EDBCF06F0090EDBCF4F
:1016700007F0005003019A6F01509B6F02509C6F5E
:1016800003509D6F045003019E6F05509F6F0650DD
:10169000A06F0750A16F03019A510301A003F4CF7B
:1016A00001F0F3CF00F000500301A46F0150A56FCB
:1016B00003019A5103019E03F4CF01F0F3CF00F030
:1016C00000500301A26F0150A36F03019D5103015C
:1016D0009E03F3CF00F00301A55100260050A56F33
:1016E00003019C5103019F03F3CF01F00150002639
:1016F00000500301A56F03019C5103019E03F4CF29
:1017000001F0F3CF00F00301A4510026A5510122FE
:101710000050A46F0150A56F03019B5103019F036B
:10172000F4CF03F0F3CF02F0025000260350012261
:1017300000500301A46F0150A56F03019B510301E9
:10174000A003F3CF00F000500301A96F03019B51E8
:1017500003019E03F4CF01F0F3CF00F0005003012A
:10176000A76F0150A86F03019A510301A103F3CFA2
:1017700000F000500301AD6F03019A5103019F0374
:10178000F4CF01F0F3CF00F000500301AB6F015034
:10179000AC6F0301A66B0301AA6B0301A651030101
:1017A000A225006E0301A7510301A321016E0301CD
:1017B000A8510301A421026E0301A9510301A5212F
:1017C000036E0050A26F0150A36F0250A46F03502C
:1017D000A56F0301AA510301A225006E0301AB51BD
:1017E0000301A321016E0301AC510301A421026E88
:1017F0000301AD510301A521036E03C0E9FF02C03F
:10180000F4FF01C0F3FF0050E4CF07F0E4CF06F08F
:10181000E4CF05F0E4CF04F0E4CF03F0E4CF02F02E
:10182000E4CF01F0E4CF00F0E4CFD9FF1200D9CF2C
:10183000E5FFE1CFD9FF00C0E5FF01C0E5FF02C031
:10184000E5FF03C0E5FF04C0E5FF05C0E5FF06C0F6
:10185000E5FF07C0E5FF08C0E5FF09C0E5FF0AC0D6
:10186000E5FF020EDBCF00F0030EDBCF01F0040E2C
:10187000DBCF02F0050EDBCF03F000501BE103507D
:10188000096E0250086E0150076ED1C30AF0E56A76
:101890000A50E56E0950E56E0850E56E0750E56E9A
:1018A000800EE56E0F0EE56E330EE56E72EC1CF0E9
:1018B000080EE126070E005CD8B092D0020E005C44
:1018C00022E2E40E0024046E056A6A0E0522066A0E
:1018D000000E062204C0F6FF05C0F7FF06C0F8FFA1
:1018E0000900F5CF04F00301D151E56E0350E56E18
:1018F0000250E56E0150E56E0450E56E1AEC25F0DD
:10190000050EE12620D0E40E0024046E056A6A0E5E
:101910000522066A000E062204C0F6FF05C0F7FF86
:1019200006C0F8FF0900F5CF04F0010EE56E035084
:10193000E56E0250E56E0150E56E0450E56E1AEC5E
:1019400025F0050EE126EA0E0024016E026A6A0EF9
:101950000222036A000E032201C0F6FF02C0F7FF55
:1019600003C0F8FF0900F5CF01F00301CF51E56E88
:101970000150E56E00EC2FF0E652E652020EE56EE5
:10198000E6EC30F0016EE652026A036ADE0E0026D3
:101990006A0E0222000E032200C0F6FF02C0F7FF0B
:1019A00003C0F8FF0900F5CF00F0010E026E0050F1
:1019B0000DE006E6E86CD8900236010FFDE306D094
:1019C000D89002BED8800232010FFBE30150021210
:1019D0000250E56E020EE56E00EC2FF0E652E65284
:1019E000E4CF0AF0E4CF09F0E4CF08F0E4CF07F049
:1019F000E4CF06F0E4CF05F0E4CF04F0E4CF03F049
:101A0000E4CF02F0E4CF01F0E4CF00F0E4CFD9FF5F
:101A10001200D9CFE5FFE1CFD9FF00C0E5FF01C03B
:101A2000E5FF02C0E5FF03C0E5FF04C0E5FF05C018
:101A3000E5FF06C0E5FF07C0E5FF08C0E5FF09C0F8
:101A4000E5FF0AC0E5FF0BC0E5FF0CC0E5FF0DC0D8
:101A5000E5FF0EC0E5FF0FC0E5FF020EDBCF00F093
:101A6000030EDBCF01F0040EDBCF02F0050EDBCF5F
:101A700003F0060EDBCF04F0045007E050EC1FF03B
:101A8000010EE56E17EC34F0E65228EC2CF0046EF3
:101A9000F3CF05F0F4CF06F0E9CF07F000505F0F69
:101AA000086E000E0120096E000E02200A6E000E64
:101AB00003200B6E170EE56EE6EC30F00C6EE6526E
:101AC0000CB85DD0A5EC35F00C6E0CA838D0100E1B
:101AD000E56E070EE56E00EC2FF0E652E652000EC2
:101AE000E56A17EC34F0E652010EE56E17EC34F0BF
:101AF000E65228EC2CF00C6EF3CF0DF0F4CF0EF084
:101B0000E9CF0FF004500C5E05500D5A06500E5AE6
:101B100007500F5A03500F5C08E102500E5C05E1BC
:101B200001500D5C02E100500C5C09E3000EE56A17
:101B300017EC34F0E652ABEC35F0E86A26D028EC2E
:101B40002CF00C6EF3CF0DF0F4CF0EF0E9CF0FF0C8
:101B500004500C5E05500D5A06500E5A07500F5A8D
:101B60000F500B5C08E10E500A5C05E10D50095C5A
:101B700002E10C50085CD8B09DD7E86A06D0000E90
:101B8000E56A17EC34F0E652010EE4CF0FF0E4CF33
:101B90000EF0E4CF0DF0E4CF0CF0E4CF0BF0E4CF87
:101BA0000AF0E4CF09F0E4CF08F0E4CF07F0E4CF87
:101BB00006F0E4CF05F0E4CF04F0E4CF03F0E4CF87
:101BC00002F0E4CF01F0E4CF00F0E4CFD9FF12003F
:101BD000D9CFE5FFE1CFD9FF00C0E5FF01C0E5FFA8
:101BE00002C0E5FF03C0E5FF04C0E5FF05C0E5FF57
:101BF00006C0E5FF07C0E5FF08C0E5FF09C0E5FF37
:101C00000AC0E5FF0BC0E5FF0CC0E5FF0DC0E5FF16
:101C10000EC0E5FF0FC0E5FF10C0E5FF11C0E5FFF6
:101C200012C0E5FF13C0E5FF020EDBCF00F0030E8C
:101C3000DBCF01F0040EDBCF02F0050EDBCF03F0AB
:101C4000060EDBCF04F0070EDBCF05F0080EDBCF6E
:101C500006F0090EDBCF07F028EC2CF0086EF3CF6E
:101C600009F0F4CF0AF0E9CF0BF004505F0F0C6ECF
:101C7000000E05200D6E000E06200E6E000E0720D1
:101C80000F6EA5EC35F0106E10A046D0A5EC35F027
:101C9000106E10A821D0D1EC32F028EC2CF0106E90
:101CA000F3CF11F0F4CF12F0E9CF13F00850105E2B
:101CB0000950115A0A50125A0B50135A1350075C0C
:101CC00008E11250065C05E11150055C02E110507C
:101CD000045C02E2E86A2ED028EC2CF0106EF3CF00
:101CE00011F0F4CF12F0E9CF13F00850105E095054
:101CF000115A0A50125A0B50135A13500F5C08E134
:101D000012500E5C05E111500D5C02E110500C5CAC
:101D1000D8B0B7D7E86A0ED0E56A0350E56E025036
:101D2000E56E0150E56E0050E56E74EC28F0050E8E
:101D3000E126010EE4CF13F0E4CF12F0E4CF11F06E
:101D4000E4CF10F0E4CF0FF0E4CF0EF0E4CF0DF0CD
:101D5000E4CF0CF0E4CF0BF0E4CF0AF0E4CF09F0CD
:101D6000E4CF08F0E4CF07F0E4CF06F0E4CF05F0CD
:101D7000E4CF04F0E4CF03F0E4CF02F0E4CF01F0CD
:101D8000E4CF00F0E4CFD9FF1200D9CFE5FFE1CFD7
:101D9000D9FF00C0E5FF01C0E5FF02C0E5FF03C0B9
:101DA000E5FF04C0E5FF05C0E5FF06C0E5FF07C08D
:101DB000E5FF08C0E5FF09C0E5FF0AC0E5FF0BC06D
:101DC000E5FF0CC0E5FF0DC0E5FF0EC0E5FF0FC04D
:101DD000E5FF020EDBCF00F0030EDBCF01F0040EB7
:101DE000DBCF02F0050EDBCF03F0060EDBCF04F0F5
:101DF000070EDBCF05F0080EDBCF06F0200E076ED6
:101E0000086A06C009F00A6A0B6A0C6AE56AE56AA4
:101E1000E56A0950E56E0350E56E0250E56E01502B
:101E2000E56E0050E56E3EEC11F00D6E080EE126F9
:101E3000300E0D263A0E0D5C05E30D500E6E270E8A
:101E40000E240D6EFF0E07260822600E07240E6E6C
:101E5000030E08200F6E0EC0E9FF0FC0EAFF0DC091
:101E6000EFFF0C50E56E0B50E56E0A50E56E095021
:101E7000E56E0350E56E0250E56E0150E56E0050D0
:101E8000E56E1BEC17F0006EF3CF01F0F4CF02F01B
:101E9000E9CF03F0080EE1260050011002100310F4
:101EA000D8A4AFD707C000F008C001F004C002F00A
:101EB00005C003F000C004F001C005F0004A012A8B
:101EC000600E0426030E052204C0E9FF05C0EAFFE8
:101ED000EFCF04F002C0E9FF03C0EAFF04C0EFFF48
:101EE000024A032A000E015C02E1200E005CE2E3DC
:101EF00002C0E9FF03C0EAFF000EEF6AE4CF0FF073
:101F0000E4CF0EF0E4CF0DF0E4CF0CF0E4CF0BF013
:101F1000E4CF0AF0E4CF09F0E4CF08F0E4CF07F013
:101F2000E4CF06F0E4CF05F0E4CF04F0E4CF03F013
:101F3000E4CF02F0E4CF01F0E4CF00F0E4CFD9FF2A
:101F40001200D9CFE5FFE1CFD9FF00C0E5FF01C006
:101F5000E5FF02C0E5FF03C0E5FF04C0E5FF05C0E3
:101F6000E5FF06C0E5FF020EDBCF00F0030EDBCF7E
:101F700001F0040EDBCF02F000C0E9FF01C0F3FF67
:101F8000025071EC34F0036EE56AE56E0CEC2DF056
:101F9000E652E652300EE56EA2EC31F0E652D4EC99
:101FA00035F0010EE56E0350E56E0CEC2DF0E652B7
:101FB000E652EBEC2FF0036E03A28AD0A5EC30F0D2
:101FC000EBEC2FF0A5EC30F00050010F036E000E8B
:101FD0000120046E000E0220056EEBEC2FF0066E61
:101FE00006C0E5FF03C0E9FF04C0F3FF05505AEC4B
:101FF00035F0A5EC30F00050020F036E000E01200A
:10200000046E000E0220056EEBEC2FF0066E06C08B
:10201000E5FF03C0E9FF04C0F3FF05505AEC35F0BB
:10202000A5EC30F00050030F036E000E0120046E8B
:10203000000E0220056EEBEC2FF0066E06C0E5FFE9
:1020400003C0E9FF04C0F3FF05505AEC35F0A5ECDE
:1020500030F00050040F036E000E0120046E000EDD
:102060000220056EEBEC2FF0066E06C0E5FF03C004
:10207000E9FF04C0F3FF05505AEC35F0A5EC30F051
:102080000050050F036E000E0120046E000E0220AA
:10209000056EEBEC2FF0066E06C0E5FF03C0E9FF0E
:1020A00004C0F3FF05505AEC35F0A5EC30F0060EF5
:1020B0000026000E01220222EBEC2FF0036E03C07B
:1020C000E5FF00C0E9FF01C0F3FF02505AEC35F014
:1020D000D4EC35F0E4CF06F0E4CF05F0E4CF04F023
:1020E000E4CF03F0E4CF02F0E4CF01F0E4CF00F05E
:1020F000E4CFD9FF120000C0E5FF01C0E5FF02C038
:10210000E5FF0301BB6B000EE56A9DEC2FF00401B7
:10211000976FF3CF98F4E652BBC300F0BB2B016A74
:10212000E00E0026000E012200C0E9FF01C0EAFF18
:1021300094C4EFFFBBC300F0BB2B016AE00E002686
:10214000000E012200C0E9FF01C0EAFF020EEF6E9F
:10215000BBC300F0BB2B016AE00E0026000E01227B
:102160009851026E00C0E9FF01C0EAFF02C0EFFF14
:10217000BBC300F0BB2B016AE00E0026000E01225B
:102180009751026E00C0E9FF01C0EAFF02C0EFFFF5
:10219000BBC300F0BB2B016AE00E0026000E01223B
:1021A0007BC402F000C0E9FF01C0EAFF02C0EFFFFC
:1021B000BBC300F0BB2B016AE00E0026000E01221B
:1021C0007AC402F000C0E9FF01C0EAFF02C0EFFFDD
:1021D000BBC300F0BB2B016AE00E0026000E0122FB
:1021E0007DC402F000C0E9FF01C0EAFF02C0EFFFBA
:1021F000BBC300F0BB2B016AE00E0026000E0122DB
:102200007CC402F000C0E9FF01C0EAFF02C0EFFF9A
:10221000BBC300F0BB2B016AE00E0026000E0122BA
:102220007FC402F000C0E9FF01C0EAFF02C0EFFF77
:10223000BBC300F0BB2B016AE00E0026000E01229A
:102240007EC402F000C0E9FF01C0EAFF02C0EFFF58
:102250000301BB51E56E800EE56E000EE56EE00EEB
:10226000E56E000EE56AC5EC23F0050EE126E4CF2D
:1022700002F0E4CF01F0E4CF00F01200D9CFE5FF87
:10228000E1CFD9FF00C0E5FF01C0E5FF02C0E5FFD7
:1022900003C0E5FF04C0E5FF05C0E5FF06C0E5FF9C
:1022A00007C0E5FF08C0E5FF09C0E5FF0AC0E5FF7C
:1022B000020EDBCF00F0030EDBCF01F0040EDBCF0C
:1022C00002F0050EDBCF03F0060EDBCF04F0070EA5
:1022D000DBCF05F0080EDBCF06F0090EDBCF07F0F1
:1022E000086A045005100610071005E1E968F46853
:1022F000F368E86847D0096A0750800BE8440A6E23
:102300000A501BE1045004260536063607360750EE
:10231000035C08E10650025C05E10550015C02E146
:102320000450005C06E2D8900732063205320432CF
:1023300004D0092A09C008F0DFD70750035C08E180
:102340000650025C05E10550015C02E10450005CAE
:1023500008E30450005E0550015A0650025A075027
:10236000035AD890073206320532043208C009F009
:1023700008060950E2E103C0E9FF02C0F4FF01C012
:10238000F3FF0050E4CF0AF0E4CF09F0E4CF08F007
:10239000E4CF07F0E4CF06F0E4CF05F0E4CF04F09B
:1023A000E4CF03F0E4CF02F0E4CF01F0E4CF00F09B
:1023B000E4CFD9FF120000C0E5FF01C0E5FF02C075
:1023C000E5FF03C0E5FF04C0E5FF0301C2510301BF
:1023D000C11901E16AD0C2C300F00050016E0128AA
:1023E000006E009E600E0024016E026A000E022242
:1023F00001C0E9FF02C0EAFFEFCFCCF31F0E0301DB
:10240000CC17C2C3CBF3CC510301CB27CB51016E08
:10241000020E0124CB6FCB9F5CEC2EF0016E0150BD
:1024200003E1016A012A01D0016A5CEC2EF003018C
:10243000CC6FCCC302F0800E0216CCC303F01F0E8B
:10244000031603C004F003C0CCF3045003E1C1C37E
:10245000C2F33ED001501EE0025025E05CEC2EF0AD
:10246000006E0301CC51016E0104CC6F0050420A92
:102470001AE000504E0A03E13FEC29F014D000505E
:10248000460A03E144EC35F00ED00050490A0BE156
:10249000FF0009D0C2C3CDF3025003E001EC33F0DA
:1024A00002D0DFEC35F0CBC3C2F30401C451040108
:1024B000C51906E00301C35103E10BEC13F008D08A
:1024C00094B006D00301C35103E1ACB2CCEC34F0BC
:1024D000E4CF04F0E4CF03F0E4CF02F0E4CF01F066
:1024E000E4CF00F01200D9CFE5FFE1CFD9FF00C063
:1024F000E5FF01C0E5FF02C0E5FF03C0E5FF04C042
:10250000E5FF020EDBCF00F0030EDBCF01F0040E7F
:10251000DBCF02F0050EDBCF03F0420E03018D6F1F
:1025200003508E6F0050010F036E000E0120046EE9
:10253000000E022003C0E9FF04C0F3FF71EC34F089
:1025400003018F6F0050020F036E000E0120046E16
:10255000000E022003C0E9FF04C0F3FF71EC34F069
:102560000301906F0050030F036E000E0120046EF4
:10257000000E022003C0E9FF04C0F3FF71EC34F049
:102580000301916F0050040F036E000E0120046ED2
:10259000000E022003C0E9FF04C0F3FF71EC34F029
:1025A0000301926F0050050F036E000E0120046EB0
:1025B000000E022003C0E9FF04C0F3FF71EC34F009
:1025C0000301936F060E0026000E0122022200C0B6
:1025D000E9FF01C0F3FF025071EC34F00301946F86
:1025E0000A0E956F090EE56E800EE56E030EE56E20
:1025F0008D0EE56E6CEC1BF0040EE126E4CF04F0CA
:10260000E4CF03F0E4CF02F0E4CF01F0E4CF00F038
:10261000E4CFD9FF120000C0E5FF01C0E5FF02C012
:10262000E5FF03C0E5FF04C0E5FFACA27ED045ECAA
:1026300031F0006E005005E10401C56B0401C46B6C
:1026400074D0C5C401F00050012645EC31F0026E93
:102650000050036E0304006E0250230A1FE1010EB6
:10266000005CD8A060D045EC31F0026E690A03E14D
:10267000A7EC2DF058D00250720A03E1CCEC34F0F4
:1026800052D00250730A01E04ED09480AB869D8AEE
:102690009D98AE50AE50AB98AB8845D00250430ADF
:1026A00005E00250420A01E03ED006D000C003F02F
:1026B000046A038E0350006E00C0C5F3005004018D
:1026C000006F010E0301C66F0401C551011814E02B
:1026D00045EC31F0026E0301C527000E0301C6254B
:1026E000006E036A040E032200C0E9FF03C0EAFF84
:1026F00002C0EFFFC62BE8D7000E0301C625006E0F
:10270000026A040E02220301C51D036E032A00C0E3
:10271000E9FF02C0EAFF03C0EFFF0301C62BC6C3F7
:10272000C3F30301BD6B01C0C5F4E4CF04F0E4CFF3
:1027300003F0E4CF02F0E4CF01F0E4CF00F01200A8
:10274000D9CFE5FFE1CFD9FF00C0E5FF01C0E5FF2C
:1027500002C0E5FF03C0E5FF04C0E5FF05C0E5FFDB
:1027600006C0E5FF07C0E5FF08C0E5FF09C0E5FFBB
:102770000AC0E5FF0BC0E5FF0CC0E5FF020EDBCF92
:1027800000F0030EDBCF01F0040EDBCF02F0050EEC
:10279000DBCF03F0060EDBCF04F028EC2CF0056E47
:1027A000F3CF06F0F4CF07F0E9CF08F0A5EC35F051
:1027B000096E09A02ED0A5EC35F0096E09A80AD043
:1027C000100EE56E070EE56E00EC2FF0E652E652B5
:1027D000E86A2ED028EC2CF0096EF3CF0AF0F4CF83
:1027E0000BF0E9CF0CF00550095E06500A5A07506D
:1027F0000B5A08500C5A000E0C5C08E1000E0B5CE2
:1028000005E1000E0A5C02E1600E095CCFE3E86AB4
:102810000FD00450E56E0350E56E0250E56E015096
:10282000E56E0050E56E74EC28F0050EE126010E11
:10283000E4CF0CF0E4CF0BF0E4CF0AF0E4CF09F0E2
:10284000E4CF08F0E4CF07F0E4CF06F0E4CF05F0E2
:10285000E4CF04F0E4CF03F0E4CF02F0E4CF01F0E2
:10286000E4CF00F0E4CFD9FF120000C0E5FF01C0C3
:10287000E5FF0301CE6B200E0301CF6F0301D06B88
:10288000050E0301D16F04018E6F8F6B906B916BFE
:102890000F01336B9398939A000EE56A17EC34F0AE
:1028A000E652010EE56E1BEC32F0E65247EC27F0E3
:1028B000E56AE56AE56A050EE56ECAEC14F0040EF9
:1028C000E1260C0EE56E000EE56A00EC2FF0E652F4
:1028D000E6520F0EE56E050EE56E86EC2EF0E65222
:1028E000E652020EE56EADEC26F0006EE6520050A8
:1028F00003E0010E0301CE6F060EE56EE6EC30F04C
:10290000006EE652000EE56AADEC26F0E652A0EC51
:1029100034F0E56A1D0EE56E00EC2FF0E652E6524B
:10292000E56A1C0EE56E00EC2FF0E652E65203015C
:10293000D06B700EE56E070EE56E00EC2FF0E652E0
:10294000E6524C0EE56E37EC32F0E652B1EC35F063
:10295000ABEC35F083EC31F0000EE56AE6EC30F0DC
:10296000016EE65201900150E56E000EE56A00EC42
:102970002FF0E652E652005003E00050FF0A02E159
:10298000006A02D0010E006E0050E4CF01F0E4CFE7
:1029900000F01200D9CFE5FFE1CFD9FF00C0E5FF7D
:1029A00001C0E5FF02C0E5FF03C0E5FF04C0E5FF8D
:1029B00005C0E5FF06C0E5FF07C0E5FF020EDBCF5F
:1029C00000F0030EDBCF01F0040EDBCF02F0050EAA
:1029D000DBCF03F032EC2EF0046EF3CF05F0F4CF32
:1029E00006F0E9CF07F00350E56E0250E56E0150A6
:1029F000E56E0050E56EE56A0F0EE56E420EE56E7F
:102A0000400EE56E0DEC0BF0006EF3CF01F0F4CF4D
:102A100002F0E9CF03F0080EE126E56AE56A030E4D
:102A2000E56EE80EE56E0350E56E0250E56E01506E
:102A3000E56E0050E56E1BEC17F0006EF3CF01F071
:102A4000F4CF02F0E9CF03F0080EE126045000268F
:102A500005500122065002220750032232EC2EF0CC
:102A6000046EF3CF05F0F4CF06F0E9CF07F0005085
:102A7000045E0150055A0250065A0350075A079E39
:102A80003F0E075C08E1FF0E065C05E1FF0E055CEA
:102A900002E1FF0E045CE2E2E4CF07F0E4CF06F0CF
:102AA000E4CF05F0E4CF04F0E4CF03F0E4CF02F08C
:102AB000E4CF01F0E4CF00F0E4CFD9FF1200D9CF8A
:102AC000E5FFE1CFD9FF00C0E5FF01C0E5FF02C08F
:102AD000E5FF03C0E5FF04C0E5FF06C0E5FF020E09
:102AE000DBCF00F0030EDBCF01F0040EDBCF02F0F2
:102AF0003F0EC716C66AC56A0050C6120150C712FB
:102B00009488820E006E0F0E016E0F0E046E380E4A
:102B10000026045001220F0E046E800E005E045049
:102B2000015A820E036E0F0E046E0F0E066E380EE3
:102B30000326065004220F0E066E800E035E06501A
:102B4000045A03C0E9FF04C0EAFFEFCF03F0039883
:102B500000C0E9FF01C0EAFF03C0EFFF9486820EC8
:102B6000006E0F0E016E0F0E046E380E002604501C
:102B700001220F0E046E800E005E0450015A820E78
:102B8000036E0F0E046E0F0E066E380E03260650EF
:102B900004220F0E066E800E035E0650045A03C018
:102BA000E9FF04C0EAFFEFCF03F0039600C0E9FF9E
:102BB00001C0EAFF03C0EFFF02C0C8FFC6CF00F0AC
:102BC000008A0050C66E9E96A196E4CF06F0E4CF30
:102BD00004F0E4CF03F0E4CF02F0E4CF01F0E4CF5F
:102BE00000F0E4CFD9FF1200D9CFE5FFE1CFD9FF44
:102BF00000C0E5FF01C0E5FF02C0E5FF03C0E5FF3F
:102C000004C0E5FF05C0E5FF06C0E5FF07C0E5FF1E
:102C1000020EDBCF00F0030EDBCF01F0040EDBCFA2
:102C200002F0050EDBCF03F032EC2EF0046EF3CF92
:102C300005F0F4CF06F0E9CF07F00350E56E02503F
:102C4000E56E0150E56E0050E56EE56AE56A030E3B
:102C5000E56EE80EE56E0DEC0BF0006EF3CF01F0C3
:102C6000F4CF02F0E9CF03F0080EE126E56AE56A49
:102C7000030EE56EE80EE56E0350E56E0250E56E5C
:102C80000150E56E0050E56E1BEC17F0006EF3CFBF
:102C900001F0F4CF02F0E9CF03F0080EE126045072
:102CA000002605500122065002220750032232EC72
:102CB0002EF0046EF3CF05F0F4CF06F0E9CF07F065
:102CC0000050045E0150055A0250065A0350075A3C
:102CD000079E3F0E075C08E1FF0E065C05E1FF0E54
:102CE000055C02E1FF0E045CE2E2E4CF07F0E4CF12
:102CF00006F0E4CF05F0E4CF04F0E4CF03F0E4CF36
:102D000002F0E4CF01F0E4CF00F0E4CFD9FF1200ED
:102D1000D9CFE5FFE1CFD9FF00C0E5FF01C0E5FF56
:102D200002C0E5FF03C0E5FF04C0E5FF05C0E5FF05
:102D300006C0E5FF07C0E5FF08C0E5FF09C0E5FFE5
:102D40000AC0E5FF020EDBCF00F0030EDBCF01F07F
:102D5000040EDBCF02F0050EDBCF03F0060EDBCF57
:102D600004F0070EDBCF05F00038E8441F0B066EB9
:102D7000076AB90E0626030E072206C0E9FF07C040
:102D8000EAFFEFCF08F00050096E070E0916010E9A
:102D90000A6E09500DE006E6E86CD8900A36010F7D
:102DA000FDE306D0D8900ABED8800A32010FFBE3BB
:102DB00008500A1206C0E9FF07C0EAFF0AC0EFFF89
:102DC000230E0024066E076A0F0E072206C0E9FFD5
:102DD00007C0EAFF01C0EFFF016A230E0026040EC0
:102DE0000122800E025E070E02160238F00B036EFF
:102DF000070E05160550032600C0E9FF01C0EAFFD3
:102E000003C0EFFFE4CF0AF0E4CF09F0E4CF08F00D
:102E1000E4CF07F0E4CF06F0E4CF05F0E4CF04F010
:102E2000E4CF03F0E4CF02F0E4CF01F0E4CF00F010
:102E3000E4CFD9FF1200D9CFE5FFE1CFD9FF00C021
:102E4000E5FF01C0E5FF02C0E5FF03C0E5FF04C0E8
:102E5000E5FF05C0E5FF06C0E5FF07C0E5FF08C0C8
:102E6000E5FF09C0E5FF0AC0E5FF0BC0E5FF0CC0A8
:102E7000E5FF0DC0E5FF020EDBCF00F0030EDBCF58
:102E800001F0040EDBCF02F0050EDBCF03F0060EDF
:102E9000DBCF04F0070EDBCF05F0080EDBCF06F02A
:102EA000090EDBCF07F0086A096A0A6A0B6A200E6E
:102EB0000C6E0350800BE8440D6E00500026013666
:102EC000023603360850082609360A360B360D50EE
:102ED000D8A4088007500B5C08E106500A5C05E1A5
:102EE0000550095C02E10450085C09E30450085EE7
:102EF0000550095A06500A5A07500B5A00800C0414
:102F00000D6E0DC00CF00D50D4E103C0E9FF02C0FE
:102F1000F4FF01C0F3FF0050E4CF0DF0E4CF0CF05C
:102F2000E4CF0BF0E4CF0AF0E4CF09F0E4CF08F0EF
:102F3000E4CF07F0E4CF06F0E4CF05F0E4CF04F0EF
:102F4000E4CF03F0E4CF02F0E4CF01F0E4CF00F0EF
:102F5000E4CFD9FF120000C0E5FF01C0E5FF03C0C8
:102F6000E5FF04C0E5FF05C0E5FF06C0E5FF07C0BB
:102F7000E5FF08C0E5FF09C0E5FF0AC0E5FF0BC09B
:102F8000E5FFB7C300F0B8C301F00301B73F01D0BC
:102F9000B82B0050E56EBEEC34F0E652076E046AC2
:102FA000056A066AB7C300F0B8C301F00301B73F72
:102FB00001D0B82B0050E56EBEEC34F0E6520B6A3F
:102FC0000A6E086A0850041205120A5006120B50C5
:102FD0000712B7C300F0B8C301F00301B73F01D037
:102FE000B82B0050E56EBEEC34F0E652036E006A7A
:102FF00003C001F0E86A03BEFF0E086E096E0050C0
:103000000412015005120850061209500712B7C3E6
:1030100000F0B8C301F00301B73F01D0B82B005056
:10302000E56EBEEC34F0E652016A0412015005125E
:103030000612071207C0E9FF06C0F4FF05C0F3FF40
:103040000450E4CF0BF0E4CF0AF0E4CF09F0E4CF72
:1030500008F0E4CF07F0E4CF06F0E4CF05F0E4CFCA
:1030600004F0E4CF03F0E4CF01F0E4CF00F012006D
:10307000D9CFE5FFE1CFD9FF00C0E5FF01C0E5FFF3
:1030800002C0E5FF03C0E5FF04C0E5FF05C0E5FFA2
:1030900006C0E5FF07C0E5FF020EDBCF00F0030E20
:1030A000DBCF01F0040EDBCF02F0050EDBCF03F027
:1030B00003C004F0056A0350D8B454D000C0E9FF3F
:1030C00001C0F3FF025071EC34F0066E430A08E1D0
:1030D000010E056E03C006F0076A068E0650036EE9
:1030E0000406002A02E3014A022A9D9AAB989490B2
:1030F0009D989EA8FED7AC80AD6A00009EA8FED722
:10310000AC9003C0ADFF00009EA8FED7055004E0C0
:10311000420EAD6E032604D0620EAD6E620E032623
:10312000045015E000009EA8FED700C0E9FF01C0D2
:10313000F3FF025071EC34F0056E05C0ADFF055091
:1031400003260406002A02E3014A022AE9D7000006
:103150009EA8FED7031CAD6EAD2A00009EA8FED728
:10316000CCEC34F0E4CF07F0E4CF06F0E4CF05F088
:10317000E4CF04F0E4CF03F0E4CF02F0E4CF01F0B9
:10318000E4CF00F0E4CFD9FF1200D9CFE5FFE1CFC3
:10319000D9FF00C0E5FF01C0E5FF02C0E5FF03C0A5
:1031A000E5FF04C0E5FF05C0E5FF06C0E5FF07C079
:1031B000E5FF020EDBCF00F0030EDBCF01F0040EC3
:1031C000DBCF02F0050EDBCF03F002C006F00650A5
:1031D000046E800A33E100C0E9FF01C0F3FF025032
:1031E00052EC32F0056EF3CF06F0F4CF07F003C0D7
:1031F000E5FF05C0E9FF06C0F3FF07505AEC35F0C4
:1032000000C0E9FF01C0F3FF025052EC32F0056E3E
:10321000F3CF06F0F4CF07F0052A02E3064A072AA7
:1032200005C0E5FF06C0F4FF07C0F6FF00C0E9FFD8
:1032300001C0F3FF0250AFEC34F020D004C000F026
:1032400000AA1CD0007A0050046E04E10350D8ECB0
:1032500035F014D00450010A04E10350F4EC35F0C9
:103260000DD004500F0A04E1035076EC2DF006D087
:1032700004500E0A03E10350F1EC35F0E4CF07F0FF
:10328000E4CF06F0E4CF05F0E4CF04F0E4CF03F0A0
:10329000E4CF02F0E4CF01F0E4CF00F0E4CFD9FFB7
:1032A0001200D9CFE5FFE1CFD9FF00C0E5FF01C093
:1032B000E5FF02C0E5FF03C0E5FF04C0E5FF05C070
:1032C000E5FF020EDBCF00F0030EDBCF01F0040EB2
:1032D000DBCF02F0050EDBCF03F0060EDBCF04F0F0
:1032E0000338F00B056E0450052605C0E5FF00C04D
:1032F000E9FF01C0F3FF02505AEC35F00050010F16
:10330000036E000E0120046E000E0220056E0A0EF0
:10331000E56E03C0E9FF04C0F3FF05505AEC35F039
:103320000050020F036E000E0120046E000E0220FA
:10333000056E990EE56E03C0E9FF04C0F3FF05506A
:103340005AEC35F00050030F036E000E0120046E9E
:10335000000E0220056E980EE56E03C0E9FF04C062
:10336000F3FF05505AEC35F0040E0026000E012242
:103370000222970EE56E00C0E9FF01C0F3FF025084
:103380005AEC35F0E4CF05F0E4CF04F0E4CF03F0DD
:10339000E4CF02F0E4CF01F0E4CF00F0E4CFD9FFB6
:1033A00012004320696E697452460A00435220435A
:1033B0002025640A000000C0E5FF01C0E5FF02C04F
:1033C000E5FF03C0E5FFDBEC11F00EEC04F0800E2E
:1033D000E56E040EE56E790EE56EA1EC0FF0030EBE
:1033E000E126F4EC1CF0006E005002E08B8201D06C
:1033F0008B9232EC2EF0006EF3CF01F0F4CF02F09E
:10340000E9CF03F004018151005E8251015A8351DA
:10341000025A8451035A039E3F0E035C08E1FF0EDB
:10342000025C05E1FF0E015C02E1FF0E005CD8B01A
:1034300040D032EC2EF0F3CF01F0F4CF02F0E9CF20
:1034400003F0880F0401816F130E0120826F000EBC
:103450000220836F000E0320846F95C400F096C491
:1034600001F00401953F01D0962B0050640A02E15F
:10347000015001E01ED00401956B966B93C400F0DF
:10348000E56A0050E56E000EE56E330EE56EAC0E9B
:10349000E56E43EC2AF0050EE126DCEC33F0006E1D
:1034A000005002E10401936B04019351D8B45DEC28
:1034B00030F0E4CF03F0E4CF02F0E4CF01F0E4CF4A
:1034C00000F0120000C0E5FF01C0E5FF02C0E5FF0B
:1034D00003C0E5FF05C0E5FFCFEC35F094928B9279
:1034E00032EC2EF0F3CF01F0F4CF02F0E9CF03F08D
:1034F000880F0401816F130E0120826F000E0220DD
:10350000836F000E0320846FEFEC1BF00F01428FDE
:103510004251CF0B2009426FC150F30B0809C16E15
:103520009484820E006E0F0E016E0F0E036E380E25
:103530000026035001220F0E036E800E005E035022
:10354000015A820E026E0F0E036E0F0E056E380EBC
:103550000226055003220F0E056E800E025E0550F6
:10356000035A02C0E9FF03C0EAFFEFCF02F0028472
:1035700000C0E9FF01C0EAFF02C0EFFF0E0EE56EDA
:10358000000EE56A75EC21F0E652E652270EE56E74
:10359000E56A080EE56E5FEC15F0030EE126E56ABC
:1035A000800EE56E040EE56E790EE56E2DEC20F0D2
:1035B000040EE1265DEC30F0E4CF05F0E4CF03F03B
:1035C000E4CF02F0E4CF01F0E4CF00F01200D9CF55
:1035D000E5FFE1CFD9FF00C0E5FF01C0E5FF02C074
:1035E000E5FF03C0E5FF04C0E5FF05C0E5FF06C039
:1035F000E5FF07C0E5FF020EDBCF00F0030EDBCFD7
:1036000001F0040EDBCF02F0050EDBCF03F0060E57
:10361000DBCF04F00450E56E0350E56E0250E56E1A
:103620000150E56E0050E56E74EC28F0050EE126C1
:1036300028EC2CF0006EF3CF01F0F4CF02F0E9CFCC
:1036400003F0A5EC35F0300B1FE128EC2CF0046EF4
:10365000F3CF05F0F4CF06F0E9CF07F00050045E99
:103660000150055A0250065A0350075A000E075CD3
:1036700008E1000E065C05E1000E055C02E1600E4B
:10368000045CDFE3E86A15D0000EE56A17EC34F05D
:10369000E652700EE56E070EE56E00EC2FF0006E40
:1036A000E652E65200A804D0ABEC35F0E86A01D04F
:1036B000010EE4CF07F0E4CF06F0E4CF05F0E4CF4D
:1036C00004F0E4CF03F0E4CF02F0E4CF01F0E4CF64
:1036D00000F0E4CFD9FF1200D9CFE5FFE1CFD9FF49
:1036E00000C0E5FF01C0E5FF02C0E5FF03C0E5FF44
:1036F00004C0E5FF05C0E5FF06C0E5FF07C0E5FF24
:10370000020EDBCF00F0030EDBCF01F0040EDBCFA7
:1037100002F0050EDBCF03F0C5C4C6F40401C451AA
:103720000401C65FC651046E0404C66F03C004F0F2
:10373000056A030E0426D8B0052AC6C406F0076A37
:103740000750800FF36E0550800FF35C02E10450C8
:10375000065C02E2E86830D0020E035C02E2E86A2E
:103760002BD00350046E0404036EE56EFFEC2AF0C8
:10377000E652046A0350045C14E204500024056E0F
:10378000E86A0120066EE86A022005C0E9FF06C06B
:10379000F3FF71EC34F0042AE56EFFEC2AF0E652F8
:1037A000E9D7C5C4C6F40401C4510401C65FC651BB
:1037B000006E0004C66FE86AE4CF07F0E4CF06F0BD
:1037C000E4CF05F0E4CF04F0E4CF03F0E4CF02F05F
:1037D000E4CF01F0E4CF00F0E4CFD9FF120000C045
:1037E000E5FF01C0E5FF02C0E5FF03C0E5FF04C03F
:1037F000E5FF006AB90E0024016E026A030E022280
:1038000001C0E9FF02C0EAFFEF6A002A020E005C75
:10381000F1E3006A0050020DF450026EF3CF01F0A4
:10382000E00E0124036E040E0220046E03C0E9FFC3
:1038300004C0EAFFEE6AEF6A390E0124036E040E3B
:103840000220046E03C0E9FF04C0EAFFEE6AEF6ADB
:10385000590E0124036E040E0220046E03C0E9FF1A
:1038600004C0EAFFEE6AEF6A000E0124036E030E45
:103870000220046E03C0E9FF04C0EAFFEE6AEF6AAB
:10388000200E0126030E022201C0E9FF02C0EAFF5A
:10389000EE687F0EEF6E230E0024016E026A040EA6
:1038A000022201C0E9FF02C0EAFFEF68002A100E01
:1038B000005CD8A0AFD7AF0EC06EC16A010EC26E59
:1038C000C282E4CF04F0E4CF03F0E4CF02F0E4CF0F
:1038D00001F0E4CF00F012004320412025642025B0
:1038E000640A0000D9CFE5FFE1CFD9FF00C0E5FFB2
:1038F00001C0E5FF02C0E5FF03C0E5FF04C0E5FF2E
:1039000005C0E5FF06C0E5FF07C0E5FF08C0E5FF0D
:1039100009C0E5FF0AC0E5FF0BC0E5FF0CC0E5FFED
:10392000020EDBCF00F0030EDBCF01F0040EDBCF85
:1039300002F0050EDBCF03F0060EDBCF04F0070E1E
:10394000DBCF05F0080EDBCF06F0090EDBCF07F06A
:1039500002500A6E0150096E0050086E06C00BF04E
:1039600007C00CF0FF0E062607220B500C101AE0C1
:1039700003C0E9FF04C0F3FF055071EC34F00B6E97
:10398000032A02E3044A052A0BC0E5FF08C0E9FF49
:1039900009C0F3FF0A505AEC35F0082ADFE3094A60
:1039A0000A2ADCD702C0F4FF01C0F3FF0050E4CFC5
:1039B0000CF0E4CF0BF0E4CF0AF0E4CF09F0E4CF51
:1039C00008F0E4CF07F0E4CF06F0E4CF05F0E4CF51
:1039D00004F0E4CF03F0E4CF02F0E4CF01F0E4CF51
:1039E00000F0E4CFD9FF120000C0E5FF01C0E5FF01
:1039F00002C0E5FF03C0E5FF32EC2EF0006EF3CF0E
:103A000001F0F4CF02F0E9CF03F00401BD51005EF4
:103A1000BE51015ABF51025AC051035A039E3F0E74
:103A2000035C08E1FF0E025C05E1FF0E015C02E1B0
:103A3000FF0E005C02E20401C16B91EC34F0006EF9
:103A4000005003E10401C15145D038EC30F0006E64
:103A5000200EE56E800EE56E040EE56E9B0EE56EA3
:103A6000D5EC2CF0040EE126030E002600C001F078
:103A7000026A00BE0268990E0126040E022201C0ED
:103A8000E9FF02C0EAFF0A0EEF6E0050E56E800EFD
:103A9000E56E040EE56E990EE56E6CEC1BF0040EFF
:103AA000E126010E0401C16F32EC2EF0F3CF01F0DC
:103AB000F4CF02F0E9CF03F0080F0401BD6FC20E8E
:103AC0000120BE6F0A0E0220BF6F000E0320C06FE0
:103AD0000401C151E4CF03F0E4CF02F0E4CF01F0E0
:103AE000E4CF00F01200D9CFE5FFE1CFD9FF00C04D
:103AF000E5FF01C0E5FF02C0E5FF03C0E5FF04C02C
:103B0000E5FF05C0E5FF06C0E5FF07C0E5FF020EC3
:103B1000DBCF00F0030EDBCF01F0040EDBCF02F0B1
:103B2000050EDBCF03F0060EDBCF04F00301CF510F
:103B3000035C03E203C005F002D0CFC305F005C06B
:103B400003F00301D05102E0056A06D003500301DF
:103B5000CF5D076E07C005F0BDEC35F00450E56E93
:103B600012EC35F0046EE65203C006F00306065070
:103B700012E000C0E9FF01C0F3FF025071EC34F025
:103B8000066E002A02E3014A022A0650E56E12EC94
:103B900035F0E652E9D705C000F000C001F000069C
:103BA000015006E0000EE56A12EC35F0E652F5D75A
:103BB000B7EC35F00450E4CF07F0E4CF06F0E4CFE3
:103BC00005F0E4CF04F0E4CF03F0E4CF02F0E4CF5B
:103BD00001F0E4CF00F0E4CFD9FF1200D9CFE5FF28
:103BE000E1CFD9FF00C0E5FF01C0E5FF02C0E5FF5E
:103BF00003C0E5FF04C0E5FF05C0E5FF06C0E5FF23
:103C000007C0E5FF08C0E5FF09C0E5FF0AC0E5FF02
:103C1000020EDBCF00F0030EDBCF01F0040EDBCF92
:103C200002F0050EDBCF03F0060EDBCF04F0070E2B
:103C3000DBCF05F0080EDBCF06F0090EDBCF07F077
:103C40000A0EDBCF08F0700EE56E070EE56E00EC95
:103C50002FF0096EE652E652200E09140A6E0AC0D1
:103C6000E5FF00C0E9FF01C0F3FF02505AEC35F058
:103C7000100E0914006E00C0E5FF03C0E9FF04C088
:103C8000F3FF05505AEC35F0400E091609C0E5FF68
:103C900006C0E9FF07C0F3FF08505AEC35F0E4CF47
:103CA0000AF0E4CF09F0E4CF08F0E4CF07F0E4CF66
:103CB00006F0E4CF05F0E4CF04F0E4CF03F0E4CF66
:103CC00002F0E4CF01F0E4CF00F0E4CFD9FF12001E
:103CD000D9CFE5FFE1CFD9FF00C0E5FF01C0E5FF87
:103CE00002C0E5FF03C0E5FF04C0E5FF05C0E5FF36
:103CF000020EDBCF00F0030EDBCF01F0040EDBCFB2
:103D000002F00050020DF450036EF3CF00F0390EB4
:103D10000024046E040E0320056E04C0E9FF05C0F4
:103D2000EAFF01C0EEFF02C0EFFF590E0024046E4F
:103D3000040E0320056E04C0E9FF05C0EAFFEECFC4
:103D400004F0EFCF05F00150045C016E02500558FD
:103D5000026E400E0026030E032200C0E9FF03C0DE
:103D6000EAFF01C0EEFF02C0EFFFD88002AED8909C
:103D700004E3021E016CD8B4022A0250800F800FA7
:103D800002E1030E015C02E2016A026A01500210C4
:103D900007E100C0E9FF03C0EAFF000EEE6AEF6A28
:103DA000E4CF05F0E4CF04F0E4CF03F0E4CF02F079
:103DB000E4CF01F0E4CF00F0E4CFD9FF1200D9CF77
:103DC000E5FFE1CFD9FF00C0E5FF01C0E5FF02C07C
:103DD000E5FF03C0E5FF04C0E5FF05C0E5FF06C041
:103DE000E5FF020EDBCF00F0030EDBCF01F0040E87
:103DF000DBCF02F0050EDBCF03F003500301CF5DF4
:103E0000D8A0CFC303F00301D05102E0046A06D06A
:103E100003500301CF5D066E06C004F0BDEC35F023
:103E2000610EE56E12EC35F0056EE65203C006F049
:103E30000306065014E0FF0EE56812EC35F0066E3E
:103E4000E65206C0E5FF00C0E9FF01C0F3FF0250E3
:103E50005AEC35F0002AEAE3014A022AE7D704C007
:103E600000F000C001F00006015006E0FF0EE5681A
:103E700012EC35F0E652F5D7B7EC35F00550E4CF4B
:103E800006F0E4CF05F0E4CF04F0E4CF03F0E4CF94
:103E900002F0E4CF01F0E4CF00F0E4CFD9FF12004C
:103EA00000C0E5FF01C0E5FF02C0E5FF000EE56AC6
:103EB00017EC34F0E65203019951E56E9851E56E26
:103EC0009751E56E9651E56EF4EC15F0040EE1267F
:103ED0001D0EE56EE6EC30F0006EE65200A20FD04B
:103EE00003019951E56E9851E56E9751E56E965133
:103EF000E56EF4EC15F0040EE126ABEC35F0000EA7
:103F0000E56EE6EC30F0006EE65200900050E56E93
:103F1000000EE56E00EC2FF0E652E652020EE56E62
:103F2000E6EC30F0006EE652DE0EF66E6A0EF76ECC
:103F3000000EF86E0900F5CF01F0010E026E01507F
:103F40000DE006E6E86CD8900236010FFDE306D0DE
:103F5000D89002BED8800232010FFBE3005002125B
:103F60000250E56E020EE56E00EC2FF0E652E652CE
:103F7000E4CF02F0E4CF01F0E4CF00F0120000C083
:103F8000E5FF01C0E5FF02C0E5FF03C0E5FF04C097
:103F9000E5FF05C0E5FF06C0E5FF07C0E5FF28EC2B
:103FA0002CF0006EF3CF01F0F4CF02F0E9CF03F074
:103FB000170EE56EE6EC30F0046EE65204B836D02B
:103FC000A5EC35F0046E04A811D0100EE56E070EB6
:103FD000E56E00EC2FF0E652E652000EE56A17ECB3
:103FE00034F0E652ABEC35F0E86A26D028EC2CF041
:103FF000046EF3CF05F0F4CF06F0E9CF07F00050E0
:10400000045E0150055A0250065A0350075A000E2A
:10401000075C08E1000E065C05E1000E055C02E1AC
:10402000600E045CD8A0C4D7E86A06D0000EE56A2A
:1040300017EC34F0E652010EE4CF07F0E4CF06F0BF
:10404000E4CF05F0E4CF04F0E4CF03F0E4CF02F0D6
:10405000E4CF01F0E4CF00F01200D9CFE5FFE1CFCB
:10406000D9FF00C0E5FF01C0E5FF02C0E5FF03C0C6
:10407000E5FF020EDBCF00F0030EDBCF01F0040EF4
:10408000DBCF02F0050EDBCF03F0035003E11D0E82
:10409000036E02D0530E036E03C0E5FF00C0E9FFBC
:1040A00001C0F3FF02505AEC35F0E56A2D0EE56EC3
:1040B0000350E56ED8EC2DF0030EE126100EE56EF0
:1040C0002D0EE56E0350E56ED8EC2DF0030EE126C3
:1040D000080EE56E2D0EE56E0350E56ED8EC2DF062
:1040E000030EE1260B0EE56E310EE56E0350E56E14
:1040F000D8EC2DF0030EE126090EE56E2C0EE56ED0
:104100000350E56ED8EC2DF0030EE126810EE56E2E
:10411000380EE56E0350E56ED8EC2DF0030EE12667
:10412000E4CF03F0E4CF02F0E4CF01F0E4CF00F0FD
:10413000E4CFD9FF1200D9CFE5FFE1CFD9FF00C00E
:10414000E5FF01C0E5FF02C0E5FF03C0E5FF04C0D5
:10415000E5FF05C0E5FF06C0E5FF020EDBCF00F07E
:10416000030EDBCF01F0040EDBCF02F0050EDBCF38
:1041700003F0D88001AED890046A0436045007E0FA
:10418000011C066E001C056E054A062A04D000C0FC
:1041900005F001C006F0D88003AED89007E3031CF9
:1041A000016E021C006E004A012A04D002C000F019
:1041B00003C001F00150E56E0050E56E0650E56E5B
:1041C0000550E56E68EC23F0006EF3CF01F0040EAD
:1041D000E12604500AE0011C036E001C026E024A34
:1041E000032A03C0F3FF025003D001C0F3FF0050C5
:1041F000E4CF06F0E4CF05F0E4CF04F0E4CF03F021
:10420000E4CF02F0E4CF01F0E4CF00F0E4CFD9FF37
:104210001200D9CFE5FFE1CFD9FF00C0E5FF01C013
:10422000E5FF02C0E5FF03C0E5FF04C0E5FF05C0F0
:10423000E5FF020EDBCF00F0030EDBCF01F0040E32
:10424000DBCF02F0050EDBCF03F0B7C304F0B8C339
:1042500005F00301B73F01D0B82B0350E56E0450C1
:10426000E56E81EC30F0E652E652B7C304F0B8C315
:1042700005F00301B73F01D0B82B0250056EE56E83
:104280000450E56E81EC30F0E652E652B7C304F01C
:10429000B8C305F00301B73F01D0B82B0150E56E5C
:1042A0000450E56E81EC30F0E652E652B7C304F0FC
:1042B000B8C305F00301B73F01D0B82B0050E56E3D
:1042C0000450E56E81EC30F0E652E652E4CF05F0A2
:1042D000E4CF04F0E4CF03F0E4CF02F0E4CF01F048
:1042E000E4CF00F0E4CFD9FF1200D9CFE5FFE1CF52
:1042F000D9FF00C0E5FF01C0E5FF02C0E5FF03C034
:10430000E5FF04C0E5FF05C0E5FF06C0E5FF020EBE
:10431000DBCF00F0030EDBCF01F00038E8441F0BC9
:10432000026E036AB90E0226030E032202C0E9FFE1
:1043300003C0EAFFEFCF04F00050056E070E05162C
:10434000010E066E05500DE006E6E86CD8900636C4
:10435000010FFDE306D0D89006BED8800632010FCB
:10436000FBE30450061202C0E9FF03C0EAFF06C0E7
:10437000EFFF230E0024026E036A0F0E032202C019
:10438000E9FF03C0EAFF01C0EFFF016A230E002628
:10439000040E012200C0E9FF01C0EAFFFF0EEF6832
:1043A000E4CF06F0E4CF05F0E4CF04F0E4CF03F06F
:1043B000E4CF02F0E4CF01F0E4CF00F0E4CFD9FF86
:1043C0001200D9CFE5FFE1CFD9FF00C0E5FF01C062
:1043D000E5FF02C0E5FF03C0E5FF04C0E5FF05C03F
:1043E000E5FF06C0E5FF020EDBCF00F0030EDBCFDA
:1043F00001F0040EDBCF02F00301BC5119E1ABEC7C
:1044000017F0036EF3CF04F0F4CF05F0E9CF06F018
:1044100003C0E5FF04C0F4FF05C0F6FF06C0F7FFC8
:1044200000C0E9FF01C0F3FF025060EC34F01ED081
:104430000301BC51010A1AE100C0E9FF01C0F3FF0A
:10444000025006EC31F0006EF3CF01F0F4CF02F031
:10445000E9CF03F00350E56E0250E56E0150E56EC2
:104460000050E56E09EC21F0040EE126E4CF06F0E1
:10447000E4CF05F0E4CF04F0E4CF03F0E4CF02F0A2
:10448000E4CF01F0E4CF00F0E4CFD9FF1200D9CFA0
:10449000E5FFE1CFD9FF00C0E5FF01C0E5FF02C0A5
:1044A000E5FF03C0E5FF04C0E5FF05C0E5FF06C06A
:1044B000E5FF020EDBCF00F0030EDBCF01F0040EB0
:1044C000DBCF02F0050EDBCF03F0060EDBCF04F0EE
:1044D000070EDBCF05F0080EDBCF06F0D88003AE69
:1044E000D89015E306500A0A12E104C0E9FF05C09E
:1044F000EAFF2D0EEF6E044A052A031E021E011E5E
:10450000006C05E1012A03E1022AD8B4032A06500F
:10451000E56E0550E56E0450E56E0350E56E025001
:10452000E56E0150E56E0050E56EC5EC0EF0070E2D
:10453000E126E4CF06F0E4CF05F0E4CF04F0E4CFC9
:1045400003F0E4CF02F0E4CF01F0E4CF00F0E4CFD9
:10455000D9FF1200D9CFE5FFE1CFD9FF00C0E5FFB9
:1045600001C0E5FF02C0E5FF03C0E5FF020EDBCF9F
:1045700000F0030EDBCF01F0070E005CD8B03FD097
:10458000010EE56EE6EC30F0026EE652015017E0E7
:104590000050016E010E036E01500DE006E6E86C5E
:1045A000D8900336010FFDE306D0D89003BED88023
:1045B0000332010FFBE302500310026E18D0010E0C
:1045C000016E00500DE006E6E86CD8900136010F50
:1045D000FDE306D0D89001BED8800132010FFBE385
:1045E000011C006E0250016E00500114026E025058
:1045F000E56E010EE56E00EC2FF0E652E652E4CFD8
:1046000003F0E4CF02F0E4CF01F0E4CF00F0E4CF18
:10461000D9FF1200D8CFE5FFE0CFE5FFE56EF3CF7D
:10462000E5FFF4CFE5FFE9CFE5FFEACFE5FFFACFFD
:10463000E5FFFBCFE5FFF6CFE5FFF6CFE5FFF7CFD0
:10464000E5FFF8CFE5FFF5CFE5FFE1CFE5FFE2CFEE
:10465000E5FF0401C2510401876F0401C351040145
:10466000886FD650856FD750866FF2A411D00401A1
:10467000C23F01D0C32BF2940401C2510401876FE1
:104680000401C3510401886FD650856FD750866FDF
:10469000E4CFE2FFE4CFE1FFE4CFF5FFE4CFF8FFA2
:1046A000E4CFF7FFE4CFF6FFE4CFF6FFE4CFFBFF64
:1046B000E4CFFAFFE4CFEAFFE4CFE9FFE4CFF4FF71
:1046C000E4CFF3FFE450E4CFE0FFE4CFD8FF1000E5
:1046D000D9CFE5FFE1CFD9FF00C0E5FF01C0E5FF7D
:1046E00002C0E5FF03C0E5FF04C0E5FF05C0E5FF2C
:1046F00006C0E5FF020EDBCF00F0030EDBCF01F0BA
:10470000040EDBCF02F0050EDBCF03F0046A056A6E
:104710000350800BE844066E065011E10250022659
:1047200003360350015C02E10250005C04E2D890C1
:104730000332023204D0052A05C004F0E9D7035041
:10474000015C02E10250005C04E30250005E035091
:10475000015AD8900332023204C005F00406055015
:10476000EEE101C0F3FF0050E4CF06F0E4CF05F026
:10477000E4CF04F0E4CF03F0E4CF02F0E4CF01F0A3
:10478000E4CF00F0E4CFD9FF1200D9CFE5FFE1CFAD
:10479000D9FF00C0E5FF01C0E5FF02C0E5FF03C08F
:1047A000E5FF04C0E5FF020EDBCF00F0030EDBCF18
:1047B00001F0040EDBCF02F0050EDBCF03F0060E96
:1047C000DBCF04F0200E045C02E3200E046EBDEC8F
:1047D00035F0070E0016A80E00120050E56E12EC20
:1047E00035F0E65201C000F002C001F003C002F053
:1047F00004C003F00406035012E000C0E9FF01C04A
:10480000F3FF025071EC34F0036E002A02E3014A18
:10481000022A0350E56E12EC35F0E652E9D7B7EC08
:1048200035F0E4CF04F0E4CF03F0E4CF02F0E4CFBE
:1048300001F0E4CF00F0E4CFD9FF1200D9CFE5FFBB
:10484000E1CFD9FF00C0E5FF01C0E5FF02C0E5FFF1
:1048500003C0E5FF04C0E5FF05C0E5FF020EDBCFA6
:1048600000F0030EDBCF01F0040EDBCF02F0050EEB
:10487000DBCF03F0060EDBCF04F0BDEC35F01F0EEE
:1048800000160050E56E12EC35F0006EE65204C0E2
:1048900005F00406055014E0FF0EE56812EC35F053
:1048A000056EE65205C0E5FF01C0E9FF02C0F3FF57
:1048B00003505AEC35F0012AEAE3024A032AE7D70B
:1048C000B7EC35F00050E4CF05F0E4CF04F0E4CFCE
:1048D00003F0E4CF02F0E4CF01F0E4CF00F0E4CF46
:1048E000D9FF1200D9CFE5FFE1CFD9FF00C0E5FF26
:1048F00001C0E5FF02C0E5FF03C0E5FF020EDBCF0C
:1049000000F0030EDBCF01F0040EDBCF02F000C09D
:10491000E9FF01C0F3FF025071EC34F0036E035065
:1049200029E0C6A610D00350E56EA2EC31F0036E6C
:10493000E652035002E0FD0E1ED062EC2CF0C5AC36
:1049400014D0FE0E18D09E9600C0E9FF01C0F3FF00
:10495000025071EC34F0C96EC6889EA6FED7C7B46B
:1049600004D0C7B002D0FE0E06D0002AD0E3014A20
:10497000022ACDD7E86AE4CF03F0E4CF02F0E4CF17
:1049800001F0E4CF00F0E4CFD9FF1200D9CFE5FF6A
:10499000E1CFD9FF00C0E5FF01C0E5FF02C0E5FFA0
:1049A00003C0E5FF04C0E5FF05C0E5FF020EDBCF55
:1049B00000F0030EDBCF01F0040EDBCF02F0050E9A
:1049C000DBCF03F0046A03C005F00306055022E0C4
:1049D000EBEC2FF0056E05C0E5FF00C0E9FF01C05C
:1049E000F3FF02505AEC35F0002A02E3014A022A92
:1049F00004C005F0C5A6E7D7A1A602D0E8680BD091
:104A0000052A05C004F00350F5E0A5EC30F0C5B868
:104A1000FED7F0D70450E4CF05F0E4CF04F0E4CFA4
:104A200003F0E4CF02F0E4CF01F0E4CF00F0E4CFF4
:104A3000D9FF1200D9CFE5FFE1CFD9FF00C0E5FFD4
:104A400001C0E5FF02C0E5FF03C0E5FF04C0E5FFCC
:104A500005C0E5FF020EDBCF00F0030EDBCF01F057
:104A6000040EDBCF02F0050EDBCF03F0060EDBCF2A
:104A700004F0BDEC35F01F0E0016008A0050E56E04
:104A800012EC35F0006EE65204C005F00406055045
:104A900012E001C0E9FF02C0F3FF035071EC34F0F3
:104AA000056E012A02E3024A032A0550E56E12EC64
:104AB00035F0E652E9D7B7EC35F00050E4CF05F019
:104AC000E4CF04F0E4CF03F0E4CF02F0E4CF01F050
:104AD000E4CF00F0E4CFD9FF120000C0E5FF01C031
:104AE000E5FF02C0E5FF03C0E5FFC2C300F0016AB5
:104AF000CDC302F0036A0250005E0350015AE56A1A
:104B0000800EE56E0150E56E0050E56E9BEC20F0E6
:104B1000006E040EE1260006CDC301F0430E76ECD4
:104B20002DF0200E76EC2DF0005020E0600E0124D8
:104B3000026E036A000E032202C0E9FF03C0EAFF0F
:104B4000EFCF02F0E56A0250E56E000EE56E690EE9
:104B5000E56EB00EE56E43EC2AF0050EE126012A63
:104B60000150800A01E1016A0006DED7E4CF03F0BC
:104B7000E4CF02F0E4CF01F0E4CF00F01200D9CF8F
:104B8000E5FFE1CFD9FF00C0E5FF01C0E5FF02C0AE
:104B9000E5FF03C0E5FF04C0E5FF020EDBCF00F038
:104BA000030EDBCF01F0040EDBCF02F0050EDBCFEE
:104BB00003F0060EDBCF04F0045003E0B00E046EE9
:104BC00002D0A00E046E0450E56E0350E56E025054
:104BD000E56E0150E56E0050E56E73EC1DF0050EBC
:104BE000E126010EE56E17EC34F0E652E56AE56A5F
:104BF000E56A0A0EE56EF4EC15F0040EE126000EEF
:104C0000E56A17EC34F0E652E4CF04F0E4CF03F0A9
:104C1000E4CF02F0E4CF01F0E4CF00F0E4CFD9FF1D
:104C20001200D9CFE5FFE1CFD9FF00C0E5FF01C0F9
:104C3000E5FF02C0E5FF03C0E5FF04C0E5FF020E8B
:104C4000DBCF00F0030EDBCF01F0040EDBCF02F070
:104C50000301BC5111E142EC2DF0036EF3CF04F0DF
:104C600003C0E5FF04C0F4FF00C0E9FF01C0F3FF8B
:104C700002502CEC35F016D00301BC51010A12E1B0
:104C800000C0E9FF01C0F3FF025088EC33F0006E72
:104C9000F3CF01F00150E56E0050E56EC2EC2AF052
:104CA000E652E652E4CF04F0E4CF03F0E4CF02F0A2
:104CB000E4CF01F0E4CF00F0E4CFD9FF1200300ED2
:104CC000F66E6B0EF76E000EF86E0900F550056E6D
:104CD0000900F550066E04E1056702D0ACEF26F03E
:104CE0000900F550006E0900F550016E0900F550FD
:104CF000026E09000900F550E96E0900F550EA6EF0
:104D0000090009000900F550036E0900F550046E12
:104D100009000900F6CF07F0F7CF08F0F8CF09F047
:104D200000C0F6FF01C0F7FF02C0F8FF035002E128
:104D3000045007E00900F550EE6E0306F8E20406A1
:104D4000F9D707C0F6FF08C0F7FF09C0F8FF05064E
:104D500001E206066BEF26F01200D9CFE5FFE1CFA6
:104D6000D9FF00C0E5FF01C0E5FF02C0E5FF020E6C
:104D7000DBCF00F0016A060EE56EE6EC30F0026E65
:104D8000E652D70E0216FA0E0301966F976B986BD8
:104D9000996B0050020A09E1028AC20E0301966F64
:104DA000010E976F986B996B0AD00050010A07E1CA
:104DB0000286BE0E0301966F976B986B996B02503B
:104DC000E56E060EE56E00EC2FF0E652E652060E9A
:104DD000E56EE6EC30F0E652021802E1010E016EDB
:104DE0000150E4CF02F0E4CF01F0E4CF00F0E4CFD3
:104DF000D9FF1200D9CFE5FFE1CFD9FF00C0E5FF11
:104E000001C0E5FF02C0E5FF03C0E5FF020EDBCFF6
:104E100000F0E56EE6EC30F0016EE652026A036ADD
:104E2000DE0E00266A0E0222000E032200C0F6FFEC
:104E300002C0F7FF03C0F8FF0900F5CF00F0010E34
:104E4000026E00500DE006E6E86CD8900236010FC5
:104E5000FDE306D0D89002BED8800232010FFBE3FA
:104E6000021C006E015000160050E56E020EE56E49
:104E700000EC2FF0E652E652E4CF03F0E4CF02F06C
:104E8000E4CF01F0E4CF00F0E4CFD9FF120000C07E
:104E9000E5FF01C0E5FF02C0E5FF03C0E5FF04C078
:104EA000E5FF6D8E6D8C6C986C8A6C50F00B01096F
:104EB0006C6E93929384810E006E0F0E016E0F0E36
:104EC000036E380E0026035001220F0E036E800E73
:104ED000005E0350015A810E026E0F0E036E0F0E1C
:104EE000046E380E0226045003220F0E046E800E4C
:104EF000025E0450035A02C0E9FF03C0EAFFEFCF8D
:104F000002F0029400C0E9FF01C0EAFF02C0EFFF17
:104F10009396E4CF04F0E4CF03F0E4CF02F0E4CFC3
:104F200001F0E4CF00F0120000C0E5FF01C0E5FF92
:104F300002C0E5FF03C0E5FF04C0E5FFC78EC78CD4
:104F4000C698C68AC650F00B0109C66E949694881E
:104F5000820E006E0F0E016E0F0E036E380E0026CD
:104F6000035001220F0E036E800E005E0350015AA3
:104F7000820E026E0F0E036E0F0E046E380E0226A6
:104F8000045003220F0E046E800E025E0450035A7A
:104F900002C0E9FF03C0EAFFEFCF02F0029800C0B1
:104FA000E9FF01C0EAFF02C0EFFF949AE4CF04F0EA
:104FB000E4CF03F0E4CF02F0E4CF01F0E4CF00F05F
:104FC0001200D9CFE5FFE1CFD9FF00C0E5FF01C056
:104FD000E5FF02C0E5FF03C0E5FF04C0E5FF020EE8
:104FE000DBCF00F00038E8441F0B016E026AB90EF7
:104FF0000126030E022201C0E9FF02C0EAFFEFCF43
:1050000003F0070E0016010E046E00500DE006E6D8
:10501000E86CD8900436010FFDE306D0D89004BEAA
:10502000D8800432010FFBE3041C006E035000160D
:1050300001C0E9FF02C0EAFF00C0EFFFE4CF04F0C7
:10504000E4CF03F0E4CF02F0E4CF01F0E4CF00F0CE
:10505000E4CFD9FF1200D9CFE5FFE1CFD9FF00C0DF
:10506000E5FF01C0E5FF02C0E5FF03C0E5FF04C0A6
:10507000E5FF05C0E5FF020EDBCF00F00050010A9E
:1050800022E1016A0150020DF450036EF3CF02F0E9
:10509000000E0224046E030E0320056E04C0E9FF17
:1050A00005C0EAFFEE687F0EEF6E200E0226030EAB
:1050B000032202C0E9FF03C0EAFFEE6AEF6A012A99
:1050C000100E015CDFE300C0CAF4E4CF05F0E4CFCA
:1050D00004F0E4CF03F0E4CF02F0E4CF01F0E4CF3A
:1050E00000F0E4CFD9FF1200D9CFE5FFE1CFD9FF1F
:1050F00000C0E5FF01C0E5FF02C0E5FF03C0E5FF1A
:1051000004C0E5FF020EDBCF00F0030EDBCF01F0A1
:10511000040EDBCF02F0050EDBCF03F0060EDBCF73
:1051200004F0045003E0B00E046E02D0A00E046E32
:105130000450E56E0350E56E0250E56E0150E56ED9
:105140000050E56E73EC1DF0050EE126010EE56ED4
:1051500017EC34F0E652E4CF04F0E4CF03F0E4CFF0
:1051600002F0E4CF01F0E4CF00F0E4CFD9FF120069
:1051700000C0E5FF83EC31F0000EE56AE6EC30F0AC
:10518000006EE65200800050E56E000EE56A00EC0D
:105190002FF0E652E652700EE56E070EE56E00EC5B
:1051A0002FF0E652E652010EE56E17EC34F0E652AF
:1051B0000F01335110E00301D151E56E800EE56E11
:1051C0000F0EE56E330EE56E0A0EE56E1AEC25F055
:1051D000050EE12605D0000EE56AFAEC26F0E6524F
:1051E0001D0EE56EE6EC30F0006EE65200B2ABEC60
:1051F00035F0E4CF00F01200D9CFE5FFE1CFD9FFC1
:1052000000C0E5FF01C0E5FF02C0E5FF020EDBCFF5
:1052100000F0030EDBCF01F0040EDBCF02F0030140
:10522000D151E56E0250E56E0150E56E0050E56E1D
:105230000A0EE56E1AEC25F0050EE1260301D151A8
:10524000E56E0250E56E0150E56E0050E56E100E01
:10525000E56E1AEC25F0050EE1260301CF51E56E4F
:10526000110EE56E00EC2FF0E652E652E4CF02F0AC
:10527000E4CF01F0E4CF00F0E4CFD9FF120000C08A
:10528000E5FF01C0E5FF02C0E5FF5CEC2EF0006E1B
:105290005CEC2EF0016E0050026ED00E0224006E07
:1052A0000A0E005C05E30050026EF90E0224006E47
:1052B0000150026ED00E0224016E0A0E015C05E35D
:1052C0000150026EF90E0224016E080E005C12E21B
:1052D000100E015CD8B00ED00038F00B0124006E27
:1052E000EEEC2BF0016E015005E10050E56EB9ECDB
:1052F00032F0E652E4CF02F0E4CF01F0E4CF00F068
:105300001200D8CFE5FFE0CFE5FFE56EF3CFE5FF74
:10531000F4CFE5FFE9CFE5FFEACFE5FFFACFE5FF00
:10532000FBCFE5FFF6CFE5FFF6CFE5FFF7CFE5FFD3
:10533000F8CFE5FFF5CFE5FFE1CFE5FFE2CFE5FFF1
:10534000ECEC09F0E4CFE2FFE4CFE1FFE4CFF5FFBE
:10535000E4CFF8FFE4CFF7FFE4CFF6FFE4CFF6FFAA
:10536000E4CFFBFFE4CFFAFFE4CFEAFFE4CFE9FFAD
:10537000E4CFF4FFE4CFF3FFE450E4CFE0FFE4CF69
:10538000D8FF1000D9CFE5FFE1CFD9FF00C0E5FF7E
:1053900001C0E5FF02C0E5FF03C0E5FF04C0E5FF73
:1053A000020EDBCF00F0030EDBCF01F0040EDBCFEB
:1053B00002F0000EE56AE6EC30F0036EE6528F0E66
:1053C00003160138F00B046E0038E844E00B0412B9
:1053D0000240E840C00B0412045003120350E56E73
:1053E000000EE56A00EC2FF0E652E652E4CF04F03E
:1053F000E4CF03F0E4CF02F0E4CF01F0E4CF00F01B
:10540000E4CFD9FF1200D9CFE5FFE1CFD9FF00C02B
:10541000E5FF01C0E5FF02C0E5FF03C0E5FF020EA6
:10542000DBCF00F0030EDBCF01F0040EDBCF02F088
:10543000170EE56EE6EC30F0036EE65203B017D0BF
:1054400000500110021011E0A5EC35F0036E03408E
:105450007F0B036E070E031603C0E5FF00C0E9FFD4
:1054600001C0F3FF02505AEC35F0010E01D0E86A9A
:10547000E4CF03F0E4CF02F0E4CF01F0E4CF00F09A
:10548000E4CFD9FF1200D9CFE5FFE1CFD9FF00C0AB
:10549000E5FF01C0E5FF02C0E5FF020ED924006E62
:1054A000000EDA20016E800E026E030E0026000E42
:1054B000012202220250E56E0150E56E0050E56EB9
:1054C000040EDBCFE5FF030EDBCFE5FF020EDBCFE3
:1054D000E5FF0301B051E56EAF51E56EAE51E56EEB
:1054E0000EEC00F0006EF3CF01F0090EE12601C0D2
:1054F000F3FF0050E4CF02F0E4CF01F0E4CF00F07E
:10550000E4CFD9FF1200D9CFE5FFE1CFD9FF00C02A
:10551000E5FF01C0E5FF02C0E5FF03C0E5FF020EA5
:10552000DBCF00F0030EDBCF01F0040EDBCF02F087
:105530000301BC510DE146EC33F0036E03C0E5FFFF
:1055400000C0E9FF01C0F3FF02505AEC35F00FD064
:105550000301BC51010A0BE100C0E9FF01C0F3FFE8
:10556000025071EC34F0E56E12EC30F0E652E4CF0C
:1055700003F0E4CF02F0E4CF01F0E4CF00F0E4CF99
:10558000D9FF1200D9CFE5FFE1CFD9FF00C0E5FF79
:1055900001C0E5FF02C0E5FF03C0E5FF020EDBCF5F
:1055A00000F0030EDBCF01F0B7C302F0B8C303F085
:1055B0000301B73F01D0B82B0150E56E0250E56EF4
:1055C00081EC30F0E652E652B7C302F0B8C303F004
:1055D0000301B73F01D0B82B0050E56E0250E56ED5
:1055E00081EC30F0E652E652E4CF03F0E4CF02F073
:1055F000E4CF01F0E4CF00F0E4CFD9FF1200D9CF1F
:10560000E5FFE1CFD9FF00C0E5FF01C0E5FF02C023
:10561000E5FF03C0E5FF04C0E5FF020EDBCF00F0AD
:10562000C4C401F0026A014A022AC5C403F0046A34
:105630000150031803E10250041801E001D00ED01C
:10564000000E0401C425016E026A010E022201C08F
:10565000E9FF02C0EAFF00C0EFFFC42BE4CF04F073
:10566000E4CF03F0E4CF02F0E4CF01F0E4CF00F0A8
:10567000E4CFD9FF1200D9CFE5FFE1CFD9FF00C0B9
:10568000E5FF01C0E5FF020EDBCF00F00050016E28
:10569000FE0E012601C000F0015018E0E56A040E7C
:1056A000E56EE56A0050E56E9BEC20F0006E040E9E
:1056B000E1260050E56E030EE56E00EC2FF0E65299
:1056C000E652020E00240301D16F0AD0E56A030EF0
:1056D000E56E00EC2FF0E652E652020E0301D16FA8
:1056E000E4CF01F0E4CF00F0E4CFD9FF1200D9CF2E
:1056F000E5FFE1CFD9FF00C0E5FF01C0E5FF02C033
:10570000E5FF03C0E5FF04C0E5FF020EDBCF00F0BC
:10571000030EDBCF01F0040EDBCF02F0050EDBCF72
:1057200003F0060EDBCF04F000C0E9FF01C0F3FF79
:10573000025071EC34F0006E0450E56E0350E56EDB
:105740000050E56ED8EC2DF0030EE126E4CF04F016
:10575000E4CF03F0E4CF02F0E4CF01F0E4CF00F0B7
:10576000E4CFD9FF1200D9CFE5FFE1CFD9FF00C0C8
:10577000E5FF01C0E5FF02C0E5FF03C0E5FF020E43
:10578000DBCF00F0016ACDC302F0036A02500026AD
:1057900003500122E56A800EE56E0150E56E00506F
:1057A000E56E9BEC20F0006EF3CF01F0040EE126D5
:1057B000600E0026000E012200C0E9FF01C0EAFFD2
:1057C000EFCF00F00050E4CF03F0E4CF02F0E4CFDD
:1057D00001F0E4CF00F0E4CFD9FF120000C0E5FFF4
:1057E00001C0E5FF02C0E5FF010E006E5CEC2EF08B
:1057F000016E01C002F0015023E00050E56EBEECE6
:1058000034F0016EE652015010E10A0E005C0BE22A
:105810000A0E006EE56EBEEC34F0016EE6520150E9
:1058200004E1E8680ED0E8680CD00150021802E0EC
:10583000E86807D0002A1B0E005CD8E3E86801D0B6
:10584000E86AE4CF02F0E4CF01F0E4CF00F0120008
:1058500000C0E5FF01C0E5FF02C0E5FF03C0E5FFB2
:1058600032EC2EF0006EF3CF01F0F4CF02F0E9CF6E
:1058700003F0E56AE56A030EE56EE80EE56E035097
:10588000E56E0250E56E0150E56E0050E56E1BECD2
:1058900017F0006EF3CF01F0F4CF02F0E9CF03F080
:1058A000080EE12603C0E9FF02C0F4FF01C0F3FFC8
:1058B0000050E4CF03F0E4CF02F0E4CF01F0E4CFF6
:1058C00000F0120000C0E5FF01C0E5FF02C0E5FFE7
:1058D00003C0E5FF04C0E5FF05C0E5FFE80E006E6C
:1058E000030E016EFF0E002601220050011010E091
:1058F000C5CF02F0036A1F0E0216046AC7B4042A59
:10590000056A045002120550031202500310EAE126
:105910000401DE6B005003E1015001E1DE2BE4CF16
:1059200005F0E4CF04F0E4CF03F0E4CF02F0E4CFDD
:1059300001F0E4CF00F01200D9CFE5FFE1CFD9FFAD
:1059400000C0E5FF01C0E5FF02C0E5FF03C0E5FFC1
:10595000020EDBCF00F0060EE56EE6EC30F0016ED5
:10596000E652F80E0116040E005C03E3070E006E0B
:1059700007D00050026E0244FE0B036E0328006E37
:10598000015000120050E56E060EE56E00EC2FF09F
:10599000E652E652E4CF03F0E4CF02F0E4CF01F0A8
:1059A000E4CF00F0E4CFD9FF1200D9CFE5FFE1CF7B
:1059B000D9FF00C0E5FF01C0E5FF02C0E5FF03C05D
:1059C000E5FF020EDBCF00F0030EDBCF01F0040E8B
:1059D000DBCF02F0050EDBCF03F00350E56E025083
:1059E000E56E0150E56E0050E56EDFEC1EF0040E32
:1059F000E126700EE56E070EE56E00EC2FF0E65224
:105A0000E652E4CF03F0E4CF02F0E4CF01F0E4CFBC
:105A100000F0E4CFD9FF1200D9CFE5FFE1CFD9FFE5
:105A200000C0E5FF01C0E5FF02C0E5FF020EDBCFCD
:105A300000F0030EDBCF01F0C1EC31F00401DE51C8
:105A400002E0E86816D00044FE0B026E0150D880D8
:105A5000E866D890016A01360150D880E866D8908F
:105A6000016A0136015002120250E56EA2EC31F0DB
:105A7000E652E4CF02F0E4CF01F0E4CF00F0E4CF4F
:105A8000D9FF120000C0E5FF01C0E5FF02C0E5FF3D
:105A900003C0E5FFB7C300F0B8C301F00301B73F8F
:105AA00001D0B82B0050E56EBEEC34F0E652036E28
:105AB000026AB7C300F0B8C301F00301B73F01D0D9
:105AC000B82B0050E56EBEEC34F0E652016A0212CB
:105AD0000150031203C0F3FF0250E4CF03F0E4CF00
