:020000040000FA
:100000007CEF1FF0C69A120096EF16F04DEC1BF035
:1000100034EC16F0FDD7120029EF19F0D9CFE5FF27
:10002000E1CFD9FF00C0E5FF01C0E5FF02C0E5FF59
:1000300003C0E5FF04C0E5FF05C0E5FF06C0E5FF1E
:1000400007C0E5FF08C0E5FF09C0E5FF0AC0E5FFFE
:100050000BC0E5FF0CC0E5FF0DC0E5FF0EC0E5FFDE
:100060000FC0E5FF10C0E5FF11C0E5FF12C0E5FFBE
:1000700013C0E5FF14C0E5FF15C0E5FF16C0E5FF9E
:1000800017C0E5FF18C0E5FF19C0E5FF1AC0E5FF7E
:100090001BC0E5FF1CC0E5FF1DC0E5FF1EC0E5FF5E
:1000A000020EDBCF00F0030EDBCF01F0040EDBCF3E
:1000B00002F0050EDBCF03F0060EDBCF04F0070ED7
:1000C000DBCF05F0080EDBCF06F0090EDBCF07F023
:1000D0000A0EDBCF08F0096A0A6A02C00DF00D5063
:1000E000800A0DE102500401416F0150406F005041
:1000F0003F6F040E016E3F0E006E800E026E03C055
:10010000E9FF04C0F3FF0550C6EC1FF00B6E0B5067
:10011000D8B4C4EF03F00B50250A02E0ABEF03F0B4
:100120000C6A0D6A0E6A0F6A106A0A0E116E126A64
:10013000136A146A200E156E1668176A2B0E186E55
:10014000032A02E3044A052A03C0E9FF04C0F3FFBF
:100150000550C6EC1FF0196E250A13E11950E56E23
:100160000250E56E0150E56E0050E56E82EC13F032
:10017000040EE126094A0A2A032A02E3044A052A50
:10018000BED71950300A06E1300E156E032A02E37D
:10019000044A052A03C0E9FF04C0F3FF0550C6EC7A
:1001A0001FF02D0A06E1010E146E032A02E3044A31
:1001B000052A03C0E9FF04C0F3FF0550C6EC1FF099
:1001C000200A08E1010E176E200E186E032A02E3C2
:1001D000044A052A03C0E9FF04C0F3FF0550C6EC3A
:1001E0001FF02B0A06E1010E176E032A02E3044AF0
:1001F000052A03C0E9FF04C0F3FF0550C6EC1FF059
:10020000196E310E195C2BE33A0E195C28E203C01B
:1002100019F004C01AF005C01BF019C0E9FF1AC09C
:10022000F3FF1B50C6EC1FF01C6E300E1C5C11E37C
:100230003A0E1C5C0EE213500A0DF3CF1DF01C5059
:100240001D26D00E1D24136E192A02E31A4A1B2AFA
:10025000E4D719C003F01AC004F01BC005F003C0B6
:10026000E9FF04C0F3FF0550C6EC1FF02E0A2DE194
:10027000032A02E3044A052A166A03C019F004C0DF
:100280001AF005C01BF019C0E9FF1AC0F3FF1B509C
:10029000C6EC1FF01C6E300E1C5C11E33A0E1C5CA9
:1002A0000EE216500A0DF3CF1DF01C501D26D00E85
:1002B0001D24166E192A02E31A4A1B2AE4D719C014
:1002C00003F01AC004F01BC005F003C0E9FF04C02E
:1002D000F3FF0550C6EC1FF0196E6C0A07E1010E22
:1002E0000C6E032A02E3044A052A09D01950680A51
:1002F00006E1010E0E6E032A02E3044A052A03C03A
:10030000E9FF04C0F3FF0550C6EC1FF0750A06E1D3
:10031000010E106E032A02E3044A052A03C0E9FF16
:1003200004C0F3FF0550C6EC1FF0196E730A05E117
:10033000010E0D6E200E156E3FD01950780A03E1A4
:10034000100E116E39D01950580A05E1100E116EB9
:10035000010E126E31D01950630A02E1116A2CD0DD
:1003600019506F0A03E1080E116E26D01950660A63
:1003700003E1010E0F6E20D01950640A1DE01950E0
:10038000690A1AE0105005E0FF0E03260422052238
:1003900013D01950E56E0250E56E0150E56E005025
:1003A000E56E82EC13F0040EE126094A0A2A032ABC
:1003B00002E3044A052AA3D60D5021E00650030F9C
:1003C0000D6E000E0720196E000E08201A6E0DC06B
:1003D00006F019C007F01AC008F0FD0E0D26FF0E3A
:1003E00019221A220DC0E9FF19C0F3FF1A5091EC2F
:1003F0001EF00D6EF3CF19F0F4CF1AF0FDD00F50B0
:100400000DE0000E1A6E080E196E100E0D6E040E21
:100410000626000E072208221668EED016680C5039
:1004200023E00650040F0C6E000E07200F6E000E26
:1004300008201B6E0CC006F00FC007F01BC008F0B0
:10044000FC0E0C26FF0E0F221B220CC0E9FF0FC072
:10045000F3FF1B50D9EC1DF00C6EF3CF0FF0F4CF6F
:100460001BF0E9CF1CF067D00E502FE00650020FB2
:100470000E6E000E07201D6E000E08201E6E0EC0B0
:1004800006F01DC007F01EC008F0FE0E0E26FF0E7F
:100490001D221E220EC0E9FF1DC0F3FF1E5050ECAE
:1004A0001FF00E6E0EC00CF00F6A1B6A1C6A115012
:1004B0000A0A03E11050D8B43ED00C500E6E0EC0A4
:1004C0000CF00F6A1B6A1C6A36D00650020F0E6EC3
:1004D000000E07201D6E000E08201E6E0EC006F0D6
:1004E0001DC007F01EC008F0FE0E0E26FF0E1D22D6
:1004F0001E220EC0E9FF1DC0F3FF1E5050EC1FF07E
:100500000E6EF3CF1DF00EC00CF01DC00FF0E86AA8
:100510001DBEFF0E1B6E1C6E11500A0A02E1105028
:100520000AE00C500E6E0F501D6E0EC00CF01DC078
:100530000FF01B6A1C6A040E196EE00E0D6E800E21
:100540001A6E1150D8B440D0105013E01150E56E1F
:10055000040EE56EE00EE56E1C50E56E1B50E56E78
:100560000F50E56E0C50E56E0CEC0EF0070EE12618
:1005700012D01150E56E040EE56EE00EE56E1C50D3
:10058000E56E1B50E56E0F50E56E0C50E56ED1EC3C
:1005900015F0070EE12617502FE00DC0E9FF19C036
:1005A000F3FF1A50C6EC1FF02D0A26E0FF0E0D26B1
:1005B00019221A2218C0E5FF0DC0E9FF19C0F3FF88
:1005C0001A5040EC20F018D00CC0E5FF0DC0E9FF38
:1005D00019C0F3FF1A5040EC20F00D50010F0C6EC3
:1005E000000E19200E6E000E1A20E56A0CC0E9FFFD
:1005F0000EC0F3FF40EC20F00DC00CF019C00EF05F
:100600001AC00FF013C010F0105010E00CC0E9FF3A
:100610000EC0F3FF0F50C6EC1FF0176E175006E028
:100620000C2A02E30E4A0F2A1006EED710C013F070
:1006300014501EE109C00CF00AC00EF010C00FF0FB
:100640000F5010E01550E56E0250E56E0150E56E5A
:100650000050E56E82EC13F0040EE1260C4A0E2ADF
:100660000F06EED70CC009F00EC00AF00FC013F051
:1006700016C00CF00DC00DF019C00EF01AC00FF02E
:1006800009C010F00AC015F00DC0E9FF0EC0F3FF5D
:100690000F50C6EC1FF0166E1650D8B43ED00CC0EA
:1006A00016F0176A161E171E1650171005E00CC01C
:1006B00016F00C06165031E00DC0E9FF0EC0F3FF36
:1006C0000F50C6EC1FF0116E125010E01150E56E85
:1006D0000DEC1FF0166EE652165004E0DF0E1114FA
:1006E000166E02D011C016F016C011F01150E56E52
:1006F0000250E56E0150E56E0050E56E82EC13F09D
:10070000040EE1260D2A02E30E4A0F2A104A152A8A
:100710001350D8B4B9D71306B7D710C009F015C015
:100720000AF014502BE010C00CF015C00DF013C0EF
:100730000EF00E501FE0200EE56E0250E56E0150E7
:10074000E56E0050E56E82EC13F0040EE1260C4AD3
:100750000D2A0E06EED70B50E56E0250E56E0150E5
:10076000E56E0050E56E82EC13F0040EE126094AB6
:100770000A2A04D00CC009F00DC00AF0032A02E3D3
:10078000044A052A7FEF00F00AC0F3FF0950E4CFC6
:100790001EF0E4CF1DF0E4CF1CF0E4CF1BF0E4CF5B
:1007A0001AF0E4CF19F0E4CF18F0E4CF17F0E4CF5B
:1007B00016F0E4CF15F0E4CF14F0E4CF13F0E4CF5B
:1007C00012F0E4CF11F0E4CF10F0E4CF0FF0E4CF5B
:1007D0000EF0E4CF0DF0E4CF0CF0E4CF0BF0E4CF5B
:1007E0000AF0E4CF09F0E4CF08F0E4CF07F0E4CF5B
:1007F00006F0E4CF05F0E4CF04F0E4CF03F0E4CF5B
:1008000002F0E4CF01F0E4CF00F0E4CFD9FF120012
:100810003C4E4F20464C4F41543E0000D9CFE5FF9F
:10082000E1CFD9FF00C0E5FF01C0E5FF02C0E5FF51
:1008300003C0E5FF04C0E5FF05C0E5FF06C0E5FF16
:1008400007C0E5FF08C0E5FF09C0E5FF0AC0E5FFF6
:100850000BC0E5FF0CC0E5FF0DC0E5FF0EC0E5FFD6
:10086000020EDBCF00F0030EDBCF01F0040EDBCF76
:1008700002F000C0E9FF01C0F3FF0250C6EC1FF018
:1008800004015B6FE56A5B51E56E85EC1BF0E65297
:10089000E652360EE56E18EC1EF0E6528AEC20F0B9
:1008A000010EE56E04015B51E56E85EC1BF0E6522E
:1008B000E65200504B0F036E000E0120046E000E36
:1008C0000220056E24EC1DF0066E06C0E5FF03C095
:1008D000E9FF04C0F3FF055040EC20F0B8EC1DF038
:1008E00004015C6B0050150F036E000E0120046EB6
:1008F000000E0220056E002A02E3014A022A24ECBF
:100900001DF004015F6FB8EC1DF024EC1DF0040134
:10091000606FB8EC1DF024EC1DF00401616FB8ECC1
:100920001DF004015C51050DF3CF06F0076A086A5B
:100930000050062601500722025008225FC409F029
:100940000A6A61C40BF00C6A300E0B160C38F00BFF
:100950000E6E0B380D6E0F0B0D1A0E260D5009265C
:100960000E500A2209C042F40AC043F409C0E5FF50
:100970000AC0F4FF06C0E9FF07C0F3FF08501DECF2
:1009800020F004015C51050DF3CF06F0076A086AF8
:10099000005006260150072202500822020E0626A9
:1009A000000E0722082260C409F00A6A61C40BF035
:1009B0000C6AC00E0B160B500D6E0D260C340E6E0D
:1009C000D8900D360E360D5009260E500A2209C059
:1009D00044F40AC045F409C0E5FF0AC0F4FF06C0AC
:1009E000E9FF07C0F3FF08501DEC20F004015C5143
:1009F000050DF3CF06F0076A086A0050062601507D
:100A0000072202500822040E0626000E07220822A2
:100A100061C409F00F0E091609C062F409C0E5FFB0
:100A200006C0E9FF07C0F3FF085040EC20F0100EAD
:100A30000401486F270E496F0401636B04014451A0
:100A4000FF0A04E14551030A01E165D104015D6B30
:100A500004015D51050DF3CF06F0076A086A0350E3
:100A60000626045007220550082206C0E9FF07C0E9
:100A7000F3FF085050EC1FF0F3CF07F00401425D84
:100A8000066E07504359076ED88007AED89007E32B
:100A9000071C096E061C086E084A092A04D006C005
:100AA00008F007C009F00850066E0950076E0401EF
:100AB0005D51050DF3CF08F0096A0A6A0350082654
:100AC0000450092205500A22020E0826000E0922AF
:100AD0000A2208C0E9FF09C0F3FF0A5050EC1FF0DA
:100AE000F3CF09F00401445D086E09504559096EC1
:100AF000D88009AED89007E3091C0B6E081C0A6E5B
:100B00000A4A0B2A04D008C00AF009C00BF00A50A8
:100B100006240401466F0B500720476F040149511A
:100B20000401475D04E1040148510401465D06E209
:100B300046C448F447C449F45DC463F404015D2B22
:100B40000A0E5D5DD8A084D7040149510F012D5DC7
:100B500004E1040148510F012C5DD8A05FD00401CD
:100B60006351050DF3CF06F0076A086A03500626A5
:100B7000045007220550082242C4E5FF43C4F4FF95
:100B800006C0E9FF07C0F3FF08501DEC20F0040188
:100B90006351050DF3CF06F0076A086A0350062675
:100BA0000450072205500822020E0626000E0722D6
:100BB000082244C4E5FF45C4F4FF06C0E9FF07C0AE
:100BC000F3FF08501DEC20F004016351050DF3CF35
:100BD00006F0076A086A03500626045007220550EB
:100BE0000822040E0626000E0722082206C0E9FF8E
:100BF00007C0F3FF0850C6EC1FF0096EFA0E095C3F
:100C0000D8B089D0050E092609C0E5FF06C0E9FF66
:100C100007C0F3FF085040EC20F07DD004015F696D
:100C20000401636B04015D6B04015D51050DF3CF9D
:100C300006F0076A086A035006260450072205508A
:100C40000822040E0626000E0722082206C0E9FF2D
:100C500007C0F3FF0850C6EC1FF0066E04015F5199
:100C6000065C04E206C05FF45DC463F404015D2B1E
:100C70000A0E5D5DD9E304016351050DF3CF06F063
:100C8000076A086A03500626045007220550082206
:100C900042C4E5FF43C4F4FF06C0E9FF07C0F3FF09
:100CA00008501DEC20F004016351050DF3CF06F050
:100CB000076A086A035006260450072205500822D6
:100CC000020E0626000E0722082244C4E5FF45C492
:100CD000F4FF06C0E9FF07C0F3FF08501DEC20F049
:100CE00004016351050DF3CF06F0076A086A03504B
:100CF00006260450072205500822040E0626000E80
:100D000007220822050EE56E06C0E9FF07C0F3FFC3
:100D1000085040EC20F004015C2B040E5C5DD8A070
:100D20007FEF04F08AEC20F004015D6B04015D515B
:100D3000050DF3CF00F0016A026A0350002604504B
:100D40000122055002220050040F066E000E012001
:100D5000076E000E0220086E06C0E9FF07C0F3FF11
:100D6000C6EC1FF0096E09500BE0090609C0E5FF4B
:100D700006C0E9FF07C0F3FF085040EC20F01AD08E
:100D800000C006F001C007F002C008F0E568030EDD
:100D9000F46E00C0E9FF01C0F3FF02501DEC20F02B
:100DA000E568030EF46E06C0E9FF07C0F3FF0850C4
:100DB0001DEC20F004015D2B0A0E5D5DD8A0B6D7B6
:100DC000E4CF0EF0E4CF0DF0E4CF0CF0E4CF0BF065
:100DD000E4CF0AF0E4CF09F0E4CF08F0E4CF07F065
:100DE000E4CF06F0E4CF05F0E4CF04F0E4CF03F065
:100DF000E4CF02F0E4CF01F0E4CF00F0E4CFD9FF7C
:100E00001200D9CFE5FFE1CFD9FF00C0E5FF01C057
:100E1000E5FF02C0E5FF03C0E5FF04C0E5FF05C034
:100E2000E5FF06C0E5FF07C0E5FF08C0E5FF09C014
:100E3000E5FF0AC0E5FF0BC0E5FF0CC0E5FF0DC0F4
:100E4000E5FF0EC0E5FF0FC0E5FF020EDBCF00F0AF
:100E5000030EDBCF01F0040EDBCF02F0050EDBCF7B
:100E600003F0010E04015C6F0050150F046E000EBC
:100E70000120056E000E0220066E5CC45DF40401C4
:100E80005D51D8B464D05D05076E086A07BE086876
:100E9000EC0E0726040E082207C0E9FF08C0EAFF8F
:100EA000EFCF09F00950050DF3CF0AF00B6A0C6A79
:100EB00004500A2605500B2206500C22040E0A2666
:100EC000000E0B220C220AC0E9FF0BC0F3FF0C50EE
:100ED000C6EC1FF00A6EEC0E04015D250B6E0C6A69
:100EE000040E0C220BC0E9FF0CC0EAFFEFCF0BF0A1
:100EF0000B50050DF3CF0CF00D6A0E6A04500C2652
:100F000005500D2206500E22040E0C26000E0D2256
:100F10000E220CC0E9FF0DC0F3FF0E50C6EC1FF00F
:100F20000A5C15E207C0E9FF08C0EAFF0BC0EFFF4B
:100F3000EC0E04015D25076E086A040E082207C046
:100F4000E9FF08C0EAFF09C0EFFF5D0798D7040179
:100F50005C2B0A0E5C5DD8A090D75C6B470E002618
:100F6000000E0122022204C007F005C008F006C0EE
:100F70000AF0096AEC0E04015C250B6E0C6A040E83
:100F80000C220BC0E9FF0CC0EAFFEFCF0BF004010D
:100F90005D6B5DC40CF00D6A0E6A00500C260150AA
:100FA0000D2202500E220CC0E9FF0DC0F3FF0E50BF
:100FB000C6EC1FF00B1803E1010E096E05D0040109
:100FC0005D2B040E5D5DE5E30950D8A472D0096A7B
:100FD0000C6804015D6B5DC40DF00E6A0F6A005071
:100FE0000D2601500E2202500F220DC0E9FF0EC047
:100FF000F3FF0F50C6EC1FF0050DF3CF0DF00E6A96
:101000000F6A07500D2608500E220A500F22040EB8
:101010000D26000E0E220F220DC0E9FF0EC0F3FFB9
:101020000F50C6EC1FF00D6E0C500D5C2BE25DC432
:101030000DF00E6A0F6A00500D2601500E2202506C
:101040000F220DC0E9FF0EC0F3FF0F50C6EC1FF0DA
:10105000050DF3CF0DF00E6A0F6A07500D260850EC
:101060000E220A500F22040E0D26000E0E220F2211
:101070000DC0E9FF0EC0F3FF0F50C6EC1FF00C6E61
:101080005DC409F004015D2B040E5D5DD8A0A3D7FB
:101090000C6A0D6A0050092601500C2202500D22E4
:1010A0000BC0E5FF09C0E9FF0CC0F3FF0D5040EC99
:1010B00020F004015C2B040E5C5DD8A05AD7420ED0
:1010C0000401236F020E076E0350246F04015C6B52
:1010D00007C003F0072A086A230E0326040E08221D
:1010E0005CC409F00A6A0B6A0050092601500A2202
:1010F00002500B2209C0E9FF0AC0F3FF0B50C6ECF7
:101100001FF0050DF3CF09F00A6A0B6A0450092697
:1011100005500A2206500B2209C0E9FF0AC0F3FF5E
:101120000B5050EC1FF0096E03C0E9FF08C0EAFF46
:1011300009C0EFFF07C003F0072A086A230E032641
:10114000040E08225CC409F00A6A0B6A00500926E2
:1011500001500A2202500B2209C0E9FF0AC0F3FF26
:101160000B50C6EC1FF0050DF3CF09F00A6A0B6AAD
:101170000450092605500A2206500B2209C0E9FF37
:101180000AC0F3FF0B5050EC1FF0F3CF0AF00A50E7
:10119000096E03C0E9FF08C0EAFF09C0EFFF07C0FE
:1011A00003F0072A086A230E0326040E08225CC4F3
:1011B00009F00A6A0B6A0050092601500A220250FF
:1011C0000B2209C0E9FF0AC0F3FF0B50C6EC1FF069
:1011D000050DF3CF09F00A6A0B6A04500926055081
:1011E0000A2206500B22020E0926000E0A220B22AA
:1011F00009C0E9FF0AC0F3FF0B5050EC1FF0096E65
:1012000003C0E9FF08C0EAFF09C0EFFF07C003F011
:10121000072A086A230E0326040E08225CC409F07C
:101220000A6A0B6A0050092601500A2202500B225A
:1012300009C0E9FF0AC0F3FF0B50C6EC1FF0050D13
:10124000F3CF09F00A6A0B6A0450092605500A22F6
:1012500006500B22020E0926000E0A220B2209C09C
:10126000E9FF0AC0F3FF0B5050EC1FF0F3CF0AF078
:101270000A50096E03C0E9FF08C0EAFF09C0EFFF8A
:1012800007C003F0072A086A230E0326040E08226B
:101290005CC409F00A6A0B6A0050092601500A2250
:1012A00002500B2209C0E9FF0AC0F3FF0B50C6EC45
:1012B0001FF0050DF3CF09F00A6A0B6A04500926E6
:1012C00005500A2206500B22040E0926000E0A229F
:1012D0000B2209C0E9FF0AC0F3FF0B50C6EC1FF058
:1012E000096E03C0E9FF08C0EAFF09C0EFFF04016F
:1012F0005C2B040E5C5DD8A0EBD607C000F0072A7B
:10130000016A230E0026040E012200C0E9FF01C07D
:10131000EAFF0A0EEF6E0750E56E800EE56E040ED2
:10132000E56E230EE56E0EEC14F0040EE126E4CF1C
:101330000FF0E4CF0EF0E4CF0DF0E4CF0CF0E4CFEB
:101340000BF0E4CF0AF0E4CF09F0E4CF08F0E4CFEB
:1013500007F0E4CF06F0E4CF05F0E4CF04F0E4CFEB
:1013600003F0E4CF02F0E4CF01F0E4CF00F0E4CFEB
:10137000D9FF1200D9CFE5FFE1CFD9FF00C0E5FFCB
:1013800001C0E5FF02C0E5FF03C0E5FF04C0E5FFC3
:1013900005C0E5FF06C0E5FF07C0E5FF08C0E5FFA3
:1013A00009C0E5FF0AC0E5FF0BC0E5FF0CC0E5FF83
:1013B0000DC0E5FF0EC0E5FF0FC0E5FF020EDBCF5D
:1013C00000F0030EDBCF01F0040EDBCF02F0580E6D
:1013D000E56E00C0E9FF01C0F3FF025040EC20F0D1
:1013E0000050150F036E000E0120046E000E022047
:1013F000056E066A0650050DF3CF07F0075003246B
:10140000086EE86A0420096EE86A05200A6E0B6A15
:101410000C6A0350072604500B2205500C2207507B
:10142000020F0D6E000E0B200E6E000E0C200F6EC4
:10143000E56A020EF46E0DC0E9FF0EC0F3FF0F5017
:101440001DEC20F0E56A020EF46E08C0E9FF09C049
:10145000F3FF0A501DEC20F0040E0726000E0B22AD
:101460000C22E56A07C0E9FF0BC0F3FF0C5040EC0B
:1014700020F0EC0E0624076E086A040E082207C04E
:10148000E9FF08C0EAFF06C0EFFF062A0A0E065C65
:10149000D8A0B0D70050470F036E000E0120046E95
:1014A000000E0220056E066A06500324076EE86AE5
:1014B0000420086EE86A0520E56807C0E9FF08C057
:1014C000F3FF40EC20F0062A040E065CEDE300C0BA
:1014D000E9FF01C0F3FF0250C6EC1FF0036E010EDE
:1014E000E56E300EE56E0350E56E51EC1CF0030E18
:1014F000E126E56A0A0EE56E47EC11F0E652E65287
:1015000000C0E9FF01C0F3FF0250C6EC1FF0036EFC
:10151000080EE56E300EE56E0350E56E51EC1CF0E2
:10152000030EE126E56A0A0EE56E47EC11F0E6527D
:10153000E65200C0E9FF01C0F3FF0250C6EC1FF005
:10154000E56AE56AE56E51EC1CF0030EE126E56AFA
:101550000A0EE56E47EC11F0E652E65200C0E9FFD4
:1015600001C0F3FF0250C6EC1FF0036EE56A010EE6
:10157000E56E0350E56E51EC1CF0030EE126E56AC2
:101580000A0EE56E47EC11F0E652E65200C0E9FFA4
:1015900001C0F3FF0250C6EC1FF0036EE56A020EB5
:1015A000E56E0350E56E51EC1CF0030EE126E56A92
:1015B0000A0EE56E47EC11F0E652E65200C0E9FF74
:1015C00001C0F3FF0250C6EC1FF0036EE56A030E84
:1015D000E56E0350E56E51EC1CF0030EE126E56A62
:1015E0000A0EE56E47EC11F0E652E65200C0E9FF44
:1015F00001C0F3FF0250C6EC1FF0036EE56A040E53
:10160000E56E0350E56E51EC1CF0030EE126E56A31
:101610000A0EE56E47EC11F0E652E65200C0E9FF13
:1016200001C0F3FF0250C6EC1FF0036EE56A050E21
:10163000E56E0350E56E51EC1CF0030EE126E56A01
:101640000A0EE56E47EC11F0E652E65200C0E9FFE3
:1016500001C0F3FF0250C6EC1FF0036EE568060EF2
:10166000E56E0350E56E51EC1CF0030EE126E56AD1
:101670000A0EE56E47EC11F0E652E65200C0E9FFB3
:1016800001C0F3FF0250C6EC1FF0036EE56A070EBF
:10169000E56E0350E56E51EC1CF0030EE126E56AA1
:1016A0000A0EE56E47EC11F0E652E65200C0E9FF83
:1016B00001C0F3FF0250C6EC1FF0036E0C0EE56E86
:1016C000080EE56E0350E56E51EC1CF0030EE126AA
:1016D000E56A0A0EE56E47EC11F0E652E65200C0EC
:1016E000E9FF01C0F3FF0250C6EC1FF0036EE56A8C
:1016F0001A0EE56E0350E56E51EC1CF0030EE12668
:10170000E56A0A0EE56E47EC11F0E652E65200C0BB
:10171000E9FF01C0F3FF0250C6EC1FF0036EE56A5B
:101720001B0EE56E0350E56E51EC1CF0030EE12636
:10173000E56A0A0EE56E47EC11F0E652E65200C08B
:10174000E9FF01C0F3FF0250C6EC1FF0006E330E3C
:10175000E56EE56E0050E56E51EC1CF0030EE126DF
:10176000E56A0A0EE56E47EC11F0E652E652E56ACC
:10177000640EE56E47EC11F0E652E652E4CF0FF04E
:10178000E4CF0EF0E4CF0DF0E4CF0CF0E4CF0BF09B
:10179000E4CF0AF0E4CF09F0E4CF08F0E4CF07F09B
:1017A000E4CF06F0E4CF05F0E4CF04F0E4CF03F09B
:1017B000E4CF02F0E4CF01F0E4CF00F0E4CFD9FFB2
:1017C000120000C0E5FF01C0E5FF02C0E5FF03C055
:1017D000E5FF0F012951D8B40CD19DA81DD09EA8BA
:1017E0001BD0040153510401501905E1F4EC1FF022
:1017F0000401506BFED0000E04015325006E016AF7
:10180000040E012200C0E9FF01C0EAFFEFCF4CF453
:10181000532B4CC4ADFFEDD09DAAEBD09EAAE9D0CE
:10182000ABA205D004015181F4EC1FF0E2D0ABA4CF
:1018300005D004015183F4EC1FF0DBD0ABA048D0FD
:10184000AECF4CF42ACF00F0016A008E4CC402F0F7
:10185000036A0250001803E10350011801E004D0AC
:1018600004015189AB96C5D004014C5104E04C51A0
:101870000F012A1929E104015199AB9604014C5139
:1018800003E00401519702D0040151874CC455F480
:101890004EC456F404014E51006E00040401576F0B
:1018A000600E04015625006E016A000E012200C080
:1018B000E9FF01C0EAFF4CC4EFFF562B5651800AE6
:1018C00002E10401566B95D004015199AB8691D089
:1018D000AECF4CF4040151A921D02ACF00F0016A07
:1018E000008E4CC402F0036A0250001803E103505A
:1018F000011801E011D09D9AAB98949004015051C9
:1019000004E1AD6AF4EC1FF007D000C4ADFF010E96
:101910000401536F9D886DD0AB866BD004014C5190
:101920000401552704015651040157191BE1040114
:1019300055510CE156C44EF4040151B712D09D9A92
:10194000AB989490AD6AF4EC1FF00BD00401518574
:1019500051B707D09D9AAB989490010EAD6EF4EC00
:101960001FF047D00401565104014F1908E104014A
:101970004F5104014E1903E0F4EC1FF03AD04EC46D
:1019800000F0016A004A012AE56A800EE56E015006
:10199000E56E0050E56E91EC14F0006E040EE12649
:1019A000005004014D6F040156190FE14CC400F0C2
:1019B0001F0E00140401576F006E020E0024576FB3
:1019C00004014E5104015727579F56C400F00401EB
:1019D000562B016A600E0026000E012200C0E9FFAE
:1019E00001C0EAFF4CC4EFFF5651800A02E1040136
:1019F000566BE4CF03F0E4CF02F0E4CF01F0E4CF84
:101A000000F01200D9CFE5FFE1CFD9FF00C0E5FF1C
:101A100001C0E5FF02C0E5FF03C0E5FF04C0E5FF2C
:101A200005C0E5FF06C0E5FF07C0E5FF020EDBCFFE
:101A300000F0030EDBCF01F0040EDBCF02F0050E49
:101A4000DBCF03F0060EDBCF04F0070EDBCF05F093
:101A5000080EDBCF06F0090EDBCF07F000500401C3
:101A60008E6F01508F6F0250906F0350916F045032
:101A70000F01306F0550316F0650326F0750336FD2
:101A800004018E510F013203F4CF01F0F3CF00F0C7
:101A900000500F01366F0150376F04018E510F0156
:101AA0003003F4CF01F0F3CF00F000500F01346F9A
:101AB0000150356F040191510F013003F3CF00F055
:101AC0000F01375100260050376F040190510F016C
:101AD0003103F3CF01F00150002600500F01376FA2
:101AE000040190510F013003F4CF01F0F3CF00F067
:101AF0000F0136510026375101220050366F015038
:101B0000376F04018F510F013103F4CF03F0F3CF8E
:101B100002F0025000260350012200500F01366FE0
:101B20000150376F04018F510F013203F3CF00F0E2
:101B300000500401F96F04018F510F013003F4CFFD
:101B400001F0F3CF00F000500401F76F0150F86F7F
:101B500004018E510F013303F3CF00F00050040154
:101B6000FD6F04018E510F013103F4CF01F0F3CF6B
:101B700000F000500401FB6F0150FC6F0401F66B94
:101B80000401FA6B0401F6510F013425006E0401C3
:101B9000F7510F013521016E0401F8510F01362173
:101BA000026E0401F9510F013721036E0050346FAA
:101BB0000150356F0250366F0350376F0401FA51F0
:101BC0000F013425006E0401FB510F013521016E18
:101BD0000401FC510F013621026E0401FD510F0179
:101BE0003721036E03C0E9FF02C0F4FF01C0F3FF19
:101BF0000050E4CF07F0E4CF06F0E4CF05F0E4CFE7
:101C000004F0E4CF03F0E4CF02F0E4CF01F0E4CF3E
:101C100000F0E4CFD9FF1200D9CFE5FFE1CFD9FF23
:101C200000C0E5FF01C0E5FF02C0E5FF03C0E5FF1E
:101C300004C0E5FF05C0E5FF06C0E5FF07C0E5FFFE
:101C400008C0E5FF09C0E5FF0AC0E5FF0BC0E5FFDE
:101C50000CC0E5FF0DC0E5FF0EC0E5FF0FC0E5FFBE
:101C6000020EDBCF00F0030EDBCF01F0040EDBCF62
:101C700002F0050EDBCF03F0060EDBCF04F0070EFB
:101C8000DBCF05F0080EDBCF06F0200E076E086AEA
:101C900006C009F00A6A0B6A0C6AE56AE56AE56A39
:101CA0000950E56E0350E56E0250E56E0150E56E99
:101CB0000050E56EE8EC0EF00D6E080EE126300ED9
:101CC0000D263A0E0D5C05E30D500E6E270E0E2408
:101CD0000D6EFF0E07260822E00E07240E6E000E82
:101CE00008200F6E0EC0E9FF0FC0EAFF0DC0EFFF26
:101CF0000C50E56E0B50E56E0A50E56E0950E56E2E
:101D00000350E56E0250E56E0150E56E0050E56E41
:101D1000D8EC11F0006EF3CF01F0F4CF02F0E9CF70
:101D200003F0080EE1260050011002100310D8A4A1
:101D3000AFD707C000F008C001F004C002F005C032
:101D400003F000C004F001C005F0004A012AE00ED3
:101D50000426000E052204C0E9FF05C0EAFFEFCF0C
:101D600004F002C0E9FF03C0EAFF04C0EFFF024A2B
:101D7000032A000E015C02E1200E005CE2E302C0D7
:101D8000E9FF03C0EAFF000EEF6AE4CF0FF0E4CFF3
:101D90000EF0E4CF0DF0E4CF0CF0E4CF0BF0E4CF85
:101DA0000AF0E4CF09F0E4CF08F0E4CF07F0E4CF85
:101DB00006F0E4CF05F0E4CF04F0E4CF03F0E4CF85
:101DC00002F0E4CF01F0E4CF00F0E4CFD9FF12003D
:101DD000D9CFE5FFE1CFD9FF00C0E5FF01C0E5FFA6
:101DE00002C0E5FF03C0E5FF04C0E5FF05C0E5FF55
:101DF00006C0E5FF07C0E5FF08C0E5FF09C0E5FF35
:101E00000AC0E5FF020EDBCF00F0030EDBCF01F0CE
:101E1000040EDBCF02F0050EDBCF03F0060EDBCFA6
:101E200004F0070EDBCF05F0080EDBCF06F0090E3D
:101E3000DBCF07F0086A045005100610071005E113
:101E4000E968F468F368E86847D0096A0750800BCE
:101E5000E8440A6E0A501BE1045004260536063693
:101E600007360750035C08E10650025C05E10550A7
:101E7000015C02E10450005C06E2D89007320632B1
:101E80000532043204D0092A09C008F0DFD7075010
:101E9000035C08E10650025C05E10550015C02E1CB
:101EA0000450005C08E30450005E0550015A0650DF
:101EB000025A0750035AD8900732063205320432CC
:101EC00008C009F008060950E2E103C0E9FF02C0BA
:101ED000F4FF01C0F3FF0050E4CF0AF0E4CF09F0B3
:101EE000E4CF08F0E4CF07F0E4CF06F0E4CF05F04C
:101EF000E4CF04F0E4CF03F0E4CF02F0E4CF01F04C
:101F0000E4CF00F0E4CFD9FF120000C0E5FF01C02C
:101F1000E5FF02C0E5FF03C0E5FF04C0E5FF0401E3
:101F20004F5104014E1901E16AD04FC400F0005036
:101F3000016E0128006E009E600E0024016E026A90
:101F4000000E022201C0E9FF02C0EAFFEFCF59F400
:101F50001F0E040159174FC458F459510401582752
:101F60005851016E020E0124586F589FAAEC1CF0C4
:101F7000016E015003E1016A012A01D0016AAAEC55
:101F80001CF00401596F59C402F0800E021659C4A6
:101F900003F01F0E031603C004F003C059F40450ED
:101FA00003E14EC44FF43ED001501EE0025025E044
:101FB000AAEC1CF0006E04015951016E0104596F26
:101FC0000050420A1AE000504E0A03E1E7EC18F014
:101FD00014D00050460A03E135EC20F00ED000503A
:101FE000490A0BE1FF0009D04FC45AF4025003E044
:101FF000D4EC1CF002D095EC1DF058C44FF40F0146
:1020000026510F01271906E00401505103E11DEC90
:1020100010F008D094B006D00401505103E1ACB2E6
:10202000F4EC1FF0E4CF04F0E4CF03F0E4CF02F0CF
:10203000E4CF01F0E4CF00F0120000C0E5FF01C0E2
:10204000E5FF02C0E5FF03C0E5FF04C0E5FFACA269
:102050007ED0F9EC1DF0006E005005E10F01276BFA
:102060000F01266B74D027CF01F000500126F9EC48
:102070001DF0026E0050036E0304006E0250230A2E
:102080001FE1010E005CD8A060D0F9EC1DF0026EDB
:10209000690A03E120EC1CF058D00250720A03E1F7
:1020A000F4EC1FF052D00250730A01E04ED094803D
:1020B000AB869D8A9D98AE50AE50AB98AB8845D00C
:1020C0000250430A05E00250420A01E03ED006D029
:1020D00000C003F0046A038E0350006E00C052F487
:1020E00000500401006F010E0401536F0F012751CE
:1020F000011814E0F9EC1DF0026E04015227000EE5
:1021000004015325006E036A040E032200C0E9FF98
:1021100003C0EAFF02C0EFFF532BE8D7000E040113
:102120005325006E026A040E02220401521D036E42
:10213000032A00C0E9FF02C0EAFF03C0EFFF040169
:10214000532B53C450F404014A6B01C027FFE4CF62
:1021500004F0E4CF03F0E4CF02F0E4CF01F0E4CFE9
:1021600000F01200D9CFE5FFE1CFD9FF00C0E5FFB5
:1021700001C0E5FF02C0E5FF03C0E5FF04C0E5FFC5
:1021800006C0E5FF020EDBCF00F0030EDBCF01F04F
:10219000040EDBCF02F03F0EC716C66AC56A0050B8
:1021A000C6120150C7129488820E006E0F0E016E87
:1021B0000F0E046E380E0026045001220F0E046E1E
:1021C000800E005E0450015A820E036E0F0E046EE4
:1021D0000F0E066E380E0326065004220F0E066EF2
:1021E000800E035E0650045A03C0E9FF04C0EAFFF4
:1021F000EFCF03F0039800C0E9FF01C0EAFF03C07E
:10220000EFFF9486820E006E0F0E016E0F0E046EAD
:10221000380E0026045001220F0E046E800E005E60
:102220000450015A820E036E0F0E046E0F0E066EDE
:10223000380E0326065004220F0E066E800E035E33
:102240000650045A03C0E9FF04C0EAFFEFCF03F0D1
:10225000039600C0E9FF01C0EAFF03C0EFFF02C020
:10226000C8FFC6CF00F0008A0050C66E9E96A196A9
:10227000E4CF06F0E4CF04F0E4CF03F0E4CF02F0C3
:10228000E4CF01F0E4CF00F0E4CFD9FF1200D9CFC2
:10229000E5FFE1CFD9FF00C0E5FF01C0E5FF02C0C7
:1022A000E5FF03C0E5FF04C0E5FF05C0E5FF06C08C
:1022B000E5FF07C0E5FF020EDBCF00F0030EDBCF2A
:1022C00001F080EC1CF0026EF3CF03F0F4CF04F0C9
:1022D000E9CF05F0E56AE56A0150E56E0050E56E6C
:1022E000E56A0F0EE56E420EE56E400EE56E02ECFD
:1022F0000DF0006EF3CF01F0F4CF06F0E9CF07F058
:10230000080EE126E56AE56A030EE56EE80EE56E65
:102310000750E56E0650E56E0150E56E0050E56E23
:10232000D8EC11F0006EF3CF01F0F4CF06F0E9CF56
:1023300007F0080EE12600500224006E0150032031
:10234000016E06500420026E07500520036E80ECDB
:102350001CF0046EF3CF05F0F4CF06F0E9CF07F0E0
:102360000050045E0150055A0250065A0350075AA5
:10237000079E3F0E075C08E1FF0E065C05E1FF0EBD
:10238000055C02E1FF0E045CE2E2E4CF07F0E4CF7B
:1023900006F0E4CF05F0E4CF04F0E4CF03F0E4CF9F
:1023A00002F0E4CF01F0E4CF00F0E4CFD9FF120057
:1023B000D9CFE5FFE1CFD9FF00C0E5FF01C0E5FFC0
:1023C00002C0E5FF03C0E5FF04C0E5FF05C0E5FF6F
:1023D00006C0E5FF07C0E5FF08C0E5FF09C0E5FF4F
:1023E0000AC0E5FF0BC0E5FF0CC0E5FF0DC0E5FF2F
:1023F000020EDBCF00F0030EDBCF01F0040EDBCFCB
:1024000002F0050EDBCF03F0060EDBCF04F0070E63
:10241000DBCF05F0080EDBCF06F0090EDBCF07F0AF
:10242000086A096A0A6A0B6A200E0C6E0350800B58
:10243000E8440D6E0050002601360236033608507F
:10244000082609360A360B360D50D8A408800750E6
:102450000B5C08E106500A5C05E10550095C02E1ED
:102460000450085C09E30450085E0550095A065000
:102470000A5A07500B5A00800C040D6E0DC00CF068
:102480000D50D4E103C0E9FF02C0F4FF01C0F3FF27
:102490000050E4CF0DF0E4CF0CF0E4CF0BF0E4CF2C
:1024A0000AF0E4CF09F0E4CF08F0E4CF07F0E4CF7E
:1024B00006F0E4CF05F0E4CF04F0E4CF03F0E4CF7E
:1024C00002F0E4CF01F0E4CF00F0E4CFD9FF120036
:1024D00000C0E5FF01C0E5FF03C0E5FF04C0E5FF64
:1024E00005C0E5FF06C0E5FF07C0E5FF08C0E5FF42
:1024F00009C0E5FF0AC0E5FF0BC0E5FFFEC400F020
:10250000FFC401F00401FE3F01D0FF2B0050E56E37
:10251000E6EC1FF0E652076E046A056A066AFEC41E
:1025200000F0FFC401F00401FE3F01D0FF2B00507A
:10253000E56EE6EC1FF0E6520B6A0A6E086A085078
:10254000041205120A5006120B500712FEC400F0C6
:10255000FFC401F00401FE3F01D0FF2B0050E56EE7
:10256000E6EC1FF0E652036E006A03C001F0E86A71
:1025700003BEFF0E086E096E0050041201500512D2
:102580000850061209500712FEC400F0FFC401F003
:102590000401FE3F01D0FF2B0050E56EE6EC1FF07A
:1025A000E652016A0412015005120612071207C012
:1025B000E9FF06C0F4FF05C0F3FF0450E4CF0BF0C1
:1025C000E4CF0AF0E4CF09F0E4CF08F0E4CF07F05D
:1025D000E4CF06F0E4CF05F0E4CF04F0E4CF03F05D
:1025E000E4CF01F0E4CF00F01200D9CFE5FFE1CF56
:1025F000D9FF00C0E5FF01C0E5FF02C0E5FF03C051
:10260000E5FF04C0E5FF05C0E5FF06C0E5FF07C024
:10261000E5FF020EDBCF00F0030EDBCF01F0040E6E
:10262000DBCF02F0050EDBCF03F003C004F0056A38
:102630000350D8B454D000C0E9FF01C0F3FF0250EA
:10264000C6EC1FF0066E430A08E1010E056E03C0DA
:1026500006F0076A068E0650036E0406002A02E39F
:10266000014A022A9D9AAB9894909D989EA8FED705
:10267000AC80AD6A00009EA8FED7AC9003C0ADFF51
:1026800000009EA8FED7055004E0420EAD6E032662
:1026900004D0620EAD6E620E0326045015E00000F9
:1026A0009EA8FED700C0E9FF01C0F3FF0250C6ECB0
:1026B0001FF0056E05C0ADFF055003260406002A75
:1026C00002E3014A022AE9D700009EA8FED7031CB4
:1026D000AD6EAD2A00009EA8FED7F4EC1FF0E4CF4B
:1026E00007F0E4CF06F0E4CF05F0E4CF04F0E4CF48
:1026F00003F0E4CF02F0E4CF01F0E4CF00F0E4CF48
:10270000D9FF1200D9CFE5FFE1CFD9FF00C0E5FF27
:1027100001C0E5FF02C0E5FF03C0E5FF04C0E5FF1F
:1027200005C0E5FF06C0E5FF07C0E5FF020EDBCFF1
:1027300000F0030EDBCF01F0040EDBCF02F0050E3C
:10274000DBCF03F002C006F00650046E800A33E1CE
:1027500000C0E9FF01C0F3FF025091EC1EF0056ECE
:10276000F3CF06F0F4CF07F003C0E5FF05C0E9FFA3
:1027700006C0F3FF075040EC20F000C0E9FF01C0A5
:10278000F3FF025091EC1EF0056EF3CF06F0F4CF8C
:1027900007F0052A02E3064A072A05C0E5FF06C03E
:1027A000F4FF07C0F6FF00C0E9FF01C0F3FF0250CD
:1027B000D7EC1FF020D004C000F000AA1CD0007A93
:1027C0000050046E04E103508EEC20F014D004504D
:1027D000010A04E10350A1EC20F00DD004500F0ACF
:1027E00004E10350EFEC1BF006D004500E0A03E1A5
:1027F00003509EEC20F0E4CF07F0E4CF06F0E4CFE6
:1028000005F0E4CF04F0E4CF03F0E4CF02F0E4CF2E
:1028100001F0E4CF00F0E4CFD9FF1200D9CFE5FFFB
:10282000E1CFD9FF00C0E5FF01C0E5FF02C0E5FF31
:1028300003C0E5FF04C0E5FF05C0E5FF06C0E5FFF6
:1028400007C0E5FF020EDBCF00F0030EDBCF01F087
:10285000040EDBCF02F0050EDBCF03F027CF28FFFD
:102860000F0126510F01285F2851046E0404286FC0
:1028700003C004F0056A030E0426D8B0052A28CF49
:1028800006F0076A0750800FF36E0550800FF35C67
:1028900002E10450065C02E2E86830D0020E035CFC
:1028A00002E2E86A2BD00350046E0404036EE56E66
:1028B00026EC1AF0E652046A0350045C14E2045059
:1028C0000024056EE86A0120066EE86A022005C051
:1028D000E9FF06C0F3FFC6EC1FF0042AE56E26EC04
:1028E0001AF0E652E9D727CF28FF0F0126510F0132
:1028F000285F2851006E0004286FE86AE4CF07F0D3
:10290000E4CF06F0E4CF05F0E4CF04F0E4CF03F029
:10291000E4CF02F0E4CF01F0E4CF00F0E4CFD9FF40
:102920001200D9CFE5FFE1CFD9FF00C0E5FF01C01C
:10293000E5FF02C0E5FF03C0E5FF04C0E5FF05C0F9
:10294000E5FF06C0E5FF020EDBCF00F0030EDBCF94
:1029500001F0040EDBCF02F0050EDBCF03F0D880D0
:1029600001AED890046A0436045007E0011C066EDC
:10297000001C056E054A062A04D000C005F001C0FF
:1029800006F0D88003AED89007E3031C016E021C4A
:10299000006E004A012A04D002C000F003C001F01A
:1029A0000150E56E0050E56E0650E56E0550E56E8F
:1029B000F4EC16F0006EF3CF01F0040EE1260450A3
:1029C0000AE0011C036E001C026E024A032A03C0C7
:1029D000F3FF025003D001C0F3FF0050E4CF06F034
:1029E000E4CF05F0E4CF04F0E4CF03F0E4CF02F04D
:1029F000E4CF01F0E4CF00F0E4CFD9FF1200D9CF4B
:102A0000E5FFE1CFD9FF00C0E5FF01C0E5FF02C04F
:102A1000E5FF03C0E5FF04C0E5FF05C0E5FF020ECA
:102A2000DBCF00F0030EDBCF01F0040EDBCF02F0B2
:102A3000050EDBCF03F0FEC404F0FFC405F0040173
:102A4000FE3F01D0FF2B0350E56E0450E56E71ECA4
:102A50001DF0E652E652FEC404F0FFC405F0040186
:102A6000FE3F01D0FF2B0250056EE56E0450E56E6F
:102A700071EC1DF0E652E652FEC404F0FFC405F00E
:102A80000401FE3F01D0FF2B0150E56E0450E56EBE
:102A900071EC1DF0E652E652FEC404F0FFC405F0EE
:102AA0000401FE3F01D0FF2B0050E56E0450E56E9F
:102AB00071EC1DF0E652E652E4CF05F0E4CF04F0ED
:102AC000E4CF03F0E4CF02F0E4CF01F0E4CF00F074
:102AD000E4CFD9FF1200D9CFE5FFE1CFD9FF00C085
:102AE000E5FF01C0E5FF02C0E5FF03C0E5FF04C04C
:102AF000E5FF05C0E5FF06C0E5FF020EDBCF00F0F5
:102B0000030EDBCF01F0040EDBCF02F004013751DE
:102B100019E168EC12F0036EF3CF04F0F4CF05F086
:102B2000E9CF06F003C0E5FF04C0F4FF05C0F6FFDF
:102B300006C0F7FF00C0E9FF01C0F3FF0250B5EC8B
:102B40001FF01ED004013751010A1AE100C0E9FF4D
:102B500001C0F3FF0250D9EC1DF0006EF3CF01F07D
:102B6000F4CF02F0E9CF03F00350E56E0250E56EBA
:102B70000150E56E0050E56EFFEC14F0040EE12606
:102B8000E4CF06F0E4CF05F0E4CF04F0E4CF03F0A7
:102B9000E4CF02F0E4CF01F0E4CF00F0E4CFD9FFBE
:102BA0001200D9CFE5FFE1CFD9FF00C0E5FF01C09A
:102BB000E5FF02C0E5FF03C0E5FF04C0E5FF05C077
:102BC000E5FF06C0E5FF020EDBCF00F0030EDBCF12
:102BD00001F0040EDBCF02F0050EDBCF03F0060E92
:102BE000DBCF04F0070EDBCF05F0080EDBCF06F0DD
:102BF000D88003AED89015E306500A0A12E104C04B
:102C0000E9FF05C0EAFF2D0EEF6E044A052A031EF8
:102C1000021E011E006C05E1012A03E1022AD8B45C
:102C2000032A0650E56E0550E56E0450E56E03502C
:102C3000E56E0250E56E0150E56E0050E56E0CEC5D
:102C40000EF0070EE126E4CF06F0E4CF05F0E4CF66
:102C500004F0E4CF03F0E4CF02F0E4CF01F0E4CFDE
:102C600000F0E4CFD9FF120000C0E5FF01C0E5FF8E
:102C700002C0E5FF03C0E5FF85EC0FF00F01235113
:102C80000AE0800EE56E040EE56E930EE56E0EEC26
:102C900004F0030EE12680EC1CF0006EF3CF01F08F
:102CA000F4CF02F0E9CF03F004018151005E8251BC
:102CB000015A8351025A8451035A039E3F0E035C0A
:102CC00008E1FF0E025C05E1FF0E015C02E1FF0E70
:102CD000005C23E280EC1CF0F3CF01F0F4CF02F0B3
:102CE000E9CF03F0100F0401816F270E0120826FDE
:102CF000000E0220836F000E0320846F0F0123510A
:102D00000CE0010EE56E800EE56E040EE56E930E8E
:102D1000E56E01EC07F0040EE126E4CF03F0E4CF0A
:102D200002F0E4CF01F0E4CF00F01200D8CFE5FFCD
:102D3000E0CFE5FFE56EF3CFE5FFF4CFE5FFE9CFA8
:102D4000E5FFEACFE5FFFACFE5FFFBCFE5FFF6CFE2
:102D5000E5FFF6CFE5FFF7CFE5FFF8CFE5FFF5CFCD
:102D6000E5FFE1CFE5FFE2CFE5FF0F0124510401CC
:102D7000876F0F0125510401886FD650856FD7509A
:102D8000866FF2A411D00F01243F01D0252BF294BD
:102D90000F0124510401876F0F0125510401886F31
:102DA000D650856FD750866FE4CFE2FFE4CFE1FFC6
:102DB000E4CFF5FFE4CFF8FFE4CFF7FFE4CFF6FF71
:102DC000E4CFF6FFE4CFFBFFE4CFFAFFE4CFEAFF66
:102DD000E4CFE9FFE4CFF4FFE4CFF3FFE450E4CF26
:102DE000E0FFE4CFD8FF1000D9CFE5FFE1CFD9FF56
:102DF00000C0E5FF01C0E5FF02C0E5FF03C0E5FF3D
:102E000004C0E5FF05C0E5FF06C0E5FF020EDBCF0D
:102E100000F0030EDBCF01F0040EDBCF02F0050E55
:102E2000DBCF03F0046A056A0350800BE844066EAA
:102E3000065011E10250022603360350015C02E104
:102E40000250005C04E2D8900332023204D0052A1A
:102E500005C004F0E9D70350015C02E10250005CB8
:102E600004E30250005E0350015AD890033202324C
:102E700004C005F004060550EEE101C0F3FF005068
:102E8000E4CF06F0E4CF05F0E4CF04F0E4CF03F0A4
:102E9000E4CF02F0E4CF01F0E4CF00F0E4CFD9FFBB
:102EA0001200D9CFE5FFE1CFD9FF00C0E5FF01C097
:102EB000E5FF02C0E5FF03C0E5FF020EDBCF00F037
:102EC000030EDBCF01F0040EDBCF02F000C0E9FF00
:102ED00001C0F3FF0250C6EC1FF0036E035029E05F
:102EE000C6A610D00350E56E18EC1EF0036EE65235
:102EF000035002E0FD0E1ED013EC1BF0C5AC14D045
:102F0000FE0E18D09E9600C0E9FF01C0F3FF0250EC
:102F1000C6EC1FF0C96EC6889EA6FED7C7B404D003
:102F2000C7B002D0FE0E06D0002AD0E3014A022A22
:102F3000CDD7E86AE4CF03F0E4CF02F0E4CF01F0AC
:102F4000E4CF00F0E4CFD9FF1200D9CFE5FFE1CF05
:102F5000D9FF00C0E5FF01C0E5FF02C0E5FF03C0E7
:102F6000E5FF04C0E5FF05C0E5FF020EDBCF00F082
:102F7000030EDBCF01F0040EDBCF02F0050EDBCF3A
:102F800003F0046A03C005F00306055022E024ECB8
:102F90001DF0056E05C0E5FF00C0E9FF01C0F3FFAD
:102FA000025040EC20F0002A02E3014A022A04C049
:102FB00005F0C5A6E7D7A1A602D0E8680BD0052A80
:102FC00005C004F00350F5E0B8EC1DF0C5B8FED71D
:102FD000F0D70450E4CF05F0E4CF04F0E4CF03F0E1
:102FE000E4CF02F0E4CF01F0E4CF00F0E4CFD9FF6A
:102FF000120000C0E5FF01C0E5FF02C0E5FF03C00D
:10300000E5FF4FC400F0016A5AC402F0036A02509F
:10301000005E0350015AE56A800EE56E0150E56ED0
:103020000050E56E91EC14F0006E040EE1260006EF
:103030005AC401F0430EEFEC1BF0200EEFEC1BF036
:10304000005020E0600E0124026E036A000E03228D
:1030500002C0E9FF03C0EAFFEFCF02F0E56A0250C9
:10306000E56E000EE56E400EE56E000EE56E6AEC54
:1030700019F0050EE126012A0150800A01E1016ADA
:103080000006DED7E4CF03F0E4CF02F0E4CF01F096
:10309000E4CF00F01200D9CFE5FFE1CFD9FF00C0A7
:1030A000E5FF01C0E5FF02C0E5FF03C0E5FF04C086
:1030B000E5FF020EDBCF00F0030EDBCF01F0040EC4
:1030C000DBCF02F00401375111E1BBEC1BF0036EC2
:1030D000F3CF04F003C0E5FF04C0F4FF00C0E9FF34
:1030E00001C0F3FF02501DEC20F016D0040137514F
:1030F000010A12E100C0E9FF01C0F3FF025050ECE9
:103100001FF0006EF3CF01F00150E56E0050E56E48
:10311000E9EC19F0E652E652E4CF04F0E4CF03F014
:10312000E4CF02F0E4CF01F0E4CF00F0E4CFD9FF28
:103130001200E40EF66E400EF76E000EF86E0900F7
:10314000F550056E0900F550066E04E1056702D0E2
:10315000E6EF18F00900F550006E0900F550016E19
:103160000900F550026E09000900F550E96E0900EA
:10317000F550EA6E090009000900F550036E0900D8
:10318000F550046E09000900F6CF07F0F7CF08F0FC
:10319000F8CF09F000C0F6FF01C0F7FF02C0F8FF4A
:1031A000035002E1045007E00900F550EE6E0306FB
:1031B000F8E20406F9D707C0F6FF08C0F7FF09C018
:1031C000F8FF050601E20606A5EF18F0120000C0A0
:1031D000E5FF01C0E5FF02C0E5FFAAEC1CF0006EB0
:1031E000AAEC1CF0016E0050026ED00E0224006E9C
:1031F0000A0E005C05E30050026EF90E0224006E18
:103200000150026ED00E0224016E0A0E015C05E32D
:103210000150026EF90E0224016E080E005C12E2EB
:10322000100E015CD8B00ED00038F00B0124006EF7
:10323000D9EC1AF0016E015005E10050E56EC6ECC4
:103240001EF0E652E4CF02F0E4CF01F0E4CF00F04C
:103250001200D8CFE5FFE0CFE5FFE56EF3CFE5FF45
:10326000F4CFE5FFE9CFE5FFEACFE5FFFACFE5FFD1
:10327000FBCFE5FFF6CFE5FFF6CFE5FFF7CFE5FFA4
:10328000F8CFE5FFF5CFE5FFE1CFE5FFE2CFE5FFC2
:10329000E1EC0BF0E4CFE2FFE4CFE1FFE4CFF5FF98
:1032A000E4CFF8FFE4CFF7FFE4CFF6FFE4CFF6FF7B
:1032B000E4CFFBFFE4CFFAFFE4CFEAFFE4CFE9FF7E
:1032C000E4CFF4FFE4CFF3FFE450E4CFE0FFE4CF3A
:1032D000D8FF1000D9CFE5FFE1CFD9FF00C0E5FF4F
:1032E00001C0E5FF02C0E5FF020ED924006E000E0A
:1032F000DA20016E800E026E030E0026000E0122FF
:1033000002220250E56E0150E56E0050E56E040E9B
:10331000DBCFE5FF030EDBCFE5FF020EDBCFE5FFE2
:1033200004013B51E56E3A51E56E3951E56E0EEC04
:1033300000F0006EF3CF01F0090EE12601C0F3FFAB
:103340000050E4CF02F0E4CF01F0E4CF00F0E4CF8E
:10335000D9FF1200D9CFE5FFE1CFD9FF00C0E5FFCB
:1033600001C0E5FF02C0E5FF03C0E5FF020EDBCFB1
:1033700000F0030EDBCF01F0040EDBCF02F00401FE
:1033800037510DE124EC1FF0036E03C0E5FF00C0D0
:10339000E9FF01C0F3FF025040EC20F00FD0040120
:1033A0003751010A0BE100C0E9FF01C0F3FF0250F1
:1033B000C6EC1FF0E56E4BEC1DF0E652E4CF03F0D7
:1033C000E4CF02F0E4CF01F0E4CF00F0E4CFD9FF86
:1033D0001200D9CFE5FFE1CFD9FF00C0E5FF01C062
:1033E000E5FF02C0E5FF03C0E5FF020EDBCF00F002
:1033F000030EDBCF01F0FEC402F0FFC403F00401B2
:10340000FE3F01D0FF2B0150E56E0250E56E71ECDE
:103410001DF0E652E652FEC402F0FFC403F00401C0
:10342000FE3F01D0FF2B0050E56E0250E56E71ECBF
:103430001DF0E652E652E4CF03F0E4CF02F0E4CF11
:1034400001F0E4CF00F0E4CFD9FF1200D9CFE5FFBF
:10345000E1CFD9FF00C0E5FF01C0E5FF02C0E5FFF5
:1034600003C0E5FF04C0E5FF020EDBCF00F026CF6E
:1034700001F0026A014A022A27CF03F0046A0150D0
:10348000031803E10250041801E001D00ED0000E31
:103490000F012625016E026A010E022201C0E9FF1A
:1034A00002C0EAFF00C0EFFF262BE4CF04F0E4CF18
:1034B00003F0E4CF02F0E4CF01F0E4CF00F0E4CF7A
:1034C000D9FF1200D9CFE5FFE1CFD9FF00C0E5FF5A
:1034D00001C0E5FF02C0E5FF03C0E5FF04C0E5FF52
:1034E000020EDBCF00F0030EDBCF01F0040EDBCFCA
:1034F00002F0050EDBCF03F0060EDBCF04F000C0B8
:10350000E9FF01C0F3FF0250C6EC1FF0006E04504B
:10351000E56E0350E56E0050E56E51EC1CF0030EB5
:10352000E126E4CF04F0E4CF03F0E4CF02F0E4CFEF
:1035300001F0E4CF00F0E4CFD9FF1200D9CFE5FFCE
:10354000E1CFD9FF00C0E5FF01C0E5FF02C0E5FF04
:1035500003C0E5FF020EDBCF00F0016A5AC402F09F
:10356000036A0250002603500122E56A800EE56ED0
:103570000150E56E0050E56E91EC14F0006EF3CF53
:1035800001F0040EE126600E0026000E012200C0AC
:10359000E9FF01C0EAFFEFCF00F00050E4CF03F0F5
:1035A000E4CF02F0E4CF01F0E4CF00F0E4CFD9FFA4
:1035B000120000C0E5FF01C0E5FF02C0E5FF010EFB
:1035C000006EAAEC1CF0016E01C002F0015023E075
:1035D0000050E56EE6EC1FF0016EE652015010E17E
:1035E0000A0E005C0BE20A0E006EE56EE6EC1FF0C0
:1035F000016EE652015004E1E8680ED0E8680CD094
:103600000150021802E0E86807D0002A1B0E005C97
:10361000D8E3E86801D0E86AE4CF02F0E4CF01F033
:10362000E4CF00F0120000C0E5FF01C0E5FF02C0DA
:10363000E5FF03C0E5FF04C0E5FF05C0E5FFE80EB8
:10364000006E030E016EFF0E0026012200500110D5
:1036500010E0C5CF02F0036A1F0E0216046AC7B459
:10366000042A056A04500212055003120250031086
:10367000EAE10F012E6B005003E1015001E12E2B16
:10368000E4CF05F0E4CF04F0E4CF03F0E4CF02F0A0
:10369000E4CF01F0E4CF00F0120001C0E5FF02C06A
:1036A000E5FF03C0E5FF85EC20F094928B9280EC5F
:1036B0001CF0F3CF01F0F4CF02F0E9CF03F0880F54
:1036C0000401816F130E0120826F000E0220836FB0
:1036D000000E0320846F270EE56EE56A080EE56E86
:1036E000B2EC10F0030EE126800EE56E040EE56EDE
:1036F000930EE56EBAEC09F0030EE126E4CF03F079
:10370000E4CF02F0E4CF01F01200D9CFE5FFE1CF22
:10371000D9FF00C0E5FF01C0E5FF02C0E5FF020ED2
:10372000DBCF00F0030EDBCF01F037EC1EF00F0112
:103730002E5102E0E86816D00044FE0B026E0150E4
:10374000D880E866D890016A01360150D880E866D2
:10375000D890016A0136015002120250E56E18EC51
:103760001EF0E652E4CF02F0E4CF01F0E4CF00F027
:10377000E4CFD9FF120000C0E5FF01C0E5FF02C0A1
:10378000E5FF03C0E5FFFEC400F0FFC401F0040143
:10379000FE3F01D0FF2B0050E56EE6EC1FF0E65235
:1037A000036E026AFEC400F0FFC401F00401FE3F94
:1037B00001D0FF2B0050E56EE6EC1FF0E652016AE7
:1037C00002120150031203C0F3FF0250E4CF03F0D2
:1037D000E4CF02F0E4CF01F0E4CF00F0120000C02B
:1037E000E5FF01C0E5FF02C0E5FF006E000E0F011E
:1037F0002B25016E026A0F0E022201C0E9FF02C0F2
:10380000EAFF00C0EFFF220E2B5D01E22B2B0050E0
:103810000A0A0FE10F012B51E56E800EE56E0F0EC7
:10382000E56E000EE56E0EEC14F0040EE1260F01BD
:103830002B6BE4CF02F0E4CF01F0E4CF00F01200F4
:103840000F01266B0F01276B0F01286994808B9065
:103850009480B06A3F0EAF6EB886AC8AAC84AC8CF4
:10386000AC90AB8CAB8E0401516B04014B6B04012B
:103870004E6B04014F6B0401506B000EE56AE6ECE1
:103880001FF00F012A6FE6529F989F9A010E0F01B9
:10389000296F0401396B3A6B2F0E3B6FF4EC1FF06C
:1038A0001200D9CFE5FFE1CFD9FF00C0E5FF01C08D
:1038B000E5FF02C0E5FF020EDBCF00F0030EDBCF19
:1038C00001F0040EDBCF02F0E56A0050E56E85ECF6
:1038D0001BF0E652E6520150E56E18EC1EF0E6527F
:1038E0000250E56E18EC1EF0E6528AEC20F0E4CFB0
:1038F00002F0E4CF01F0E4CF00F0E4CFD9FF1200F2
:103900000F01245104018C6F0F01255104018D6FAB
:10391000D6508A6FD7508B6F8C510F01241905E157
:1039200004018D510F0125190CE00F0124510401F0
:103930008C6F0F01255104018D6FD6508A6FD750BF
:103940008B6F8DC4E9FF8CC4F4FF8BC4F3FF0401BB
:103950008A51120000C0E5FF01C0E5FF04014F518C
:103960000401581905E004014F5104014E1902E108
:10397000E86A15D04FC400F004014F2B016A600EB5
:103980000026000E012200C0E9FF01C0EAFFEFCFD0
:1039900000F04F51800A02E104014F6B0050E4CF68
:1039A00001F0E4CF00F0120000C0E5FFAAEC1CF02B
:1039B000006E4C0A08E1AAEC1CF0300A02E08B828F
:1039C00019D08B9217D00050520A14E1AAEC1CF0C7
:1039D000300A03E10F01236B0DD0800EE56E040E5B
:1039E000E56E930EE56EBAEC09F0030EE126010ECA
:1039F0000F01236FE4CF00F0120000C0E5FF92EC4E
:103A000020F00401896B806B8983006A89B3002AE6
:103A10000050010BE844F46E8051FD0BF410806FF0
:103A2000D58ED59CD59AD588D596D594D582D58076
:103A3000F28AF184D08EF28EF28CBA80FF0EBB68CF
:103A4000BA84E4CF00F0120000C0E5FF01C0E5FF3A
:103A500002C0E5FF13EC1BF0C586E80E006E030EF6
:103A6000016EFF0E002601220050011005E07FECE0
:103A700020F0026E0250F5E00F012E6B005003E1C2
:103A8000015001E12E2BC950E4CF02F0E4CF01F048
:103A9000E4CF00F01200D9CFE5FFE1CFD9FF00C09D
:103AA000E5FF01C0E5FF02C0E5FF020EDBCF00F03D
:103AB000FEC401F0FFC402F00401FE3F01D0FF2B61
:103AC0000050E56E0150E56E71EC1DF0E652E652D5
:103AD000E4CF02F0E4CF01F0E4CF00F0E4CFD9FF6F
:103AE0001200D9CFE5FFE1CFD9FF00C0E5FF020EFC
:103AF000DBCF00F0030EDBCFA8FF00C0A9FFA69E1E
:103B0000A69CA684F29EF29C550EA76EAA0EA76EE6
:103B1000A682A6A202D00000FCD7A694F28EF28C58
:103B2000E4CF00F0E4CFD9FF120000C0E5FF01C0F0
:103B3000E5FF03C0E5FFAAEC1CF0640A12E1AAEC61
:103B40001CF0006A016EAAEC1CF0036A0026035008
:103B500001220150E56E0050E56E10EC20F0E652B7
:103B6000E652E4CF03F0E4CF01F0E4CF00F012001E
:103B700000C0E5FF01C0E5FF13EC1BF09E96C59A5F
:103B8000C588E80E006E030E016EFF0E00260122AE
:103B90000050011002E09EA6F8D70F012E6B0050D6
:103BA00003E1015001E12E2BE4CF01F0E4CF00F05E
:103BB0001200E8AE0AD0F3CFEAFFEE50EECFF3FFEB
:103BC000EECFF4FFEECFE9FF1200E8BCA7EF20F044
:103BD000E9CFF6FFF3CFF7FFF86E0900F5500900C3
:103BE000F5CFF3FF0900F5CFF4FF0900F5CFE9FFAA
:103BF000120000C0E5FF01C0E5FF0F0126510F01D3
:103C0000271902E1E86A0FD0000E0F012725006E88
:103C1000016A010E012200C0E9FF01C0EAFFEFCFF7
:103C200000F0272B0050E4CF01F0E4CF00F01200A9
:103C3000D9CFE5FFE1CFD9FF00C0E5FF020EDBCF12
:103C400000F0C69E00C0C9FFC6AE02D0E8680AD028
:103C500013EC1BF0C5BC03D00F012E5102E0E86845
:103C600001D0E86AE4CF00F0E4CFD9FF120000C031
:103C7000E5FF01C0E5FF13EC1BF0C580E80E006E08
:103C8000030E016EFF0E002601220050011002E01B
:103C9000C5B0F8D70F012E6B005003E1015001E1D0
:103CA0002E2BE4CF01F0E4CF00F01200F2CFEAFFB8
:103CB000F29EA69EA69CA684E9CFA9FFF3CFAAFFF9
:103CC000E4CFA8FF4BEC20F0F4CFA8FF4BEC20F0A2
:103CD000F6CFA8FF4BEC20F0F7CFA8FF4BEC20F07D
:103CE000A694EABEF28E1200F2CFF6FFF29EA69ED6
:103CF000A69CE9CFA9FFF3CFAAFFA680A850A94AA6
:103D0000AA2AA680A8CFF3FFA94AAA2AA680A8CFEC
:103D1000F4FFA94AAA2AA680A8CFEAFFF6BEF28E2F
:103D20001200E8AE08D0F3CFEAFFEE50EECFF3FF7B
:103D3000EECFF4FF1200E8BCAFEF20F0E9CFF6FFC2
:103D4000F3CFF7FFF86E0900F5500900F5CFF3FF48
:103D50000900F5CFF4FF1200F2CFEAFFF29EA69E13
:103D6000A69CA684E9CFA9FFF3CFAAFFE4CFA8FFC2
:103D70004BEC20F0F4CFA8FF4BEC20F0F6CFA8FFDF
:103D80004BEC20F0A694EABEF28E1200D9CFE5FFEC
:103D9000E1CFD9FF00C0E5FF020EDBCF00F000C08D
:103DA0002AFF0050E56E000EE56A71EC1DF0E65248
:103DB000E652E4CF00F0E4CFD9FF1200F2CFF6FFD5
:103DC000F29EA69EA69CE9CFA9FFF3CFAAFFA680EC
:103DD000A850A94AAA2AA680A8CFF3FFA94AAA2ACE
:103DE000A680A8CFF4FFF6BEF28E120000C0E5FF59
:103DF00001C0E5FF600E04014F25006E016A000E50
:103E0000012200C0E9FF01C0EAFFEFCF00F000503F
:103E1000E4CF01F0E4CF00F01200D9CFE5FFE1CF0D
:103E2000D9FF00C0E5FF020EDBCF00F0610E005CA1
:103E300005E37B0E005C02E2010E01D0E86AE4CFEC
:103E400000F0E4CFD9FF120000C0E5FF01C0E5FF9C
:103E5000FEC400F0FFC401F00401FE3F01D0FF2BBF
:103E60000050E56EE6EC1FF0E652E4CF01F0E4CF3F
:103E700000F01200D9CFE5FFE1CFD9FF00C0E5FF88
:103E8000020EDBCF00F000C029FF005004E1F4EC8B
:103E90001FF09D9A9D98E4CF00F0E4CFD9FF120067
:103EA000E8AE06D0F3CFEAFFEE50EECFF3FF1200FC
:103EB000E8BCA5EF20F0E9CFF6FFF3CFF7FFF86EEF
:103EC0000900F5500900F5CFF3FF1200F2CFEAFF29
:103ED000F29EA69EA69CA684E9CFA9FFF3CFAAFFD7
:103EE000E4CFA8FF4BEC20F0F4CFA8FF4BEC20F080
:103EF000A694EABEF28E120012EEFFF022EEFFF060
:103F0000F86AA68EA69CE9680E0EEA6E0068000E9E
:103F1000ED6A0050FDE199EC18F006EC00F0FFD7D7
:103F2000F2CFF6FFF29EA69EA69CE9CFA9FFF3CFA3
:103F3000AAFFA680A850A94AAA2AA680A8CFF3FF64
:103F4000F6BEF28E1200F2CFEAFFF29EA69EA69C6B
:103F5000A684E9CFA9FFF3CFAAFFE4CFA8FF4BECDB
:103F600020F0A694EABEF28E1200E8AE0BD0F3CF9A
:103F7000EAFFE4CFEEFFF4CFEEFFF6CFEEFFF7CF90
:103F8000EEFF1200E8BCA9EF20F01200E8AE04D06A
:103F9000F3CFEAFFEE501200E8BCA3EF20F0E9CF28
:103FA000F6FFF3CFF7FFF86E0900F5501200E8AE08
:103FB00009D0F3CFEAFFE4CFEEFFF4CFEEFFF6CF68
:103FC000EEFF1200E8BCB1EF20F01200D9CFE5FF00
:103FD000E1CFD9FF020EDBCFA9FFA69CA69EA6804B
:103FE000A850E4CFD9FF1200ACA2FED79480AE5007
:103FF0000000AE50AB98AB88AB869D8A9D981200AE
:1040000025642000F2CFF6FFF29EA69EA69CE9CF83
:10401000A9FFF3CFAAFFA680A850F6BEF28E120029
:10402000D9CFE5FFE1CFD9FF020EDBCF2CFF030E86
:10403000DBCF2DFFE4CFD9FF1200E8AE07D0F3CFDE
:10404000EAFFE4CFEEFFF4CFEEFF1200E8BCADEFE5
:1040500020F01200700ED36E9B8CFF0E9268936856
:1040600094689668626AF19E120000C0E5FFD9EC80
:104070001AF0006E005001E1FF00E4CF00F01200E2
:10408000E8AE05D0F3CFEAFFE4CFEEFF1200E8BCC4
:10409000ABEF20F01200550EA76EAA0EA76EA682F7
:1040A000A6B2FED7A94AAA2A010E0401376F1C0E38
:1040B0000401FE6FFF6B120013EC1BF09E96C58A85
:1040C000C5889EA6FED712000000000000FF000079
:1040D0000096000000000401376B1C0E0401FE6F07
:1040E000FF6B12000100C8400000230F00000D000C
:1040F000000013EC1BF0C582C5B2FED71200C7A0AA
:1041000002D0010E01D0E86A1200FDEC1CF020EC98
:104110001CF0120013EC1BF0C5841200ACA2FED7F9
:10412000AD6E12002AEC20F0120004014F51120073
:104130000401595112000F0129511200E8CF7FFFED
:104140001200C96E120002EF20F090EF1FF074EF22
:104150001EF056EF1EF0A3EF1FF066EF1FF0DEEF2C
:064160001EF0ACEF1EF0A2
:020000040030CA
:010006008574
:00000001FF
