:020000040000FA
:1000000016EF21F0C69A12001DEF18F0D4EC1CF088
:10001000BBEC17F0FDD71200B0EF1AF0D9CFE5FF17
:10002000E1CFD9FF00C0E5FF01C0E5FF02C0E5FF59
:1000300003C0E5FF04C0E5FF05C0E5FF06C0E5FF1E
:1000400007C0E5FF08C0E5FF09C0E5FF0AC0E5FFFE
:100050000BC0E5FF0CC0E5FF0DC0E5FF0EC0E5FFDE
:100060000FC0E5FF10C0E5FF11C0E5FF12C0E5FFBE
:1000700013C0E5FF14C0E5FF15C0E5FF16C0E5FF9E
:1000800017C0E5FF18C0E5FF19C0E5FF1AC0E5FF7E
:100090001BC0E5FF1CC0E5FF1DC0E5FF1EC0E5FF5E
:1000A000020EDBCF00F0030EDBCF01F0040EDBCF3E
:1000B00002F0050EDBCF03F0060EDBCF04F0070ED7
:1000C000DBCF05F0080EDBCF06F0090EDBCF07F023
:1000D0000A0EDBCF08F0096A0A6A02C00DF00D5063
:1000E000800A0DE102500401416F0150406F005041
:1000F0003F6F040E016E3F0E006E800E026E03C055
:10010000E9FF04C0F3FF055060EC21F00B6E0B50CB
:10011000D8B4C4EF03F00B50250A02E0ABEF03F0B4
:100120000C6A0D6A0E6A0F6A106A0A0E116E126A64
:10013000136A146A200E156E1668176A2B0E186E55
:10014000032A02E3044A052A03C0E9FF04C0F3FFBF
:10015000055060EC21F0196E250A13E11950E56E87
:100160000250E56E0150E56E0050E56E09EC15F0A9
:10017000040EE126094A0A2A032A02E3044A052A50
:10018000BED71950300A06E1300E156E032A02E37D
:10019000044A052A03C0E9FF04C0F3FF055060ECE0
:1001A00021F02D0A06E1010E146E032A02E3044A2F
:1001B000052A03C0E9FF04C0F3FF055060EC21F0FD
:1001C000200A08E1010E176E200E186E032A02E3C2
:1001D000044A052A03C0E9FF04C0F3FF055060ECA0
:1001E00021F02B0A06E1010E176E032A02E3044AEE
:1001F000052A03C0E9FF04C0F3FF055060EC21F0BD
:10020000196E310E195C2BE33A0E195C28E203C01B
:1002100019F004C01AF005C01BF019C0E9FF1AC09C
:10022000F3FF1B5060EC21F01C6E300E1C5C11E3E0
:100230003A0E1C5C0EE213500A0DF3CF1DF01C5059
:100240001D26D00E1D24136E192A02E31A4A1B2AFA
:10025000E4D719C003F01AC004F01BC005F003C0B6
:10026000E9FF04C0F3FF055060EC21F02E0A2DE1F8
:10027000032A02E3044A052A166A03C019F004C0DF
:100280001AF005C01BF019C0E9FF1AC0F3FF1B509C
:1002900060EC21F01C6E300E1C5C11E33A0E1C5C0D
:1002A0000EE216500A0DF3CF1DF01C501D26D00E85
:1002B0001D24166E192A02E31A4A1B2AE4D719C014
:1002C00003F01AC004F01BC005F003C0E9FF04C02E
:1002D000F3FF055060EC21F0196E6C0A07E1010E86
:1002E0000C6E032A02E3044A052A09D01950680A51
:1002F00006E1010E0E6E032A02E3044A052A03C03A
:10030000E9FF04C0F3FF055060EC21F0750A06E137
:10031000010E106E032A02E3044A052A03C0E9FF16
:1003200004C0F3FF055060EC21F0196E730A05E17B
:10033000010E0D6E200E156E3FD01950780A03E1A4
:10034000100E116E39D01950580A05E1100E116EB9
:10035000010E126E31D01950630A02E1116A2CD0DD
:1003600019506F0A03E1080E116E26D01950660A63
:1003700003E1010E0F6E20D01950640A1DE01950E0
:10038000690A1AE0105005E0FF0E03260422052238
:1003900013D01950E56E0250E56E0150E56E005025
:1003A000E56E09EC15F0040EE126094A0A2A032A33
:1003B00002E3044A052AA3D60D5021E00650030F9C
:1003C0000D6E000E0720196E000E08201A6E0DC06B
:1003D00006F019C007F01AC008F0FD0E0D26FF0E3A
:1003E00019221A220DC0E9FF19C0F3FF1A502BEC95
:1003F00020F00D6EF3CF19F0F4CF1AF0FDD00F50AE
:100400000DE0000E1A6E080E196E100E0D6E040E21
:100410000626000E072208221668EED016680C5039
:1004200023E00650040F0C6E000E07200F6E000E26
:1004300008201B6E0CC006F00FC007F01BC008F0B0
:10044000FC0E0C26FF0E0F221B220CC0E9FF0FC072
:10045000F3FF1B5073EC1FF00C6EF3CF0FF0F4CFD3
:100460001BF0E9CF1CF067D00E502FE00650020FB2
:100470000E6E000E07201D6E000E08201E6E0EC0B0
:1004800006F01DC007F01EC008F0FE0E0E26FF0E7F
:100490001D221E220EC0E9FF1DC0F3FF1E50EAEC14
:1004A00020F00E6E0EC00CF00F6A1B6A1C6A115011
:1004B0000A0A03E11050D8B43ED00C500E6E0EC0A4
:1004C0000CF00F6A1B6A1C6A36D00650020F0E6EC3
:1004D000000E07201D6E000E08201E6E0EC006F0D6
:1004E0001DC007F01EC008F0FE0E0E26FF0E1D22D6
:1004F0001E220EC0E9FF1DC0F3FF1E50EAEC20F0E3
:100500000E6EF3CF1DF00EC00CF01DC00FF0E86AA8
:100510001DBEFF0E1B6E1C6E11500A0A02E1105028
:100520000AE00C500E6E0F501D6E0EC00CF01DC078
:100530000FF01B6A1C6A040E196EE00E0D6E800E21
:100540001A6E1150D8B440D0105013E01150E56E1F
:10055000040EE56EE00EE56E1C50E56E1B50E56E78
:100560000F50E56E0C50E56E93EC0FF0070EE12690
:1005700012D01150E56E040EE56EE00EE56E1C50D3
:10058000E56E1B50E56E0F50E56E0C50E56E58ECB5
:1005900017F0070EE12617502FE00DC0E9FF19C034
:1005A000F3FF1A5060EC21F02D0A26E0FF0E0D2615
:1005B00019221A2218C0E5FF0DC0E9FF19C0F3FF88
:1005C0001A50DAEC21F018D00CC0E5FF0DC0E9FF9D
:1005D00019C0F3FF1A50DAEC21F00D50010F0C6E28
:1005E000000E19200E6E000E1A20E56A0CC0E9FFFD
:1005F0000EC0F3FFDAEC21F00DC00CF019C00EF0C4
:100600001AC00FF013C010F0105010E00CC0E9FF3A
:100610000EC0F3FF0F5060EC21F0176E175006E08C
:100620000C2A02E30E4A0F2A1006EED710C013F070
:1006300014501EE109C00CF00AC00EF010C00FF0FB
:100640000F5010E01550E56E0250E56E0150E56E5A
:100650000050E56E09EC15F0040EE1260C4A0E2A56
:100660000F06EED70CC009F00EC00AF00FC013F051
:1006700016C00CF00DC00DF019C00EF01AC00FF02E
:1006800009C010F00AC015F00DC0E9FF0EC0F3FF5D
:100690000F5060EC21F0166E1650D8B43ED00CC04E
:1006A00016F0176A161E171E1650171005E00CC01C
:1006B00016F00C06165031E00DC0E9FF0EC0F3FF36
:1006C0000F5060EC21F0116E125010E01150E56EE9
:1006D000A7EC20F0166EE652165004E0DF0E11145F
:1006E000166E02D011C016F016C011F01150E56E52
:1006F0000250E56E0150E56E0050E56E09EC15F014
:10070000040EE1260D2A02E30E4A0F2A104A152A8A
:100710001350D8B4B9D71306B7D710C009F015C015
:100720000AF014502BE010C00CF015C00DF013C0EF
:100730000EF00E501FE0200EE56E0250E56E0150E7
:10074000E56E0050E56E09EC15F0040EE1260C4A4A
:100750000D2A0E06EED70B50E56E0250E56E0150E5
:10076000E56E0050E56E09EC15F0040EE126094A2D
:100770000A2A04D00CC009F00DC00AF0032A02E3D3
:10078000044A052A7FEF00F00AC0F3FF0950E4CFC6
:100790001EF0E4CF1DF0E4CF1CF0E4CF1BF0E4CF5B
:1007A0001AF0E4CF19F0E4CF18F0E4CF17F0E4CF5B
:1007B00016F0E4CF15F0E4CF14F0E4CF13F0E4CF5B
:1007C00012F0E4CF11F0E4CF10F0E4CF0FF0E4CF5B
:1007D0000EF0E4CF0DF0E4CF0CF0E4CF0BF0E4CF5B
:1007E0000AF0E4CF09F0E4CF08F0E4CF07F0E4CF5B
:1007F00006F0E4CF05F0E4CF04F0E4CF03F0E4CF5B
:1008000002F0E4CF01F0E4CF00F0E4CFD9FF120012
:100810003C4E4F20464C4F41543E0000D9CFE5FF9F
:10082000E1CFD9FF00C0E5FF01C0E5FF02C0E5FF51
:1008300003C0E5FF04C0E5FF05C0E5FF06C0E5FF16
:1008400007C0E5FF08C0E5FF09C0E5FF0AC0E5FFF6
:100850000BC0E5FF0CC0E5FF0DC0E5FF0EC0E5FFD6
:10086000020EDBCF00F0030EDBCF01F0040EDBCF76
:1008700002F000C0E9FF01C0F3FF025060EC21F07C
:1008800004015B6FE56A5B51E56E42EC1DF0E652D8
:10089000E652360EE56EB2EC1FF0E65224EC22F082
:1008A000010EE56E04015B51E56E42EC1DF0E6526F
:1008B000E65200504B0F036E000E0120046E000E36
:1008C0000220056EE1EC1EF0066E06C0E5FF03C0D7
:1008D000E9FF04C0F3FF0550DAEC21F052EC1FF001
:1008E00004015C6B0050150F036E000E0120046EB6
:1008F000000E0220056E002A02E3014A022AE1EC02
:100900001EF004015F6F52EC1FF0E1EC1EF00401D9
:10091000606F52EC1FF0E1EC1EF00401616F52ECCD
:100920001FF004015C51050DF3CF06F0076A086A59
:100930000050062601500722025008225FC409F029
:100940000A6A61C40BF00C6A300E0B160C38F00BFF
:100950000E6E0B380D6E0F0B0D1A0E260D5009265C
:100960000E500A2209C042F40AC043F409C0E5FF50
:100970000AC0F4FF06C0E9FF07C0F3FF0850B7EC58
:1009800021F004015C51050DF3CF06F0076A086AF7
:10099000005006260150072202500822020E0626A9
:1009A000000E0722082260C409F00A6A61C40BF035
:1009B0000C6AC00E0B160B500D6E0D260C340E6E0D
:1009C000D8900D360E360D5009260E500A2209C059
:1009D00044F40AC045F409C0E5FF0AC0F4FF06C0AC
:1009E000E9FF07C0F3FF0850B7EC21F004015C51A8
:1009F000050DF3CF06F0076A086A0050062601507D
:100A0000072202500822040E0626000E07220822A2
:100A100061C409F00F0E091609C062F409C0E5FFB0
:100A200006C0E9FF07C0F3FF0850DAEC21F0100E12
:100A30000401486F270E496F0401636B04014451A0
:100A4000FF0A04E14551030A01E165D104015D6B30
:100A500004015D51050DF3CF06F0076A086A0350E3
:100A60000626045007220550082206C0E9FF07C0E9
:100A7000F3FF0850EAEC20F0F3CF07F00401425DE9
:100A8000066E07504359076ED88007AED89007E32B
:100A9000071C096E061C086E084A092A04D006C005
:100AA00008F007C009F00850066E0950076E0401EF
:100AB0005D51050DF3CF08F0096A0A6A0350082654
:100AC0000450092205500A22020E0826000E0922AF
:100AD0000A2208C0E9FF09C0F3FF0A50EAEC20F03F
:100AE000F3CF09F00401445D086E09504559096EC1
:100AF000D88009AED89007E3091C0B6E081C0A6E5B
:100B00000A4A0B2A04D008C00AF009C00BF00A50A8
:100B100006240401466F0B500720476F040149511A
:100B20000401475D04E1040148510401465D06E209
:100B300046C448F447C449F45DC463F404015D2B22
:100B40000A0E5D5DD8A084D7040149510F012D5DC7
:100B500004E1040148510F012C5DD8A05FD00401CD
:100B60006351050DF3CF06F0076A086A03500626A5
:100B7000045007220550082242C4E5FF43C4F4FF95
:100B800006C0E9FF07C0F3FF0850B7EC21F00401ED
:100B90006351050DF3CF06F0076A086A0350062675
:100BA0000450072205500822020E0626000E0722D6
:100BB000082244C4E5FF45C4F4FF06C0E9FF07C0AE
:100BC000F3FF0850B7EC21F004016351050DF3CF9A
:100BD00006F0076A086A03500626045007220550EB
:100BE0000822040E0626000E0722082206C0E9FF8E
:100BF00007C0F3FF085060EC21F0096EFA0E095CA3
:100C0000D8B089D0050E092609C0E5FF06C0E9FF66
:100C100007C0F3FF0850DAEC21F07DD004015F69D2
:100C20000401636B04015D6B04015D51050DF3CF9D
:100C300006F0076A086A035006260450072205508A
:100C40000822040E0626000E0722082206C0E9FF2D
:100C500007C0F3FF085060EC21F0066E04015F51FD
:100C6000065C04E206C05FF45DC463F404015D2B1E
:100C70000A0E5D5DD9E304016351050DF3CF06F063
:100C8000076A086A03500626045007220550082206
:100C900042C4E5FF43C4F4FF06C0E9FF07C0F3FF09
:100CA0000850B7EC21F004016351050DF3CF06F0B5
:100CB000076A086A035006260450072205500822D6
:100CC000020E0626000E0722082244C4E5FF45C492
:100CD000F4FF06C0E9FF07C0F3FF0850B7EC21F0AE
:100CE00004016351050DF3CF06F0076A086A03504B
:100CF00006260450072205500822040E0626000E80
:100D000007220822050EE56E06C0E9FF07C0F3FFC3
:100D10000850DAEC21F004015C2B040E5C5DD8A0D5
:100D20007FEF04F024EC22F004015D6B04015D51BF
:100D3000050DF3CF00F0016A026A0350002604504B
:100D40000122055002220050040F066E000E012001
:100D5000076E000E0220086E06C0E9FF07C0F3FF11
:100D600060EC21F0096E09500BE0090609C0E5FFAF
:100D700006C0E9FF07C0F3FF0850DAEC21F01AD0F3
:100D800000C006F001C007F002C008F0E568030EDD
:100D9000F46E00C0E9FF01C0F3FF0250B7EC21F090
:100DA000E568030EF46E06C0E9FF07C0F3FF0850C4
:100DB000B7EC21F004015D2B0A0E5D5DD8A0B6D71B
:100DC000E4CF0EF0E4CF0DF0E4CF0CF0E4CF0BF065
:100DD000E4CF0AF0E4CF09F0E4CF08F0E4CF07F065
:100DE000E4CF06F0E4CF05F0E4CF04F0E4CF03F065
:100DF000E4CF02F0E4CF01F0E4CF00F0E4CFD9FF7C
:100E00001200D9CFE5FFE1CFD9FF00C0E5FF01C057
:100E1000E5FF02C0E5FF03C0E5FF04C0E5FF05C034
:100E2000E5FF06C0E5FF07C0E5FF08C0E5FF09C014
:100E3000E5FF0AC0E5FF0BC0E5FF0CC0E5FF0DC0F4
:100E4000E5FF0EC0E5FF0FC0E5FF020EDBCF00F0AF
:100E5000030EDBCF01F0040EDBCF02F0050EDBCF7B
:100E600003F0010E04015C6F0050150F046E000EBC
:100E70000120056E000E0220066E5CC45DF40401C4
:100E80005D51D8B464D05D05076E086A07BE086876
:100E9000EC0E0726040E082207C0E9FF08C0EAFF8F
:100EA000EFCF09F00950050DF3CF0AF00B6A0C6A79
:100EB00004500A2605500B2206500C22040E0A2666
:100EC000000E0B220C220AC0E9FF0BC0F3FF0C50EE
:100ED00060EC21F00A6EEC0E04015D250B6E0C6ACD
:100EE000040E0C220BC0E9FF0CC0EAFFEFCF0BF0A1
:100EF0000B50050DF3CF0CF00D6A0E6A04500C2652
:100F000005500D2206500E22040E0C26000E0D2256
:100F10000E220CC0E9FF0DC0F3FF0E5060EC21F073
:100F20000A5C15E207C0E9FF08C0EAFF0BC0EFFF4B
:100F3000EC0E04015D25076E086A040E082207C046
:100F4000E9FF08C0EAFF09C0EFFF5D0798D7040179
:100F50005C2B0A0E5C5DD8A090D75C6B470E002618
:100F6000000E0122022204C007F005C008F006C0EE
:100F70000AF0096AEC0E04015C250B6E0C6A040E83
:100F80000C220BC0E9FF0CC0EAFFEFCF0BF004010D
:100F90005D6B5DC40CF00D6A0E6A00500C260150AA
:100FA0000D2202500E220CC0E9FF0DC0F3FF0E50BF
:100FB00060EC21F00B1803E1010E096E05D004016D
:100FC0005D2B040E5D5DE5E30950D8A472D0096A7B
:100FD0000C6804015D6B5DC40DF00E6A0F6A005071
:100FE0000D2601500E2202500F220DC0E9FF0EC047
:100FF000F3FF0F5060EC21F0050DF3CF0DF00E6AFA
:101000000F6A07500D2608500E220A500F22040EB8
:101010000D26000E0E220F220DC0E9FF0EC0F3FFB9
:101020000F5060EC21F00D6E0C500D5C2BE25DC496
:101030000DF00E6A0F6A00500D2601500E2202506C
:101040000F220DC0E9FF0EC0F3FF0F5060EC21F03E
:10105000050DF3CF0DF00E6A0F6A07500D260850EC
:101060000E220A500F22040E0D26000E0E220F2211
:101070000DC0E9FF0EC0F3FF0F5060EC21F00C6EC5
:101080005DC409F004015D2B040E5D5DD8A0A3D7FB
:101090000C6A0D6A0050092601500C2202500D22E4
:1010A0000BC0E5FF09C0E9FF0CC0F3FF0D50DAECFF
:1010B00021F004015C2B040E5C5DD8A05AD7420ECF
:1010C0000401236F020E076E0350246F04015C6B52
:1010D00007C003F0072A086A230E0326040E08221D
:1010E0005CC409F00A6A0B6A0050092601500A2202
:1010F00002500B2209C0E9FF0AC0F3FF0B5060EC5D
:1011000021F0050DF3CF09F00A6A0B6A0450092695
:1011100005500A2206500B2209C0E9FF0AC0F3FF5E
:101120000B50EAEC20F0096E03C0E9FF08C0EAFFAB
:1011300009C0EFFF07C003F0072A086A230E032641
:10114000040E08225CC409F00A6A0B6A00500926E2
:1011500001500A2202500B2209C0E9FF0AC0F3FF26
:101160000B5060EC21F0050DF3CF09F00A6A0B6A11
:101170000450092605500A2206500B2209C0E9FF37
:101180000AC0F3FF0B50EAEC20F0F3CF0AF00A504C
:10119000096E03C0E9FF08C0EAFF09C0EFFF07C0FE
:1011A00003F0072A086A230E0326040E08225CC4F3
:1011B00009F00A6A0B6A0050092601500A220250FF
:1011C0000B2209C0E9FF0AC0F3FF0B5060EC21F0CD
:1011D000050DF3CF09F00A6A0B6A04500926055081
:1011E0000A2206500B22020E0926000E0A220B22AA
:1011F00009C0E9FF0AC0F3FF0B50EAEC20F0096ECA
:1012000003C0E9FF08C0EAFF09C0EFFF07C003F011
:10121000072A086A230E0326040E08225CC409F07C
:101220000A6A0B6A0050092601500A2202500B225A
:1012300009C0E9FF0AC0F3FF0B5060EC21F0050D77
:10124000F3CF09F00A6A0B6A0450092605500A22F6
:1012500006500B22020E0926000E0A220B2209C09C
:10126000E9FF0AC0F3FF0B50EAEC20F0F3CF0AF0DD
:101270000A50096E03C0E9FF08C0EAFF09C0EFFF8A
:1012800007C003F0072A086A230E0326040E08226B
:101290005CC409F00A6A0B6A0050092601500A2250
:1012A00002500B2209C0E9FF0AC0F3FF0B5060ECAB
:1012B00021F0050DF3CF09F00A6A0B6A04500926E4
:1012C00005500A2206500B22040E0926000E0A229F
:1012D0000B2209C0E9FF0AC0F3FF0B5060EC21F0BC
:1012E000096E03C0E9FF08C0EAFF09C0EFFF04016F
:1012F0005C2B040E5C5DD8A0EBD607C000F0072A7B
:10130000016A230E0026040E012200C0E9FF01C07D
:10131000EAFF0A0EEF6E0750E56E800EE56E040ED2
:10132000E56E230EE56E95EC15F0040EE126E4CF94
:101330000FF0E4CF0EF0E4CF0DF0E4CF0CF0E4CFEB
:101340000BF0E4CF0AF0E4CF09F0E4CF08F0E4CFEB
:1013500007F0E4CF06F0E4CF05F0E4CF04F0E4CFEB
:1013600003F0E4CF02F0E4CF01F0E4CF00F0E4CFEB
:10137000D9FF1200D9CFE5FFE1CFD9FF00C0E5FFCB
:1013800001C0E5FF02C0E5FF03C0E5FF04C0E5FFC3
:1013900005C0E5FF06C0E5FF07C0E5FF08C0E5FFA3
:1013A00009C0E5FF0AC0E5FF0BC0E5FF0CC0E5FF83
:1013B0000DC0E5FF0EC0E5FF0FC0E5FF020EDBCF5D
:1013C00000F0030EDBCF01F0040EDBCF02F0580E6D
:1013D000E56E00C0E9FF01C0F3FF0250DAEC21F036
:1013E0000050150F036E000E0120046E000E022047
:1013F000056E066A0650050DF3CF07F0075003246B
:10140000086EE86A0420096EE86A05200A6E0B6A15
:101410000C6A0350072604500B2205500C2207507B
:10142000020F0D6E000E0B200E6E000E0C200F6EC4
:10143000E56A020EF46E0DC0E9FF0EC0F3FF0F5017
:10144000B7EC21F0E56A020EF46E08C0E9FF09C0AE
:10145000F3FF0A50B7EC21F0040E0726000E0B2212
:101460000C22E56A07C0E9FF0BC0F3FF0C50DAEC71
:1014700021F0EC0E0624076E086A040E082207C04D
:10148000E9FF08C0EAFF06C0EFFF062A0A0E065C65
:10149000D8A0B0D70050470F036E000E0120046E95
:1014A000000E0220056E066A06500324076EE86AE5
:1014B0000420086EE86A0520E56807C0E9FF08C057
:1014C000F3FFDAEC21F0062A040E065CEDE300C01F
:1014D000E9FF01C0F3FF025060EC21F0036E010E42
:1014E000E56E300EE56E0350E56E0EEC1EF0030E59
:1014F000E126E56A0A0EE56ECEEC12F0E652E652FF
:1015000000C0E9FF01C0F3FF025060EC21F0036E60
:10151000080EE56E300EE56E0350E56E0EEC1EF023
:10152000030EE126E56A0A0EE56ECEEC12F0E652F5
:10153000E65200C0E9FF01C0F3FF025060EC21F069
:10154000E56AE56AE56E0EEC1EF0030EE126E56A3B
:101550000A0EE56ECEEC12F0E652E65200C0E9FF4C
:1015600001C0F3FF025060EC21F0036EE56A010E4A
:10157000E56E0350E56E0EEC1EF0030EE126E56A03
:101580000A0EE56ECEEC12F0E652E65200C0E9FF1C
:1015900001C0F3FF025060EC21F0036EE56A020E19
:1015A000E56E0350E56E0EEC1EF0030EE126E56AD3
:1015B0000A0EE56ECEEC12F0E652E65200C0E9FFEC
:1015C00001C0F3FF025060EC21F0036EE56A030EE8
:1015D000E56E0350E56E0EEC1EF0030EE126E56AA3
:1015E0000A0EE56ECEEC12F0E652E65200C0E9FFBC
:1015F00001C0F3FF025060EC21F0036EE56A040EB7
:10160000E56E0350E56E0EEC1EF0030EE126E56A72
:101610000A0EE56ECEEC12F0E652E65200C0E9FF8B
:1016200001C0F3FF025060EC21F0036EE56A050E85
:10163000E56E0350E56E0EEC1EF0030EE126E56A42
:101640000A0EE56ECEEC12F0E652E65200C0E9FF5B
:1016500001C0F3FF025060EC21F0036EE568060E56
:10166000E56E0350E56E0EEC1EF0030EE126E56A12
:101670000A0EE56ECEEC12F0E652E65200C0E9FF2B
:1016800001C0F3FF025060EC21F0036EE56A070E23
:10169000E56E0350E56E0EEC1EF0030EE126E56AE2
:1016A0000A0EE56ECEEC12F0E652E65200C0E9FFFB
:1016B00001C0F3FF025060EC21F0036E0C0EE56EEA
:1016C000080EE56E0350E56E0EEC1EF0030EE126EB
:1016D000E56A0A0EE56ECEEC12F0E652E65200C064
:1016E000E9FF01C0F3FF025060EC21F0036EE56AF0
:1016F0001A0EE56E0350E56E0EEC1EF0030EE126A9
:10170000E56A0A0EE56ECEEC12F0E652E65200C033
:10171000E9FF01C0F3FF025060EC21F0036EE56ABF
:101720001B0EE56E0350E56E0EEC1EF0030EE12677
:10173000E56A0A0EE56ECEEC12F0E652E65200C003
:10174000E9FF01C0F3FF025060EC21F0006E330EA0
:10175000E56EE56E0050E56E0EEC1EF0030EE12620
:10176000E56A0A0EE56ECEEC12F0E652E652E56A44
:10177000640EE56ECEEC12F0E652E652E4CF0FF0C6
:10178000E4CF0EF0E4CF0DF0E4CF0CF0E4CF0BF09B
:10179000E4CF0AF0E4CF09F0E4CF08F0E4CF07F09B
:1017A000E4CF06F0E4CF05F0E4CF04F0E4CF03F09B
:1017B000E4CF02F0E4CF01F0E4CF00F0E4CFD9FFB2
:1017C0001200D9CFE5FFE1CFD9FF00C0E5FF01C08E
:1017D000E5FF02C0E5FF03C0E5FF020EDBCF00F02E
:1017E000030EDBCF01F0040EDBCF02F000C0E9FFF7
:1017F00001C0F3FF025060EC21F0036E010EE56EB4
:10180000300EE56E0350E56E0EEC1EF0030EE12681
:10181000E56A0A0EE56ECEEC12F0E652E65200C022
:10182000E9FF01C0F3FF025060EC21F0036E080EE7
:10183000E56E300EE56E0350E56E0EEC1EF0030E05
:10184000E126E56A0A0EE56ECEEC12F0E652E652AB
:1018500000C0E9FF01C0F3FF025060EC21F0036E0D
:1018600067EC1EF0E56EE56A0350E56E0EEC1EF0C7
:10187000030EE126E56A0A0EE56ECEEC12F0E652A2
:10188000E65200C0E9FF01C0F3FF025060EC21F016
:10189000036E67EC1EF0E56E010EE56E0350E56E1B
:1018A0000EEC1EF0030EE126E56A0A0EE56ECEECA4
:1018B00012F0E652E65200C0E9FF01C0F3FF025009
:1018C00060EC21F0036E67EC1EF0E56E020EE56E33
:1018D0000350E56E0EEC1EF0030EE126E56A0A0EDB
:1018E000E56ECEEC12F0E652E65200C0E9FF01C010
:1018F000F3FF025060EC21F0036E67EC1EF0E56E22
:10190000030EE56E0350E56E0EEC1EF0030EE126AD
:10191000E56A0A0EE56ECEEC12F0E652E65200C021
:10192000E9FF01C0F3FF025060EC21F0036E67ECA9
:101930001EF0E56E040EE56E0350E56E0EEC1EF033
:10194000030EE126E56A0A0EE56ECEEC12F0E652D1
:10195000E65200C0E9FF01C0F3FF025060EC21F045
:10196000036E67EC1EF0E56E050EE56E0350E56E46
:101970000EEC1EF0030EE126E56A0A0EE56ECEECD3
:1019800012F0E652E65200C0E9FF01C0F3FF025038
:1019900060EC21F0036E67EC1EF0E56E060EE56E5E
:1019A0000350E56E0EEC1EF0030EE126E56A0A0E0A
:1019B000E56ECEEC12F0E652E65200C0E9FF01C03F
:1019C000F3FF025060EC21F0036E67EC1EF0E56E51
:1019D000070EE56E0350E56E0EEC1EF0030EE126D9
:1019E000E56A0A0EE56ECEEC12F0E652E65200C051
:1019F000E9FF01C0F3FF025060EC21F0036E67ECD9
:101A00001EF0E56E080EE56E0350E56E0EEC1EF05E
:101A1000030EE126E56A0A0EE56ECEEC12F0E65200
:101A2000E65200C0E9FF01C0F3FF025060EC21F074
:101A3000036E67EC1EF0E56E1A0EE56E0350E56E60
:101A40000EEC1EF0030EE126E56A0A0EE56ECEEC02
:101A500012F0E652E65200C0E9FF01C0F3FF025067
:101A600060EC21F0036E67EC1EF0E56E1B0EE56E78
:101A70000350E56E0EEC1EF0030EE126E56A0A0E39
:101A8000E56ECEEC12F0E652E65200C0E9FF01C06E
:101A9000F3FF025060EC21F0006E330EE56EE56E50
:101AA0000050E56E0EEC1EF0030EE126E56A0A0E0C
:101AB000E56ECEEC12F0E652E652E4CF03F0E4CF4E
:101AC00002F0E4CF01F0E4CF00F0E4CFD9FF120040
:101AD00000C0E5FF01C0E5FF02C0E5FF03C0E5FF70
:101AE0000F012951D8B40CD19DA81DD09EA81BD0A0
:101AF000040153510401501905E18EEC21F0040159
:101B0000506BFED0000E04015325006E016A040ED6
:101B1000012200C0E9FF01C0EAFFEFCF4CF4532BD4
:101B20004CC4ADFFEDD09DAAEBD09EAAE9D0ABA2EC
:101B300005D0040151818EEC21F0E2D0ABA405D098
:101B4000040151838EEC21F0DBD0ABA048D0AECFA6
:101B50004CF42ACF00F0016A008E4CC402F0036AF4
:101B60000250001803E10350011801E004D0040101
:101B70005189AB96C5D004014C5104E04C510F0182
:101B80002A1929E104015199AB9604014C5103E053
:101B90000401519702D0040151874CC455F44EC43E
:101BA00056F404014E51006E00040401576F600E9C
:101BB00004015625006E016A000E012200C0E9FFF3
:101BC00001C0EAFF4CC4EFFF562B5651800A02E1D8
:101BD0000401566B95D004015199AB8691D0AECFDC
:101BE0004CF4040151A921D02ACF00F0016A008EE3
:101BF0004CC402F0036A0250001803E103500118BC
:101C000001E011D09D9AAB9894900401505104E1E9
:101C1000AD6A8EEC21F007D000C4ADFF010E0401C7
:101C2000536F9D886DD0AB866BD004014C5104017D
:101C3000552704015651040157191BE10401555160
:101C40000CE156C44EF4040151B712D09D9AAB98E2
:101C50009490AD6A8EEC21F00BD00401518551B700
:101C600007D09D9AAB989490010EAD6E8EEC21F04A
:101C700047D00401565104014F1908E104014F51A6
:101C800004014E1903E08EEC21F03AD04EC400F06E
:101C9000016A004A012AE56A800EE56E0150E56E90
:101CA0000050E56E18EC16F0006E040EE1260050B0
:101CB00004014D6F040156190FE14CC400F01F0ED2
:101CC00000140401576F006E020E0024576F0401C8
:101CD0004E5104015727579F56C400F00401562B5C
:101CE000016A600E0026000E012200C0E9FF01C05B
:101CF000EAFF4CC4EFFF5651800A02E10401566B23
:101D0000E4CF03F0E4CF02F0E4CF01F0E4CF00F041
:101D10001200D9CFE5FFE1CFD9FF00C0E5FF01C038
:101D2000E5FF02C0E5FF03C0E5FF04C0E5FF05C015
:101D3000E5FF06C0E5FF07C0E5FF020EDBCF00F0C0
:101D4000030EDBCF01F0040EDBCF02F0050EDBCF7C
:101D500003F0060EDBCF04F0070EDBCF05F0080E14
:101D6000DBCF06F0090EDBCF07F0005004018E6FC9
:101D700001508F6F0250906F0350916F04500F010C
:101D8000306F0550316F0650326F0750336F0401CA
:101D90008E510F013203F4CF01F0F3CF00F0005069
:101DA0000F01366F0150376F04018E510F01300360
:101DB000F4CF01F0F3CF00F000500F01346F015069
:101DC000356F040191510F013003F3CF00F00F0183
:101DD000375100260050376F040190510F01310335
:101DE000F3CF01F00150002600500F01376F0401BE
:101DF00090510F013003F4CF01F0F3CF00F00F0149
:101E000036510026375101220050366F0150376F8E
:101E100004018F510F013103F4CF03F0F3CF02F02F
:101E2000025000260350012200500F01366F01506E
:101E3000376F04018F510F013203F3CF00F00050D0
:101E40000401F96F04018F510F013003F4CF01F049
:101E5000F3CF00F000500401F76F0150F86F040158
:101E60008E510F013303F3CF00F000500401FD6FDA
:101E700004018E510F013103F4CF01F0F3CF00F0D4
:101E800000500401FB6F0150FC6F0401F66B04016C
:101E9000FA6B0401F6510F013425006E0401F7516D
:101EA0000F013521016E0401F8510F013621026E38
:101EB0000401F9510F013721036E0050346F0150B6
:101EC000356F0250366F0350376F0401FA510F011E
:101ED0003425006E0401FB510F013521016E040110
:101EE000FC510F013621026E0401FD510F01372113
:101EF000036E03C0E9FF02C0F4FF01C0F3FF00500E
:101F0000E4CF07F0E4CF06F0E4CF05F0E4CF04F02F
:101F1000E4CF03F0E4CF02F0E4CF01F0E4CF00F02F
:101F2000E4CFD9FF1200D9CFE5FFE1CFD9FF00C040
:101F3000E5FF01C0E5FF02C0E5FF03C0E5FF04C007
:101F4000E5FF05C0E5FF06C0E5FF07C0E5FF08C0E7
:101F5000E5FF09C0E5FF0AC0E5FF0BC0E5FF0CC0C7
:101F6000E5FF0DC0E5FF0EC0E5FF0FC0E5FF020E67
:101F7000DBCF00F0030EDBCF01F0040EDBCF02F06D
:101F8000050EDBCF03F0060EDBCF04F0070EDBCF30
:101F900005F0080EDBCF06F0200E076E086A06C0BB
:101FA00009F00A6A0B6A0C6AE56AE56AE56A095093
:101FB000E56E0350E56E0250E56E0150E56E00508F
:101FC000E56E6FEC10F00D6E080EE126300E0D265A
:101FD0003A0E0D5C05E30D500E6E270E0E240D6EAD
:101FE000FF0E07260822E00E07240E6E000E0820C2
:101FF0000F6E0EC0E9FF0FC0EAFF0DC0EFFF0C50DF
:10200000E56E0B50E56E0A50E56E0950E56E035023
:10201000E56E0250E56E0150E56E0050E56E5FEC36
:1020200013F0006EF3CF01F0F4CF02F0E9CF03F02C
:10203000080EE1260050011002100310D8A4AFD7FB
:1020400007C000F008C001F004C002F005C003F0B2
:1020500000C004F001C005F0004A012AE00E042689
:10206000000E052204C0E9FF05C0EAFFEFCF04F02F
:1020700002C0E9FF03C0EAFF04C0EFFF024A032ADF
:10208000000E015C02E1200E005CE2E302C0E9FF09
:1020900003C0EAFF000EEF6AE4CF0FF0E4CF0EF0CA
:1020A000E4CF0DF0E4CF0CF0E4CF0BF0E4CF0AF076
:1020B000E4CF09F0E4CF08F0E4CF07F0E4CF06F076
:1020C000E4CF05F0E4CF04F0E4CF03F0E4CF02F076
:1020D000E4CF01F0E4CF00F0E4CFD9FF1200D9CF74
:1020E000E5FFE1CFD9FF00C0E5FF01C0E5FF02C079
:1020F000E5FF03C0E5FF04C0E5FF05C0E5FF06C03E
:10210000E5FF07C0E5FF08C0E5FF09C0E5FF0AC01D
:10211000E5FF020EDBCF00F0030EDBCF01F0040E73
:10212000DBCF02F0050EDBCF03F0060EDBCF04F0B1
:10213000070EDBCF05F0080EDBCF06F0090EDBCF74
:1021400007F0086A045005100610071005E1E96859
:10215000F468F368E86847D0096A0750800BE844E0
:102160000A6E0A501BE1045004260536063607366F
:102170000750035C08E10650025C05E10550015C74
:1021800002E10450005C06E2D890073206320532C4
:10219000043204D0092A09C008F0DFD70750035CD5
:1021A00008E10650025C05E10550015C02E10450C3
:1021B000005C08E30450005E0550015A0650025AC4
:1021C0000750035AD890073206320532043208C04D
:1021D00009F008060950E2E103C0E9FF02C0F4FF7C
:1021E00001C0F3FF0050E4CF0AF0E4CF09F0E4CFE0
:1021F00008F0E4CF07F0E4CF06F0E4CF05F0E4CF39
:1022000004F0E4CF03F0E4CF02F0E4CF01F0E4CF38
:1022100000F0E4CFD9FF120000C0E5FF01C0E5FFE8
:1022200002C0E5FF03C0E5FF04C0E5FF04014F5114
:1022300004014E1901E16AD04FC400F00050016E54
:102240000128006E009E600E0024016E026A000EDE
:10225000022201C0E9FF02C0EAFFEFCF59F41F0ECE
:10226000040159174FC458F45951040158275851C3
:10227000016E020E0124586F589F67EC1EF0016E2C
:10228000015003E1016A012A01D0016A67EC1EF0E6
:102290000401596F59C402F0800E021659C403F0AC
:1022A0001F0E031603C004F003C059F4045003E1E9
:1022B0004EC44FF43ED001501EE0025025E067ECC2
:1022C0001EF0006E04015951016E0104596F005057
:1022D000420A1AE000504E0A03E16EEC1AF014D0E4
:1022E0000050460A03E1CFEC21F00ED00050490A1D
:1022F0000BE1FF0009D04FC45AF4025003E091EC07
:102300001EF002D00CEC1DF058C44FF40F01265102
:102310000F01271906E00401505103E1A4EC11F06C
:1023200008D094B006D00401505103E1ACB28EEC59
:1023300021F0E4CF04F0E4CF03F0E4CF02F0E4CFE7
:1023400001F0E4CF00F0120000C0E5FF01C0E5FF9E
:1023500002C0E5FF03C0E5FF04C0E5FFACA27ED0EC
:1023600093EC1FF0006E005005E10F01276B0F0189
:10237000266B74D027CF01F00050012693EC1FF09C
:10238000026E0050036E0304006E0250230A1FE128
:10239000010E005CD8A060D093EC1FF0026E690AB9
:1023A00003E1DDEC1DF058D00250720A03E18EEC1F
:1023B00021F052D00250730A01E04ED09480AB86D7
:1023C0009D8A9D98AE50AE50AB98AB8845D00250D8
:1023D000430A05E00250420A01E03ED006D000C0A8
:1023E00003F0046A038E0350006E00C052F40050E4
:1023F0000401006F010E0401536F0F0127510118F2
:1024000014E093EC1FF0026E04015227000E040149
:102410005325006E036A040E032200C0E9FF03C0C7
:10242000EAFF02C0EFFF532BE8D7000E040153254B
:10243000006E026A040E02220401521D036E032A7A
:1024400000C0E9FF02C0EAFF03C0EFFF0401532B05
:1024500053C450F404014A6B01C027FFE4CF04F0D9
:10246000E4CF03F0E4CF02F0E4CF01F0E4CF00F0DA
:102470001200D9CFE5FFE1CFD9FF00C0E5FF01C0D1
:10248000E5FF02C0E5FF03C0E5FF04C0E5FF06C0AD
:10249000E5FF020EDBCF00F0030EDBCF01F0040EF0
:1024A000DBCF02F03F0EC716C66AC56A0050C612DF
:1024B0000150C7129488820E006E0F0E016E0F0E2F
:1024C000046E380E0026045001220F0E046E800E9A
:1024D000005E0450015A820E036E0F0E046E0F0E42
:1024E000066E380E0326065004220F0E066E800E6E
:1024F000035E0650045A03C0E9FF04C0EAFFEFCFB1
:1025000003F0039800C0E9FF01C0EAFF03C0EFFF3A
:102510009486820E006E0F0E016E0F0E046E380E42
:102520000026045001220F0E046E800E005E04503F
:10253000015A820E036E0F0E046E0F0E066E380ED9
:102540000326065004220F0E066E800E035E065010
:10255000045A03C0E9FF04C0EAFFEFCF03F003967B
:1025600000C0E9FF01C0EAFF03C0EFFF02C0C8FFDF
:10257000C6CF00F0008A0050C66E9E96A196E4CFAA
:1025800006F0E4CF04F0E4CF03F0E4CF02F0E4CFB0
:1025900001F0E4CF00F0E4CFD9FF1200D9CFE5FF7E
:1025A000E1CFD9FF00C0E5FF01C0E5FF02C0E5FFB4
:1025B00003C0E5FF04C0E5FF05C0E5FF06C0E5FF79
:1025C00007C0E5FF020EDBCF00F0030EDBCF01F00A
:1025D0003DEC1EF0026EF3CF03F0F4CF04F0E9CF30
:1025E00005F0E56AE56A0150E56E0050E56EE56AC2
:1025F0000F0EE56E420EE56E400EE56E89EC0EF0B4
:10260000006EF3CF01F0F4CF06F0E9CF07F0080E2B
:10261000E126E56AE56A030EE56EE80EE56E075011
:10262000E56E0650E56E0150E56E0050E56E5FEC1C
:1026300013F0006EF3CF01F0F4CF06F0E9CF07F00E
:10264000080EE12600500224006E01500320016EA6
:1026500006500420026E07500520036E3DEC1EF06C
:10266000046EF3CF05F0F4CF06F0E9CF07F0005089
:10267000045E0150055A0250065A0350075A079E3D
:102680003F0E075C08E1FF0E065C05E1FF0E055CEE
:1026900002E1FF0E045CE2E2E4CF07F0E4CF06F0D3
:1026A000E4CF05F0E4CF04F0E4CF03F0E4CF02F090
:1026B000E4CF01F0E4CF00F0E4CFD9FF1200D9CF8E
:1026C000E5FFE1CFD9FF00C0E5FF01C0E5FF02C093
:1026D000E5FF03C0E5FF04C0E5FF05C0E5FF06C058
:1026E000E5FF07C0E5FF08C0E5FF09C0E5FF0AC038
:1026F000E5FF0BC0E5FF0CC0E5FF0DC0E5FF020ED6
:10270000DBCF00F0030EDBCF01F0040EDBCF02F0D5
:10271000050EDBCF03F0060EDBCF04F0070EDBCF98
:1027200005F0080EDBCF06F0090EDBCF07F0086AD4
:10273000096A0A6A0B6A200E0C6E0350800BE8448B
:102740000D6E00500026013602360336085008266A
:1027500009360A360B360D50D8A4088007500B5C9A
:1027600008E106500A5C05E10550095C02E10450ED
:10277000085C09E30450085E0550095A06500A5ADD
:1027800007500B5A00800C040D6E0DC00CF00D505C
:10279000D4E103C0E9FF02C0F4FF01C0F3FF005021
:1027A000E4CF0DF0E4CF0CF0E4CF0BF0E4CF0AF06F
:1027B000E4CF09F0E4CF08F0E4CF07F0E4CF06F06F
:1027C000E4CF05F0E4CF04F0E4CF03F0E4CF02F06F
:1027D000E4CF01F0E4CF00F0E4CFD9FF120000C055
:1027E000E5FF01C0E5FF03C0E5FF04C0E5FF05C04C
:1027F000E5FF06C0E5FF07C0E5FF08C0E5FF09C02B
:10280000E5FF0AC0E5FF0BC0E5FFFEC400F0FFC412
:1028100001F00401FE3F01D0FF2B0050E56E80EC7B
:1028200021F0E652076E046A056A066AFEC400F0EB
:10283000FFC401F00401FE3F01D0FF2B0050E56E04
:1028400080EC21F0E6520B6A0A6E086A0850041206
:1028500005120A5006120B500712FEC400F0FFC406
:1028600001F00401FE3F01D0FF2B0050E56E80EC2B
:1028700021F0E652036E006A03C001F0E86A03BE6D
:10288000FF0E086E096E0050041201500512085028
:10289000061209500712FEC400F0FFC401F0040143
:1028A000FE3F01D0FF2B0050E56E80EC21F0E65298
:1028B000016A0412015005120612071207C0E9FF4F
:1028C00006C0F4FF05C0F3FF0450E4CF0BF0E4CFE3
:1028D0000AF0E4CF09F0E4CF08F0E4CF07F0E4CF4A
:1028E00006F0E4CF05F0E4CF04F0E4CF03F0E4CF4A
:1028F00001F0E4CF00F01200D9CFE5FFE1CFD9FF1E
:1029000000C0E5FF01C0E5FF02C0E5FF03C0E5FF31
:1029100004C0E5FF05C0E5FF06C0E5FF07C0E5FF11
:10292000020EDBCF00F0030EDBCF01F0040EDBCF95
:1029300002F0050EDBCF03F003C004F0056A03507C
:10294000D8B454D000C0E9FF01C0F3FF025060ECDE
:1029500021F0066E430A08E1010E056E03C006F081
:10296000076A068E0650036E0406002A02E3014A37
:10297000022A9D9AAB9894909D989EA8FED7AC8011
:10298000AD6A00009EA8FED7AC9003C0ADFF00006A
:102990009EA8FED7055004E0420EAD6E032604D07B
:1029A000620EAD6E620E0326045015E000009EA874
:1029B000FED700C0E9FF01C0F3FF025060EC21F038
:1029C000056E05C0ADFF055003260406002A02E38C
:1029D000014A022AE9D700009EA8FED7031CAD6E6B
:1029E000AD2A00009EA8FED78EEC21F0E4CF07F0C0
:1029F000E4CF06F0E4CF05F0E4CF04F0E4CF03F039
:102A0000E4CF02F0E4CF01F0E4CF00F0E4CFD9FF4F
:102A10001200D9CFE5FFE1CFD9FF00C0E5FF01C02B
:102A2000E5FF02C0E5FF03C0E5FF04C0E5FF05C008
:102A3000E5FF06C0E5FF07C0E5FF020EDBCF00F0B3
:102A4000030EDBCF01F0040EDBCF02F0050EDBCF6F
:102A500003F002C006F00650046E800A33E100C0A5
:102A6000E9FF01C0F3FF02502BEC20F0056EF3CF1D
:102A700006F0F4CF07F003C0E5FF05C0E9FF06C08C
:102A8000F3FF0750DAEC21F000C0E9FF01C0F3FFCB
:102A900002502BEC20F0056EF3CF06F0F4CF07F0D8
:102AA000052A02E3064A072A05C0E5FF06C0F4FF2F
:102AB00007C0F6FF00C0E9FF01C0F3FF025071EC50
:102AC00021F020D004C000F000AA1CD0007A0050F1
:102AD000046E04E1035028EC22F014D00450010AE3
:102AE00004E103503BEC22F00DD004500F0A04E146
:102AF0000350ACEC1DF006D004500E0A03E1035065
:102B000038EC22F0E4CF07F0E4CF06F0E4CF05F094
:102B1000E4CF04F0E4CF03F0E4CF02F0E4CF01F01F
:102B2000E4CF00F0E4CFD9FF1200D9CFE5FFE1CF29
:102B3000D9FF00C0E5FF01C0E5FF02C0E5FF03C00B
:102B4000E5FF04C0E5FF05C0E5FF06C0E5FF07C0DF
:102B5000E5FF020EDBCF00F0030EDBCF01F0040E29
:102B6000DBCF02F0050EDBCF03F027CF28FF0F01EC
:102B700026510F01285F2851046E0404286F03C0FA
:102B800004F0056A030E0426D8B0052A28CF06F003
:102B9000076A0750800FF36E0550800FF35C02E167
:102BA0000450065C02E2E86830D0020E035C02E2E8
:102BB000E86A2BD00350046E0404036EE56EADEC9E
:102BC0001BF0E652046A0350045C14E20450002433
:102BD000056EE86A0120066EE86A022005C0E9FF7A
:102BE00006C0F3FF60EC21F0042AE56EADEC1BF0AB
:102BF000E652E9D727CF28FF0F0126510F01285FA2
:102C00002851006E0004286FE86AE4CF07F0E4CF93
:102C100006F0E4CF05F0E4CF04F0E4CF03F0E4CF16
:102C200002F0E4CF01F0E4CF00F0E4CFD9FF1200CE
:102C3000D9CFE5FFE1CFD9FF00C0E5FF01C0E5FF37
:102C400002C0E5FF03C0E5FF04C0E5FF05C0E5FFE6
:102C500006C0E5FF020EDBCF00F0030EDBCF01F074
:102C6000040EDBCF02F0050EDBCF03F0D88001AEFF
:102C7000D890046A0436045007E0011C066E001C5C
:102C8000056E054A062A04D000C005F001C006F012
:102C9000D88003AED89007E3031C016E021C006EBF
:102CA000004A012A04D002C000F003C001F0015024
:102CB000E56E0050E56E0650E56E0550E56E7BEC66
:102CC00018F0006EF3CF01F0040EE12604500AE084
:102CD000011C036E001C026E024A032A03C0F3FFAC
:102CE000025003D001C0F3FF0050E4CF06F0E4CF60
:102CF00005F0E4CF04F0E4CF03F0E4CF02F0E4CF3A
:102D000001F0E4CF00F0E4CFD9FF1200D9CFE5FF06
:102D1000E1CFD9FF00C0E5FF01C0E5FF02C0E5FF3C
:102D200003C0E5FF04C0E5FF05C0E5FF020EDBCFF1
:102D300000F0030EDBCF01F0040EDBCF02F0050E36
:102D4000DBCF03F0FEC404F0FFC405F00401FE3F36
:102D500001D0FF2B0350E56E0450E56E2EEC1FF002
:102D6000E652E652FEC404F0FFC405F00401FE3F43
:102D700001D0FF2B0250056EE56E0450E56E2EEC7F
:102D80001FF0E652E652FEC404F0FFC405F0040151
:102D9000FE3F01D0FF2B0150E56E0450E56E2EEC96
:102DA0001FF0E652E652FEC404F0FFC405F0040131
:102DB000FE3F01D0FF2B0050E56E0450E56E2EEC77
:102DC0001FF0E652E652E4CF05F0E4CF04F0E4CF82
:102DD00003F0E4CF02F0E4CF01F0E4CF00F0E4CF61
:102DE000D9FF1200D9CFE5FFE1CFD9FF00C0E5FF41
:102DF00001C0E5FF02C0E5FF03C0E5FF04C0E5FF39
:102E000005C0E5FF06C0E5FF020EDBCF00F0030EB4
:102E1000DBCF01F0040EDBCF02F00401375119E1E2
:102E2000EFEC13F0036EF3CF04F0F4CF05F0E9CF2D
:102E300006F003C0E5FF04C0F4FF05C0F6FF06C0BE
:102E4000F7FF00C0E9FF01C0F3FF02504FEC21F093
:102E50001ED004013751010A1AE100C0E9FF01C088
:102E6000F3FF025073EC1FF0006EF3CF01F0F4CFCC
:102E700002F0E9CF03F00350E56E0250E56E015019
:102E8000E56E0050E56E86EC16F0040EE126E4CF08
:102E900006F0E4CF05F0E4CF04F0E4CF03F0E4CF94
:102EA00002F0E4CF01F0E4CF00F0E4CFD9FF12004C
:102EB000D9CFE5FFE1CFD9FF00C0E5FF01C0E5FFB5
:102EC00002C0E5FF03C0E5FF04C0E5FF05C0E5FF64
:102ED00006C0E5FF020EDBCF00F0030EDBCF01F0F2
:102EE000040EDBCF02F0050EDBCF03F0060EDBCFC6
:102EF00004F0070EDBCF05F0080EDBCF06F0D8801C
:102F000003AED89015E306500A0A12E104C0E9FFA7
:102F100005C0EAFF2D0EEF6E044A052A031E021EAD
:102F2000011E006C05E1012A03E1022AD8B4032A3C
:102F30000650E56E0550E56E0450E56E0350E56EF3
:102F40000250E56E0150E56E0050E56E93EC0FF017
:102F5000070EE126E4CF06F0E4CF05F0E4CF04F05D
:102F6000E4CF03F0E4CF02F0E4CF01F0E4CF00F0CF
:102F7000E4CFD9FF120000C0E5FF01C0E5FF02C0A9
:102F8000E5FF03C0E5FF0CEC11F00F0123510AE04F
:102F9000800EE56E040EE56E930EE56E0EEC04F009
:102FA000030EE1263DEC1EF0006EF3CF01F0F4CFEE
:102FB00002F0E9CF03F004018151005E8251015A11
:102FC0008351025A8451035A039E3F0E035C08E169
:102FD000FF0E025C05E1FF0E015C02E1FF0E005CEA
:102FE00023E23DEC1EF0F3CF01F0F4CF02F0E9CF85
:102FF00003F0100F0401816F270E0120826F000E75
:103000000220836F000E0320846F0F0123510CE018
:10301000010EE56E800EE56E040EE56E930EE56E14
:1030200001EC07F0040EE126E4CF03F0E4CF02F058
:10303000E4CF01F0E4CF00F01200D8CFE5FFE0CFFD
:10304000E5FFE56EF3CFE5FFF4CFE5FFE9CFE5FF60
:10305000EACFE5FFFACFE5FFFBCFE5FFF6CFE5FFCF
:10306000F6CFE5FFF7CFE5FFF8CFE5FFF5CFE5FFBA
:10307000E1CFE5FFE2CFE5FF0F0124510401876FA7
:103080000F0125510401886FD650856FD750866F88
:10309000F2A411D00F01243F01D0252BF2940F018F
:1030A00024510401876F0F0125510401886FD65008
:1030B000856FD750866FE4CFE2FFE4CFE1FFE4CF26
:1030C000F5FFE4CFF8FFE4CFF7FFE4CFF6FFE4CF5E
:1030D000F6FFE4CFFBFFE4CFFAFFE4CFEAFFE4CF53
:1030E000E9FFE4CFF4FFE4CFF3FFE450E4CFE0FFE7
:1030F000E4CFD8FF1000D9CFE5FFE1CFD9FF00C062
:10310000E5FF01C0E5FF02C0E5FF03C0E5FF04C025
:10311000E5FF05C0E5FF06C0E5FF020EDBCF00F0CE
:10312000030EDBCF01F0040EDBCF02F0050EDBCF88
:1031300003F0046A056A0350800BE844066E0650EB
:1031400011E10250022603360350015C02E10250F5
:10315000005C04E2D8900332023204D0052A05C094
:1031600004F0E9D70350015C02E10250005C04E383
:103170000250005E0350015AD8900332023204C05C
:1031800005F004060550EEE101C0F3FF0050E4CF66
:1031900006F0E4CF05F0E4CF04F0E4CF03F0E4CF91
:1031A00002F0E4CF01F0E4CF00F0E4CFD9FF120049
:1031B000D9CFE5FFE1CFD9FF00C0E5FF01C0E5FFB2
:1031C00002C0E5FF03C0E5FF020EDBCF00F0030EF7
:1031D000DBCF01F0040EDBCF02F000C0E9FF01C03D
:1031E000F3FF025060EC21F0036E035029E0C6A605
:1031F00010D00350E56EB2EC1FF0036EE6520350A0
:1032000002E0FD0E1ED09AEC1CF0C5AC14D0FE0EF0
:1032100018D09E9600C0E9FF01C0F3FF025060EC99
:1032200021F0C96EC6889EA6FED7C7B404D0C7B029
:1032300002D0FE0E06D0002AD0E3014A022ACDD7E2
:10324000E86AE4CF03F0E4CF02F0E4CF01F0E4CF8A
:1032500000F0E4CFD9FF1200D9CFE5FFE1CFD9FFCD
:1032600000C0E5FF01C0E5FF02C0E5FF03C0E5FFC8
:1032700004C0E5FF05C0E5FF020EDBCF00F0030E42
:10328000DBCF01F0040EDBCF02F0050EDBCF03F045
:10329000046A03C005F00306055022E0E1EC1EF0CD
:1032A000056E05C0E5FF00C0E9FF01C0F3FF025055
:1032B000DAEC21F0002A02E3014A022A04C005F0F8
:1032C000C5A6E7D7A1A602D0E8680BD0052A05C09D
:1032D00004F00350F5E052EC1FF0C5B8FED7F0D76C
:1032E0000450E4CF05F0E4CF04F0E4CF03F0E4CFE2
:1032F00002F0E4CF01F0E4CF00F0E4CFD9FF1200F8
:1033000000C0E5FF01C0E5FF02C0E5FF03C0E5FF27
:103310004FC400F0016A5AC402F0036A0250005E12
:103320000350015AE56A800EE56E0150E56E0050CB
:10333000E56E18EC16F0006E040EE12600065AC485
:1033400001F0430EACEC1DF0200EACEC1DF0005073
:1033500020E0600E0124026E036A000E032202C008
:10336000E9FF03C0EAFFEFCF02F0E56A0250E56E25
:10337000000EE56E430EE56E340EE56EF1EC1AF0CC
:10338000050EE126012A0150800A01E1016A0006CA
:10339000DED7E4CF03F0E4CF02F0E4CF01F0E4CFD6
:1033A00000F01200D9CFE5FFE1CFD9FF00C0E5FF63
:1033B00001C0E5FF02C0E5FF03C0E5FF04C0E5FF73
:1033C000020EDBCF00F0030EDBCF01F0040EDBCFEB
:1033D00002F00401375111E178EC1DF0036EF3CFD8
:1033E00004F003C0E5FF04C0F4FF00C0E9FF01C022
:1033F000F3FF0250B7EC21F016D004013751010A57
:1034000012E100C0E9FF01C0F3FF0250EAEC20F036
:10341000006EF3CF01F00150E56E0050E56E70ECE8
:103420001BF0E652E652E4CF04F0E4CF03F0E4CF21
:1034300002F0E4CF01F0E4CF00F0E4CFD9FF1200B6
:10344000180EF66E440EF76E000EF86E0900F55079
:10345000056E0900F550066E04E1056702D06DEFB8
:103460001AF00900F550006E0900F550016E0900D0
:10347000F550026E09000900F550E96E0900F5509B
:10348000EA6E090009000900F550036E0900F550C5
:10349000046E09000900F6CF07F0F7CF08F0F8CF67
:1034A00009F000C0F6FF01C0F7FF02C0F8FF0350AB
:1034B00002E1045007E00900F550EE6E0306F8E261
:1034C0000406F9D707C0F6FF08C0F7FF09C0F8FFE8
:1034D000050601E206062CEF1AF0120000C0E5FF17
:1034E00001C0E5FF02C0E5FF67EC1EF0006E67EC6F
:1034F0001EF0016E0050026ED00E0224006E0A0E05
:10350000005C05E30050026EF90E0224006E0150CB
:10351000026ED00E0224016E0A0E015C05E301501A
:10352000026EF90E0224016E080E005C12E2100E0B
:10353000015CD8B00ED00038F00B0124006E60ECB6
:103540001CF0016E015005E10050E56E60EC20F0CA
:10355000E652E4CF02F0E4CF01F0E4CF00F0120035
:10356000D8CFE5FFE0CFE5FFE56EF3CFE5FFF4CF81
:10357000E5FFE9CFE5FFEACFE5FFFACFE5FFFBCFB7
:10358000E5FFF6CFE5FFF6CFE5FFF7CFE5FFF8CF94
:10359000E5FFF5CFE5FFE1CFE5FFE2CFE5FF68EC22
:1035A0000DF0E4CFE2FFE4CFE1FFE4CFF5FFE4CF9D
:1035B000F8FFE4CFF7FFE4CFF6FFE4CFF6FFE4CF68
:1035C000FBFFE4CFFAFFE4CFEAFFE4CFE9FFE4CF6B
:1035D000F4FFE4CFF3FFE450E4CFE0FFE4CFD8FF03
:1035E0001000D9CFE5FFE1CFD9FF00C0E5FF01C052
:1035F000E5FF02C0E5FF020ED924006E000EDA20BE
:10360000016E800E026E030E0026000E01220222C1
:103610000250E56E0150E56E0050E56E040EDBCF02
:10362000E5FF030EDBCFE5FF020EDBCFE5FF040174
:103630003B51E56E3A51E56E3951E56E0EEC00F006
:10364000006EF3CF01F0090EE12601C0F3FF005038
:10365000E4CF02F0E4CF01F0E4CF00F0E4CFD9FFF3
:103660001200D9CFE5FFE1CFD9FF00C0E5FF01C0CF
:10367000E5FF02C0E5FF03C0E5FF020EDBCF00F06F
:10368000030EDBCF01F0040EDBCF02F00401375153
:103690000DE1BEEC20F0036E03C0E5FF00C0E9FFC2
:1036A00001C0F3FF0250DAEC21F00FD004013751D2
:1036B000010A0BE100C0E9FF01C0F3FF025060EC1A
:1036C00021F0E56E08EC1FF0E652E4CF03F0E4CF02
:1036D00002F0E4CF01F0E4CF00F0E4CFD9FF120014
:1036E000D9CFE5FFE1CFD9FF00C0E5FF01C0E5FF7D
:1036F00002C0E5FF03C0E5FF020EDBCF00F0030EC2
:10370000DBCF01F0FEC402F0FFC403F00401FE3F72
:1037100001D0FF2B0150E56E0250E56E2EEC1FF03C
:10372000E652E652FEC402F0FFC403F00401FE3F7D
:1037300001D0FF2B0050E56E0250E56E2EEC1FF01D
:10374000E652E652E4CF03F0E4CF02F0E4CF01F01A
:10375000E4CF00F0E4CFD9FF1200D9CFE5FFE1CFED
:10376000D9FF00C0E5FF01C0E5FF02C0E5FF03C0CF
:10377000E5FF04C0E5FF020EDBCF00F026CF01F02D
:10378000026A014A022A27CF03F0046A0150031893
:1037900003E10250041801E001D00ED0000E0F0129
:1037A0002625016E026A010E022201C0E9FF02C055
:1037B000EAFF00C0EFFF262BE4CF04F0E4CF03F0D4
:1037C000E4CF02F0E4CF01F0E4CF00F0E4CFD9FF82
:1037D0001200D9CFE5FFE1CFD9FF00C0E5FF01C05E
:1037E000E5FF02C0E5FF03C0E5FF04C0E5FF020EF0
:1037F000DBCF00F0030EDBCF01F0040EDBCF02F0D5
:10380000050EDBCF03F0060EDBCF04F000C0E9FFAE
:1038100001C0F3FF025060EC21F0006E0450E56E31
:103820000350E56E0050E56E0EEC1EF0030EE1262F
:10383000E4CF04F0E4CF03F0E4CF02F0E4CF01F0F2
:10384000E4CF00F0E4CFD9FF1200D9CFE5FFE1CFFC
:10385000D9FF00C0E5FF01C0E5FF02C0E5FF03C0DE
:10386000E5FF020EDBCF00F0016A5AC402F0036AE2
:103870000250002603500122E56A800EE56E0150D9
:10388000E56E0050E56E18EC16F0006EF3CF01F017
:10389000040EE126600E0026000E012200C0E9FFA2
:1038A00001C0EAFFEFCF00F00050E4CF03F0E4CF17
:1038B00002F0E4CF01F0E4CF00F0E4CFD9FF120032
:1038C00000C0E5FF01C0E5FF02C0E5FF010E006E8C
:1038D00067EC1EF0016E01C002F0015023E00050C1
:1038E000E56E80EC21F0016EE652015010E10A0E07
:1038F000005C0BE20A0E006EE56E80EC21F0016EBA
:10390000E652015004E1E8680ED0E8680CD001509E
:10391000021802E0E86807D0002A1B0E005CD8E31A
:10392000E86801D0E86AE4CF02F0E4CF01F0E4CF28
:1039300000F0120000C0E5FF01C0E5FF02C0E5FF96
:1039400003C0E5FF04C0E5FF05C0E5FFE80E006E1B
:10395000030E016EFF0E002601220050011010E040
:10396000C5CF02F0036A1F0E0216046AC7B4042A08
:10397000056A045002120550031202500310EAE1D6
:103980000F012E6B005003E1015001E12E2BE4CF1B
:1039900005F0E4CF04F0E4CF03F0E4CF02F0E4CF8D
:1039A00001F0E4CF00F0120001C0E5FF02C0E5FF26
:1039B00003C0E5FF1FEC22F094928B923DEC1EF0C9
:1039C000F3CF01F0F4CF02F0E9CF03F0880F040148
:1039D000816F130E0120826F000E0220836F000E94
:1039E0000320846F270EE56EE56A080EE56E39EC5C
:1039F00012F0030EE126800EE56E040EE56E930EC6
:103A0000E56EBAEC09F0030EE126E4CF03F0E4CF53
:103A100002F0E4CF01F0120000C0E5FF01C0E5FFB5
:103A200002C0E5FF04C0E5FF67EC1EF0006E640A0B
:103A300013E167EC1EF0016A026E67EC1EF0046A87
:103A40000126045002220250E56E0150E56EAAECF8
:103A500021F0E652E6520DD00050650A0AE1800ED0
:103A6000E56E040EE56E930EE56EE1EC0BF0030ED1
:103A7000E126E4CF04F0E4CF02F0E4CF01F0E4CF9C
:103A800000F01200D9CFE5FFE1CFD9FF00C0E5FF7C
:103A900001C0E5FF02C0E5FF020EDBCF00F0030E20
:103AA000DBCF01F0D1EC1FF00F012E5102E0E868EE
:103AB00016D00044FE0B026E0150D880E866D89004
:103AC000016A01360150D880E866D890016A013653
:103AD000015002120250E56EB2EC1FF0E652E4CF44
:103AE00002F0E4CF01F0E4CF00F0E4CFD9FF120000
:103AF00000C0E5FF01C0E5FF02C0E5FF03C0E5FF30
:103B0000FEC400F0FFC401F00401FE3F01D0FF2B12
:103B10000050E56E80EC21F0E652036E026AFEC4AE
:103B200000F0FFC401F00401FE3F01D0FF2B005064
:103B3000E56E80EC21F0E652016A02120150031298
:103B400003C0F3FF0250E4CF03F0E4CF02F0E4CF70
:103B500001F0E4CF00F0120000C0E5FF01C0E5FF76
:103B600002C0E5FF006E000E0F012B25016E026AF8
:103B70000F0E022201C0E9FF02C0EAFF00C0EFFF02
:103B8000220E2B5D01E22B2B00500A0A0FE10F01E0
:103B90002B51E56E800EE56E0F0EE56E000EE56EA4
:103BA00095EC15F0040EE1260F012B6BE4CF02F02B
:103BB000E4CF01F0E4CF00F012000F01266B0F01FB
:103BC000276B0F01286994808B909480B06A3F0E18
:103BD000AF6EB886AC8AAC84AC8CAC90AB8CAB8E40
:103BE0000401516B04014B6B04014E6B04014F6BDC
:103BF0000401506B000EE56A80EC21F00F012A6F82
:103C0000E6529F989F9A010E0F01296F0401396BAC
:103C10003A6B2F0E3B6F8EEC21F01200D9CFE5FFEF
:103C2000E1CFD9FF00C0E5FF01C0E5FF02C0E5FF1D
:103C3000020EDBCF00F0030EDBCF01F0040EDBCF72
:103C400002F0E56A0050E56E42EC1DF0E652E652E5
:103C50000150E56EB2EC1FF0E6520250E56EB2EC98
:103C60001FF0E65224EC22F0E4CF02F0E4CF01F0A2
:103C7000E4CF00F0E4CFD9FF12000F01245104017A
:103C80008C6F0F01255104018D6FD6508A6FD7506C
:103C90008B6F8C510F01241905E104018D510F0127
:103CA00025190CE00F01245104018C6F0F012551DF
:103CB00004018D6FD6508A6FD7508B6F8DC4E9FF8A
:103CC0008CC4F4FF8BC4F3FF04018A51120000C0BE
:103CD000E5FF01C0E5FF04014F510401581905E05B
:103CE00004014F5104014E1902E1E86A15D04FC496
:103CF00000F004014F2B016A600E0026000E012225
:103D000000C0E9FF01C0EAFFEFCF00F04F51800A89
:103D100002E104014F6B0050E4CF01F0E4CF00F06A
:103D2000120000C0E5FF67EC1EF0006E4C0A08E1CF
:103D300067EC1EF0300A02E08B8219D08B9217D00C
:103D40000050520A14E167EC1EF0300A03E10F0143
:103D5000236B0DD0800EE56E040EE56E930EE56EBE
:103D6000BAEC09F0030EE126010E0F01236FE4CF38
:103D700000F0120000C0E5FF2CEC22F00401896B7A
:103D8000806B8983006A89B3002A0050010BE844E4
:103D9000F46E8051FD0BF410806FD58ED59CD59AB2
:103DA000D588D596D594D582D580F28AF184D08EE7
:103DB000F28EF28CBA80FF0EBB68BA84E4CF00F0BA
:103DC000120000C0E5FF01C0E5FF02C0E5FF9AEC6C
:103DD0001CF0C586E80E006E030E016EFF0E002675
:103DE00001220050011005E019EC22F0026E025091
:103DF000F5E00F012E6B005003E1015001E12E2B85
:103E0000C950E4CF02F0E4CF01F0E4CF00F012009B
:103E1000D9CFE5FFE1CFD9FF00C0E5FF01C0E5FF45
:103E200002C0E5FF020EDBCF00F0FEC401F0FFC4CC
:103E300002F00401FE3F01D0FF2B0050E56E01505F
:103E4000E56E2EEC1FF0E652E652E4CF02F0E4CF2E
:103E500001F0E4CF00F0E4CFD9FF1200D9CFE5FFA5
:103E6000E1CFD9FF00C0E5FF020EDBCF00F0030E6B
:103E7000DBCFA8FF00C0A9FFA69EA69CA684F29E49
:103E8000F29C550EA76EAA0EA76EA682A6A202D01D
:103E90000000FCD7A694F28EF28CE4CF00F0E4CFC1
:103EA000D9FF120000C0E5FF01C0E5FF9AEC1CF04D
:103EB0009E96C59AC588E80E006E030E016EFF0E31
:103EC000002601220050011002E09EA6F8D70F0143
:103ED0002E6B005003E1015001E12E2BE4CF01F0E5
:103EE000E4CF00F01200E8AE0AD0F3CFEAFFEE50C4
:103EF000EECFF3FFEECFF4FFEECFE9FF1200E8BC08
:103F000041EF22F0E9CFF6FFF3CFF7FFF86E09009B
:103F1000F5500900F5CFF3FF0900F5CFF4FF0900D4
:103F2000F5CFE9FF120000C0E5FF01C0E5FF0F017A
:103F300026510F01271902E1E86A0FD0000E0F0188
:103F40002725006E016A010E012200C0E9FF01C0B1
:103F5000EAFFEFCF00F0272B0050E4CF01F0E4CFD1
:103F600000F01200D9CFE5FFE1CFD9FF00C0E5FF97
:103F7000020EDBCF00F0C69E00C0C9FFC6AE02D065
:103F8000E8680AD09AEC1CF0C5BC03D00F012E5192
:103F900002E0E86801D0E86AE4CF00F0E4CFD9FF9E
:103FA000120000C0E5FF01C0E5FF9AEC1CF0C580DF
:103FB000E80E006E030E016EFF0E00260122005077
:103FC000011002E0C5B0F8D70F012E6B005003E1DD
:103FD000015001E12E2BE4CF01F0E4CF00F01200FC
:103FE000F2CFEAFFF29EA69EA69CA684E9CFA9FF87
:103FF000F3CFAAFFE4CFA8FFE5EC21F0F4CFA8FFB0
:10400000E5EC21F0F6CFA8FFE5EC21F0F7CFA8FF13
:10401000E5EC21F0A694EABEF28E1200F2CFF6FF94
:10402000F29EA69EA69CE9CFA9FFF3CFAAFFA68089
:10403000A850A94AAA2AA680A8CFF3FFA94AAA2A6B
:10404000A680A8CFF4FFA94AAA2AA680A8CFEAFF93
:10405000F6BEF28E1200E8AE08D0F3CFEAFFEE50C3
:10406000EECFF3FFEECFF4FF1200E8BC49EF22F0F1
:10407000E9CFF6FFF3CFF7FFF86E0900F55009001E
:10408000F5CFF3FF0900F5CFF4FF1200F2CFEAFFFE
:10409000F29EA69EA69CA684E9CFA9FFF3CFAAFF15
:1040A000E4CFA8FFE5EC21F0F4CFA8FFE5EC21F088
:1040B000F6CFA8FFE5EC21F0A694EABEF28E12003E
:1040C000D9CFE5FFE1CFD9FF00C0E5FF020EDBCF7E
:1040D00000F000C02AFF0050E56E000EE56A2EECED
:1040E0001FF0E652E652E4CF00F0E4CFD9FF120011
:1040F000F2CFF6FFF29EA69EA69CE9CFA9FFF3CFD2
:10410000AAFFA680A850A94AAA2AA680A8CFF3FF92
:10411000A94AAA2AA680A8CFF4FFF6BEF28E120002
:1041200000C0E5FF01C0E5FF600E04014F25006EF1
:10413000016A000E012200C0E9FF01C0EAFFEFCFD3
:1041400000F00050E4CF01F0E4CF00F01200D9CF2E
:10415000E5FFE1CFD9FF00C0E5FF020EDBCF00F0A5
:10416000610E005C05E37B0E005C02E2010E01D0F3
:10417000E86AE4CF00F0E4CFD9FF120000C0E5FF09
:1041800001C0E5FFFEC400F0FFC401F00401FE3FE2
:1041900001D0FF2B0050E56E80EC21F0E652E4CF19
:1041A00001F0E4CF00F01200D9CFE5FFE1CFD9FF55
:1041B00000C0E5FF020EDBCF00F000C029FF005079
:1041C00004E18EEC21F09D9A9D98E4CF00F0E4CFBD
:1041D000D9FF1200E8AE06D0F3CFEAFFEE50EECFE3
:1041E000F3FF1200E8BC3FEF22F0E9CFF6FFF3CF78
:1041F000F7FFF86E0900F5500900F5CFF3FF120044
:10420000F2CFEAFFF29EA69EA69CA684E9CFA9FF64
:10421000F3CFAAFFE4CFA8FFE5EC21F0F4CFA8FF8D
:10422000E5EC21F0A694EABEF28E120012EEFFF049
:1042300022EEFFF0F86AA68EA69CE9680E0EEA6EE2
:104240000068000EED6A0050FDE120EC1AF006EC6B
:1042500000F0FFD7F2CFF6FFF29EA69EA69CE9CF14
:10426000A9FFF3CFAAFFA680A850A94AAA2AA68030
:10427000A8CFF3FFF6BEF28E1200F2CFEAFFF29E55
:10428000A69EA69CA684E9CFA9FFF3CFAAFFE4CF00
:10429000A8FFE5EC21F0A694EABEF28E1200E8AE8B
:1042A0000BD0F3CFEAFFE4CFEEFFF4CFEEFFF6CF73
:1042B000EEFFF7CFEEFF1200E8BC43EF22F0120052
:1042C000E8AE04D0F3CFEAFFEE501200E8BC3DEFB9
:1042D00022F0E9CFF6FFF3CFF7FFF86E0900F550B3
:1042E0001200E8AE09D0F3CFEAFFE4CFEEFFF4CF3F
:1042F000EEFFF6CFEEFF1200E8BC4BEF22F012000B
:10430000D9CFE5FFE1CFD9FF020EDBCFA9FFA69CF5
:10431000A69EA680A850E4CFD9FF1200ACA2FED77B
:104320009480AE500000AE50AB98AB88AB869D8AAF
:104330009D98120025642000F2CFF6FFF29EA69E03
:10434000A69CE9CFA9FFF3CFAAFFA680A850F6BE8E
:10435000F28E1200D9CFE5FFE1CFD9FF020EDBCFFD
:104360002CFF030EDBCF2DFFE4CFD9FF1200E8AE08
:1043700007D0F3CFEAFFE4CFEEFFF4CFEEFF120059
:10438000E8BC47EF22F01200700ED36E9B8CFF0E3C
:104390009268936894689668626AF19E120000C001
:1043A000E5FF60EC1CF0006E005001E1FF00E4CF7F
:1043B00000F01200E8AE05D0F3CFEAFFE4CFEEFF45
:1043C0001200E8BC45EF22F01200550EA76EAA0EAF
:1043D000A76EA682A6B2FED7A94AAA2A010E040198
:1043E000376F1C0E0401FE6FFF6B12009AEC1CF07D
:1043F0009E96C58AC5889EA6FED7120000000000C2
:1044000000FF00000096000000000401376B1C0E46
:104410000401FE6FFF6B12000100FC430000230F3C
:1044200000000D0000009AEC1CF0C582C5B2FED75A
:104430001200C7A002D0010E01D0E86A1200BAEC47
:104440001EF0DDEC1DF012009AEC1CF0C584120089
:10445000ACA2FED7AD6E1200C4EC21F01200040134
:104460004F5112000401595112000F01295112003D
:10447000E8CF7FFF1200C96E12009CEF21F02AEFF7
:1044800021F00EEF20F0F0EF1FF03DEF21F000EFF4
:0A44900021F078EF20F046EF20F055
:020000040030CA
:010006008574
:00000001FF
